:020000023000CC
:1000000000400420210203009D020300A10203001E
:100010009902030099020300990203000000000006
:10002000000000000000000000000000A502030026
:100030009902030000000000A9020300AD020300C2
:10004000B1020300B5020300B9020300BD020300C0
:10005000C1020300C5020300C9020300CD02030070
:10006000D1020300D5020300D9020300DD02030020
:10007000D1290300E5020300E9020300ED020300B9
:10008000F1020300F5020300F9020300FD02030080
:100090000103030005030300090303000D0303002C
:1000A0001103030015030300190303001D030300DC
:1000B0002103030025030300290303002D0303008C
:1000C0003103030035030300390303003D0303003C
:1000D0004103030045030300490303004D030300EC
:1000E0005103030055030300590303005D0303009C
:1000F0006103030065030300690303006D0303004C
:100100007103030075030300790303007D030300FB
:100110008103030085030300890303008D030300AB
:100120009103030095030300990303009D0303005B
:1001400010B5054C237833B9044B13B1044800E0D3
:1001500000BF0123237010BDB02202200000000068
:10016000645403000C4B43B10C480D4910B500E03A
:1001700000BF0C48036823B910BD0A48036833B9AF
:100180007047094B002BF7D0BDE810401847064BCD
:10019000002BF5D0184700BF000000006454030096
:1001A000B4220220A822022000000000154B002BE0
:1001B00008BF134B9D46A3F5803A00218B460F469E
:1001C0001348144A121A04F07FF90F4B002B00D089
:1001D00098470E4B002B00D09847002000210400C8
:1001E0000D000D48002802D00C4801F0DBFF04F0A0
:1001F0001DF92000290002F02DF801F0D0FF00BF0A
:100200000000080000400420000000004522030018
:10021000B022022070650220A5210300000000002A
:10022000124880471249134A134B9A42BEBF51F8F5
:10023000040B42F8040BF8E71049114A00209142E0
:10024000BCBF41F8040BFAE700200E490E4A914268
:10025000BCBF41F8040BFAE70C490D4A9142BCBF00
:1002600041F8040BFAE762B60A4880471D230300F1
:10027000D454030000220220B0220220B022022027
:1002800070650220706502200030042000300420D8
:1002900000400420AD010300FFF7FEBF40480047C7
:1002A0004048004740480047404800474048004712
:1002B0004048004740480047404800474048004702
:1002C00040480047404800474048004740480047F2
:1002D00040480047404800474048004740480047E2
:1002E00040480047404800474048004740480047D2
:1002F00040480047404800474048004740480047C2
:1003000040480047404800474048004740480047B1
:1003100040480047404800474048004740480047A1
:100320004048004740480047404800474048004791
:100330004048004740480047404800474048004781
:100340004048004740480047404800474048004771
:100350004048004740480047404800474048004761
:100360004048004740480047404800474048004751
:100370004048004740480047404800474048004741
:100380004048004740480047404800474048004731
:100390004048004740480047404800474048004721
:1003A0009D020300A1020300A5020300A9020300AD
:1003B000AD02030099020300ED2503006D27030041
:1003C0008927030025280300512803007D28030006
:1003D000A92803005D2B030099020300FD240300FC
:1003E00003250300990203000F250300AD26030037
:1003F000C5260300DD260300F52603000D270300B4
:10040000252703003D270300552703009902030019
:100410009902030099020300990203009902030064
:100420009902030099020300990203009902030054
:1004300099020300D5280300012903002D29030098
:10044000592903000925030015250300A5270300EA
:10045000990203009902030099020300E1290300B5
:100460009902030099020300990203009902030014
:10047000990203009902030099020300CD270300AB
:10048000F92703009902030099020300990203006F
:10049000990203009902030099020300F925030061
:1004A0009902030010F8012B11F8013B012A28BF23
:1004B0009A42F7D0D01A7047D0400B1CD1409C46CE
:1004C000203AD34018435242634693401843704742
:1004D00081F0004102E000BF83F0004330B54FEAF5
:1004E00041044FEA430594EA050F08BF90EA020F62
:1004F0001FBF54EA000C55EA020C7FEA645C7FEAF5
:10050000655C00F0E2804FEA5454D4EB5555B8BF17
:100510006D420CDD2C4480EA020281EA030382EA88
:10052000000083EA010180EA020281EA0303362D1A
:1005300088BF30BD11F0004F4FEA01314FF4801CED
:100540004CEA113102D0404261EB410113F0004FFF
:100550004FEA03334CEA133302D0524263EB4303B6
:1005600094EA050F00F0A780A4F10104D5F1200E54
:100570000DDB02FA0EFC22FA05F2801841F10001AF
:1005800003FA0EF2801843FA05F359410EE0A5F183
:1005900020050EF1200E012A03FA0EFC28BF4CF0B4
:1005A000020C43FA05F3C01851EBE37101F000456A
:1005B00007D54FF0000EDCF1000C7EEB00006EEB77
:1005C0000101B1F5801F1BD3B1F5001F0CD3490801
:1005D0005FEA30004FEA3C0C04F101044FEA445258
:1005E00012F5800F80F09A80BCF1004F08BF5FEADF
:1005F000500C50F1000041EB045141EA050130BDBF
:100600005FEA4C0C404141EB010111F4801FA4F161
:100610000104E9D191F0000F04BF01460020B1FAB6
:1006200081F308BF2033A3F10B03B3F120020CDAEE
:100630000C3208DD02F1140CC2F10C0201FA0CF0CC
:1006400021FA02F10CE002F11402D8BFC2F1200C31
:1006500001FA02F120FA0CFCDCBF41EA0C019040E7
:10066000E41AA2BF01EB0451294330BD6FEA040430
:100670001F3C1CDA0C340EDC04F11404C4F120021B
:1006800020FA04F001FA02F340EA030021FA04F32D
:1006900045EA030130BDC4F10C04C4F1200220FA84
:1006A00002F001FA04F340EA0300294630BD21FAC2
:1006B00004F0294630BD94F0000F83F4801306BF88
:1006C00081F480110134013D4EE77FEA645C18BF7C
:1006D0007FEA655C29D094EA050F08BF90EA020F13
:1006E00005D054EA000C04BF1946104630BD91EA0B
:1006F000030F1EBF0021002030BD5FEA545C05D10E
:100700004000494128BF41F0004130BD14F580044C
:100710003CBF01F5801130BD01F0004545F0FE41C0
:1007200041F470014FF0000030BD7FEA645C1ABFF5
:10073000194610467FEA655C1CBF0B46024650EA2C
:10074000013406BF52EA033591EA030F41F4002158
:1007500030BD00BF90F0000F04BF0021704730B5DE
:100760004FF4806404F132044FF000054FF00001B3
:1007700050E700BF90F0000F04BF0021704730B574
:100780004FF4806404F1320410F0004548BF404249
:100790004FF000013EE700BF42004FEAE2014FEA9E
:1007A00031014FEA02701FBF12F07F4393F07F4F79
:1007B00081F06051704792F0000F14BF93F07F4FAB
:1007C000704730B54FF4607401F0004521F00041EE
:1007D00020E700BF50EA010208BF704730B54FF074
:1007E00000050AE050EA010208BF704730B511F079
:1007F000004502D5404261EB41014FF4806404F1B1
:1008000032045FEA915C3FF4DCAE4FF003025FEA32
:10081000DC0C18BF03325FEADC0C18BF033202EBBA
:10082000DC02C2F1200300FA03FC20FA02F001FA14
:1008300003FE40EA0E0021FA02F11444C1E600BFB3
:1008400070B54FF0FF0C4CF4E06C1CEA11541DBF66
:100850001CEA135594EA0C0F95EA0C0F00F0DEF831
:100860002C4481EA030621EA4C5123EA4C5350EA16
:10087000013518BF52EA033541F4801143F4801367
:1008800038D0A0FB02CE4FF00005E1FB02E506F0F8
:100890000042E0FB03E54FF00006E1FB03569CF04D
:1008A000000F18BF4EF0010EA4F1FF04B6F5007F53
:1008B00064F5407404D25FEA4E0E6D4146EB0606C5
:1008C00042EAC62141EA55514FEAC52040EA5E504E
:1008D0004FEACE2EB4F1FD0C88BFBCF5E06F1ED8F8
:1008E000BEF1004F08BF5FEA500E50F1000041EB2F
:1008F000045170BD06F0004646EA010140EA0200DC
:1009000081EA0301B4EB5C04C2BFD4EB0C0541EAFD
:10091000045170BD41F480114FF0000E013C00F312
:10092000AB8014F1360FDEBF002001F0004170BD36
:10093000C4F10004203C35DA0C341BDC04F114044F
:10094000C4F1200500FA05F320FA04F001FA05F2DB
:1009500040EA020001F0004221F0004110EBD370A8
:1009600021FA04F642EB06015EEA430E08BF20EAD4
:10097000D37070BDC4F10C04C4F1200500FA04F377
:1009800020FA05F001FA04F240EA020001F0004109
:1009900010EBD37041F100015EEA430E08BF20EA7C
:1009A000D37070BDC4F1200500FA05F24EEA020EC4
:1009B00020FA04F301FA05F243EA020321FA04F0F3
:1009C00001F0004121FA04F220EA020000EBD370AA
:1009D0005EEA430E08BF20EAD37070BD94F0000FAA
:1009E0000FD101F00046400041EB010111F4801FDE
:1009F00008BF013CF7D041EA060195F0000F18BF8F
:100A0000704703F00046520043EB030313F4801FCA
:100A100008BF013DF7D043EA0603704794EA0C0F84
:100A20000CEA135518BF95EA0C0F0CD050EA41069A
:100A300018BF52EA4306D1D181EA030101F0004117
:100A40004FF0000070BD50EA410606BF104619463F
:100A500052EA430619D094EA0C0F02D150EA01364B
:100A600013D195EA0C0F05D152EA03361CBF10468C
:100A700019460AD181EA030101F0004141F0FE412B
:100A800041F470014FF0000070BD41F0FE4141F4AF
:100A9000780170BD70B54FF0FF0C4CF4E06C1CEAAF
:100AA00011541DBF1CEA135594EA0C0F95EA0C0F64
:100AB00000F0A7F8A4EB050481EA030E52EA03351F
:100AC0004FEA013100F088804FEA03334FF0805540
:100AD00045EA131343EA12634FEA022245EA11156D
:100AE00045EA10654FEA00260EF000419D4208BF1E
:100AF000964244F1FD0404F5407402D25B084FEACB
:100B00003202B61A65EB03055B084FEA32024FF476
:100B100080104FF4002CB6EB020E75EB030E22BFD3
:100B2000B61A754640EA0C005B084FEA3202B6EB93
:100B3000020E75EB030E22BFB61A754640EA5C0042
:100B40005B084FEA3202B6EB020E75EB030E22BFD2
:100B5000B61A754640EA9C005B084FEA3202B6EBD3
:100B6000020E75EB030E22BFB61A754640EADC0092
:100B700055EA060E18D04FEA051545EA16754FEAF4
:100B800006164FEAC30343EA52734FEAC2025FEA12
:100B90001C1CC0D111F4801F0BD141EA00014FF0A1
:100BA00000004FF0004CB6E711F4801F04BF014372
:100BB0000020B4F1FD0C88BFBCF5E06F3FF6AFAE8E
:100BC000B5EB030C04BFB6EB020C5FEA500C50F11E
:100BD000000041EB045170BD0EF0004E4EEA1131A1
:100BE00014EB5C04C2BFD4EB0C0541EA045170BDA8
:100BF00041F480114FF0000E013C90E645EA060EEC
:100C00008DE60CEA135594EA0C0F08BF95EA0C0F19
:100C10003FF43BAF94EA0C0F0AD150EA01347FF461
:100C200034AF95EA0C0F7FF425AF104619462CE738
:100C300095EA0C0F06D152EA03353FF4FDAE10469B
:100C4000194622E750EA410618BF52EA43067FF4EC
:100C5000C5AE50EA41047FF40DAF52EA43057FF47C
:100C6000EBAE12E74FEA4102B2F1E04324BFB3F525
:100C7000001CDCF1FE5C0DD901F0004C4FEAC00213
:100C80004CEA5070B2F1004F40EB830008BF20F0F7
:100C90000100704711F0804F21D113F13872BCBFB1
:100CA00001F00040704741F480114FEA5252C2F106
:100CB0001802C2F1200C10FA0CF320FA02F018BF4F
:100CC00040F001004FEAC1234FEAD32303FA0CFCA2
:100CD00040EA0C0023FA02F34FEA4303CCE77FEA31
:100CE000625307D150EA01331EBF4FF0FE4040F47B
:100CF0004000704701F0004040F0FE4040F400002A
:100D0000704700BF53B94AB9002908BF00281CBF6B
:100D10004FF0FF314FF0FF3000F070B9ADF1080C2B
:100D20006DE904CE00F006F8DDF804E0DDE9022309
:100D300004B070472DE9F04F8C460D460446099EDD
:100D4000002B4CD18A42964665D9B2FA82F757B148
:100D5000C7F1200CBD4000FA07F402FA07FE20FAA2
:100D60000CF040EA050C4FEA1E4A4FEA14481FFAFD
:100D70008EF2BCFBFAF90AFB19C509FB02FB48EA33
:100D80000545AB4509D97544AB4540F21F81AE45D9
:100D900000F21C81A9F102097544A5EB0B05A3B271
:100DA000B5FBFAF00AFB105500FB02F243EA0544DA
:100DB000A24208D914EB0E0480F01181A24240F245
:100DC0000E8102387444A41A40EA09400021002E22
:100DD00060D0FC40002334607360BDE8F08F8B422C
:100DE00007D9002E54D0002186E821000846BDE82E
:100DF000F08FB3FA83F1002940F08880AB42C0F055
:100E0000E880824240F2E5800846002E42D086E823
:100E10001010BDE8F08F1AB94FF0010EBEFBF2FEC4
:100E2000BEFA8EF7C7BBA5EB0E054FEA1E4C1FFAA4
:100E30008EF80121230CB5FBFCF20CFB125508FBCC
:100E400002F043EA0545A84208D97544A84240F299
:100E5000B980AE4500F2B680023A75442D1AA3B2AD
:100E6000B5FBFCF00CFB105508FB00F843EA054409
:100E7000A04508D914EB0E0480F0A680A04540F2EE
:100E8000A38002387444A4EB080440EA02409EE7C1
:100E900031463046BDE8F08FC7F120020EFA07FE5A
:100EA00005FA07F300FA07F4D5404FEA1E4CD0408C
:100EB0001FFA8EF8B5FBFCF118430CFB115201FB35
:100EC00008F3050C45EA0245AB4208D97544AB422C
:100ED00040F28E80AE4500F28B8002397544EB1AE9
:100EE00085B2B3FBFCF20CFB123302FB08F045EABF
:100EF0000345A84206D915EB0E0572D2A84270D957
:100F0000023A75442D1A42EA014193E7C1F12004E7
:100F10008B4002FA01F705FA01FCE24020FA04F8DE
:100F2000E54000FA01FE1A4348EA0C0C4FEA124869
:100F30004FEA1C431FFA82FAB5FBF8F908FB195572
:100F400009FB0AF043EA0545A84207D91544A8421F
:100F50004BD9AA4249D8A9F1020915442D1A1FFA02
:100F60008CFCB5FBF8F008FB105500FB0AFA4CEAC4
:100F700005439A4505D99B1835D29A4533D902388D
:100F8000134440EA0940A3EB0A03A0FB07894B4541
:100F9000C4464D4602D306D1C64504D20138B8EB4B
:100FA000070C69EB02052EB3BEEB0C0263EB0503E5
:100FB000CA4003FA04F4CB40002114437360346048
:100FC000BDE8F08F013A49E701385CE709F1FF39E4
:100FD000E3E6841A65EB03050120AC4615E701380A
:100FE000F1E6013A8EE70138CBE709F1FF39B5E7C1
:100FF000013974E73146BDE8F08F00BF704700BF8C
:101000000020704700207047012000217047D0E980
:101010000601704700487047904603002DE9F84FDD
:1010200090F82030074603B9436207F124060121F6
:10103000304601F021F80128824655D13C1D20465A
:1010400000F0F0F9054630B15146304601F01DF888
:101050002846BDE8F88FD7E90601D7E9048918EBDF
:101060000008204649EB010900F0CEF983462046EE
:1010700000F0C8F900215844494508BF404506D250
:101080005146304601F001F86FF47A65E0E72046FA
:10109000D7E9048900F0B6F90021894508BF8045E9
:1010A000EED3D7E90423134304D1204600F0AAF974
:1010B0007D613861D7E90623134311D1204600F042
:1010C000A3F90646204600F09DF9D7E90423002144
:1010D000801941F10001801A61EB0301C7E90601A3
:1010E000012387F82030B3E70025B1E72DE9F84F59
:1010F000D0E904458246043016461F4600F082F9C6
:10110000DDE90A89DAF8003018EB060883469B6BA4
:10111000504649EB07099847494508BF404502D268
:101120000020BDE8F88FDAF80030A4197D41196B72
:10113000B4EB0B0432463B46504665F10005884748
:1011400002460B4620462946FFF7DCFD1343E7D154
:10115000DDE90A2312196B411D46DAF80030144606
:1011600018F1FF32196B504649F1FF3388470246A8
:101170000B4620462946FFF7C5FD13430CBF01204F
:101180000020BDE8F88FF7B50E4690F82010044611
:101190001746089DDDF824E079B101688DE820400C
:1011A000C96B884748B12B4631462269201D3A4415
:1011B00003B0BDE8F04000F067B96FF47A6003B0A7
:1011C000F0BDF7B50E4690F8201004461746089D6E
:1011D000DDF824E079B101688DE82040096C88478A
:1011E00048B12B4631462269201D3A4403B0BDE880
:1011F000F04000F063B96FF47A6003B0F0BDF7B56A
:1012000090F8201004461646089D099F71B10168A8
:101210008DE8A000496C884740B12A462169201D0D
:10122000314403B0BDE8F04000F0BCB96FF47A601F
:1012300003B0F0BD08B590F8203023B1043000F0C1
:10124000DDF8002108BD1846FBE708B590F820300E
:101250001BB1043000F0DAF808BD4FF0FF3008BDD4
:101260002DE9D043DDE906891F46036816469B6ACF
:101270000446984702460B4630463946FFF742FD82
:10128000134302D00020BDE8D083236820469B6A28
:10129000984702460B4640464946FFF733FD134345
:1012A000F0D1236816EB08069B6B204647EB090735
:1012B0009847B94208BFB0422CBF01200020BDE8CA
:1012C000D08390F8203010B5044613B94362002053
:1012D00010BD0121243000F0D8FE0028F7D184F899
:1012E0002000201DBDE8104000F0B6B838B5044617
:1012F0000546054B44F8043BFFF7E3FF204600F0AA
:101300007CF8284638BD00BFA446030010B504464B
:10131000FFF7ECFF204600F07BFF204610BD08B52C
:1013200090F820302BB10169043000F069F80021F9
:1013300008BD1846FBE708B590F8203033B10169C5
:101340000430114400F05CF8002108BD1846FBE7AA
:101350002DE9D043DDE906891F46036816465B6A1E
:101360000446984702460B4630463946FFF7CAFC0A
:10137000134302D00020BDE8D083236820465B6A77
:10138000984702460B4640464946FFF7BBFC1343CD
:10139000F0D1236816EB08069B6B204647EB090744
:1013A0009847B94208BFB0422CBF01200020BDE8D9
:1013B000D08300000E4B73B504460E4640F8043B44
:1013C000154600F019F80023266101366361A56116
:1013D000E36184F82030636200D035B900930023C4
:1013E00004481A46194600F0ABFE204602B070BD14
:1013F000A44603000101FF807047704701F0C6BB9F
:1014000001F0BABB01F0C5BB01F0C6BB01F0C7BB20
:101410000246006820B9106810B902F10800106097
:101420007047000070B505460A4E3046FFF7F0FFE2
:10143000284604F035F80446284601F0A7FB00F0E2
:10144000D7FE68603046FFF7E3FF201C18BF01207D
:10145000404270BDD022022038B505460948FFF74A
:10146000D7FF284601F086FB003018BF0120444218
:10147000686808B100F0CEFE0248FFF7C9FF2046B9
:1014800038BD00BFD02202202DE9F0410F4616469C
:1014900005469846084C2046FFF7BAFF43463A46B1
:1014A0003146284603F0F4FF05462046FFF7B0FF1B
:1014B0002846BDE8F08100BFD02202202DE9F74F79
:1014C0001646994680460F4601F060FB05464046A9
:1014D00001F062FB8246404601F05BFBB6FBF5F390
:1014E00005FB136404B917B94FF0FF3353E009EB60
:1014F000060382445345F7D82948FFF789FF23465E
:10150000B9F1000F42D0002B40D13146404601F0E6
:1015100033FBB6FBF0F400FB1464041B4C4528BFFE
:101520004C46BB0701D1A54229D9AC4228BF2C4665
:1015300039462246D8F8040002F0BBFFAC4206D27E
:10154000D8F804002A1BFF21204402F0BDFFAB465F
:10155000D8F8043001934FF0100A5B46019A3146E7
:10156000404603F0A5FF034620B1BAF1010AF4D1C9
:101570004FF0FF33A9EB040926442744C0E7B4FB2E
:10158000F5F405FB04FB01975C46E4E7044801938E
:10159000FFF73EFF019B184603B0BDE8F08F00BF88
:1015A000D02202202DE9F0410D461646074601F0F3
:1015B000F3FA0446384601F0ECFA2044AC19A04294
:1015C00003D24FF0FF30BDE8F08119D81548FFF77E
:1015D0001FFF0024FEB1F4B94FF010082946384629
:1015E00003F04EFF044620B1B8F10108F6D14FF0E8
:1015F000FF342946384601F0BFFA361A0544E9E7B8
:101600002146384601F0B8FAB4FBF0F303FB104072
:101610000028D6D1DAE70348FFF7FAFE2046BDE8F6
:10162000F08100BFD0220220024B0A461B68002135
:10163000184700BF042202206C22002102F044BFA0
:1016400010B16C21FFF7F0BF70470000002303606A
:101650004360B9B9184B8360184BC360184B0361E2
:10166000184B4361184B8361184BC361184B0362DD
:1016700003F17453A3F52303A3F6924343628166F7
:1016800000207047134B8360134BC36003F1794311
:1016900003F5740303F501630361104B4361104BC1
:1016A000836103F1D14303F5C01303F51E63C361E6
:1016B0000C4B03620C4BE1E767E6096A85AE67BB3A
:1016C00072F36E3C3AF54FA57F520E518C68059B24
:1016D000ABD9831FD89E05C107D57C3639590EF783
:1016E000310BC0FFA78FF964A44FFABEFFF7AEBF5E
:1016F0002DE9F04F00F10803CBB000931A46002308
:1017000052F8044B02A840F823400133082BF7D1CC
:101710004FF0000E05ABDDF824B0089F93E82810C9
:1017200002AC0193ADF1180294E85004BEF10F0F22
:1017300062D84B7891F800901B0443EA0968CB7893
:1017400048EA030391F8028043EA08231364364B06
:101750004FEAF52853F82E3088EAB5181846136C6E
:1017600088EA756818448CEA07032B4080447B4064
:101770009844019BD8444344184646EA04094FEA7A
:10178000743306EA040B83EAB40309EA0A0949EA56
:101790000B0983EAB4530EF1010E4B44BEF1400F26
:1017A000434401F1040102F10402BB46CDF804A058
:1017B0001BD10293002309970690CDF820C007950E
:1017C00003940496CDF814A0009A02A951F82310AE
:1017D000126801330A440099082B41F8042B009148
:1017E000F2D100204BB0BDE8F08FB24667462646E6
:1017F000AC461C46054699E7936BD2F804904FEA35
:10180000F34888EA734888EA9328536A18461368AD
:1018100018444FEAB94383EAF913804483EAD909AB
:1018200008EB090392E700BFF04A03002DE9F041FD
:1018300005460F46144612B90020BDE8F081036842
:1018400003F03F0013449A422B6082BF6B68013360
:101850006B6008B3C0F14006B24216D305F1280808
:101860003246404402F025FE41462846FFF740FF3D
:101870000028E2D13744A61B3446311B3F2C3944A3
:101880000CD8002CD8D00F460020283522463946E7
:10189000284402F00EFECFE71646EDE72846FFF794
:1018A00027FF0028C9D1403CE7E7FFF7BFBF70B56D
:1018B0000446802203680D4603F03F03581C382875
:1018C000234483F8282004F1280674D80021C0F1AD
:1018D0003802304402F0F8FD236861685A0F42EA8A
:1018E000C102110EDB0084F86010110C84F8611045
:1018F00084F86320110A1A0E84F864201A0C84F804
:1019000065201A0A84F8621084F8662084F867302B
:1019100031462046FFF7ECFE00284BD1E37A2B70CE
:1019200063896B70A3681B0AAB70A368EB70E37BE1
:101930002B71E3896B71E3681B0AAB71E368EB7190
:10194000E37C2B72638A6B7223691B0AAB72236977
:10195000EB72E37D2B73E38A6B7363691B0AAB73D2
:101960006369EB73E37E2B74638B6B74A3691B0A4F
:10197000AB74A369EB74E37F2B75E38B6B75E36941
:101980001B0AAB75E369EB7594F823302B76638CF7
:101990006B76236A1B0AAB76236AEB76A36E4BB990
:1019A00094F827302B77E38C6B77636A1B0AAB774D
:1019B000636AEB7770BDC0F140020021304402F051
:1019C00083FD31462046FFF793FE0028F2D1014601
:1019D000382230467EE7FFF76ABF07230022012145
:1019E00010B5C40744BF01FA03F4224313F1FF33D7
:1019F0004FEA5000F5D2104610BD00002DE9F04F1F
:101A000016468FB0074606A80D469A46FFF7F4FC27
:101A1000102200210AA802F057FD56B9674801F0CC
:101A200009FE674C06A8FFF7E8FC20460FB0BDE8AA
:101A3000F08F06A8FFF7F6FC044628B1014661487E
:101A400001F0F8FD604CEDE7394606A8FFF7D8FC39
:101A500007F18F039D4266D306A8FFF7D3FC8046AB
:101A600006A8FFF7D1FC404485425CD80135ED1B48
:101A70004FEA5508A04507EB040104D906A8FFF773
:101A8000BFFC0444F6E7514B2D1B002B0A970D9524
:101A900014BF0127022700250B940C9106A8FFF71D
:101AA000B5FC0AAC54F835200DF120088146082316
:101AB0004032414606A8FFF7E7FC30B918F800307D
:101AC0004B4539D101300828F8D10135022DE5D137
:101AD0003F49404801F0AEFD3D4C06A8FFF7BCFC75
:101AE000A0E718F1010849F10009DDE90001894585
:101AF00008BF80455ED212F8010F0392FFF76DFF19
:101B00000921039A8BEA006B013911F0FF01E8D03B
:101B1000BBF1000F4FEA4B03B6BFDFF8C4B09B46E2
:101B200083EA0B0BF0E72C4801F084FD24492B4895
:101B300001F080FD224CD0E7189BBDF8228013B144
:101B4000189BC3F80080C245BFD354F835204346E4
:101B5000314606A8FFF798FC04460028B5D10023BB
:101B60001FFA88F2022FCDE900234FF000084FF052
:101B700000094FF0FF3B06F1FF32B6D01349049144
:101B8000DDE90001894508BF804513D212F8010F35
:101B900003920592FFF721FF049980EA1B60C0B20F
:101BA00051F8200018F1010880EA0B2B49F10009D7
:101BB000039AE4E7099A5A458FD086E7F04B030071
:101BC0000101FF80134C03000F01FF80F04603006A
:101BD0000701FF803B4C03006C4C0300A74C030043
:101BE000B71DC1042DE9F347054668460E46FFF7C9
:101BF00003FC48490846FEF755FC68B94FF4142326
:101C00004FF470502B602B68034433602B6883B90A
:101C100068B94FF0010810E03F493E48FEF742FC2A
:101C200008B92860EFE73D493A48FEF73BFC3C4CD9
:101C30004DE00028FBD04FF000086846FFF7F2FBAC
:101C40000446002864D1374A3748384B1044A0EB8B
:101C5000030A51466846FFF7D3FB81466846FFF703
:101C6000D1FB07466846FFF7CFFB0744B8F1000FEA
:101C700034D1D5F8008068464146FFF7C1FB2346C2
:101C80000246814621464046FFF73CF8D6F800A0C0
:101C900000FB09F90AF1FF316846FFF7B1FB0021AB
:101CA00080461AF1FF304246234641F1FF31FFF7EB
:101CB00029F82B6800FB08884B4504D1336843455D
:101CC00001D19F4220D26846FFF7C6FB184C6846F8
:101CD000FFF793FB204602B0BDE8F087791E684607
:101CE000FFF78EFB0021A7EB40081AF1FF304A46B0
:101CF00041F1FF312346FFF705F800FB0999C8457C
:101D0000E1D3C5F8008037606846FFF7A5FBDEE742
:101D1000084CDCE7D84C0300E34C0300F04C030014
:101D20000901FF80D4540300B022022000220220C7
:101D30000601FF800F01FF802DE9F3416846FFF7A0
:101D40005BFB6846FFF76EFB00283AD11E4B1F4C29
:101D50001F491C44641A21466846FFF751FB05469B
:101D60006846FFF74FFB07466846FFF74DFB804686
:101D70006846FFF771FB174ED6E88F3FDB0707D5A4
:101D8000154C6846FFF739FB204602B0BDE8F081EC
:101D9000304600F013FA0028F2D0013CB4FBF5F411
:101DA00004FB055107EB0802521A0B48FFF702FB30
:101DB000304600F015FA094A0949074800F0EDF9E4
:101DC000DEE70024DDE700BFD4540300B022022088
:101DD00000220220E0220220E8220220002202202B
:101DE000ED120300EFF31083DB4372B6044A11785F
:101DF00029B9044903F001030B70012313707047E4
:101E000011230220102302200022034B1A70034BDF
:101E10001B7803B162B67047112302201023022001
:101E200070B50E460446154600F0BBFE01360DD0D7
:101E30002946204600F0E3FE2046012100F0BEFEC8
:101E40002046BDE87040002100F0B4BE70BD002205
:101E5000FFF7E6BF13B5044601300FD102B010BD45
:101E60009C420AD12046896800F0DAFE0021204613
:101E700002B0BDE8104000F00FBF0C3191F9003006
:101E80005A1CEDD10023224600931946014800F068
:101E900057F900BF30010180884207B502460AD0D9
:101EA000431C08D0013105D0002305480093194692
:101EB00000F046F90146084603B05DF804FB00BF98
:101EC0003001018091F900305A1C01D11846704749
:101ED000834201D1486870470C31F3E7431C07B5D2
:101EE0000AD0FFF7EFFF431C06D100230246009300
:101EF0001946034800F024F903B05DF804FB00BF65
:101F00003001018002F036BB02F0E6BAF0B572B6DD
:101F10000023224A4FF0FF3613604FF0E0221D46A7
:101F200051681F4F01F00F0101319A0002F1604228
:101F300002F56142C2F88060C2F8806100224FEA77
:101F4000C30E02EB0E0401323C44082A84F800530D
:101F5000F7D101339942E8DC4FF02062114B5A600F
:101F600040F2FA529860DA60002211461D619C1816
:101F700001320C2A2176FAD14FF0FF3259629A626F
:101F8000094A4168DA621F221A630368002282F359
:101F900014889D4682F310880847F0BD10E000E0E9
:101FA00000E100E000ED00E0020000C007B500F035
:101FB00039F8262101A8FFF74AFF124D0424012118
:101FC00001A800F01CFE284600F060F9002101A8DD
:101FD00000F015FE284600F059F9013CEFD1042429
:101FE000094E012101A800F00AFE304600F04EF92A
:101FF000002101A800F003FE304600F047F9013C43
:10200000EFD1DBE7F0490200801A0600EFF3108001
:10201000C04300F001007047EFF30580003018BFA7
:102020000120704708B5FFF7DDFE024A136801334F
:10203000136008BD14230220044A136823B1013B36
:1020400013600BB9FFF7E0BE704700BF14230220F6
:102050000122D0E84F3FC0E8412F0029F9D1D8B282
:10206000003018BF01207047D0E84F3FC0E8421F42
:10207000002AF9D1D8B2704750E8003F0B4440E83D
:102080000032002AF8D11846704750E8003F5B1A2A
:1020900040E80032002AF8D11846704708B50B48CE
:1020A000FFF7D6FF28B1FFF7BDFFBFF34F8F20BF6B
:1020B000FDE7FFF7B1FF08B1FFF778FFFFF7A6FFD5
:1020C0000028F9D0012000F06AF800BF5823022050
:1020D00070B5164C0D4634EA200428BF0446164657
:1020E0008EB03422002101A802F0EEF9019402968C
:1020F0000395FFF797FF0E4A13680133012B136016
:1021000004D1342201A90B4802F0D3F9342201A9E9
:10211000094802F0CEF9094B1B680BB106489847F5
:10212000FFF78AFF00200EB070BD00BF0101FF80E5
:1021300018230220242302205C2302201C230220D7
:1021400008B504460121064876461546FFF78CFF80
:1021500020B9324629462046FFF7BAFFFFF79EFF17
:1021600020230220074A084913681844884283BF85
:102170000C22064B4FF0FF3010608CBF1A601846DF
:10218000704700BF08220220003004206C65022046
:1021900008B508B1FFF70AFFFEE70120704708B550
:1021A000FFF7F6FF012070477047704708B5FFF74B
:1021B000FBFF08BD08B5FFF7F8FF08BD0378DBB2E9
:1021C00003F00303012B09D0037803F00302012A73
:1021D00004D043F0020303700120704700207047D1
:1021E000037823F0030343F00103037070470000FA
:1021F00013B5044602F03EF9034628B900900146A3
:1022000022460248FFF79CFF02B010BD1F0101806B
:1022100002F038B902F036B970477047074A0848EB
:10222000936830B5191F03F59674C31A51F8045F0B
:10223000A1425D50FAD1906030BD00BF00ED00E0DA
:102240000020022008B5FFF7E9FF00F063F8FFF770
:10225000E4FF08BD08B5FFF7DFFFBDE8084001F067
:1022600061BE0000064B074A1B68B3FBF2F35843FC
:1022700040F6B833B0FBF3F0034B43F001031847CB
:102280000C22022040420F00F84C030038B50446EF
:10229000094DB4F57A7F08DC002C0CDD4FF47A7020
:1022A0006043BDE83840FFF7DDBF2846A4F57A74E7
:1022B000FFF7D8FFEDE738BD40420F0038B52025C5
:1022C0000E4B0F4CC3F8C8500E4800F089F80E486A
:1022D00000F04CF8204600F083F8204602F092F817
:1022E000204600F0B1F800220121284600F064F8F1
:1022F000064800F03BF8064B1C6038BD0000024069
:1023000000D8B805001BB700089110000894100011
:102310000C220220FFF7D2BF7047000008B5114B16
:10232000D3F8882042F47002C3F88820D3F88820BC
:1023300042F00F02C3F88820D3F88C2042F44062A8
:1023400042F00302C3F88C20074A9A604FF08043A2
:102350000022C3F808237822C3F82022FFF7DCFF0D
:1023600008BD00BF00ED00E000000300B0F1004F29
:1023700010B51DD002210F4CD0B1C0F30B039BB19F
:10238000DAB23F2A4FEA132308BFD4F8982003F1AA
:10239000FF33DBB215BF9200134302F18042C4F851
:1023A000983018BFC2F8603201394FEA2030E3D1CB
:1023B00010BD00BF0000024080002AB14FF0005263
:1023C00000F18043C3F8002300F1804021B94FF0B1
:1023D0008043C0F8003370470139C0F800137047DC
:1023E000154B984205D0154B984202D0144B984299
:1023F0001FD14FF080434FF00062C3F84821C3F86B
:102400002822202203F50033C3F8C8200C4B984241
:102410000C4B05D11A6942F080421A6100207047C6
:10242000064A90421A690CBF42F4004242F48042CC
:10243000F3E70120704700BF001BB700006CDC020F
:1024400000D8B8050030014007EE900AF8EE677A30
:1024500008B517EE900AFEF79FF90FA3D3E9002302
:10246000FEF7EEF9FEF7FEFB07EE900AFCEEE77AC8
:1024700017EE903A4FF08041082B28BF0823D1F87F
:1024800000241B0303F4F83322F4F8321343C1F899
:10249000003408BDAFF30080C19D76BEC028783EF1
:1024A000134B2DE9F04153F8203006461D681D609E
:1024B000104B1B5C43B9104B53F820301B68ABB179
:1024C0002846BDE8F041184700240127DFF828809E
:1024D00007FA04F32B4206D058F8263053F824307C
:1024E0000BB1284698470134072CF1D1BDE8F081A3
:1024F000644D030090230220982302200020FFF760
:10250000CFBF0120FFF7CCBF0220FFF7C9BF0320D8
:10251000FFF7C6BF0420FFF7C3BF0000054B98427A
:1025200006D003F5143398420CBF012002207047F7
:1025300000207047002008402DE9F047FFF7EEFF2C
:10254000002398424DD11E2700264FF00109474332
:10255000DFF89480F31958F82340002C3CD0257BF9
:10256000A3686A09583353F8221005F01F0509FAC9
:1025700005F529420BD0D4F800A043F82250BAF157
:10258000000F04D00023012261682046D047A368D1
:10259000227B6033520953F822100D420BD0D4F83D
:1025A00000A043F82250BAF1000F04D00123616863
:1025B0001A462046D047A368227B4033520953F87D
:1025C00022100D4208D043F82250256825B102237D
:1025D000002261682046A84701361E2EBAD1BDE808
:1025E000F0870133ADE700BFAC2302200148FFF7BD
:1025F000A3BF00BF002008400148FFF79DBF00BFF8
:1026000000700A400023064A52F82310884204D082
:102610000133092BF8D1002070471846704700BFDE
:10262000784D030070B505460C46FFF7EBFF002818
:1026300032DB01264FF080411A4B33F810301A0A72
:10264000DBB206FA03F3883241F82230164B53F816
:10265000200000F0B4F954B1042C16D8D5F8F83F96
:10266000E21C96401E4214BF01230023B3B1D5F8EB
:10267000F83F1B0705D5D5F8F83F03F00703A34241
:102680000ED1C5F8F84F002070BD052C06D1D5F845
:10269000F83FC3F3C013E9E7042070BD032070BD09
:1026A000012070BD9C4D0300B04D0300024B034A56
:1026B0001B68116802481847C02402209C2402208D
:1026C00000600840024B034A5B68516802481847A3
:1026D000C02402209C24022000700840024B034AC0
:1026E0009B68916802481847C02402209C2402205D
:1026F00000800840024B034ADB68D1680248184753
:10270000C02402209C24022000900840024B034A6F
:102710001B69116902481847C02402209C2402202A
:1027200000A00840024B034A5B6951690248184700
:10273000C02402209C24022000600940024B034A6E
:102740009B69916902481847C02402209C240220FA
:1027500000700940024B034ADB69D16902481847FF
:10276000C02402209C24022000800940044A1368EF
:1027700043F001031360034B1B6803B11847704714
:1027800000200040E4240220044A136843F00103BF
:102790001360034B5B6803B118477047003000407B
:1027A000E4240220024B034A1B68116802481847C0
:1027B000F0240220EC24022000D00240836A1B0E89
:1027C0001CBFC26AC26218467047000008B50848BC
:1027D000FFF7F4FF074B01461B6A0BB1082098472F
:1027E000034B1A68D2075CBF01225A6208BD00BFC2
:1027F00000500040F424022008B50848FFF7DEFF2F
:10280000074B01465B6A0BB109209847034B1A68D6
:10281000D2075CBF02225A6208BD00BF00500040D0
:10282000F424022008B54FF04020FFF7C7FF074B04
:1028300001461B680BB1002098474FF040231A68EF
:10284000D2075CBF01225A6208BD00BFF4240220F7
:1028500008B54FF04020FFF7B1FF074B01465B681A
:102860000BB1012098474FF040231A6892075CBFD4
:1028700002225A6208BD00BFF424022008B54FF0BE
:102880004020FFF79BFF074B01469B680BB10220DE
:1028900098474FF040231A6852075CBF04225A62DF
:1028A00008BD00BFF424022008B54FF04020FFF718
:1028B00085FF074B0146DB680BB1032098474FF0BB
:1028C00040231A6812075CBF08225A6208BD00BF85
:1028D000F424022008B54FF04020FFF76FFF074BAC
:1028E00001461B690BB1042098474FF040231A683A
:1028F000D2065CBF10225A6208BD00BFF424022039
:1029000008B54FF04020FFF759FF074B01465B69C0
:102910000BB1052098474FF040231A6892065CBF20
:1029200020225A6208BD00BFF424022008B54FF0EF
:102930004020FFF743FF074B01469B690BB1062080
:1029400098474FF040231A6852065CBF40225A62F3
:1029500008BD00BFF424022008B54FF04020FFF767
:102960002DFF074B0146DB690BB1072098474FF05D
:1029700040231A6812065CBF80225A6208BD00BF5D
:10298000F4240220012382B2000C8000934000F165
:102990008040C0F82031D0F800211342FBD07047AE
:1029A000012382B2000C8000934000F18040C0F807
:1029B0004031D0F8002133EA0202FAD0704708B55E
:1029C0000146FFF7DFFFBDE808400846FFF7E8BF14
:1029D000014B02481B6818471C2502200050084084
:1029E000024B034A1B68116802481847242502203D
:1029F0002025022000B0094010B50C220021044619
:102A000001F062FD4FF4E133012223600023A27143
:102A100023716371E37123726372A372E37210BD59
:102A20002DE9F04150B349B342B30F264FF0FF35C3
:102A30003446AE460F01B2FBF7F808F1FF3CBCF597
:102A4000803F04F101030CD203FB08F3B2FBF3F364
:102A5000994234BF5B1ACB1A73453EBF6546264682
:102A60009E46013C072CA7EB0107E4D1B5F5803F5A
:102A700007D2866205620020BDE8F0810420BDE82F
:102A8000F08141F25160BDE8F08170B50D46164607
:102A9000044600285FD000295DD0002A5BD00121C8
:102AA000FFF7C0FD002857D1324629682046FFF7BE
:102AB000B7FF002850D16B7AD3B1D4F8003E43F071
:102AC0000113C4F8003ED4F8083E23F47063C4F840
:102AD000083EAB7AD4F8082E1B0203F4706313434C
:102AE000C4F8083ED4F8083E43F00103C4F8083E99
:102AF0002B7AD3B1D4F8003E43F00213C4F8003E61
:102B0000D4F8083E23F47023C4F8083EEB7AD4F8D6
:102B1000082E1B0403F470231343C4F8083ED4F8B2
:102B2000083E43F00203C4F8083E2B79EA791B0102
:102B300003F0300343EAC2336A7943F001039201A0
:102B400002F040021343AA790020920002F00C0226
:102B50001343236070BD042070BD0000024B034A84
:102B60001B681168024818472C25022028250220DE
:102B700000E0004000207047A1F54031B1F5D02FB2
:102B800034BF4FF400704FF0FF3070474FF40070C7
:102B900070474FF4403070474FF4D020704700200A
:102BA00070474A1C0B46017003D00021184600F004
:102BB00037B8704790F9000000F06EB8202290F905
:102BC000003003F01F0093FBF2F3DBB211B10129D7
:102BD0000CD0704701229B0003F1804303F50E23C4
:102BE0001968824021EA0201196070479B0003F1D5
:102BF000804303F50E231A6881401143F4E790F9EE
:102C00000030202003F01F0293FBF0F3DBB25B01E6
:102C100003F18043C9B203F50C23995470470000B7
:102C200030B51B4D85B003460C462868696801AA7B
:102C300003C22021A8680125106003F01F0293FB46
:102C4000F1F304A9DBB201EB430131F80C1C02EBF8
:102C50004313080AC9B205FA01F14FF080458830E4
:102C600045F820104FF40051C5F82012094904F02E
:102C70000F0451F8232042F4807241F8232051F8C8
:102C8000232022F00702144341F8234005B030BD51
:102C90005046030000100040202310B500F01F0430
:102CA00090FBF3F0C0B20A4A4001031952F82330F6
:102CB000012923F0300305D0022906D0204442F830
:102CC000203010BD43F01003F8E743F02003F5E790
:102CD00000100040F0B50E4685B004463D49304630
:102CE0001546FFF7FBF83C4907462846FFF7F6F87C
:102CF00001463846FFF7D0F8206007280CD8DFE8F7
:102D000000F0043E444A50565C624FF44570FFF7B1
:102D10002DFB3248FFF753FE01A8FFF76DFE4FF47D
:102D200016530193012320688DF80D308DF80C3077
:102D30002B4B2C4A53F8200001A9FFF7A6FE25498A
:102D40003046FFF787F824492846FFF783F8721CBE
:102D500003D002213046FFF79FFF6B1C03D00221F6
:102D60002846FFF799FF23683BB901221E4B2146F5
:102D70001A601E48042201F09CFB05B0F0BD40F231
:102D80001530FFF7F3FA1A48C4E740F21630FFF7A0
:102D9000EDFA1848BEE740F21730FFF7E7FA164899
:102DA000B8E74FF44670FFF7E1FA1448B2E740F293
:102DB0001930FFF7DBFA1248ACE740F21A30FFF7A0
:102DC000D5FA1048A6E740F21B30FFF7CFFA0E48BD
:102DD000A0E700BF344D0300044D03000B000100C9
:102DE000D44D0300001BB7003025022068250220C7
:102DF0000C0001000D0001000E0001000F00010099
:102E00001000010011000100120001000068034BD6
:102E1000034A53F82000FFF703BE00BFD44D030060
:102E2000001BB7000268044B53F82230D3F8040E9D
:102E300000F02000704700BFD44D030010B50446D9
:102E40002046FFF7EFFF0028FAD02268034BC9B2F3
:102E500053F82230C3F8201E10BD00BFD44D03002C
:102E60004FF0FF3310B5094C0144884201D1D843DB
:102E700010BD10F8012B5340082213F0010F4FEA48
:102E8000530318BF6340013AF7D1EEE72083B8ED52
:102E900048B14378027843EA02228378C07843EA53
:102EA000022340EA0320704730B5002837D00023C2
:102EB00000251D432B0200250478002122024478BE
:102EC000144343EA14631D432B0200252202847835
:102ED000144343EA14631D432B0200252202C478E5
:102EE000144343EA14631D432B0200252202047994
:102EF000144343EA14631D432B0200252202447944
:102F0000144343EA1463220284791D4314432B02C1
:102F1000C07943EA146322021043194330BD0020F4
:102F2000002130BD30B10B0AC17083700B0C090E4B
:102F300043700170704768B1110AC2718171110C40
:102F4000120E02711A0AC37082701A0C1B0E4171A4
:102F500042700370704770B54B6845689D420FD151
:102F600000231A46AB4203D150421043C00F70BD3C
:102F700084688E68E45CF65C013374402243F1E7B8
:102F8000012070BD2DE9F0418846BCB014460746CB
:102F900000287BD08368002B78D04368402B75D8FD
:102FA000002973D08B68002B70D0002A6ED09368F4
:102FB000002B6BD013681F2B68D901AE402236213D
:102FC000304611AD01F080FA40225C21284601F024
:102FD0007BFA00237868834217D121A8FEF72CFBE7
:102FE000002121A8FEF732FBE0B1294C21A8FEF711
:102FF00027FB40213046FEF717FB40212846FEF70D
:1030000013FB20463CB0BDE8F081B968F25C11F8D2
:1030100003E082EA0E02F254C95CEA5C4A40EA54D8
:103020000133D8E74022314621A8FEF7FFFB0028F4
:10303000DBD1D8F80420D8F8081021A8FEF7F6FB59
:103040000028D2D1A16821A8FEF731FC0146002852
:10305000CBD121A8FEF7FAFA0028C6D14022294692
:1030600021A8FEF7E3FB0028BFD12022A16821A8F8
:10307000FEF7DCFB0028B8D1A16821A8FEF717FCF9
:103080000028B2D1202363600446AFE7004CB8E7C4
:103090000100435530B5016885B01F29044606D8A4
:1030A0000E4D22680021A06801F00EFA13E080683E
:1030B00000F016FF0028F3D1094A01AB07CA83E8E4
:1030C000070010221946626020462246FFF75AFF89
:1030D00005460028E5D1284605B030BD010043551E
:1030E0005C46030070B50C46054608B9022070BD69
:1030F0000029FBD06C21FFF7B3FE064605F16C00FA
:10310000FFF7C6FE8642F1D105F10800FFF7CCFEBD
:10311000C4E9000105F11000FFF7C6FE2022C4E952
:10312000020105F1180104F1100001F0C2F91022AA
:1031300005F1580104F1300001F0BBF9002070BD29
:1031400038B50C46054600283AD0002938D00B681F
:103150006F2B35D970220021A06801F0B5F9A06865
:103160001849FFF7DFFEA06802210430FFF7DAFEFE
:10317000D5E90023A0680830FFF7DDFED5E902237A
:10318000A0681030FFF7D7FEA06805F110012022DB
:10319000183001F08EF9A068102205F13001583086
:1031A00001F087F96C21A068FFF75AFEA368014679
:1031B00003F16C00FFF7B6FE70230020636038BD9A
:1031C000022038BDD4B3515AF0B50F469BB0064625
:1031D00018B311B320250AAC00212A46204601F07D
:1031E00073F9002301A8019502930394FFF752FF9E
:1031F00001B291B9E82312AC2A4620460493059304
:10320000069601F061F907AA04A901A80795089597
:103210000994FFF7B7FE00B208B1022027E006F1DB
:10322000E80307A904A8049505950693FFF793FE04
:1032300004460028F1D106F10800FFF735FEC7E982
:10324000000106F11000FFF72FFE2A46C7E9020130
:1032500006F1180107F1100001F02BF9102206F118
:10326000A00107F1300001F024F920463C641BB0B6
:10327000F0BD000038B514681546002C0ADB6FF06D
:103280000042944206D08C4201D220B103552B68F3
:1032900001332B6038BD19460148FFF7CFFDF6E733
:1032A000342502202DE9F04387B0DDE90E6756EAA8
:1032B000070305468846914605D1302307B0BDE88F
:1032C000F043FFF7D7BF18220021684601F0FCF851
:1032D0000024304639460A220023FDF713FD303220
:1032E0000DF804200023304639460A22FDF70AFD76
:1032F00006460F4656EA070304F10104E9D1013CF2
:103300001DF804304A4641462846FFF7B3FF002C1B
:10331000F5D107B0BDE8F0832DE9FF4706460F461B
:10332000904607254FF00009DDE90C01EA00FDF7A2
:10333000C3F8C0B2B9F1000F01D100B93DBBEC46F2
:10334000164B020900F00F0403F1100AE646186854
:1033500059680833AEE803005345F446F6D1B9F195
:10336000000F00D142B104AB1A4412F8103C3946A8
:1033700042463046FFF77EFF04AB1C4414F8103C75
:10338000424639463046FFF775FF4FF0010915F107
:10339000FF35C9D204B0BDE8F08700BF684603001E
:1033A000FFF768BF2DE9F04F1C469F4B93461A78F4
:1033B00087B006460D465AB100221E211A709B485E
:1033C0001D22FFF787FC4FF4E1319848FFF71EFDFF
:1033D00000230593BBF1000F00F0BE809D42C0F2B8
:1033E000BB8008BF01234FF0000818BF05F1FF356F
:1033F00003931BF80830002B00F0AD80252B40F024
:10340000B18008F101071BF80730791C4BB1A3F11B
:103410002302D2B2162A04D8854820FA02F2D20733
:103420000CD41BF80120002A00F0B680682B07D1CD
:10343000682A00F0AC8002230F46BDE00F46E2E7A9
:103440006C2B40F0EE806C2A00F0A4800323F3E79D
:10345000012B04F1040A226805D0022B06D0904605
:103460004FEAE879BBE04FFA82F8F9E70FFA82F801
:10347000F6E7B9F1750F03D009F0DF02582A24D11D
:10348000042B12D1073424F0070404F1080AD4E90C
:103490000023B9F1750FCDE90023294605AA30466E
:1034A00000F0B180FFF738FFAFE0022B04F1040A0F
:1034B000226806D0072B06D0012B08BFD2B200230A
:1034C000E7E792B2FBE7D317E3E7B9F1630F08D15F
:1034D000237805AA2946304604F1040AFFF760FF65
:1034E00093E0B9F1730F0ED104F1040A2468013C92
:1034F00014F8013F002B00F0888005AA29463046C9
:10350000FFF7B8FEF4E7B9F1700F1FD1302305AA19
:103510002946304604F1040A2468FFF7ABFE7823FD
:1035200005AA29463046FFF7A5FE2246E317CDE956
:103530000023294605AA3046B4E71BF8083005AA3F
:1035400029463046FFF72CFF08F10108B845F4D3AF
:10355000B9F1000F04D16EB9059807B0BDE8F08F3E
:103560001BF8083005AA29463046FFF719FFA24686
:1035700047464AE0039B002BEED1059B9D422BBFA3
:103580009DF80C209DF80C30F2547355E4E70123AC
:10359000023711E00423FBE773B1682B3FF44BAF14
:1035A0006C2B3FF453AF6A2B33D07A2B33D0742B70
:1035B00033D04C2B33D000231BF80790B9F1640FA4
:1035C00003D0B9F1690F7FF454AF042B7FF440AFFF
:1035D000073424F0070404F1080AD4E90089B8F19B
:1035E000000F79F1000309DA2D2305AA2946304698
:1035F000FFF740FED8F1000869EB4909294630463B
:10360000CDE9008905AAFFF74DFE07F101085446F0
:10361000EFE6052310E706230EE707230CE7082350
:103620000AE7002BC8D0BEE7102202203425022072
:1036300001ED7F000FB407B504AB53F8042B6FF016
:10364000004100200193FFF7ADFE03B05DF804EBED
:1036500004B07047014B18600020704738250220E5
:1036600008B5044B1B6813B11B68984708BD0220BE
:1036700008BD00BF38250220044B10B51B681BB1E4
:1036800012B19B69984710BD022010BD3825022059
:1036900008B5044B1B681BB110B11B6A984708BDE5
:1036A000022008BD3825022008B5044B1B681BB159
:1036B00011B15B6A984708BD022008BD3825022079
:1036C00038B5054678B100F007F90446284624B21B
:1036D00000F032F82CB900B2002814BF04200020FA
:1036E00038BD042038BD022038BD0000024B1B68E5
:1036F00003B11847704700BF3C25022010B5A0B9A0
:1037000099B192B16FF07C44094B1B68B4FBF3F4A0
:1037100004FB03340C600749B1FBF3F15943091B67
:10372000B1FBF3F14B43136010BD022010BD00BF8D
:103730004825022000FC050470B5054608B90220A2
:1037400070BD00F08DF8044600F092F80B4E30602A
:1037500000F098F840F22712094B18603368B2FB6A
:10376000F3F202FB0333074A1360002CE7D1064B48
:1037700020461D60FFF7BAFF204670BD4425022099
:1037800048250220402502203C2502207FB50E4618
:10379000144652B3936843B34FF0FF3304AA42F880
:1037A000043D02A90293FFF7A9FF6368054633B100
:1037B0000F4A013B1268B3FBF2F303FB02232268BA
:1037C0009A420FD30B4A1168029A00930A44A068E8
:1037D0003244002300F060F8044618B90420FFF7D3
:1037E00085FF2546284604B070BD0225FAE700BFD4
:1037F00044250220402502202DE9F04184B0022416
:1038000002AF0E4629B34FF0FF3307F1080242F82A
:10381000043D39463B60FFF771FF104BE8461968DD
:103820000446CB1D23F00703ADEB030D02AD3A6850
:1038300000230091284600F02FF848B93146284669
:10384000FFF7C2FC03B2044613B90720FFF74EFF8F
:10385000C54620460837BD46BDE8F0814025022018
:10386000024B186803689B68184700BF4C2502206C
:1038700008B5034B186803689B6A984708BD00BFEA
:103880004C25022008B5034B18680368DB6A98478B
:1038900008BD00BF4C25022037B50649069D0C68BF
:1038A00021680095002501954D6901462046A847ED
:1038B00003B030BD4C25022008B5FEF73DFA014BA0
:1038C000186008BD4C250220024B1B6803B1184745
:1038D000704700BF5025022038B5054600F04CF86F
:1038E000044628B9034B1D60FFF7EEFF204638BDA4
:1038F0000224FBE750250220F0B505469FB018B919
:10390000022420461FB0F0BD002308224FF460318E
:1039100068460093019300F079F804240646D8B96C
:103920006846FFF7B5FA07460DEB0400FFF7B0FA5B
:10393000022811D10F4B70229F4208BF002431464C
:1039400002A800F0C1FD3CB970224FF4603102A81A
:1039500000F05CF838B1042423B2002BD1D106204A
:10396000FFF7B2FFCDE7294602A8FFF7BBFB0446ED
:10397000F2E700BFD4B3515A014801F091BD00BF36
:10398000542502200148FFF7F5B800BF5425022056
:103990002DE9F8430E461746804618B94FF0FF3020
:1039A000BDE8F8831848FFF7F4F804461648FFF717
:1039B000F3F8B44204EB0002F0D8F3199A42EDD3C5
:1039C000B842EBD31048FFF7E1F8B6FBF0F300FB89
:1039D00013630546002BE1D1B7FBF0F400FB147430
:1039E000002CDBD12046DFF82090BC4200D208B189
:1039F000BDE8F88308EB0402A1192B46484601F004
:103A000057FD2C44F1E700BF54250220134602461F
:103A1000014801F03DBD00BF542502200148FFF7D9
:103A2000B5B800BF5425022001460148FFF7A4B8ED
:103A300054250220F8B505460E480E46FFF7A9F8B2
:103A400004460C48FFF7A8F82044A84211D9AC421C
:103A50000ED2084F21463846FFF78EF820448542A3
:103A600004D836B1854218BF2046F8BD0446F1E7B8
:103A70002046F8BD54250220F8B50E460121044623
:103A8000FFF7D8FF00210546A019FFF7D3FFAC428E
:103A9000074611D100250A4EBC4200D20DB128467E
:103AA000F8BD2146304601F0EBFC21460546304684
:103AB000FFF762F80444EFE74FF0FF35EFE700BF90
:103AC0005425022008B5FFF757FFB0FA80F04009EF
:103AD00008BDFFF757BF000010B580B14FF0FF33AE
:103AE000084C2360FFF7D4FD00B240B92068421CA7
:103AF00001D130BFFDE7831F5842584110BD00205F
:103B000010BD00BF142202202DE9F0410446A4B0EC
:103B100018B9012024B0BDE8F081FFF7DDFF0028CF
:103B2000F7D0D4E90223134343D04FF0000809A88B
:103B3000FDF782FD002109A8FDF7D8FD2022002114
:103B400001A800F0C1FC1C4FA568E5B1B8F1000F59
:103B500019D1B5F5804F2E4628BF4FF48046A16895
:103B6000324601F56131491B3846FFF74FFF3946B0
:103B70008046324609A8FDF798FEA168AD1B481B98
:103B800000F072F9E1E701A909A8FDF724FF10345C
:103B900009A8FDF755FD202201A9204600F07AFC76
:103BA0000028B7D0204600F03BF901A800F038F912
:103BB000AFE70220AEE700BF6C25022070B50546D6
:103BC00004464618B44204D22046FFF72DFF0444B1
:103BD000F8E7601B70BD000070B5702105464FF41A
:103BE0006030FFF7EBFF00F56033B3F5613F01464E
:103BF00008D24FF46030FFF73FFF98B92E464FF4DC
:103C0000613403E04FF4603405F5806631462046A8
:103C1000FFF7D4FF0B4B02199A4207D831462046D2
:103C2000FFF72AFFB0FA80F0400970BD4FF4B823C7
:103C3000A2F5613229460448FFF7FCFC4FF0FF3043
:103C4000F0E700BF00440900154E030030B50546FB
:103C500085B000283DD0FFF7E1FE00F16F04B4FB12
:103C6000F0F4702144434FF46030FFF7A7FFB4F540
:103C7000804F024607D94FF4804221461648FFF78D
:103C8000D9FC30BFFDE7844205D921461348FFF730
:103C9000D1FC30BFFDE72246FF21114800F014FCA3
:103CA000104A01AB07CA83E8070019462846FFF708
:103CB00047FA00B268B9029B702B0AD122464FF432
:103CC00060310748FFF764FEB0FA80F0400905B0A4
:103CD00030BD4FF0FF30F7E7354F03006E4F030064
:103CE0006C250220784603002DE9F04F814685B00F
:103CF0000E46002964D0FFF791FE4FF46131B1FB0D
:103D0000F0F444430C1B054605D002462D48FFF74E
:103D100091FC30BFFDE72C4B012703934FF4804308
:103D2000B3FBF0F34343DFF8A88001930021D6E909
:103D30000223994208BF94423ED2002F3CD04FF05C
:103D4000FF374FF0000B121B63EB0103C8F8007044
:103D5000019F9B4508BF974238BF3A4621460292D1
:103D6000484601AAFFF788FC00B228B9D8F800300D
:103D7000013301D130BFFDE7D8F80030042B17D153
:103D8000029BABB103F1FF3AAA44BAFBF5FA05FB7B
:103D90000AFA04F5613152460398FFF7F9FDB0FACB
:103DA00080F7B16820467F0900F05EF85444BDE713
:103DB0000648FFF73FFC0027384605B0BDE8F08F06
:103DC0000F46F9E7944E03006C250220E94E0300EC
:103DD0001422022038B5054688680C46FFF7FCFE21
:103DE00008B9002038BD2046FFF730FF0028F8D082
:103DF00021462846FFF778FF0028F2D00448FFF755
:103E000019FC2046FFF780FEB0FA80F0400938BD6B
:103E1000104F0300014B1860704700BF14220220AE
:103E200030B593B001AC054600214122204600F098
:103E30004BFB00230A49681E10F8012F15094D5D40
:103E400002F00F02E5548A5CE5180233402B6A70D9
:103E5000F2D121460348FFF7EDFB13B030BD00BFA0
:103E6000B14F0300D34F03002DE9F84346244443E8
:103E7000B4FBF1F4114BE4B21A780746A2420E46A5
:103E80001AD00F481C700025FFF7D4FBDFF83C80E8
:103E9000DFF83C90EBB29C422CBF484640460135CF
:103EA000FFF7C8FB462DF5D1B7422CBF05480648A1
:103EB000BDE8F843FFF7BEBBBDE8F88355250220F7
:103EC000C14F0300CD4F0300D14F0300B550030095
:103ED000CB4F03000020704700487047E74F0300B6
:103EE000002310B50F2986B004460393049305936D
:103EF00000D910B94FF0FF3011E004A903A8FDF775
:103F000071FE40B258B905AB0093224610230499C4
:103F10000398FDF773FD059B40B2102BEAD106B064
:103F200010BD00002DE9F843082000F0A3FA384B3B
:103F3000384F1860012000F09DFA38603648FFF7CE
:103F400089FB3648FFF78CFB0546FFF7C3FF28B116
:103F5000FFF7C2FF01463248FFF76CFB3148324E93
:103F6000FFF768FB3148FFF765FB0024B046DFF838
:103F7000C890315D48460134FFF75CFB142CF8D142
:103F80002B48FFF757FB2B48FFF754FB00242A4E22
:103F900008EB040393F8201030460134FFF74AFB86
:103FA000142CF5D12248FFF745FB2DB21E4A002103
:103FB0002248FFF73FFBFDB14FF46134204B2568E9
:103FC0001E6821461F48FFF735FB31461E48FFF7A4
:103FD00031FB29461D48FFF72DFB1D48FFF72AFB43
:103FE0002046FDF793FF3B680BB100221A70194879
:103FF000FFF720FB30BFFDE7FFF764FD0028DBD0B3
:1040000000F09CF80446FFF764FD002CEBD0D3E7EA
:104010005C2502205825022018220220153E0300AC
:10402000505003007D5003000C50030096500300D5
:1040300078510300AA500300A3500300B7500300B7
:1040400004840300D0500300FC50030027510300F8
:10405000535103007B5103002DE9F04F82469FB07E
:104060000C46002960D0314BE94693E807008DE803
:10407000070003A8FDF7E0FA002103A8FDF736FBCF
:1040800000254FF0FF3BDFF8B0800027D4E9022382
:104090009F4208BF95422DD20021521B009863EB2E
:1040A0000703994208BF904238BF02462946019251
:1040B00050464A46C8F800B0FFF7DEFA00B228B909
:1040C000D8F80030013301D130BFFDE7D8F8003017
:1040D000042B0CD1019A52B1029903A8FDF7E5FB1C
:1040E000019BA1681D442846FFF7BEFECDE710489E
:1040F000FFF7A0FA0F4903A8FDF76DFC103403A8E1
:10410000FDF79EFA20220B49204600F0C3F948B182
:104110002046FFF785FE0748FFF782FE00201FB00C
:10412000BDE8F08F0120FAE70846F8E7844603006F
:10413000785103006C250220142202202DE9F0435F
:10414000A5B048220021684600F0BEF948220021AF
:104150000DEB020000F0B8F9684E6948FFF76AFA03
:1041600012A8FFF7D1FC3568002D00F0BE8065492C
:104170000C68002C00F0B980DDE91289D5E9002334
:104180004B4508BF424524D00023C5E90089237070
:104190000B681B7800BB022B27DC012416A8FFF755
:1041A0003FFEDDE912235848FFF744FADDE9122308
:1041B000CDE900234FF0FF33544D12A900202B60AE
:1041C000FFF772FA00B2B0B92B68013313D130BFD8
:1041D000FDE723780133DAE7022803D14C48FFF7E3
:1041E00029FA06E0022B40F3868003214948FFF7B5
:1041F00021FA0024DEE72B68072B6FD13368DDE955
:104200001267002B51D0D3E90023BB420ABFB24250
:1042100001230023DDE90001B94208BFB04253D2B7
:10422000DDE9140150EA01024ED00BB9002C4BD14C
:1042300000213948FFF7FEF912A90020FFF70CFF13
:10424000014600283CD016A8FFF7EAFDDDE912235D
:104250002D48FFF7EFF9DDE9142300214FF4B820D2
:10426000994208BF904222D3DDE91201CDE9022331
:10427000CDE90001202216A904A800F01AF91022A5
:104280001EA90CA800F015F900212448FFF7D2F967
:1042900069460020FFF79EFD044610B32048FFF753
:1042A000C9F9204625B0BDE8F0830123B2E74FF4F9
:1042B000B82300211B48FFF7BDF9A4B11A48EEE767
:1042C0001A48FFF7B7F9F8E700211948FFF7B2F9E4
:1042D000DDE912230C48FFF7ADF9EEE700211548A0
:1042E000EFE71548DBE71548D9E700283FF455AF5D
:1042F00002283FF473AF124871E700BF5C2502202B
:10430000A351030058250220CD510300142202209E
:10431000E45103000B5203006F5203009B52030051
:1043200078530300CB520300BE530300FF52030037
:10433000315303005D5303009E530300E253030017
:104340003F52030040F2B633984210B525D9B0F57C
:10435000747F36D3B0F57A7F37D940F20143984263
:1043600037D940F21A43984237D940F23343984242
:1043700037D940F24C43984237D940F265439842CE
:1043800037D940F27E43984237D9B0F5936F34BFA6
:1043900009230A231F221E2102E000230F220A21E3
:1043A000174CE06920F4F84020F01F00014341EA77
:1043B0008222E261226922F4F01242EA434323613D
:1043C00010BD012311220C21EAE7022313220E2142
:1043D000E6E7032316221121E2E704231922142120
:1043E000DEE705231B221621DAE706231D2218210A
:1043F000D6E707231E221B21D2E70823CAE700BF06
:1044000000000240074B984203D840F24C40FFF7AF
:1044100099BF054B984294BF40F27E404FF496609E
:10442000F5E700BF00E1F50580A4BF0770B50D4EAC
:1044300000250D4CA41BA410A54209D10B4E00254C
:104440000B4C01F00FF8A41BA410A54205D170BDC0
:1044500056F8253001359847EEE756F825300135F6
:104460009847F2E7C8540300C8540300C854030037
:10447000D0540300024B01461868FDF743BD00BF4E
:1044800044220220024B01461868FDF73DBD00BFE3
:10449000442202200139024410B5904201D100208B
:1044A00010BD10F8013B11F8014FA342F5D0181BC5
:1044B00010BD431E0A4410B5914200D110BD11F841
:1044C000014B03F8014FF7E702440346934200D142
:1044D000704703F8011BF9E738B50546002945D0B8
:1044E00051F8043C0C1F002BB8BFE418FDF75EFE2A
:1044F0001F4A1368104633B9636014602846BDE84C
:104500003840FDF757BEA3420CD921686218934288
:1045100002BF1A685B685218636008BF22600460BB
:10452000ECE713465A680AB1A242FAD9196858183A
:10453000A0420BD120680144581819608242DDD195
:104540001068526801445A601960D7E702D90C23F9
:104550002B60D3E7206821188A4202BF1168526895
:104560000918626008BF21605C60C7E738BD00BF02
:104570006025022070B5CD1C064625F003050835E0
:104580000C2D38BF0C25002D01DBA94203D90C23CB
:104590003360002070BDFDF709FE234A14682146F0
:1045A00091B9224C23681BB9304600F041F82060D5
:1045B0002946304600F03CF8431C26D10C233046F7
:1045C0003360FDF7F7FDE4E70B685B1B1AD40B2B98
:1045D0000FD9CC180B60CD503046FDF7EBFD04F140
:1045E0000B00231D20F00700C31A1BD05A42E250D3
:1045F00070BD8C420BBF63684B681360636018BF6B
:104600000C46E9E70C464968CAE7C41C24F00304D9
:10461000A04205D0211A304600F00AF80130CDD072
:104620002560D9E770BD00BF602502206425022007
:1046300038B50023054C054608462360FDF792FD7A
:10464000431C02D1236803B12B6038BD6C65022086
:104650000E000F001000110009020A0220000000E5
:1046600020000000F44D030030313233343536374A
:1046700038394142434445460040000000000000F4
:104680006C25022000400000000000006C25022084
:10469000464C4153484941500000000000000000D2
:1046A00000000000ED1203000D1303001D100300B5
:1046B000C31203000110030087110300C31103009C
:1046C000FF11030005100300091003003512030059
:1046D0001F130300371303004B1203000F100300D6
:1046E0005113030061120300ED10030015100300C5
:1046F00000000000B71DC1046E3B8209D926430D9E
:10470000DC7604136B6BC517B24D861A0550471E35
:10471000B8ED08260FF0C922D6D68A2F61CB4B2BD5
:10472000649B0C35D386CD310AA08E3CBDBD4F387D
:1047300070DB114CC7C6D0481EE09345A9FD52411D
:10474000ACAD155F1BB0D45BC2969756758B5652B5
:10475000C836196A7F2BD86EA60D9B6311105A6755
:1047600014401D79A35DDC7D7A7B9F70CD665E74FD
:10477000E0B6239857ABE29C8E8DA191399060955D
:104780003CC0278B8BDDE68F52FBA582E5E6648675
:10479000585B2BBEEF46EABA3660A9B7817D68B395
:1047A000842D2FAD3330EEA9EA16ADA45D0B6CA0BD
:1047B000906D32D42770F3D0FE56B0DD494B71D9DD
:1047C0004C1B36C7FB06F7C32220B4CE953D75CAF5
:1047D00028803AF29F9DFBF646BBB8FBF1A679FF15
:1047E000F4F63EE143EBFFE59ACDBCE82DD07DEC3D
:1047F00077708634C06D4730194B043DAE56C539CD
:10480000AB0682271C1B4323C53D002E7220C12A04
:10481000CF9D8E1278804F16A1A60C1B16BBCD1F04
:1048200013EB8A01A4F64B057DD00808CACDC90C4C
:1048300007AB9778B0B6567C69901571DE8DD4754C
:10484000DBDD936B6CC0526FB5E6116202FBD06684
:10485000BF469F5E085B5E5AD17D1D576660DC5384
:1048600063309B4DD42D5A490D0B1944BA16D840CC
:1048700097C6A5AC20DB64A8F9FD27A54EE0E6A10C
:104880004BB0A1BFFCAD60BB258B23B69296E2B2C4
:104890002F2BAD8A98366C8E41102F83F60DEE8744
:1048A000F35DA9994440689D9D662B902A7BEA940C
:1048B000E71DB4E0500075E4892636E93E3BF7ED8C
:1048C0003B6BB0F38C7671F7555032FAE24DF3FE44
:1048D0005FF0BCC6E8ED7DC231CB3ECF86D6FFCBC4
:1048E0008386B8D5349B79D1EDBD3ADC5AA0FBD88C
:1048F000EEE00C6959FDCD6D80DB8E6037C64F64EC
:104900003296087A858BC97E5CAD8A73EBB04B77A3
:10491000560D044FE110C54B383686468F2B474263
:104920008A7B005C3D66C158E4408255535D43512B
:104930009E3B1D252926DC21F0009F2C471D5E286B
:10494000424D1936F550D8322C769B3F9B6B5A3B23
:1049500026D6150391CBD40748ED970AFFF0560EE3
:10496000FAA011104DBDD014949B93192386521DAB
:104970000E562FF1B94BEEF5606DADF8D7706CFCAB
:10498000D2202BE2653DEAE6BC1BA9EB0B0668EFE3
:10499000B6BB27D701A6E6D3D880A5DE6F9D64DA23
:1049A0006ACD23C4DDD0E2C004F6A1CDB3EB60C96B
:1049B0007E8D3EBDC990FFB910B6BCB4A7AB7DB02B
:1049C000A2FB3AAE15E6FBAACCC0B8A77BDD79A363
:1049D000C660369B717DF79FA85BB4921F467596A3
:1049E0001A163288AD0BF38C742DB081C3307185EB
:1049F00099908A5D2E8D4B59F7AB085440B6C9503B
:104A000045E68E4EF2FB4F4A2BDD0C479CC0CD4352
:104A1000217D827B9660437F4F460072F85BC176B2
:104A2000FD0B86684A16476C93300461242DC565DA
:104A3000E94B9B115E565A1587701918306DD81CBA
:104A4000353D9F0282205E065B061D0BEC1BDC0FD2
:104A500051A69337E6BB52333F9D113E8880D03A32
:104A60008DD097243ACD5620E3EB152D54F6D4295A
:104A70007926A9C5CE3B68C1171D2BCCA000EAC87A
:104A8000A550ADD6124D6CD2CB6B2FDF7C76EEDB12
:104A9000C1CBA1E376D660E7AFF023EA18EDE2EEF2
:104AA0001DBDA5F0AAA064F4738627F9C49BE6FD9A
:104AB00009FDB889BEE0798D67C63A80D0DBFB84FA
:104AC000D58BBC9A62967D9EBBB03E930CADFF9792
:104AD000B110B0AF060D71ABDF2B32A66836F3A272
:104AE0006D66B4BCDA7B75B8035D36B5B440F7B11A
:104AF000982F8A4291443771CFFBC0B5A5DBB5E949
:104B00005BC25639F111F159A4823F92D55E1CABBC
:104B100098AA07D8015B8312BE853124C37D0C554A
:104B2000745DBE72FEB1DE80A706DC9B74F19BC192
:104B3000C1699BE48647BEEFC69DC10FCCA10C2482
:104B40006F2CE92DAA84744ADCA9B05CDA88F97666
:104B500052513E986DC631A8C82703B0C77F59BFD0
:104B6000F30BE0C64791A7D55163CA0667292914FC
:104B7000850AB72738211B2EFC6D2C4D130D385399
:104B800054730A65BB0A6A762EC9C281852C72925B
:104B9000A1E8BFA24B661AA8708B4BC2A3516CC789
:104BA00019E892D1240699D685350EF470A06A10C2
:104BB00016C1A419086C371E4C774827B5BCB03411
:104BC000B30C1C394AAAD84E4FCA9C5BF36F2E68AF
:104BD000EE828F746F63A5781478C8840802C78C3E
:104BE000FAFFBE90EB6C50A4F7A3F9BEF27871C641
:104BF0005B455252205D20496E76616C69642044A9
:104C00006174612042756620417267756D656E74CE
:104C10000D0A005B455252205D20466C6173684965
:104C2000415020696E6974206661696C6564202D4D
:104C3000206572723A2025640D0A005B45525220AD
:104C40005D20436F756C646E27742066696E642006
:104C500076616C6964204465766963654B6579208B
:104C60002D206572723A2025640D0A005B45525270
:104C7000205D2063616C635F617265615F7061726A
:104C8000616D73206661696C6564202D20496E76C4
:104C9000616C696420696E7075742061646472650A
:104CA000737365730D0A005B455252205D20436F9C
:104CB000756C646E27742063616C756C617465201B
:104CC0004172656120506172616D73202D206572A3
:104CD000723A2025640D0A0046494C4553595354F5
:104CE000454D005444425F45585445524E414C0096
:104CF00064656661756C7400401E00BF00BFFBD226
:104D0000704700001D0000000000000001000000CE
:104D10002500000000000000010000003800000035
:104D20000200000001000000FF000000FFFFFFFF85
:104D3000000000001E000000000000000100000054
:104D40002600000000000000010000001B00000021
:104D50000200000001000000FF000000FFFFFFFF55
:104D600000000000008000400090004000800240F1
:104D70000090024000A0024000600840007008401F
:104D8000008008400090084000A0084000600940F2
:104D9000007009400080094000F009400B010C013F
:104DA0000D010E010F011001110112011C02000082
:104DB0000B0001000C0001000D0001000E000100BD
:104DC0000F0001001000010011000100120001009D
:104DD0001C0002000060084000700840008008408D
:104DE0000090084000A008400060094000700940A1
:104DF0000080094053746F72616765456E63323598
:104E000036484D41435348413235365349474E4168
:104E100054555245005B455252205D204669726DE3
:104E2000776172652073697A65203078256C582027
:104E3000726F756E64656420757020746F2074687D
:104E400065206E65617265737420736563746F723B
:104E500020626F756E64617279203078256C5820FD
:104E60006973206C6172676572207468616E20746A
:104E70006865206D6178696D756D206170706C6911
:104E8000636174696F6E2073697A65203078256C70
:104E9000580D0A005B455252205D204170706C69CC
:104EA000636174696F6E20283078256C58292064FE
:104EB0006F6573206E6F74207374617274206F6EEF
:104EC000206120706167652073697A6520283078D9
:104ED000256C582920616C69676E65642061646483
:104EE000726573730D0A0D0A005B455252205D20F6
:104EF00041524D5F5543505F526561642072657445
:104F000075726E656420302062797465730D0A00D5
:104F10005B424F4F545D20566572696679206E651D
:104F20007720616374697665206669726D77617256
:104F3000653A0D0A005B455252205D204865616468
:104F400065722070726F6772616D2073697A652077
:104F5000256C7520626967676572207468616E20D0
:104F60006275666665722025640D0A0D0A005B4550
:104F70005252205D204865616465722070726F67CF
:104F800072616D2073697A6520256C75206269678E
:104F9000676572207468616E2065787065637465FA
:104FA000642068656164657220256C750D0A0D0AC0
:104FB0000030313233343536373839414243444595
:104FC000460D5B424F4F545D205B002B005D0D0A88
:104FD000005D005B424F4F545D20534841323536EF
:104FE0003A2025730D0A003C6572726F72206D6560
:104FF0007373616765206C656164696E6720746FA7
:10500000207265626F6F743E0000000000000000B7
:105010000000000000000000000000000000000090
:105020000000000000000000000000000000000080
:105030000000000000000000000000000000000070
:105040000000000000000000000000000000000060
:105050005B424F4F545D206572726F72206D6573B5
:1050600073616765206C656164696E6720746F2089
:105070007265626F6F743A2025730D0A005B424FB0
:105080004F545D204D62656420426F6F746C6F6198
:105090006465720D0A005B424F4F545D2041524DD2
:1050A0003A2000253032686858005B424F4F545D0B
:1050B000204F454D3A20005B424F4F545D204C61DC
:1050C000796F75743A20256C7520256C580D0A008F
:1050D0005B424F4F545D204170706C69636174692D
:1050E0006F6E2773207374617274206164647265DB
:1050F00073733A203078256C580D0A005B424F4F8D
:10510000545D204170706C69636174696F6E2773C0
:10511000206A756D7020616464726573733A203023
:1051200078256C580D0A005B424F4F545D2041704A
:10513000706C69636174696F6E2773207374616347
:105140006B20616464726573733A203078256C5803
:105150000D0A005B424F4F545D20466F72776172BB
:1051600064696E6720746F206170706C696361742C
:10517000696F6E2E2E2E0D0A0D0A005B45525220CD
:105180005D204661696C656420746F206A756D707E
:1051900020746F206170706C69636174696F6E2137
:1051A0000D0A005B424F4F545D2041637469766580
:1051B000206669726D7761726520696E74656772C9
:1051C00069747920636865636B3A0D0A005B424F2E
:1051D0004F545D2056657273696F6E3A20256C6C72
:1051E000750D0A005B424F4F545D20416374697630
:1051F00065206669726D7761726520736C6F7420CB
:10520000697320656D7074790D0A005B45525220F8
:105210005D204661696C656420746F20626F6F74F5
:1052200020616374697665206170706C6963617474
:10523000696F6E2025642074696D65730D0A005BCB
:10524000455252205D20416374697665206669721B
:105250006D7761726520696E746567726974792013
:10526000636865636B206661696C65640D0A005B49
:10527000424F4F545D20536C6F7420256C7520662F
:1052800069726D7761726520696E746567726974A1
:105290007920636865636B3A0D0A005B424F4F5497
:1052A0005D20557064617465206163746976652062
:1052B0006669726D77617265207573696E672073B8
:1052C0006C6F7420256C753A0D0A005B45525220B4
:1052D0005D20536C6F7420256C75206669726D7744
:1052E0006172652073697A6520746F6F206C6172DA
:1052F000676520256C75203E20256C750D0A005BC6
:10530000455252205D20536C6F7420256C752066C9
:1053100069726D7761726520696E74656772697410
:105320007920636865636B206661696C65640D0A4A
:10533000005B424F4F545D20536C6F7420256C7599
:10534000206669726D77617265206973206F6620CF
:105350006F6C64657220646174650D0A005B424F76
:105360004F545D20536C6F7420256C752069732039
:10537000656D7074790D0A005B424F4F545D204E8D
:10538000657720616374697665206669726D7761FF
:1053900072652069732076616C69640D0A005B4553
:1053A0005252205D204669726D776172652075707A
:1053B00064617465206661696C65640D0A005B4216
:1053C0004F4F545D20416374697665206669726D44
:1053D000776172652075702D746F2D646174650D31
:1053E0000A005B455252205D204163746976652056
:1053F0006669726D7761726520696E76616C696449
:105400000D0A000000000000000000000000000085
:10541000000000000000000000000000000000008C
:10542000000000000000000000000000000000007C
:10543000000000000000000000000000000000006C
:10544000000000000000000000000000000000005C
:10545000000000000000000000000000000000004C
:1054600000000000F8B500BFF8BC08BC9E467047BD
:10547000F8B500BFF8BC08BC9E46704700000000AD
:1054800001B40248844601BC604700BF917E02100F
:1054900001B40248844601BC604700BFA97E0210E7
:1054A00001B40248844601BC604700BF997E0210E7
:1054B00001B40248844601BC604700BFA17E0210CF
:0854C000ECACFF7F01000000CD
:0854C80065010300B93803007F
:0454D0004101030093
:1054D40000000000C944030070650220001BB700EF
:1054E40001000000FFFFFFFFC136030000000000C1
:1054F40000000000000000000000000000000000A8
:105504008D37030000000000F9380300F937030069
:105514000000000048220220000000002454030080
:105524004454030004540300000000000000000081
:105534000000000000000000000000000000000067
:105544000000000000000000000000000000000057
:105554000000000000000000000000000000000047
:105564000000000000000000000000000000000037
:105574000000000000000000000000000000000027
:0400000330000221A6
:00000001FF
