:020000040003F7
:1000000000400420110203008D020300910203004E
:100010008902030089020300890203000000000036
:100020000000000000000000000000009502030036
:100030008902030000000000990203009D020300F2
:10004000A1020300A5020300A9020300AD02030000
:10005000B1020300B5020300B9020300BD020300B0
:10006000C1020300C5020300C9020300CD02030060
:10007000DD410300D5020300D9020300DD020300C5
:10008000E1020300E5020300E9020300ED020300C0
:10009000F1020300F5020300F9020300FD02030070
:1000A0000103030005030300090303000D0303001C
:1000B0001103030015030300190303001D030300CC
:1000C0002103030025030300290303002D0303007C
:1000D0003103030035030300390303003D0303002C
:1000E0004103030045030300490303004D030300DC
:1000F0005103030055030300590303005D0303008C
:100100006103030065030300690303006D0303003B
:100110007103030075030300790303007D030300EB
:100120008103030085030300890303008D0303009B
:1001300010B5054C237833B9044B13B1044800E0E3
:1001400000BF0123237010BDB02202200000000078
:10015000706803000C4B43B10C480D4910B500E02A
:1001600000BF0C48036823B910BD0A48036833B9BF
:100170007047094B002BF7D0BDE810401847064BDD
:10018000002BF5D0184700BF000000007068030086
:10019000B4220220AC22022000000000154B002BEC
:1001A00008BF134B9D46A3F5803A00218B460F46AE
:1001B0001348144A121A05F03DFE0F4B002B00D0D5
:1001C00098470E4B002B00D09847002000210400D8
:1001D0000D000D48002802D00C4803F05DF805F032
:1001E000DBFD2000290003F0D3F803F052F800BF34
:1001F0000000080000400420000000004933030014
:10020000B02202203867022099320300000000006B
:10021000124880471249134A134B9A42BEBF51F805
:10022000040B42F8040BF8E71049114A00209142F0
:10023000BCBF41F8040BFAE700200E490E4A914278
:10024000BCBF41F8040BFAE70C490D4A9142BCBF10
:1002500041F8040BFAE762B60A4880479934030074
:10026000DC68030000220220B0220220B02202201B
:100270003867022038670220003004200030042054
:10028000004004209D010300FFF7FEBF40480047E7
:100290004048004740480047404800474048004722
:1002A0004048004740480047404800474048004712
:1002B0004048004740480047404800474048004702
:1002C00040480047404800474048004740480047F2
:1002D00040480047404800474048004740480047E2
:1002E00040480047404800474048004740480047D2
:1002F00040480047404800474048004740480047C2
:1003000040480047404800474048004740480047B1
:1003100040480047404800474048004740480047A1
:100320004048004740480047404800474048004791
:100330004048004740480047404800474048004781
:100340004048004740480047404800474048004771
:100350004048004740480047404800474048004761
:100360004048004740480047404800474048004751
:100370004048004740480047404800474048004741
:100380004048004740480047404800474048004731
:100390008D020300910203009502030099020300FD
:1003A0009D02030089020300F93D0300793F030029
:1003B000953F0300314003005D4003008940030086
:1003C000B54003005546030089020300093D0300C0
:1003D0000F3D0300890203001B3D0300B93E0300EB
:1003E000D13E0300E93E0300013F0300193F030033
:1003F000313F0300493F0300613F030089020300CE
:1004000089020300890203008902030089020300B4
:1004100089020300890203008902030089020300A4
:1004200089020300E14003000D410300394103004C
:1004300065410300153D0300213D0300B13F03006A
:10044000890203008902030089020300ED410300D1
:100450008902030089020300890203008902030064
:10046000890203008902030089020300D93F0300C7
:10047000054003008902030089020300890203008A
:10048000890203008902030089020300053E03007C
:1004900089020300D0400B1CD1409C46203AD34037
:1004A0001843524263469340184370479140031CDF
:1004B00090409C46203A9340194352426346D340B1
:1004C0001943704781F0004102E000BF83F0004310
:1004D00030B54FEA41044FEA430594EA050F08BFDF
:1004E00090EA020F1FBF54EA000C55EA020C7FEAA3
:1004F000645C7FEA655C00F0E2804FEA5454D4EB20
:100500005555B8BF6D420CDD2C4480EA020281EAE9
:10051000030382EA000083EA010180EA020281EA21
:100520000303362D88BF30BD11F0004F4FEA013173
:100530004FF4801C4CEA113102D0404261EB410182
:1005400013F0004F4FEA03334CEA133302D0524208
:1005500063EB430394EA050F00F0A780A4F10104C4
:10056000D5F1200E0DDB02FA0EFC22FA05F28018FE
:1005700041F1000103FA0EF2801843FA05F35941E4
:100580000EE0A5F120050EF1200E012A03FA0EFC63
:1005900028BF4CF0020C43FA05F3C01851EBE3718D
:1005A00001F0004507D54FF0000EDCF1000C7EEBAA
:1005B00000006EEB0101B1F5801F1BD3B1F5001FE8
:1005C0000CD349085FEA30004FEA3C0C04F1010407
:1005D0004FEA445212F5800F80F09A80BCF1004F30
:1005E00008BF5FEA500C50F1000041EB045141EAB2
:1005F000050130BD5FEA4C0C404141EB010111F4B3
:10060000801FA4F10104E9D191F0000F04BF01465D
:100610000020B1FA81F308BF2033A3F10B03B3F13B
:1006200020020CDA0C3208DD02F1140CC2F10C02CB
:1006300001FA0CF021FA02F10CE002F11402D8BF29
:10064000C2F1200C01FA02F120FA0CFCDCBF41EAF5
:100650000C019040E41AA2BF01EB0451294330BDC4
:100660006FEA04041F3C1CDA0C340EDC04F11404A1
:10067000C4F1200220FA04F001FA02F340EA030078
:1006800021FA04F345EA030130BDC4F10C04C4F1BE
:10069000200220FA02F001FA04F340EA030029469E
:1006A00030BD21FA04F0294630BD94F0000F83F4E8
:1006B000801306BF81F480110134013D4EE77FEACB
:1006C000645C18BF7FEA655C29D094EA050F08BF17
:1006D00090EA020F05D054EA000C04BF19461046F8
:1006E00030BD91EA030F1EBF0021002030BD5FEA3C
:1006F000545C05D14000494128BF41F0004130BD64
:1007000014F580043CBF01F5801130BD01F00045B7
:1007100045F0FE4141F470014FF0000030BD7FEA2A
:10072000645C1ABF194610467FEA655C1CBF0B4625
:10073000024650EA013406BF52EA033591EA030F3C
:1007400041F4002130BD00BF90F0000F04BF002134
:10075000704730B54FF4806404F132044FF0000567
:100760004FF0000150E700BF90F0000F04BF0021E0
:10077000704730B54FF4806404F1320410F0004546
:1007800048BF40424FF000013EE700BF42004FEA41
:10079000E2014FEA31014FEA02701FBF12F07F43BE
:1007A00093F07F4F81F06051704792F0000F14BFBB
:1007B00093F07F4F704730B54FF4607401F00045FF
:1007C00021F0004120E700BF50EA010208BF704756
:1007D00030B54FF000050AE050EA010208BF70474B
:1007E00030B511F0004502D5404261EB41014FF4B4
:1007F000806404F132045FEA915C3FF4DCAE4FF0B8
:1008000003025FEADC0C18BF03325FEADC0C18BF9E
:10081000033202EBDC02C2F1200300FA03FC20FAEF
:1008200002F001FA03FE40EA0E0021FA02F114443C
:10083000C1E600BF70B54FF0FF0C4CF4E06C1CEA51
:1008400011541DBF1CEA135594EA0C0F95EA0C0FC6
:1008500000F0DEF82C4481EA030621EA4C5123EA39
:100860004C5350EA013518BF52EA033541F4801168
:1008700043F4801338D0A0FB02CE4FF00005E1FB1B
:1008800002E506F00042E0FB03E54FF00006E1FB65
:1008900003569CF0000F18BF4EF0010EA4F1FF04A8
:1008A000B6F5007F64F5407404D25FEA4E0E6D41E8
:1008B00046EB060642EAC62141EA55514FEAC520F9
:1008C00040EA5E504FEACE2EB4F1FD0C88BFBCF575
:1008D000E06F1ED8BEF1004F08BF5FEA500E50F126
:1008E000000041EB045170BD06F0004646EA0101EC
:1008F00040EA020081EA0301B4EB5C04C2BFD4EB1E
:100900000C0541EA045170BD41F480114FF0000E16
:10091000013C00F3AB8014F1360FDEBF002001F084
:10092000004170BDC4F10004203C35DA0C341BDCFE
:1009300004F11404C4F1200500FA05F320FA04F0D0
:1009400001FA05F240EA020001F0004221F0004104
:1009500010EBD37021FA04F642EB06015EEA430E77
:1009600008BF20EAD37070BDC4F10C04C4F12005A7
:1009700000FA04F320FA05F001FA04F240EA02005A
:1009800001F0004110EBD37041F100015EEA430E2B
:1009900008BF20EAD37070BDC4F1200500FA05F24B
:1009A0004EEA020E20FA04F301FA05F243EA0203CA
:1009B00021FA04F001F0004121FA04F220EA0200D9
:1009C00000EBD3705EEA430E08BF20EAD37070BD1F
:1009D00094F0000F0FD101F00046400041EB0101FF
:1009E00011F4801F08BF013CF7D041EA060195F0E1
:1009F000000F18BF704703F00046520043EB03039B
:100A000013F4801F08BF013DF7D043EA0603704787
:100A100094EA0C0F0CEA135518BF95EA0C0F0CD092
:100A200050EA410618BF52EA4306D1D181EA0301D8
:100A300001F000414FF0000070BD50EA410606BFD2
:100A40001046194652EA430619D094EA0C0F02D117
:100A500050EA013613D195EA0C0F05D152EA03365C
:100A60001CBF104619460AD181EA030101F000417A
:100A700041F0FE4141F470014FF0000070BD41F0C3
:100A8000FE4141F4780170BD70B54FF0FF0C4CF49D
:100A9000E06C1CEA11541DBF1CEA135594EA0C0FBC
:100AA00095EA0C0F00F0A7F8A4EB050481EA030E09
:100AB00052EA03354FEA013100F088804FEA0333F0
:100AC0004FF0805545EA131343EA12634FEA0222BE
:100AD00045EA111545EA10654FEA00260EF000417F
:100AE0009D4208BF964244F1FD0404F5407402D2D1
:100AF0005B084FEA3202B61A65EB03055B084FEA62
:100B000032024FF480104FF4002CB6EB020E75EB5E
:100B1000030E22BFB61A754640EA0C005B084FEA86
:100B20003202B6EB020E75EB030E22BFB61A754603
:100B300040EA5C005B084FEA3202B6EB020E75EB4E
:100B4000030E22BFB61A754640EA9C005B084FEAC6
:100B50003202B6EB020E75EB030E22BFB61A7546D3
:100B600040EADC0055EA060E18D04FEA051545EAC2
:100B700016754FEA06164FEAC30343EA52734FEA6B
:100B8000C2025FEA1C1CC0D111F4801F0BD141EAE4
:100B900000014FF000004FF0004CB6E711F4801F49
:100BA00004BF01430020B4F1FD0C88BFBCF5E06F29
:100BB0003FF6AFAEB5EB030C04BFB6EB020C5FEA39
:100BC000500C50F1000041EB045170BD0EF0004E8E
:100BD0004EEA113114EB5C04C2BFD4EB0C0541EAC0
:100BE000045170BD41F480114FF0000E013C90E6BD
:100BF00045EA060E8DE60CEA135594EA0C0F08BF81
:100C000095EA0C0F3FF43BAF94EA0C0F0AD150EA7F
:100C100001347FF434AF95EA0C0F7FF425AF104612
:100C200019462CE795EA0C0F06D152EA03353FF43A
:100C3000FDAE1046194622E750EA410618BF52EAB7
:100C400043067FF4C5AE50EA41047FF40DAF52EA8B
:100C500043057FF4EBAE12E74FEA4102B2F1E04305
:100C600024BFB3F5001CDCF1FE5C0DD901F0004C93
:100C70004FEAC0024CEA5070B2F1004F40EB8300E3
:100C800008BF20F00100704711F0804F21D113F10F
:100C90003872BCBF01F00040704741F480114FEA48
:100CA0005252C2F11802C2F1200C10FA0CF320FAD1
:100CB00002F018BF40F001004FEAC1234FEAD323EE
:100CC00003FA0CFC40EA0C0023FA02F34FEA430358
:100CD000CCE77FEA625307D150EA01331EBF4FF0E1
:100CE000FE4040F44000704701F0004040F0FE40FC
:100CF00040F40000704700BF53B94AB9002908BF4B
:100D000000281CBF4FF0FF314FF0FF3000F070B9EA
:100D1000ADF1080C6DE904CE00F006F8DDF804E052
:100D2000DDE9022304B070472DE9F04F8C460D46F3
:100D30000446099E002B4CD18A42964665D9B2FAE8
:100D400082F757B1C7F1200CBD4000FA07F402FA50
:100D500007FE20FA0CF040EA050C4FEA1E4A4FEA63
:100D600014481FFA8EF2BCFBFAF90AFB19C509FBFD
:100D700002FB48EA0545AB4509D97544AB4540F24D
:100D80001F81AE4500F21C81A9F102097544A5EB53
:100D90000B05A3B2B5FBFAF00AFB105500FB02F2FB
:100DA00043EA0544A24208D914EB0E0480F01181F5
:100DB000A24240F20E8102387444A41A40EA09406B
:100DC0000021002E60D0FC40002334607360BDE839
:100DD000F08F8B4207D9002E54D0002186E82100E5
:100DE0000846BDE8F08FB3FA83F1002940F088800F
:100DF000AB42C0F0E880824240F2E5800846002E17
:100E000042D086E81010BDE8F08F1AB94FF0010EFD
:100E1000BEFBF2FEBEFA8EF7C7BBA5EB0E054FEA8E
:100E20001E4C1FFA8EF80121230CB5FBFCF20CFBC3
:100E3000125508FB02F043EA0545A84208D975445B
:100E4000A84240F2B980AE4500F2B680023A75443D
:100E50002D1AA3B2B5FBFCF00CFB105508FB00F8F3
:100E600043EA0544A04508D914EB0E0480F0A6809F
:100E7000A04540F2A38002387444A4EB080440EA81
:100E800002409EE731463046BDE8F08FC7F12002B0
:100E90000EFA07FE05FA07F300FA07F4D5404FEA09
:100EA0001E4CD0401FFA8EF8B5FBFCF118430CFB2A
:100EB000115201FB08F3050C45EA0245AB4208D983
:100EC0007544AB4240F28E80AE4500F28B80023911
:100ED0007544EB1A85B2B3FBFCF20CFB123302FB38
:100EE00008F045EA0345A84206D915EB0E0572D273
:100EF000A84270D9023A75442D1A42EA014193E79B
:100F0000C1F120048B4002FA01F705FA01FCE2402E
:100F100020FA04F8E54000FA01FE1A4348EA0C0CF6
:100F20004FEA12484FEA1C431FFA82FAB5FBF8F960
:100F300008FB195509FB0AF043EA0545A84207D901
:100F40001544A8424BD9AA4249D8A9F1020915442F
:100F50002D1A1FFA8CFCB5FBF8F008FB105500FBAE
:100F60000AFA4CEA05439A4505D99B1835D29A45A9
:100F700033D90238134440EA0940A3EB0A03A0FB2B
:100F800007894B45C4464D4602D306D1C64504D217
:100F90000138B8EB070C69EB02052EB3BEEB0C026F
:100FA00063EB0503CA4003FA04F4CB400021144369
:100FB00073603460BDE8F08F013A49E701385CE7BF
:100FC00009F1FF39E3E6841A65EB03050120AC461D
:100FD00015E70138F1E6013A8EE70138CBE709F170
:100FE000FF39B5E7013974E73146BDE8F08F00BF3E
:100FF000704700BF00207047002070472DE9D043A4
:10100000DDE906891F46036816469B6A0446984731
:1010100002460B4630463946FFF76EFE134302D0B8
:101020000020BDE8D083236820469B6A984702468B
:101030000B4640464946FFF75FFE1343F0D1236855
:1010400016EB08069B6B204647EB09079847B94209
:1010500008BFB0422CBF01200020BDE8D0832DE99D
:10106000D043DDE906891F46036816465B6A0446DD
:10107000984702460B4630463946FFF73DFE13437C
:1010800002D00020BDE8D083236820465B6A9847E1
:1010900002460B4640464946FFF72EFE1343F0D169
:1010A000236816EB08069B6B204647EB0907984719
:1010B000B94208BFB0422CBF01200020BDE8D08358
:1010C000016870B5096B14461D46064688470246FE
:1010D0000B4620462946FFF70FFE134301D00020A0
:1010E00070BDDDE90423A4185D41336814F1FF32BB
:1010F000196B304645F1FF33884702460B462046C0
:101100002946FFF7F9FD1343E9D1336830469B6B5D
:101110009847A94208BFA0422CBF0120002070BD03
:10112000012000217047D0F8EC000021704790F8B2
:10113000143113B1D0E93E017047002000217047FF
:10114000FF20704700487047F85F0300034610B166
:1011500007C983E8070070477047F0B5DDE9076706
:101160004468856814F0010F4FEA64040168DDF8F3
:1011700014E01CBF28594158CDE90767CDF814E0A9
:101180002819BDE8F04008472DE9F341064604461A
:101190001F48002546F8040B4FF0FF3004F13007DC
:1011A0000090304600F0A6FE9DF92010384684F8E5
:1011B000305001F0C0FA00220023C4E93E2303238B
:1011C0004FF00108C4F8003108230999C4F804312C
:1011D000C4F80C3130466563A563E5632564C4F843
:1011E000F050C4F8105184F81451C4F80851C4F8F0
:1011F000EC50C4F8648084F8E05000F0B2FE384649
:10120000414603F078FA204602B0BDE8F08100BF05
:101210000860030030B50C46054685B01022002159
:10122000684604F007FE094B21460093084B6846C8
:101230000393029500F09CFD039B044613B19B6849
:1012400068469847204605B030BD00BF91140300A2
:10125000EC5F03002DE9F041FF261E604C781C2A4C
:101260001C6037DD0125B046069A079C02F1100C80
:101270000127C2F8008091F81CE0BEF1000F03D0F6
:101280007F000EF1FF3EF8E7012F276019D04F7F56
:1012900017602768D0F8ECE0774502D3BEF1000F65
:1012A00001D1C0F8EC702768B7F5805F04D11768EA
:1012B0001E68BE4218BF1F6090F8E0702F4380F890
:1012C000E07004326D009445EDB201F1020104F1C9
:1012D0000404CDD10020BDE8F081F0B51D461446D0
:1012E000D0E93E23AB4208BFA24215D3416E99B16B
:1012F00001290FD000EBC1008B1E8830002B0BDBC7
:1013000070E90267AF4208BFA64201D2581CF0BD87
:10131000013BF3E70020F0BD4FF0FF30F0BD10B50A
:101320000446FFF7DAFF03465A1CD4F8EC0009D054
:10133000234493F8E01000220123194204D004EB67
:101340008204606D002110BD01325B00042A5BB293
:10135000F3D1F7E7F0B500F1600600270320082479
:10136000059DEB1A0D78254208D03768974201DABF
:101370009F420BDB074625EA04050D700138451C2A
:101380004FEA5404A6F10406ECD13846F0BD0246FB
:10139000006818B9106808B9101D106070472DE971
:1013A000F84FDDE90C6704468B46D0F80C3100F1AC
:1013B000300A0021504604F1040815464FEAD309CB
:1013C00003F099F95946404600F010FED4F8004168
:1013D00004F10054013CE400002C08DA00244C45E0
:1013E00010D00021404600F001FE0134F7E722460C
:1013F000DDE90A01FFF74EF8C1B2404600F0F6FD04
:10140000083CE9E705F1FF3900240025BD4208BF8B
:10141000B44209D00021404600F0E8FD013409F84B
:10142000010F45F10005F1E75046012103F063F992
:101430000020BDE8F88F0000F0B51F4690F8143189
:1014400085B004460D461646E3B11048FFF79FFFEE
:10145000D4F80431CDE90067C4F80C31616BDDE9E3
:101460000A232046CDE902232A46FFF798FFD4F845
:1014700008310546C4F80C310448FFF788FF2846B8
:1014800005B0F0BD6FF47A65F9E700BFCC22022009
:1014900030B5082485B0C0F80441C0F80C415A2189
:1014A000DDE90A45CDE90023CDE90245089AFFF7B9
:1014B00076FF05B030BD00232DE9F04395B004ADB3
:1014C00002928DE80A0003932A465A210446FFF748
:1014D00066FF00284AD19DF8103003F00303032B68
:1014E00003D09DF81130002B40D09DF81200013040
:1014F0000A2860663ADC00234FF00F0E194604F10B
:10150000680904F1E00804F1900C013155F821203C
:1015100015F8216022F0FF0202F5807249F8042BD1
:10152000013A06F00F06134408F8016B0EEA060EA6
:101530001E46DF178842ECE8026703F10103E4DC92
:101540000122002312EA0E0008D0002004EB8303DE
:101550005B6DC4F8EC3015B0BDE8F0830133520088
:10156000042BD2B2EED1C4F8EC00F4E74FF0FF3018
:10157000F1E7002330B595B0154602928DE80A00D8
:10158000039304AA5A210446FFF709FF00283CD11F
:101590009DF8123013F0040237D19DF91730002B5B
:1015A00033DB059B282D03F101034FEAD303C4F875
:1015B000F8304FF0030363634FF00203A3634FF06F
:1015C0002003C4F8FC20E36307DD01239DF83820E5
:1015D000121122B15B00013AFBE74FF48073C4F8AB
:1015E000F03004F15403019304F1440300932A46BC
:1015F00004F1400304A92046FFF72CFE0020236CD1
:10160000C4F80401E36315B030BD4FF0FF30FAE7D2
:101610002DE9F84FDDE90C6704468B46D0F80C3114
:1016200000F1300A00215046251D90464FEAD309AB
:1016300003F061F85946284600F0D8FCD4F8004180
:1016400004F10054013CE400002C08DA00244C456D
:1016500010D00021284600F0C9FC0134F7E72246EB
:10166000DDE90A01FEF716FFC1B2284600F0BEFC14
:10167000083CE9E708F1FF344FF000094FF000089B
:10168000B94508BFB04509D014F8011F284600F03D
:10169000ADFC18F1010849F10009F1E750460121BC
:1016A00003F029F80020BDE8F88F2DE9F347044640
:1016B0008A461F461646D0F80C3100F13009002149
:1016C0004846251D4FEAD30803F015F85146284631
:1016D00000F08CFC7B1C08BFB6F1FF3F1BD0D4F898
:1016E000004104F10054013CE400002C08DA00241D
:1016F000444510D00021284600F078FC0134F7E77B
:10170000224630463946FEF7C5FEC1B2284600F0F3
:101710006DFC083CE9E70D9B0AA900930EC9284619
:1017200000F074FC4846012102F0E5FF002002B001
:10173000BDE8F0877FB506461248FFF728FE96F809
:1017400014513DB9C6F810510E48FFF720FE284647
:1017500004B070BDD6F81041013CC6F810417CB908
:1017600003940294019400944FF0FF324FF0FF3342
:1017700004213046FFF799FF86F814410546E3E758
:101780000025E1E7CC220220DFB500240027064E29
:10179000039402940194009432403B40FFF785FF8C
:1017A000204604B0D0BD00BF00F0FFFF2DE9F0419E
:1017B000064642F210744FF00108002586B005AFCE
:1017C000012001F001FE4FF0FF33CDF80C800297AD
:1017D000019500954FF0FF3205213046FFF765FF78
:1017E0009DF81430DB0705D5013CE9D1204606B051
:1017F000BDE8F0810120FAE70023012130B587B070
:1018000006AA22F8043D02920391019300934FF03F
:10181000FF324FF0FF3305210546FFF746FF20B1A9
:101820004FF0FF34204607B030BD03900290019086
:1018300000904FF0FF324FF0FF3366212846FFF74C
:1018400034FF0028ECD103900290019000904FF0FB
:10185000FF324FF0FF3399212846FFF726FF003073
:1018600018BF012044422846FFF7A0FF0028D9D125
:10187000D6E7002330B587B003930293019300931A
:101880004FF0FF324FF0FF3306210546FFF70DFF03
:10189000044618B14FF0FF3007B030BD2846FFF7BF
:1018A00085FF0028F6D00123039305AB0293019432
:1018B00000944FF0FF324FF0FF3305212846ADF87A
:1018C0001440FFF7F2FE0028E4D19DF8140080F0E8
:1018D000020040F34000DFE72DE9F04F9B4690F80F
:1018E000143185B004460D469246002B41D0DFF8F6
:1018F000A080DDE90E23134341D00027D4F8F090F7
:101900003B464A4650465946FFF7F6F9DDE90E01D7
:1019100080185941B94208BF48451D482CBFA9EB62
:101920000209DDF83890FFF732FD2046FFF7A1FFEE
:1019300038BB00274E46CDE900ABCDE902672A4609
:10194000A16B2046FFF764FEDDE90E231AEB090ABE
:101950004BEB070BB2EB090263EB070320464D4448
:10196000CDE90E23FFF722FF80B14046FFF70FFDC0
:10197000BFE76FF47A64204605B0BDE8F08F00241D
:10198000F9E7044C0248FFF702FDF4E7024CF9E7DF
:10199000CC2202205CF0FFFF5DF0FFFF2DE9F04F4D
:1019A00090F8141187B08246DDE9104516461F46AF
:1019B000002900F08680FFF790FCB0F1000B03DAFD
:1019C000454807B0BDE8F08F0AEB0B0314EB06089F
:1019D00093F8E03045EB07098DF81730DAE93E233C
:1019E0004B4508BF4245EBD3DAF800303246196B5D
:1019F00050463B46884702460B4630463946FFF77D
:101A00007BF91343DCD1DAF8003018F1FF32196B9F
:101A1000504649F1FF33884702460B464046494647
:101A2000FFF76AF91343CBD1DFF8B080002C4BDD10
:101A30000AEBCB09D9F89030224600930DF117013B
:101A400033465046FFF786FC0AEB8000456D436C39
:101A50002A460393304600233946FFF74DF9131900
:101A60009D42404694BFAD1A2546FFF790FC504674
:101A7000FFF7FFFE50BB2246E317CDE90023039991
:101A800032463B465046FFF77FFE641B761947F10E
:101A90000007002C0DDDD9E92423BB4208BFB24268
:101AA0003FBF0BF1010B0AEB0B0393F8E0308DF80D
:101AB00017305046FFF77AFE40B14046FFF767FC0B
:101AC000B4E76FF47A607CE700207AE70348FFF719
:101AD0005EFC034875E700BF5BF0FFFFCC220220ED
:101AE0005DF0FFFF30B504468BB01022002106A840
:101AF00004F0A0F94648FFF74AFC94F814310BB9FA
:101B0000C4F81031D4F810310133012BC4F810316E
:101B100006D000253E48FFF73AFC28460BB030BD02
:101B20002046FFF769FE013002D16FF47A65F1E7D4
:101B30000323039305AB029300234FF0FF3201937D
:101B400000939F214FF0FF332046FFF7AEFD05467F
:101B50000028EAD19DF81430BF2B0ED12046FFF7A4
:101B600088FE03950295019500954FF0FF324FF0E6
:101B7000FF3398212046FFF798FD2046FFF716FE19
:101B8000002843D006A92046FFF744FB08B1214DA9
:101B9000C0E7079A06992046FFF7EBFC05460028A8
:101BA000F5D1D4E93E230899A26612F1FF3243F140
:101BB000FF33C4E9242301BBD4F808310021C4F861
:101BC0000C3101234FF0807084F81431D4E93E23A6
:101BD000994208BF90429CD200234FF0FF320393FA
:101BE000029301930093B7214FF0FF332046FFF794
:101BF0005CFD0423C4F800318CE7099A002ADBD08D
:101C00002046FFF758FC0028D6D0C0E7024D81E7F8
:101C1000CC2202205EF0FFFF5DF0FFFF38B50446E6
:101C20000546054B44F8043BFFF784FD204600F0D1
:101C3000F1F8284638BD00BF0860030010B504461F
:101C4000FFF7ECFF20464FF48C7101F059FB204662
:101C500010BD02F00DBD02F018BD02F019BD02F07A
:101C60001ABD000070B505460A4E3046FFF78FFBDF
:101C7000284604F011FE0446284602F003FD01F058
:101C80002FFB68603046FFF782FB201C18BF012045
:101C9000404270BDD422022038B505460948FFF7FE
:101CA00076FB284602F0E2FC003018BF01204442D7
:101CB000686808B101F026FB0248FFF768FB204680
:101CC00038BD00BFD42202202DE9F0410F46164650
:101CD00005469846084C2046FFF759FB43463A46CE
:101CE0003146284604F0E8FD05462046FFF74FFB45
:101CF0002846BDE8F08100BFD422022010B504229E
:101D00000649044604F07CF828B96379012B02D116
:101D1000A079013010BD4FF0FF3010BD946003007A
:101D200010B582780346012A06D1007888B95A682E
:101D3000140EFF2C03D010BD4FF0FF3010BD22F069
:101D40007F420A60DB789B00502BA8BF50234B607A
:101D500010BD812803D15A68100EFF2801D0002041
:101D600010BD22F07F428A60DB789B00CB60F6E7F3
:101D70002DE9F04F4FF000084FF0080989B0C36813
:101D800006AECDF80890CDF80C80009605910022A3
:101D9000196800230746884740452FDB3046FFF788
:101DA000ADFF002827DB4C464546C117013041F105
:101DB00000014FEAC10B4BEA507B4FEAC00A5D4578
:101DC00008BF544516D0FB68CDF80890CDF80C80BC
:101DD0000096196822462B463846884700280DDBB6
:101DE00005993046FFF79CFF002804DB083445F1D5
:101DF0000005E4E7002009B0BDE8F08F4FF0FF30A8
:101E0000F9E74368DA6822B9DA6812B903F1100217
:101E1000DA60704708B5064B0360FFF7F2FF4368CE
:101E20005A69904204BF00225A61FFF7EAFF08BDD9
:101E3000A460030013B590F90A30446890F90920B2
:101E400090F9081090F90B000090201D02F0A8FDF9
:101E500002B010BD10B50446FFF7DCFF20462C2170
:101E600001F04EFA204610BD38B5054601F08CF859
:101E7000074B1B68002B08DD064C2078A84218BFD2
:101E8000002401F08BF8204638BD0024F9E700BF9C
:101E9000F4220220DC2202201820044A1368591C74
:101EA0001160034A00FB0320704700BFF4220220A8
:101EB000DC220220002310B5437743610C4B08223B
:101EC0008361FF2304460261037701F05DF894F813
:101ED0002400FFF7C9FF606028B9FFF7DDFF94F821
:101EE000243060600370BDE8104001F057B800BFB7
:101EF00040420F0038B504460C48002520602046BB
:101F0000A3729DF9103021726272E3724FF0FF31BB
:101F100000F80C5F00F00FFC054B20462562A36221
:101F200084F82450FFF7C6FF204638BDA4600300A4
:101F3000351E0300436810B55B69044698420FD014
:101F4000836A98476068002362692169043002F05F
:101F5000EFFD6068A169043002F02EFE63685C61E9
:101F600010BD70B504460D4603681B69984760684C
:101F7000A56143699C4209D12946043002F01CFE48
:101F800023682046BDE870405B6918472046FFF78C
:101F9000D1FFF5E790F90C30013302D00C3002F09C
:101FA000AABB704738B5044603681B69984794F983
:101FB0001D506B1C637745B92046FFF7BBFF2946D0
:101FC0002046BDE83840FFF7E5BF38BD10B5437F78
:101FD0000446013B5BB2437713B90121FFF7DAFFF7
:101FE00023682046BDE810405B69184738B50446B1
:101FF0000D46FFF7D7FF60682946043002F0ECFD7C
:1020000005462046FFF7E2FF284638BDF7B50446EF
:102010001F460D461646FFF7C5FF237F60680193F4
:10202000089B2946009332463B46043002F0ECFD03
:1020300005462046FFF7CAFF284603B0F0BD0368F7
:102040009B68184710B50446074B00222360002305
:10205000C4E9022300230846A161236163610349A7
:1020600000F02AFD204610BDC46003003F2003009D
:1020700007B5009000F10801806900F05CFD03B035
:102080005DF804FB00F10801806900F084BD0000E8
:1020900010B50446024B0360FFF7F4FF204610BD65
:1020A000C46003000A4619B1024B00211B6818479F
:1020B000704700BF042202206C22002103F0BABE48
:1020C00010B16C21FFF7EEBF7047000000230360E2
:1020D0004360B9B9184B8360184BC360184B036158
:1020E000184B4361184B8361184BC361184B036253
:1020F00003F17453A3F52303A3F69243436281666D
:1021000000207047134B8360134BC36003F1794386
:1021100003F5740303F501630361104B4361104B36
:10212000836103F1D14303F5C01303F51E63C3615B
:102130000C4B03620C4BE1E767E6096A85AE67BBAF
:1021400072F36E3C3AF54FA57F520E518C68059B99
:10215000ABD9831FD89E05C107D57C3639590EF7F8
:10216000310BC0FFA78FF964A44FFABEFFF7AEBFD3
:102170002DE9F04F00F10803CBB000931A4600237D
:1021800052F8044B02A840F823400133082BF7D142
:102190004FF0000E05ABDDF824B0089F93E828103F
:1021A00002AC0193ADF1180294E85004BEF10F0F98
:1021B00062D84B7891F800901B0443EA0968CB7809
:1021C00048EA030391F8028043EA08231364364B7C
:1021D0004FEAF52853F82E3088EAB5181846136CE4
:1021E00088EA756818448CEA07032B4080447B40DA
:1021F0009844019BD8444344184646EA04094FEAF0
:10220000743306EA040B83EAB40309EA0A0949EACB
:102210000B0983EAB4530EF1010E4B44BEF1400F9B
:10222000434401F1040102F10402BB46CDF804A0CD
:102230001BD10293002309970690CDF820C0079583
:1022400003940496CDF814A0009A02A951F8231023
:10225000126801330A440099082B41F8042B0091BD
:10226000F2D100204BB0BDE8F08FB246674626465B
:10227000AC461C46054699E7936BD2F804904FEAAA
:10228000F34888EA734888EA9328536A1846136823
:1022900018444FEAB94383EAF913804483EAD90921
:1022A00008EB090392E700BFD06003002DE9F0417D
:1022B00005460F46144612B90020BDE8F0810368B8
:1022C00003F03F0013449A422B6082BF6B680133D6
:1022D0006B6008B3C0F14006B24216D305F128087E
:1022E0003246404403F09BFD41462846FFF740FF3D
:1022F0000028E2D13744A61B3446311B3F2C394419
:102300000CD8002CD8D00F4600202835224639465C
:10231000284403F084FDCFE71646EDE72846FFF793
:1023200027FF0028C9D1403CE7E7FFF7BFBF70B5E2
:102330000446802203680D4603F03F03581C3828EA
:10234000234483F8282004F1280674D80021C0F122
:102350003802304403F06EFD236861685A0F42EA88
:10236000C102110EDB0084F86010110C84F86110BA
:1023700084F86320110A1A0E84F864201A0C84F879
:1023800065201A0A84F8621084F8662084F86730A1
:1023900031462046FFF7ECFE00284BD1E37A2B7044
:1023A00063896B70A3681B0AAB70A368EB70E37B57
:1023B0002B71E3896B71E3681B0AAB71E368EB7106
:1023C000E37C2B72638A6B7223691B0AAB722369ED
:1023D000EB72E37D2B73E38A6B7363691B0AAB7348
:1023E0006369EB73E37E2B74638B6B74A3691B0AC5
:1023F000AB74A369EB74E37F2B75E38B6B75E369B7
:102400001B0AAB75E369EB7594F823302B76638C6C
:102410006B76236A1B0AAB76236AEB76A36E4BB905
:1024200094F827302B77E38C6B77636A1B0AAB77C2
:10243000636AEB7770BDC0F140020021304403F0C5
:10244000F9FC31462046FFF793FE0028F2D1014601
:10245000382230467EE7FFF76ABF00002DE9F04FD3
:1024600016460C46002189B00DF1100807461022CF
:1024700040469B468DF80010019103F0DBFC002ED6
:1024800051D06846FFF7EEFB0546002850D139468B
:102490006846FFF7DEFB07F18F039C4276D3684660
:1024A000FFF7D9FB81466846FFF7D7FB48448442D3
:1024B0006CD80134E41B4FEA5409A94507EB050128
:1024C00004D96846FFF7C5FB0544F6E7641B07948B
:1024D0000024DFF8C8A00497059506910DF10809BE
:1024E0006846FFF7BCFB58F834700546082307F12F
:1024F000400249466846FFF7E7FB30B919F800305B
:10250000AB4217D101300828F8D10134022CE7D1B1
:102510001F4F04E093FAA3F3039A9A42F5D1684659
:10252000FFF7BAFB00E01B4F384609B0BDE8F08F5B
:10253000194FF9E7129BBDF80A500BB1129B1D60B1
:10254000AB45E2D33A462B4631466846FFF7BCFB23
:1025500007460028D9D14FF0FF3393FAA3F3304652
:10256000821BAA42D6D210F8012B82EA030101F0A5
:102570000F015AF8211081EA131383EA121202F0B4
:102580000F025AF8222082EA1313E9E7014FC6E747
:102590000701FF800101FF800F01FF8054600300ED
:1025A00000232DE9F3478DF8003001934FF41423F5
:1025B000036003F570530B60036807468946002BE0
:1025C0004AD06846FFF74EFB0446002846D1244A0D
:1025D000244B25491344591A6846FFF73AFB6846CD
:1025E000FFF739FB80466846FFF737FB3D688044BC
:1025F00029466846FFF72DFB23460246064621463C
:102600002846FEF779FBD9F800A046430AF1FF31CE
:102610006846FFF71EFB002105461AF1FF302A46E7
:10262000234641F1FF31FEF767FB3B6800FB055590
:10263000B34205D1D9F80030AB4201D1984507D259
:102640006846FFF729FB094C204602B0BDE8F08739
:102650006846FFF721FBF7E7054CF5E7054CF3E784
:10266000DC680300B0220220002202200601FF8065
:102670000901FF800F01FF8013B50F4CD4E88F3F95
:10268000D90715D4204600F013FE88B114220B4B55
:102690001A218DE80C000A4823222223FEF774FD3C
:1026A000204600F016FE074A0749054800F0EFFDF6
:1026B000034802B010BD00BFF8220220005A620297
:1026C00000230220002202201D1C0300EFF31083D0
:1026D000DB4372B6044A117829B9044903F00103B7
:1026E0000B70012313707047192402201824022054
:1026F0000022034B1A70034B1B7803B162B670477C
:10270000192402201824022070B50E4604461546EE
:1027100001F0C3FF01360DD02946204601F0EBFF42
:102720002046012101F0C6FF2046BDE8704000218F
:1027300001F0BCBF70BD0022FFF7E6BF884207B5BD
:1027400002460AD0431C08D0013105D000230548B9
:102750000093194600F0A6FC0146084603B05DF858
:1027600004FB00BF3001018091F900305A1C01D1F7
:1027700018467047834201D1486870470C31F3E72F
:10278000421C13B504460AD0FFF7EEFF431C06D1E6
:102790000023224600931946024800F083FC02B051
:1027A00010BD00BF3001018091F900305A1C01D1E9
:1027B00018467047834201D1886870470C31F3E7AF
:1027C0002DE9F74FD0F804A004469AF83A30002BD0
:1027D00046D103685B68984763681B6A98423FD09C
:1027E000DAF82030DAF80840A0EB0308CAF8200035
:1027F000DAF80C30314808EA0308844246464FF0C4
:10280000000727D0DAE90A239AF83BB0A8FB008931
:10281000CDE900230025BBF1000F2BD05A464046DE
:102820004946FDF737FEDDE9002312EB080243EBD2
:10283000090390465A46994606460F46FDF736FE6E
:10284000B8EB000069EB0101A94208BFA0420AD21F
:10285000CAE90A01DAE90C23B6185F41CAE90C6734
:1028600003B0BDE8F08F013647F10007001B61EBB4
:102870000501EDE722462B4640464946FEF73CFA65
:10288000224606460F46404649462B46FEF734FA96
:10289000DDE9008918EB020849EB0309A94508BFE7
:1028A000A04502D2CAE90A89D4E7013647F10007F8
:1028B000B8EB040869EB0509F4E700BF40420F00DC
:1028C000824206D98A420BD9884294BF0020012057
:1028D0007047884206D98A428CBF00200120704789
:1028E00001207047002070472DE9F04746680746F1
:1028F00096F83A30002B66D196F83930002B62D129
:10290000FFF75EFF7D68D7F800A06B68002B50D002
:10291000D5E90C89D3E90001894508BF804504D376
:10292000DAF81430BDE8F0471847B0EB080861EB5F
:102930000909D5E906234B4508BF42452C6906D352
:10294000AB68224A934216D1444528BF44462A6ABE
:10295000DAF810301444EA681440204698473B687F
:102960005B68984722460146306AFFF7A9FF50B3DB
:102970003B685B69D6E795F83B20AAB140464946DB
:10298000FDF794FD4FF00009DFF844800F4A18EB83
:10299000000849EB0109002340464946FEF7ACF91F
:1029A000844228BF0446D2E7A3FB080103FB0911B8
:1029B000E8E73369306AF26818441040DAF81030FA
:1029C000BDE8F0471847BDE8F08700BF40420F0060
:1029D0003F420F002DE9F04F436885B093F838204F
:1029E0000546002A63D193F83A30002B5FD1036883
:1029F0001B6898472B68DB6998472E4B06680122B5
:102A0000002E08BF1E461F2302FA03F1B1425FFAEF
:102A100083FB02D0013BF7D19B4647684FF0070A82
:102A20003B1F1D2B28BF20273B1F0AFA03FA002358
:102A300016F1FF301F4C43F1FF313246C4FB0A014F
:102A4000FEF75AF900236C682A68236063605268B5
:102A50000393CDE9000190474FF000084FF00009C3
:102A600020626C683A46C4E90A89A66084F83BB0E3
:102A700001200021FDF71AFDDDE90023C4E906234A
:102A8000039B013884F8393084F83A300123E06040
:102A9000C4F810A02846C4E90C8984F83830FFF740
:102AA0008FFE284605B0BDE8F04FFFF71DBF05B00B
:102AB000BDE8F08F40420F0038B505460C46FFF7E1
:102AC00089FF00F061FA6B681C60BDE8384000F0D7
:102AD00065BA70B5044600F057FA2368DB6898477A
:102AE000636893F83A201AB1BDE8704000F056BA16
:102AF000012283F8392063685B68A3B12046FFF7A1
:102B00005FFE65686E68D5E90C01D6E9002399423D
:102B100008BF904207D3F3686B602B68002BEAD0A4
:102B2000B0689847E7E700226368204683F83920B9
:102B3000FFF7DAFED8E72DE9F84305460C461646BE
:102B40001F46DDF8208000F01FFA2846FFF738FE08
:102B500000216A68C4E900675368C4F8088033B983
:102B6000E36069B954602846FFF7BEFE0FE0D3E981
:102B700000894F4508BF4645F2D31946DB68EEE7AA
:102B8000D2E90C23BB4208BFB242CC60EBD2BDE815
:102B9000F84300F003BA38B505460C4600F0F4F9E6
:102BA0006A685368A34209D1DB6828465360FFF77F
:102BB0009BFEBDE8384000F0F1B91346002BF8D079
:102BC000DA689442F9D1E268DA60F2E738B504468F
:102BD000FFF700FF00F0D8F92046FFF7F1FD63682A
:102BE000D3E90C4500F0DAF92046294638BD08B58E
:102BF000FFF7ECFF08BD704700487047D061030045
:102C0000024B1B680BB1024818477047082202208C
:102C1000D061030010B5044600F0B6F9204610BD9F
:102C200010B5044600F0BAF9204610BD10B50446B0
:102C3000FFF708FA0D4BA0692360FFF7C7FF0022DA
:102C40000023C4E90C23002384F83830C4E90801C8
:102C5000C4E90A0184F8393084F83A3084F83B300A
:102C600084F83C3084F83D30204610BD04620300F7
:102C700010B50446FFF706FA002394F83D2084F8C7
:102C8000393084F83A302AB184F83D30BDE810403C
:102C900000F0B0BA10BDD0E90C23013243F10003BB
:102CA000C0E90C23D0E90A2312F57A7243F100033C
:102CB000C0E90A237047D0E90A2312F57A7243F17A
:102CC0000003FFF7D5B910B504468069FFF77EFF12
:102CD000D4E90A23801A61EB0301002908BFB0F58B
:102CE0007A7F14D3002908BFB0F5FA6F11D30129F8
:102CF00008BF002805D24FF47A73B0FBF3F000212F
:102D000010BD4FF47A720023FDF7F6FF10BD0020CE
:102D1000F5E70120F3E7D0B50446FFF7D4FF002321
:102D200084F838304FF47A73A0FB036703FB017714
:102D3000D4E90A2392197B41C4E90A23D4E90C237C
:102D400080185941C4E90C01D0BD2DE9F041044679
:102D500016461F4690F839507DBBFFF7DCFFB9429D
:102D600008BFB04204D3012384F83A30BDE8F081B3
:102D70004FF47A73A6FB030103FB0711D4E908673C
:102D8000012394F83D2036184F4184F8393084F8F7
:102D90003A5042B9A269126892F820201AB984F810
:102DA0003D3000F00FFA0023324684F83B302046D5
:102DB0003B46BDE8F041FFF75BB9BDE8F08100009C
:102DC0004FF08062014B5A60704700BF00ED00E099
:102DD00090F8393010B504464BB1002380F83930F3
:102DE00090F83B309BB9012380F83A3010BD90F841
:102DF0003C3063B190F83830013380F83830FFF759
:102E0000DFFF2046FFF747FF2046FFF754FF10BDC6
:102E10004FF00072014B5A60704700BF00ED00E0B8
:102E200010B50446FFF72EF9002384F83C30FFF775
:102E3000EFFF10BD10B50446054B0360FFF7F0FF30
:102E40002046FFF715FF2046FFF722F9204610BD68
:102E50000462030010B50446FFF7ECFF2046402152
:102E600000F04EFA204610BD03F03AB802F0EABF77
:102E7000F0B572B60023224A4FF0FF3613604FF0D0
:102E8000E0221D4651681F4F01F00F0101319A00E9
:102E900002F1604202F56142C2F88060C2F88061CE
:102EA00000224FEAC30E02EB0E0401323C44082A12
:102EB00084F80053F7D101339942E8DC4FF02062E7
:102EC000114B5A6040F2FA529860DA6000221146C3
:102ED0001D619C1801320C2A2176FAD14FF0FF3285
:102EE00059629A62094A4168DA621F221A630368CA
:102EF000002282F314889D4682F310880847F0BDB3
:102F000010E000E000E100E000ED00E0020000C0A1
:102F100007B500F039F8242101A8FFF70CFC124D89
:102F20000424012101A801F0E6FB284600F03DFA47
:102F3000002101A801F0DFFB284600F036FA013C31
:102F4000EFD10424094E012101A801F0D4FB304641
:102F500000F02BFA002101A801F0CDFB304600F073
:102F600024FA013CEFD1DBE7F0490200801A0600A9
:102F7000EFF31080C04300F001007047EFF30580CD
:102F8000003018BF0120704708B5FFF79FFB024AC9
:102F900013680133136008BD60240220044A1368DB
:102FA00023B1013B13600BB9FFF7A2BB704700BF11
:102FB0006024022008B501210D4BD3E84F2FC3E850
:102FC000401FD2B20028F8D12AB1FFF7DDFFBFF3CE
:102FD0004F8F20BFFDE7FFF7D1FF08B1FFF798FF44
:102FE000FFF7C6FF0028F9D0012000F052F900BF1A
:102FF000A0240220F0B5234D0E4635EA200528BF57
:1030000005468FB001AC174600213422204602F05D
:1030100011FF1D4B01952B44012B039605D91B4B2A
:103020009D4202D0033B9D4229D1F36B0293736B07
:103030000893FFF7A9FF164A13680133012B1360A9
:1030400009D12646134D0FCE0FC50FCE0FC50FCE9B
:103050000FC533682B60104D0FCC0FC50FCC0FC5BB
:103060000FCC0FC523682B600C4B1B6813B1A5F167
:1030700030009847FFF792FF00200FB0F0BD029795
:103080000894D6E70101FF80C2FE007F4001FF8067
:10309000642402206C240220A4240220682402203C
:1030A0000020704708B51146064B0124D3E84F2F86
:1030B000C3E8454FD2B212B97246FFF79BFFFFF744
:1030C00079FF00BF2867022038B5064C23683BB95A
:1030D000FFF792FD044D01462846FFF7A7FD256046
:1030E000206838BD18250220D824022008B583683E
:1030F00023B9054B1B6893F83A0008BDC068984790
:103100000028F6D008BD00BF1825022037B50446B8
:10311000174D2046FFF7EAFF20BBD4E90023591CD6
:1031200008BFB2F1FF3F02D02868FFF70EFE01A8EA
:10313000FFF770FD2046FFF7D9FF80B9D4E90023DF
:10314000013308BFB2F1FF3F0ED02B6893F839303E
:1031500053B901A8FFF764FDBFF36F8FD9E701A84A
:10316000FFF75EFD03B030BD00F060F8F1E700BF8F
:10317000182502207FB50E461546044618B910469C
:10318000884704B070BD431C14D0FFF79DFFFFF7C4
:10319000C2FD001941F10001CDE90001029603953D
:1031A000FFF792FF6846FFF7B1FF054B1868FFF77E
:1031B0005FFDE6E74FF0FF304FF0FF31ECE700BF77
:1031C0001825022007B5094AD2E85F3F0133C2E85B
:1031D000513F0029F8D19BB22BB9128819460093B0
:1031E0000348FFF75FFF03B05DF804FB1C250220D6
:1031F0002301048007B50B4AD2E85F1F0139C2E8FA
:10320000531F002BF8D14FF6FF7089B2814205D1D0
:103210001288194600930448FFF744FF03B05DF895
:1032200004FB00BF1C2502202401048008B5FFF721
:10323000ABFE064B1B889BB22BB901F0A1FBBDE88E
:103240000840FFF7ABBE01F091FBF8E71C25022018
:1032500008B5012000F01DF8074A08491368184412
:10326000884283BF0C22064B4FF0FF3010608CBFAA
:103270001A601846704700BF0C220220003004205C
:103280003067022008B508B1FFF742FEFEE70120D3
:10329000704708B5FFF7F6FF012070477047704789
:1032A00008B5FFF7FBFF08BD08B5FFF7F8FF08BD3D
:1032B000037803F00303012B09D0037803F0030222
:1032C000012A04D043F0020303700120704700205C
:1032D0007047037823F0030343F001030370704742
:1032E00013B5044602F07CFD034628B90090014660
:1032F00022460248FFF7D6FE02B010BD1F01018032
:1033000002F076BD02F074BD70477047074A084866
:10331000936830B5191F03F59674C31A51F8045F0A
:10332000A1425D50FAD1906030BD00BF00ED00E0D9
:103330000020022008B5FFF7E9FF00F09FF8BDE884
:10334000084001F087BC000008B5094A094B1A6023
:10335000094B9B1A094A1360094A0A4B1A600A4B27
:103360009B1A0A4A1360FFF7E5FFFFF7CEFF08BD7F
:10337000003004202C2502200040042028250220B3
:103380003867022024250220003004202025022056
:1033900008B5FFF7B9FFFFF783FEBDE8084002F06C
:1033A00073BA00221146FFF7E5BE70B50446FFF779
:1033B00023FC0646FFF71BFC05463046FFF717FCCB
:1033C000401BA042F9D370BDFFF7EBBF70B52026BC
:1033D0000F4B104C104DC3F8C860204600F0BEF8EB
:1033E000284600F081F80D4800F0B8F8204602F0B9
:1033F000BFFC204600F0E8F800220121304600F032
:1034000099F8284600F070F8054B1C6070BD00BFAD
:1034100000000240001BB7000891100000D8B8055A
:103420001022022038B520250E4B0F4CC3F8C8508F
:103430000E4800F093F80E4800F056F8204600F0D1
:103440008DF8204602F094FC204600F0BDF80022E2
:103450000121284600F06EF8064800F045F8064BBA
:103460001C6038BD0000024000D8B805001BB70042
:10347000089110000894100010220220FFF7D2BF1C
:1034800008B540F2044000F02FF8BDE808401A20CB
:1034900000F0EEBA7047000008B5114BD3F8882051
:1034A00042F47002C3F88820D3F8882042F00F025B
:1034B000C3F88820D3F88C2042F4406242F0030223
:1034C000C3F88C20074A9A604FF080430022C3F86B
:1034D00008237822C3F82022FFF7DCFF08BD00BFD5
:1034E00000ED00E000000300B0F1004F10B51DD06A
:1034F00002210F4CD0B1C0F30B039BB1DAB23F2ACB
:103500004FEA132308BFD4F8982003F1FF33DBB24E
:1035100015BF9200134302F18042C4F8983018BFDF
:10352000C2F8603201394FEA2030E3D110BD00BF4C
:103530000000024080002AB14FF0005200F18043A9
:10354000C3F8002300F1804021B94FF08043C0F858
:10355000003370470139C0F800137047154B98428B
:1035600005D0154B984202D0144B98421FD14FF012
:1035700080434FF00062C3F84821C3F8282220227C
:1035800003F50033C3F8C8200C4B98420C4B05D10F
:103590001A6942F080421A6100207047064A904240
:1035A0001A690CBF42F4004242F48042F3E7012062
:1035B000704700BF001BB700006CDC0200D8B805E4
:1035C000003001400000000007EE900AF8EE677A34
:1035D00008B517EE900AFDF7D9F80FA3D3E9002339
:1035E000FDF728F9FDF738FB07EE900AFCEEE77AC5
:1035F00017EE903A4FF08041082B28BF0823D1F8EE
:1036000000241B0303F4F83322F4F8321343C1F807
:10361000003408BDAFF30080C19D76BEC028783E5F
:10362000034B186A10F400001CBF024B1868704767
:103630000030014014220220074BD3F8B8309B061B
:1036400007D4064B06481B6913F4804F08BF0020BF
:1036500070470020704700BF00000240003001406A
:10366000001BB7004FF08043D3F8183A024813F01C
:10367000400F08BF0020704740420F00034B186AFC
:1036800010F080701CBF024B18687047003001407A
:103690001422022008B5FFF7E5FF4FF08043D3F86E
:1036A0008C3303F03F030133B0FBF3F008BD00009F
:1036B000074BD3F8B8309B0607D4064B06481B6966
:1036C00013F0804F08BF002070470020704700BFF4
:1036D000000002400030014000D8B80508B54FF0A6
:1036E0008043D3F8E0121A4619B101290AD000200C
:1036F00001E0FFF7DDFFD2F8AC33DBB20133B0FB02
:10370000F3F008BD014B1868F5E700BF342502202F
:10371000074BD3F8B820D3F89820D3F8B820D3F8C3
:10372000983013F0010F14BF4FF400400020704791
:10373000000002404FF08043D3F88422012A1BD0BE
:1037400003D3032A1BD1FFF7E3BFD3F880220AB9C2
:10375000FFF772BFD3F88022012A01D1FFF78EBF95
:10376000D3F88022022A01D1FFF77CBFD3F8803240
:10377000032B04D1FFF79CBF024B18687047002051
:10378000704700BF3425022008B54FF08043D3F8BE
:1037900088221946062A1DD8DFE802F0040D10130E
:1037A000161C1900FFF7C6FFD1F88433DBB20133D2
:1037B000B0FBF3F008BD084B1868F5E7FFF75EFFB4
:1037C000F2E7FFF775FFEFE7FFF74CFFECE7FFF7D6
:1037D0009FFFE9E70020E7E73425022008B54FF016
:1037E0008043D3F8A4221946012A0ED003D3022A1B
:1037F0000ED0002001E0FFF79DFFD1F8943303F0D5
:1038000007030133B0FBF3F008BD034B1868F4E77E
:10381000FFF74EFFF1E700BF3425022008B54FF057
:103820008043D3F8A8221946012A0ED004D3032AD4
:103830000ED1FFF73DFF01E0FFF77CFFD1F8983391
:10384000DBB20133B0FBF3F008BD024B1868F5E7BB
:103850000020F3E73425022008B54FF08043D3F869
:10386000F8221946012A0ED004D3032A0ED1FFF7FD
:103870001FFF01E0FFF75EFFD1F8BC33DBB201337D
:10388000B0FBF3F008BD024B1868F5E70020F3E742
:103890003425022008B54FF08043D3F8F0221946B2
:1038A000052A18D8DFE802F0030C0F121715FFF7EE
:1038B00041FFD1F8B433DBB20133B0FBF3F008BD04
:1038C000064B1868F5E7FFF7D9FEF2E7FFF7F0FEC1
:1038D000EFE7034BF5E70020EBE700BF34250220BC
:1038E000302502204FF0804208B5AC3052F820302D
:1038F000062B28D8DFE803F0040811151C2023004C
:10390000BDE80840FFF716BFD2F8C4030F4AC0B2A3
:10391000431C1068B0FBF3F008BDBDE80840FFF79A
:103920008BBEFFF7C5FED2F88833DBB20133F1E777
:10393000BDE80840FFF796BE054B186808BDBDE816
:103940000840FFF7E5BE002008BD00BF3425022077
:103950003025022010B50446FFF7C4FFA20002F193
:103960008042D2F82033D2F8202303F47F43D2B22E
:103970000132B3FBF2F30133B0FBF3F010BD0000F2
:103980004FF0804208B5D2F8D032062B25D8DFE8B8
:1039900003F0040811151C242000BDE80840FFF7BF
:1039A000C9BED2F8C4030E4AC0B2431C1068B0FBB3
:1039B000F3F008BDBDE80840FFF73EBEFFF778FE14
:1039C000D2F88833DBB20133F1E7BDE80840FFF7F6
:1039D00049BEBDE80840FFF79BBE002008BD00BF00
:1039E00034250220800000F1804000F51A70436801
:1039F000062B12D8DFE803F0040611090B0D0F00A7
:103A0000FFF798BE064B18687047FFF751BEFFF7E7
:103A100029BE044BF7E7FFF77BBE0020704700BFCD
:103A2000342502203025022008B54FF0804300F1F4
:103A3000980253F822300146012B10D003D3022BF9
:103A400011D0002008BDFFF775FE890001F180410B
:103A5000D1F80033DBB20133B0FBF3F008BDBDE8B1
:103A60000840FFF7FFBDBDE80840FFF751BE00006A
:103A700008B51F287CD8DFE800F010141F33232777
:103A80002B7B2F464A373B3F424E505557595B5D83
:103A90005F6163676C6E70727479BDE80840FFF710
:103AA00049BEFFF747FE4FF08043D3F88033DBB2C7
:103AB0000133B0FBF3F008BDBDE80840FFF764BE7A
:103AC000BDE80840FFF78ABEBDE80840FFF7A6BE84
:103AD000BDE80840FFF7A4BDBDE80840FFF7FEBD04
:103AE000BDE80840FFF7E4BDBDE80840FFF7A4BD0E
:103AF000BDE80840FFF7C2BD1E4B186808BDBDE811
:103B00000840FFF7C7BDBDE80840FFF7C3BEBDE8EA
:103B10000840FFF7A1BE184BEFE70020BDE80840C2
:103B2000FFF718BF0120F9E70220F7E70320F5E7C8
:103B30000420F3E70520F1E70620EFE70720EDE793
:103B4000BDE80840FFF71CBF0020BDE80840FFF7B4
:103B500049BF0120F9E70220F7E70320F5E7042039
:103B6000F3E70020BDE80840FFF75EBF0120F9E75A
:103B7000002008BD342502203025022010F1800FDE
:103B80000CD0002808DB0123420900F01F0003FAD3
:103B900000F0034B43F822000020704701207047DB
:103BA00000E100E00E4B984212D003F5805398429A
:103BB00010D003F5F83398420ED003F580539842A5
:103BC0000CD003F58053984214BF052004207047A1
:103BD0000020704701207047022070470320704783
:103BE0000080004070B50E460546FFF7DBFF01245C
:103BF0004FF08041084B33F810301A0ADBB204FA58
:103C000003F3883241F82230044B53F8200000F0CF
:103C1000DCFA7368EB6070BD446303005463030017
:103C2000002303604360037043707047F8B5054696
:103C3000FFF7B8FF07234FEA410E6C690EEB01074F
:103C4000BB4024EA03031479167A07F1010C04FA45
:103C50000CF41C4306FA07F31C435379023703FAAA
:103C600007F73C436C6130240127EB6B04FA0EF438
:103C700023EA040493790EF1040E03FA0EF32343AE
:103C8000D4798F408C4023EA07032343EB63136806
:103C9000063145F821302F602EB1034B1856BDE890
:103CA000F840FFF76BBFF8BD4E630300134B2DE9DF
:103CB000F04153F8203006461D681D60104B1B5C18
:103CC00043B9104B53F820301B68ABB12846BDE810
:103CD000F041184700240127DFF8288007FA04F391
:103CE0002B4206D058F8263053F824300BB1284622
:103CF00098470134072CF1D1BDE8F081306303000F
:103D000038250220402502200020FFF7CFBF0120E8
:103D1000FFF7CCBF0220FFF7C9BF0320FFF7C6BFE4
:103D20000420FFF7C3BF0000054B984206D003F5FF
:103D3000143398420CBF01200220704700207047C6
:103D4000002008402DE9F047FFF7EEFF00239842DE
:103D50004DD11E2700264FF001094743DFF894801C
:103D6000BB1958F82340002C3CD0257BA3686A0976
:103D7000583353F8221005F01F0509FA05F52942BA
:103D80000BD0D4F800A043F82250BAF1000F04D0B1
:103D90000023012261682046D047A368227B60335C
:103DA000520953F822100D420BD0D4F800A043F86A
:103DB0002250BAF1000F04D0012361681A46204650
:103DC000D047A368227B4033520953F822100D429A
:103DD00008D043F82250256825B1022300226168EB
:103DE0002046A84701361E2EBAD1BDE8F087013320
:103DF000ADE700BF542502200148FFF7A3BF00BF75
:103E0000002008400148FFF79DBF00BF00700A4036
:103E10000023064A52F82310884204D00133092BAC
:103E2000F8D1002070471846704700BF6863030050
:103E300070B505460C46FFF7EBFF002832DB012684
:103E40004FF080411A4B33F810301A0ADBB206FAF1
:103E500003F3883241F82230164B53F8200000F06B
:103E6000B4F954B1042C16D8D5F8F83FE21C9640AA
:103E70001E4214BF01230023B3B1D5F8F83F1B073E
:103E800005D5D5F8F83F03F00703A3420ED1C5F8D6
:103E9000F84F002070BD052C06D1D5F8F83FC3F3CC
:103EA000C013E9E7042070BD032070BD012070BD80
:103EB0008C630300A0630300024B034A1B68116874
:103EC0000248184768260220442602200060084065
:103ED000024B034A5B685168024818476826022073
:103EE0004426022000700840024B034A9B689168F8
:103EF0000248184768260220442602200080084015
:103F0000024B034ADB68D168024818476826022042
:103F10004426022000900840024B034A1B691169A5
:103F200002481847682602204426022000A00840C4
:103F3000024B034A5B695169024818476826022010
:103F40004426022000600940024B034A9B699169A4
:103F500002481847682602204426022000700940C3
:103F6000024B034ADB69D1690248184768260220E0
:103F70004426022000800940044A136843F00103EC
:103F80001360034B1B6803B11847704700200040C3
:103F90008C260220044A136843F001031360034B8C
:103FA0005B6803B118477047003000408C26022040
:103FB000024B034A1B6811680248184798260220E2
:103FC0009426022000D00240836A1B0E1CBFC26AE6
:103FD000C26218467047000008B50848FFF7F4FFB2
:103FE000074B01461B6A0BB108209847034B1A6820
:103FF000D2075CBF01225A6208BD00BF00500040DA
:104000009C26022008B50848FFF7DEFF074B014653
:104010005B6A0BB109209847034B1A68D2075CBF53
:1040200002225A6208BD00BF005000409C260220B8
:1040300008B54FF04020FFF7C7FF074B01461B684C
:104040000BB1002098474FF040231A68D2075CBF9D
:1040500001225A6208BD00BF9C26022008B54FF01D
:104060004020FFF7B1FF074B01465B680BB1012011
:1040700098474FF040231A6892075CBF02225A62A9
:1040800008BD00BF9C26022008B54FF04020FFF776
:104090009BFF074B01469B680BB1022098474FF0EE
:1040A00040231A6852075CBF04225A6208BD00BF51
:1040B0009C26022008B54FF04020FFF785FF074BF4
:1040C0000146DB680BB1032098474FF040231A6884
:1040D00012075CBF08225A6208BD00BF9C2602205E
:1040E00008B54FF04020FFF76FFF074B01461B69F3
:1040F0000BB1042098474FF040231A68D2065CBFEA
:1041000010225A6208BD00BF9C26022008B54FF05D
:104110004020FFF759FF074B01465B690BB10520B3
:1041200098474FF040231A6892065CBF20225A62DB
:1041300008BD00BF9C26022008B54FF04020FFF7C5
:1041400043FF074B01469B690BB1062098474FF090
:1041500040231A6852065CBF40225A6208BD00BF65
:104160009C26022008B54FF04020FFF72DFF074B9B
:104170000146DB690BB1072098474FF040231A68CE
:1041800012065CBF80225A6208BD00BF9C26022036
:10419000012382B2000C8000934000F18040C0F8FF
:1041A0002031D0F800211342FBD07047012382B2A6
:1041B000000C8000934000F18040C0F84031D0F8FE
:1041C000002133EA0202FAD0704708B50146FFF732
:1041D000DFFFBDE808400846FFF7E8BF014B024893
:1041E0001B681847C426022000500840024B034AAF
:1041F0001B68116802481847CC260220C8260220F6
:1042000000B009400023064A52F82310884204D027
:104210000133092BF8D1002070471846704700BFC2
:10422000C463030010B50C46FFF7ECFF014B1C54B0
:1042300010BD00BFE226022010B51822002104465E
:1042400001F0F8FD01226270084A0023A2600722F3
:10425000A374E374237563752370A370E3702371F3
:104260002273637323746374E38110BD20A107007C
:104270000122002302700722436043708370C370E1
:10428000027103724372C3807047000070B50D461F
:10429000044600285CD000295AD00221FFF7C8FD4F
:1042A000064600284DD12046FFF7ACFFD4F8002485
:1042B000EB8822F4736222F00D0203F4706313435F
:1042C000AA78FF21120102F0100213436A7852010A
:1042D00002F020021343EA78D20002F008021343EE
:1042E000C4F800342A791B4B03F81020D4F8003EA0
:1042F000204643F44033C4F8003ED4F8003E43F077
:104300000303C4F8003ED4F8082E2B7A22F470225E
:104310001B0222F4706203F4706342F003021A433A
:104320006B7A1B0403F470231343C4F8083EFFF7B1
:1043300079FF2B783BB1D4F8003443F00103C4F883
:104340000034304670BDD4F8003423F00103F6E7A2
:104350000426F6E7D0260220A0B199B192B1B2FBB3
:10436000F1F2013AB2F5803F0ED2D0F824341B0CA2
:104370001B04C0F82434D0F824140A43C0F82424C1
:10438000002070470420704741F2E350704700005E
:10439000F8B50D4617460446002800F08280002933
:1043A0007FD0002A7DD00221FFF742FD064600287B
:1043B00070D13A46A9682046FFF7CEFF064600288E
:1043C00068D12046FFF71EFFD4F80034297823F483
:1043D0007B63EA8923F00D0343EAC11302F47062A0
:1043E00043F004031343EA78FF21120102F01002A4
:1043F0001343AA78520102F0200213432A79D20013
:1044000002F008021343C4F800342A7B264B03F859
:10441000102003EB40006B7B4370D4F8003E204635
:1044200043F44033C4F8003ED4F8003E43F00303A5
:10443000C4F8003ED4F8082E2B7C22F470221B0214
:1044400022F4706203F4706342F003021A436B7C3F
:104450001B0403F470231343C4F8083EEB7C2A7D4D
:104460001B01120202F47062DBB21343AA7C02F059
:104470000F0213436A7D120392B21343C4F804344B
:10448000FFF7D0FE6B783BB1D4F8003443F0010362
:10449000C4F800343046F8BDD4F8003423F00103EA
:1044A000F6E70426F6E700BFD02602202DE9D84122
:1044B00004460F469046FFF7A5FE002817DB0D4E79
:1044C0000D4916F8103008EA01011B0603F070636D
:1044D000394306EB40061943737803F110020123B8
:1044E0009340DB4303F470231943C4F8201EBDE856
:1044F000D88100BFD02602200000F0F04FF4E13256
:10450000002302600122037143718271C37103723F
:1045100043728372C37270472DE9F04150B349B3BF
:1045200042B30F264FF0FF353446AE460F01B2FBC3
:10453000F7F808F1FF3CBCF5803F04F101030CD211
:1045400003FB08F3B2FBF3F3994234BF5B1ACB1AB7
:1045500073453EBF654626469E46013C072CA7EBA9
:104560000107E4D1B5F5803F07D2866205620020DD
:10457000BDE8F0810420BDE8F08141F25160BDE862
:10458000F08170B50D461646044600285FD000291C
:104590005DD0002A5BD00121FFF74AFC002857D1EB
:1045A000324629682046FFF7B7FF002850D16B7AC2
:1045B000D3B1D4F8003E43F00113C4F8003ED4F860
:1045C000083E23F47063C4F8083EAB7AD4F8082E92
:1045D0001B0203F470631343C4F8083ED4F8083E8A
:1045E00043F00103C4F8083E2B7AD3B1D4F8003E5F
:1045F00043F00213C4F8003ED4F8083E23F47023BD
:10460000C4F8083EEB7AD4F8082E1B0403F4702398
:104610001343C4F8083ED4F8083E43F00203C4F83C
:10462000083E2B79EA791B0103F0300343EAC233D9
:104630006A7943F00103920102F040021343AA7920
:104640000020920002F00C021343236070BD04208E
:1046500070BD0000024B034A1B68116802481847EE
:10466000F0260220EC26022000E0004000207047E7
:10467000A1F54031B1F5D02F34BF4FF400704FF0A9
:10468000FF3070474FF4007070474FF44030704770
:104690004FF4D0207047002070474A1C0B46017031
:1046A00003D00021184600F037B8704790F9000099
:1046B00000F06EB8202290F9003003F01F0093FB49
:1046C000F2F3DBB211B101290CD0704701229B003B
:1046D00003F1804303F50E231968824021EA0201A9
:1046E000196070479B0003F1804303F50E231A689D
:1046F00081401143F4E790F90030202003F01F02BD
:1047000093FBF0F3DBB25B0103F18043C9B203F525
:104710000C2399547047000030B51B4D85B00346FB
:104720000C462868696801AA03C22021A8680125EF
:10473000106003F01F0293FBF1F304A9DBB201EB5D
:10474000430131F80C1C02EB4313080AC9B205FA05
:1047500001F14FF08045883045F820104FF40051AA
:10476000C5F82012094904F00F0451F8232042F43F
:10477000807241F8232051F8232022F00F021443C5
:1047800041F8234005B030BDBC5F0300001000407D
:10479000202310B500F01F0490FBF3F0C0B20A4ACA
:1047A0004001031952F82330012923F0300305D0CA
:1047B000022906D0204442F8203010BD43F01003F7
:1047C000F8E743F02003F5E7001000402DE9F0433F
:1047D0000D4685B00646424928461446FDF7D0FFEF
:1047E000404907462046FDF7CBFF01463846FDF716
:1047F000A5FF3B4907462846FDF7D6FF39498146C4
:104800002046FDF7D1FF37608046072F0CD8DFE840
:1048100007F0043D43494F555B614FF44570FEF787
:1048200063FE3148FFF7D1FC01A8FFF767FE4FF4A4
:1048300016530193012330688DF80D308DF80C303C
:104840002A4B2B4A53F8200001A9FFF79AFE49464C
:104850002846FFF761FF41462046FFF75DFF6A1CCF
:1048600003D002212846FFF793FF631C03D00221E7
:104870002046FFF78DFF33682BB901221D4B1A60CC
:1048800032681D4B1A6005B0BDE8F08340F2153068
:10489000FEF72AFE1948C5E740F21630FEF724FE5F
:1048A0001748BFE740F21730FEF71EFE1548B9E77C
:1048B0004FF44670FEF718FE1348B3E740F2193084
:1048C000FEF712FE1148ADE740F21A30FEF70CFE7B
:1048D0000F48A7E740F21B30FEF706FE0D48A1E7A0
:1048E00000630300D06203000B000100E8630300D3
:1048F000001BB700F42602202C6702200C000100E8
:104900000D0001000E0001000F0001001000010069
:1049100011000100120001000068034B034A53F824
:104920002000FFF7F9BD00BFE8630300001BB700DC
:104930000268044B53F82230D3F8040E00F0200034
:10494000704700BFE863030010B504462046FFF738
:10495000EFFF0028FAD02268034BC9B253F8223087
:10496000C3F8201E10BD00BFE8630300034A1369AB
:1049700023F00403136130BF704700BF00ED00E077
:1049800007B5FEF723FD00211022009100236120CE
:1049900001F026F903B05DF804EBFEF743BD00001B
:1049A0002DE9F74F884681465449404617461E4632
:1049B0009DF93040FDF7E4FE514905463846FDF7C4
:1049C000DFFE504900903046FDF7DAFE4E49824640
:1049D0002046FDF7D5FE009B834619462846FDF785
:1049E000ADFE594605465046FDF7A8FE014628464D
:1049F000FDF7A4FE414901904046FDF7D5FE404930
:104A000083463846FDF7D0FE3E4982463046FDF7E4
:104A1000CBFE3D4900902046FDF7C6FE0022019BDB
:104A20000546C9F8003089F80520082B0DD8DFE8C5
:104A300003F005343A40464C52585E004FF445703E
:104A4000FEF752FD3148FFF7C0FB59464046FFF7DD
:104A500063FE00214046FFF79BFE51463846FFF7B4
:104A60005BFE00213846FFF793FE00993046FFF7C2
:104A700053FE00213046FFF78BFE631C0AD0294607
:104A80002046FFF749FE2D1400212046FFF780FE47
:104A900089F8055003B0BDE8F08F40F21530FEF7FD
:104AA00023FD1B48CFE740F21630FEF71DFD1948E5
:104AB000C9E740F21730FEF717FD1748C3E74FF478
:104AC0004670FEF711FD1548BDE740F21930FEF7BC
:104AD0000BFD1348B7E740F21A30FEF705FD114809
:104AE000B1E740F21B30FEF7FFFC0F48ABE74FF495
:104AF0004770FEF7F9FC0D48A5E700BF40620300D0
:104B00001062030070620300A06203000B0001004A
:104B10000C0001000D0001000E0001000F0001005B
:104B20001000010011000100120001001C00020031
:104B30002DE9F043C9B287B00746017199464E1E70
:104B4000540802F00105DFF86C80684693B1FFF766
:104B50008FFB3B6804F00104694658F823008DF888
:104B600004608DF801408DF80250FFF78FFB07B00D
:104B7000BDE8F083FFF760FB7B7904F001048DF85A
:104B80000D300A4B0A4A1B686946002BC8BF0293C6
:104B90003B688DF80C6058F823008DF802408DF8C2
:104BA00003508DF80490FFF7F3FBE0E7F8260220AE
:104BB000001BB70008640300044B00681960044B35
:104BC000044A53F82000FFF7C7BB00BFF8260220B5
:104BD00008640300001BB70038B505460368094C9C
:104BE0004FF4801254F8230089B2FFF75FFC2B6862
:104BF00054F82330D3F8042E5206FBD5D3F8300EE8
:104C000080B238BD086403002DE9F84F0A9F804642
:104C100097423D46894616469A46B8BF1546002437
:104C20009DF82CB0AC4202DB2846BDE8F88FB442B8
:104C3000B4BF19F8041059464046FFF7CDFFBC42F7
:104C4000B8BF0AF804000134ECE7000000487047E0
:104C50002C64030037B5FEF713FC174D04462B7880
:104C6000C3B96846FEF7DCFF144B6946B4FBF3F4A6
:104C7000013C0194124C2046FEF7B4FF636843F0F8
:104C800002036360636823F002036360636843F0B8
:104C9000010363600B4B0C4A9B68DA664FF40062B9
:104CA0000A4B1A60064A536923F00103536101233A
:104CB0002B7003B030BD00BFFC26022040420F0025
:104CC0000090004000ED00E0012C030000E100E056
:104CD000014B9868704700BF009000401FB500214D
:104CE0000123019001AA08488DF808108DF80910D9
:104CF0008DF80A108DF80B308DF80C30FEF796FF0A
:104D000005B05DF804FB00BF00900040024A536903
:104D100023F0010353617047009000400122014BD2
:104D20001A607047009000404FF40062014BC3F8D6
:104D30000021704700E100E04FF0FF3310B5094C4F
:104D40000144884201D1D84310BD10F8012B5340D3
:104D5000082213F0010F4FEA530318BF6340013AD2
:104D6000F7D1EEE72083B8ED48B14378027843EA03
:104D700002228378C07843EA022340EA0320704786
:104D800030B5002837D0002300251D432B02002515
:104D90000478002122024478144343EA14631D433B
:104DA0002B02002522028478144343EA14631D4336
:104DB0002B0200252202C478144343EA14631D43E6
:104DC0002B02002522020479144343EA14631D4395
:104DD0002B02002522024479144343EA1463220281
:104DE00084791D4314432B02C07943EA14632202E1
:104DF0001043194330BD0020002130BD30B10B0AF3
:104E0000C17083700B0C090E43700170704768B15C
:104E1000110AC2718171110C120E02711A0AC3704B
:104E200082701A0C1B0E417142700370704770B58E
:104E30004B6845689D420FD100231A46AB4203D10F
:104E400050421043C00F70BD84688E68E45CF65C0D
:104E5000013374402243F1E7012070BD2DE9F04396
:104E60008846BDB0144600287BD08568002D78D0D8
:104E7000D0F80490B9F1400F73D8002971D08B6835
:104E8000002B6ED0002A6CD09368002B69D0136879
:104E90001F2B66D901AF40223621384611AE00F0F3
:104EA000C9FF40225C21304600F0C4FF00236A1E87
:104EB0004B4517D121A8FDF7FFF8002121A8FDF7E8
:104EC00005F9D0B1284C21A8FDF7FAF84021384661
:104ED000FDF7E8F840213046FDF7E4F820463DB004
:104EE000BDE8F0835078F95C4140F95412F8010FA5
:104EF000F15C4140F1540133DAE74022394621A800
:104F0000FDF7D4F90028DDD1D8F80420D8F808102E
:104F100021A8FDF7CBF90028D4D1A16821A8FDF77D
:104F200006FA01460028CDD121A8FDF7CFF80028C8
:104F3000C8D14022314621A8FDF7B8F90028C1D1D7
:104F40002022A16821A8FDF7B1F90028BAD1A168F3
:104F500021A8FDF7ECF90028B4D1202363600446B2
:104F6000B1E7014CBAE700BF0100435530B5016815
:104F700085B01F29044606D80E4D22680021A0687E
:104F800000F058FF13E0806800F05CFC0028F3D1CB
:104F9000094A01AB07CA83E807001022194662607C
:104FA00020462246FFF75AFF05460028E5D128464D
:104FB00005B030BD01004355C85F030070B50D4614
:104FC000044608B9022070BD0029FBD06C21FFF710
:104FD000B3FE064604F16C00FFF7C6FE8642F1D12F
:104FE00004F10800FFF7CCFEC5E9000104F1100050
:104FF000FFF7C6FE04F11803C5E9020105F110022E
:1050000004F1380153F8040B8B4242F8040BF9D138
:1050100004F158033035683453F8042BA34245F8A3
:10502000042BF9D1002070BD38B50C460546002888
:1050300041D000293FD00B686F2B3CD97022002152
:10504000A06800F0F7FE1D49A068FFF7D7FEA06832
:1050500002210430FFF7D2FED5E90023A068083012
:10506000FFF7D5FED5E90223A0681030FFF7CFFE89
:10507000A26805F11003183205F1300153F8040B52
:105080008B4242F8040BF9D1A2684035583253F8EC
:10509000041BAB4242F8041BF9D16C21A068FFF756
:1050A0004BFEA368014603F16C00FFF7A7FE7023D7
:1050B0000020636038BD022038BD00BFD4B3515A10
:1050C000F0B50F469BB0044618B311B320250AAEC5
:1050D00000212A46304600F0ADFE002301A80195CC
:1050E00002930396FFF742FF014690B9E82312AE00
:1050F0002A46304604930593069400F09BFE07AAC7
:1051000004A901A8099607950895FFF7A7FE06468A
:1051100008B102262FE004F1E80307A904A80495CA
:1051200005950693FFF783FE0028F2D104F10800ED
:10513000FFF726FEC7E9000104F11000FFF720FE8B
:1051400004F11803C7E9020107F1100204F1380164
:1051500053F8040B8B4242F8040BF9D104F1A0037D
:1051600007F13002B03453F8041BA34242F8041B89
:10517000F9D100233B6430461BB0F0BD08B500F008
:10518000DDF818B9BDE8084000F020B808BD0000FF
:1051900030B56FF07C450B4B0B4C1B68B5FBF3F542
:1051A000B4FBF3F405FB03355C43641B6043B4FBC1
:1051B000F3F4B0FBF3F003FB005563430D600020F4
:1051C000136030BD0827022000FC050438B500F04C
:1051D00081F8054600F086F8084C206000F08CF855
:1051E00040F22712064B186023682846B2FBF3F200
:1051F00002FB0333034A136038BD00BF04270220BB
:1052000008270220002702207FB50E4615464AB324
:1052100093683BB34FF0FF330293039300BB03AAA1
:1052200002A9FFF7B5FF04466B6833B10E4A013B94
:105230001268B3FBF2F303FB02232A689A420CD3F1
:105240000A4A1168029A00930A4432440023A8686B
:1052500000F05CF8002808BF0024204604B070BDB0
:105260000224E1E70224F8E70427022000270220B5
:105270002DE9F04184B00E4602AF31B34FF0FF3359
:10528000E8463B607B60F0B93A1D3946FFF780FF86
:1052900004460F4B3A681968CB1D23F00703ADEBAA
:1052A000030D02AD00910023284600F02FF820B92D
:1052B00031462846FFF704FF0446C5462046083716
:1052C000BD46BDE8F0810224E3E70224F6E700BF13
:1052D00000270220024B186803689B68184700BF2C
:1052E0000C27022008B5034B186803689B6A98478F
:1052F00008BD00BF0C27022008B5034B18680368DF
:10530000DB6A984708BD00BF0C27022037B5064965
:10531000069D0C6821680095002501954D690146A0
:105320002046A84703B030BD0C27022008B5FDF782
:10533000A3F9014B186008BD0C27022000F038B813
:1053400070B505469EB048B3002308224FF4603183
:1053500068460093019300F075F80646D0B9684698
:10536000FFF702FD044601A8FFF7FEFC022811D159
:105370000E4B70229C4214BF04240024314602A824
:1053800000F058FD3CB970224FF4603102A800F0E3
:1053900059F828B1042420461EB070BD0224FAE753
:1053A000294602A8FFF70AFE0446F4E7D4B3515A8F
:1053B000014801F071BA00BF102702200148FFF731
:1053C00055B900BF102702202DE9F8430E461746B5
:1053D000804618B94FF0FF30BDE8F8831848FFF752
:1053E00054F904461648FFF753F9B44204EB00029F
:1053F000F0D8F3199A42EDD3B842EBD31048FFF737
:1054000041F9B6FBF0F300FB13630546002BE1D135
:10541000B7FBF0F400FB1474002CDBD12046DFF85E
:105420002090BC4200D208B1BDE8F88308EB04022A
:10543000A1192B46484601F027FA2C44F1E700BF9A
:105440001027022013460246014801F035BA00BF7A
:10545000102702200148FFF715B900BF10270220CE
:1054600001460148FFF704B910270220F8B50546A8
:105470000E480E46FFF709F904460C48FFF708F9F5
:105480002044A84211D9AC420ED2084F21463846DA
:10549000FFF7EEF82044854204D836B1854218BFA4
:1054A0002046F8BD0446F1E72046F8BD102702204B
:1054B000F8B50E4601210446FFF7D8FF0021054646
:1054C000A019FFF7D3FFAC42074611D100250A4EC1
:1054D000BC4200D20DB12846F8BD2146304601F04D
:1054E000E3F9214605463046FFF7C2F80444EFE7EA
:1054F0004FF0FF35EFE700BF1027022008B5FFF798
:1055000057FFB0FA80F0400908BDFFF757BF000011
:1055100008B530B1034B1B6A9847B0FA80F04009D8
:1055200008BD08BD1C2202202DE9F0410546A4B0AB
:1055300018B9012024B0BDE8F081FFF7E9FF002889
:10554000F7D0D5E9022313433AD04FF0000809A859
:10555000FCF7B2FD002109A8FCF708FE202200217B
:1055600001A800F067FC174FAC68C4B1B8F1000F98
:1055700015D1B4F5804F264628BF4FF48046A96860
:10558000324601F56131091B3846FFF75BFF3246B1
:105590008046394609A8FCF7C8FEA41BE5E701A927
:1055A00009A8FCF758FF09A8FCF78AFD202201A9E9
:1055B00005F1100000F024FC003018BF0120B9E70D
:1055C0000220B7E71827022070B5054604464618A2
:1055D000B44204D22046FFF743FF0444F8E7601BBF
:1055E00070BD000038B5702105464FF46030FFF7FC
:1055F000EBFF00F56033B3F5613F04460BD213486F
:1056000000F000F921464FF46030FFF751FF90B9E8
:105610004FF4613403E04FF4603405F580652946AA
:105620002046FFF7D1FF0A4B2044984207D829466D
:105630002046FFF73DFFB0FA80F0400938BD05482D
:1056400000F0E0F84FF0FF30F5E700BF55640300CD
:10565000004409009064030030B5054685B0002879
:1056600037D0FFF7F7FE00F16F04B4FBF0F44443CA
:1056700070214FF46030FFF7A7FFB4F5804F04D9D5
:10568000154800F0BFF830BFFDE7844204D9124846
:1056900000F0B8F830BFFDE72246FF210F4800F0C8
:1056A000C9FB0F4A01AB07CA83E807001946284621
:1056B000FFF7BAFC68B9029B702B0AD122464FF45F
:1056C00060310648FFF780FEB0FA80F0400905B06F
:1056D00030BD4FF0FF30F7E7926503001827022036
:1056E000D45F03002DE9FF4782460D4600294ED0C6
:1056F000FFF7B0FE4FF46134B4FBF0F44443D4F54B
:105700006134804604D0234800F07CF830BFFDE7C8
:10571000214BDFF88C9003934FF48043B3FBF0F3FD
:105720004343012001930027D5E902239F4208BF8C
:10573000944229D240B30021121B019863EB070366
:10574000994208BF904238BF024621460292504615
:1057500001AAD9F81830984790B9029E86B1013E47
:105760004644B6FBF8F608FB06F604F5613132460E
:105770000398FFF729FEB0FA80F034444009D2E7DD
:10578000064800F03FF8002004B0BDE8F087084666
:10579000FAE700BF9265030018270220FD640300AA
:1057A0001C22022038B50C460546124800F02AF8A3
:1057B000A068FFF717FF08B9002038BD0E4800F0B9
:1057C00021F82046FFF748FF0028F5D00B4800F0ED
:1057D00019F821462846FFF785FF0028ECD0084835
:1057E00000F010F82046FFF79FFEB0FA80F0400965
:1057F00038BD00BF24650300466503005C650300F7
:105800007665030038B50D4B04461A785AB100226C
:105810001E211A700A481D22FEF7D8FF4FF4E1310D
:105820000748FFF779F8064D013C14F8011F19B13C
:105830002846FFF789F8F8E738BD00BF1822022094
:1058400014270220002310B50F2986B004460393C5
:105850000493059300D910B94FF0FF3011E004A96B
:1058600003A8FCF79DFE40B258B905AB0093224651
:10587000102304990398FCF7F1FD059B40B2102B0F
:10588000EAD106B010BD0000184B10B508201B6C03
:1058900000F0A6FA164B174C1860012000F0A0FA91
:1058A00020601548FFF7AEFF144B1B68984728B1DE
:1058B0001348FFF7A7FF4FF0FF3010BDFFF71EFEA4
:1058C00008B91048F5E700F07DF840B1FFF71DFE7C
:1058D0000D48FFF797FF4FF46130FDF7C9FA2368D1
:1058E0000BB100221A700948E3E700BFA46503006A
:1058F0001C67022018670220E86503001C220220B2
:10590000FC65030022660300486603005766030037
:105910002DE9F04782469EB00C46002947D0254B22
:10592000E94693E807008DE8070003A8FCF7C4FBED
:10593000002103A8FCF71AFC4FF000081E4D0027B9
:10594000D4E902239F4208BF90451DD20021B2EB4B
:105950000802009863EB0703994208BF904238BFE2
:1059600002464146019250464A46AB69984740B9C3
:10597000019A32B1029903A8FCF7D7FC019B984425
:10598000DDE70E48FFF73EFF0D4903A8FCF763FD76
:1059900003A8FCF795FB2022094904F1100000F050
:1059A0002FFAB0FA80F040091EB0BDE8F087084633
:1059B000FAE700BFE05F03001C220220FD64030041
:1059C000182702202DE9F043A5B04822002168469F
:1059D00000F030FA482200210DEB02004E4D00F09D
:1059E00029FA12A8FFF7A0FD2A6822B14B4C2168C2
:1059F000002940F0848068B1022865D0484864E0FE
:105A00000023C2E900670B7023681B78002859D176
:105A1000022B60DCDDE912230124CDE90023414B98
:105A200012A95B6A00209847002862D1DDE912675D
:105A30002B68002B51D0D3E90023BB420ABFB242EE
:105A400001230023DDE90001B94208BFB0424ED274
:105A5000DDE9140150EA010249D00BB9002C46D10E
:105A600012A90020FFF754FF00283ED0DDE91423DF
:105A700000214FF4B820994208BF90422FD3DDE9AE
:105A8000120104AC16ADCDE90001CDE902230FCD22
:105A90000FC495E80F0084E80F000CAC1EAB0FCBD1
:105AA00084E80F002048FFF7ADFE69460020FFF7AD
:105AB00079FE0446F8B11D48FFF7A4FE204625B044
:105AC000BDE8F083022804D11948FFF79BFE0024AB
:105AD000A5E7022B92DD1748F7E70123B2E7164846
