:1000000000000420DD27000015280000172800004C
:10001000192800001B2800001D2800000000000017
:100020000000000000000000000000001F28000089
:1000300021280000000000002328000025280000DF
:100040002728000027280000272800002728000074
:100050002728000027280000272800002728000064
:100060002728000027280000272800002728000054
:1000700027280000D5360000272800002728000088
:100080002728000027280000272800002728000034
:100090002728000027280000272800002728000024
:1000A000853700008B370000272800002728000034
:1000B00027280000272800000000000000000000A2
:1000C00027280000272800002728000027280000F4
:1000D00027280000272800002728000027280000E4
:1000E0002728000027280000272800000000000023
:1000F0000000000027280000000000002728000062
:1001000010B5054C237833B9044B13B10448AFF351
:1001100000800123237010BDE002002000000000D9
:10012000D85B00000C4B43B10C480D4910B5AFF340
:1001300000800C48036823B910BD0A48036833B92E
:100140007047094B002BF7D0BDE810401847064B0D
:10015000002BF5D0184700BF00000000D85B00005E
:10016000E4020020DC02002000000000154B002B00
:1001700008BF134B9D46A3F5803A00218B460F46DE
:100180001348144A121A04F00FFF0F4B002B00D033
:1001900098470E4B002B00D0984700200021040008
:1001A0000D000D48002802D00C4802F0C1FA04F0FE
:1001B000ADFE2000290002F0F5FA02F0B6FA00BF09
:1001C0000000080000000420000000009927000043
:1001D000E002002008480020312700000000000055
:1001E00000207047002070470368DB6A184704202E
:1001F00000217047D0F81401002170470048704773
:10020000BD54000000F59070D0E900017047FF2058
:1002100070470000F0B591F8393091F838201B0193
:1002200003F0100343EA1213013B87B00F2B13D8DE
:10023000DFE803F0080812151212121D1212121232
:100240001212123700230293019300934FF0FF32F2
:100250003821043001F077F9002007B0F0BD002309
:100260000293019300934FF0FF323521F1E700250F
:10027000012705AE041D2B46174A029765210196FA
:100280000095204601F05FF99DF81430124A8DE880
:10029000E00043F040038DF8143071212B462046D6
:1002A000D8E70025012705AE041D2B464FF0FF328D
:1002B0006521029701960095204601F044F99DF8CA
:1002C000143003F07F038DF814308DE8E0002B46E6
:1002D0004FF0FF326121E2E703008000282A07DDAA
:1002E00091F8283001201B1123B14000013BFBE7AE
:1002F0004FF4807070472DE9F041FF261E604C7866
:100300001C601C2A37DD069A079C02F1100C01259F
:10031000B046C2F8008091F81CE00127BEF1000F42
:1003200003D07F000EF1FF3EF8E7012F276019D0C0
:100330004F7F17602768D0F814E1774502D3BEF1EC
:10034000000F01D1C0F814712768B7F5805F04D1A0
:1003500017681E68BE4218BF1F6090F808712F43CF
:1003600080F8087104326D006245EDB201F10201BE
:1003700004F10404CDD10020BDE8F08170B5049DE6
:10038000059C0026102A1E702E7013DD0A7CD206F2
:1003900010D5CA7E226001221A702A708E7E06F065
:1003A0001F0202EB5612C0F82C21022280F82921EC
:1003B00080F82B2100222A708A7856060ED54A7AB8
:1003C000226001221A700A7A02F01F0303EB521313
:1003D000C0F82C31022380F829310DE015060FD525
:1003E000CA7A226001221A708A7A02F01F0303EB94
:1003F0005213C0F82C31022380F82B31002070BD3D
:100400000B7CDE070AD5CB7D23608A7D02F01F03BB
:1004100003EB5213C0F82C310123DCE7950603D51A
:10042000CB7B23608A7BF1E7D307E7D54B7B236047
:100430000A7B02F01F0303EB5213C0F82C31012397
:10044000DAE7F0B587B0064642F2107405AD03272F
:10045000012002F0BDF90322FF21284604F0A4FD8B
:1004600000230093029701954FF0FF320521301DC4
:1004700001F069F89DF81430DB0704D5013CE7D1A1
:10048000204607B0F0BD0120FBE730B587B0002360
:1004900005AA0321041D02910192009305464FF025
:1004A000FF3205212046ADF814308DF8163001F0EA
:1004B0004AF8034620B14FF0FF34204607B030BD64
:1004C0000290019000904FF0FF326621204601F02B
:1004D0003AF803460028EED10290019000904FF0C8
:1004E000FF329921204601F02EF8003018BF01207C
:1004F00044422846FFF7A5FFDFE770B586B000232A
:10050000051D06460293019300934FF0FF3206212A
:10051000284601F018F8044618B14FF0FF3006B035
:1005200070BD3046FFF78DFF0028F6D005AE0322E0
:100530002146304604F038FD032302938DE8500035
:1005400023464FF0FF320521284600F0FCFF00282B
:10055000E3D19DF8140080F0020040F34000DEE794
:100560002DE9F04F044685B00D469046994600F1BE
:10057000040BDDE90E23134344D0D4F818A100275F
:1005800052463B464046494604F002FEDDE90E0174
:1005900080185941B94208BF504534BFDDF838A032
:1005A000AAEB020A564600272046CDE90267FFF76C
:1005B000A4FF48BB02AB0193009543464FF0FF32C6
:1005C000616D584600F088FF00BBDDE902239F42C1
:1005D00008BF92451AD1DDE90E2318EB0A0849EB52
:1005E0000709B2EB0A0263EB070320465544CDE945
:1005F0000E23FFF726FF0028BBD1A0F6A37005B09D
:10060000BDE8F08F0020FAE70248F8E76FF47A605F
:10061000F5E700BF5CF0FFFFF0B51D4600F59073F5
:100620001446D3E90023AB4208BFA24216D3D0F848
:10063000881099B101290FD000EBC1008B1EB0309A
:10064000002B0BDB70E90267AF4208BFA64201D264
:10065000581CF0BD013BF3E70020F0BD4FF0FF3028
:10066000F0BD10B50446FFF7D7FF431CD4F81411B2
:1006700009D02044002390F808010122104205D03F
:100680001E3354F823100846C91710BD0133520019
:10069000042B52B2F2D1F6E7F0B5059D00F18406C5
:1006A000002703200824EB1A0D78254208D037686C
:1006B000974201DA9F420BDB25EA04050D700746DD
:1006C0000138451C4FEA5404A6F10406ECD1384623
:1006D000F0BD1FB504AB089C43F8044D04308DE811
:1006E0000C00069B4FF0FF3200F0BFFE003018BF39
:1006F0000120404204B010BD2DE9F04395B0002325
:1007000004AD02928DE80A0003932A465A2104465A
:10071000FFF7DFFF00284DD19DF8103003F00303F1
:10072000032B03D09DF81130002B43D09DF812000D
:1007300001300A28C4F888003CDC002304F18C094D
:1007400004F5847804F1B80C4FF00F0E194601310E
:10075000884255F8212015F8216022F0FF0202F5A9
:10076000807249F8042B02F1FF3206F00F061344A1
:1007700008F8016B4FEAE3770EEA060E1E46ECE836
:10078000026703F10103E2DC0122002312EA0E00FA
:1007900008D01E33002054F82330C4F8143115B0AB
:1007A000BDE8F08301335200042BD2B2EED1C4F87D
:1007B0001401F4E74FF0FF30F1E71FB522F07F425C
:1007C000002322F47F6202930193009322F00F0230
:1007D000043000F0B8FE05B05DF804FB2DE9F04FE1
:1007E00085B0824616461F46FFF716FF0AEB000348
:1007F000DDE90E4593F808318DF80F300AF5907356
:10080000D3E9002314EB060845EB07094B4508BF65
:100810004245834603D23A4805B0BDE8F08FDAF886
:1008200000303246196C50463B46884702460B461C
:100830003046394604F0ACFC1343ECD1DAF8003012
:1008400018F1FF32196C504649F1FF3388470246D0
:100850000B464046494604F09BFC1343DBD1002C79
:1008600047DD0AEBCB082246D8F8B83000930DF1EB
:100870000F0133465046FFF70FFF0AEB80000023BD
:10088000856FD0F868902A463046394604F080FCDF
:1008900013199D42504694BFAD1A2546FFF72DFE11
:1008A00048BB2246E317CDE90023494632463B4682
:1008B0005046FFF782FF00BB7619A4EB050447F111
:1008C0000007002C0DDDD8E92E23BB4208BFB24241
:1008D0003FBF0BF1010B0AEB0B0393F808318DF8C6
:1008E0000F305046FFF7ADFD0028B8D1A0F6A37039
:1008F00092E7002090E703488EE76FF47A608BE779
:100900005BF0FFFF5CF0FFFF70B49DF80C409DF8BA
:1009100010509DF81460059604950394043070BC43
:1009200000F0C8BC2DE97F43D0F82C510E4690460C
:1009300090F8281190F82921994690F82A310395CA
:1009400090F82B5102950025019500950446FFF77C
:10095000DBFFDDE90A23216DCDE90223CDE9008922
:1009600032462046FFF7B5FE0395A8420295019551
:1009700000954FF002032A46294620460CBF2E461A
:100980006FF47A66FFF7C0FF304604B0BDE87083AD
:100990002DE9F04F8DB092469B4600220823079127
:1009A00003931146029201920092022381464FF076
:1009B0000808FFF7A9FF002600220023CDE9002345
:1009C000CDF80880039608AA5A214846FFF781FE11
:1009D00028B14FF0FF3738460DB0BDE8F08F042244
:1009E000324908A804F0C6FA07460028F1D19DF85C
:1009F0002520012AEDD19DF826000021023041F189
:100A00000001CB0035460593C30044464646049397
:100A1000A8460296CDF80C80CDE900450AAA5A21D5
:100A20004846FFF756FE0028D3D19DF82A20012A18
:100A3000CFD19DF828200ABB9DF82F20FF2A13D183
:100A40009DF82D209DF82E10079B120242EA0142CC
:100A50009DF82C100A431A609DF82B209200402A22
:100A6000A8BF4022CAF80020DDE90423083445F17C
:100A70000005AB4208BFA242CBD1ACE7512AF3D16B
:100A80009DF82F20FF2AEFD19DF82D209DF82E10E4
:100A9000169B120242EA01429DF82C100A43CBF841
:100AA00000209DF82B2092001A60DDE7B85400006A
:100AB0002DE9F04786B00DF1100A05AE0023ADF820
:100AC00010308AF80230ADF81430B37091F83A3033
:100AD000C3F302130446052B07D8DFE803F07103C4
:100AE000092B033302238DF811300327B84605E0A4
:100AF00040238DF8103001274FF003080025022312
:100B00002A4629460395029501950095204604F151
:100B10000409FFF7F9FE8DE860012B464FF0FF3224
:100B2000616E484600F00FFDA8B14FF0FF3006B0EF
:100B3000BDE8F08780238DF810303E2303663F2305
:100B40004366D8E702238DF8113035234366032727
:100B50004FF00108D2E70546735D1AF805201343EC
:100B600073550135032DF7D12046FFF7C6FC002849
:100B7000DBD102900190009733464FF0FF32216E97
:100B8000484600F0E0FC07460028CED12046FFF79B
:100B900058FC0028C9D02A463946304604F004FAE9
:100BA000CDF80880019600973B464FF0FF32616E0A
:100BB000484600F0C8FC003018BF01204042B6E7AC
:100BC0000020B4E72DE9F04387B004AD00240226ED
:100BD000AC70334680462246214603940294019429
:100BE00000948DF81660ADF81040ADF8144008F18F
:100BF0000409FFF789FE02960DF111068DE85000F9
:100C000023464FF0FF321521484605AF00F09BFC0C
:100C100020B14FF0FF3007B0BDE8F08304462B5DF4
:100C20003A5D13432B550134032CF8D14046FFF7AE
:100C300064FC0028EDD10290019000942B464FF007
:100C4000FF32D8F86010484600F07DFC07460028C7
:100C5000DFD14046FFF7F5FB0028DAD022463946BF
:100C6000284604F0A1F902230293019600973B461F
:100C70004FF0FF321521484600F065FC003018BFE8
:100C800001204042C7E770B596B000231646029295
:100C90008DE80A00039306AA5A210446FFF719FDBE
:100CA00020B14FF0FF35284616B070BD9DF81A50A0
:100CB00015F00405F5D19DF91F30002BF1DB079BE2
:100CC000C4F824510133DB08C4F820310323236521
:100CD00002236365E36DA365324606A92046FFF74C
:100CE000FDFA04F17803019304F16803C4F81801D4
:100CF0000093324604F15C0306A920468DF8165095
:100D00008DF81750FFF7F7FAE36DA36504F1500370
:100D100001930DF11703009332460DF1160306A956
:100D20002046FFF72BFB9DF816300BB90025BAE7DC
:100D30002046FFF747FF06A92046FFF7B9FE054604
:100D40000028AED19DF81730002BEFD006A9204621
:100D5000FFF760FAA7E7000070B5856C8AB004461B
:100D60004DB14F4B4F4AB5F1FF3F0CBF15461D46E5
:100D700028460AB070BD90F834310695079508955D
:100D800009950BB9C0F83051D4F830310133012B3B
:100D9000C4F83031ECD10022C4F888300221236637
:100DA000261D052384F82A11C4F8142184F808218B
:100DB00084F8282184F8292184F82B21C4F82C21D7
:100DC0006366D4F81C11304600F0F6FA054610B1FF
:100DD0006FF47A65CCE72046FFF757FB0130F7D078
:100DE0000323029305AB019300952B464FF0FF328E
:100DF0009F21304600F0A7FB05460028E8D19DF86A
:100E00001430BF2B0CD12046FFF777FB02950195DC
:100E100000952B464FF0FF329821304600F093FBAF
:100E20002046FFF70EFB002837D009AB009307AA36
:100E300008AB06A92046FFF7ABFD08B11A4D97E7AE
:100E4000079A06992046FFF71EFF05460028F5D1B0
:100E500004F59073D3E900230899C4F88C2012F1AB
:100E6000FF3243F1FF33C4E92E2369B90022022384
:100E7000039202920192009211462046FFF744FD30
:100E8000012384F8343173E7099A002AEED0204612
:100E9000FFF732FC0028E9D0D0E7044D68E700BF37
:100EA00059F0FFFF5AF0FFFF5EF0FFFF5DF0FFFF1C
:100EB000036813B900F1080303600068704700007D
:100EC00070B516480D46FFF7F3FF154A106809285C
:100ED0001EDC144B1B685C1E03F1090114F9016F41
:100EE000AE4218D08C42F9D103F10A0419460133FD
:100EF00091F90060013608D10D70013010600024B6
:100F00000648FFF7D5FF204670BDA342EED1F4E7B7
:100F10006FF00104F4E74FF0FF34F1E70003002025
:100F200014030020100300207FB5144E9DF92850B3
:100F3000044640F8046B0B9E03969DF924600196CD
:100F40009DF920600295009600F0FAF90C9BC4F818
:100F50001C31002004F59073002184F84C50C3E943
:100F600000010023C4F8303184F83431294620468A
:100F7000FFF7A6FFA064204604B070BDCC5400006B
:100F800010B510480C46FFF793FF0F4B1B6803F199
:100F90000A001A46013392F90010A14209D1FF2339
:100FA00013700A4A1368002B01DD013B1360002413
:100FB00003E08342EDD14FF0FF340248FFF778FFA2
:100FC000204610BD00030020100300201403002061
:100FD0007FB590F83461044626B9C0F830613046D8
:100FE00004B070BDD0F83051013DC0F83051CDB9DA
:100FF00004212B460295019500954FF0FF320844DD
:1010000000F0A1FAA36C84F8345100280CBF00262C
:101010006FF47A66002BE2D194F94C102046FFF76A
:10102000AFFFDCE70026DAE710B5034B03600446A8
:10103000FFF7CEFF204610BDCC54000010B504468B
:10104000FFF7F2FF204601F0A1FB204610BD000093
:1010500008B50A2001F08AFBFF21431E00F10902B6
:1010600003F8011F9342FBD1014B186008BD00BF7C
:10107000100300207047704701F0A8BD01F096BD35
:1010800001F0A6BD01F08ABD01F0A4BD70B50B4E04
:1010900005463046FFF70CFF284601F0FFFC0446EA
:1010A000284601F093FD01F061FB68603046FFF7D0
:1010B000FFFE201C18BF0120404270BD1803002015
:1010C00038B505460948FFF7F3FE284601F004FD50
:1010D000003018BF01204442686808B101F058FB95
:1010E0000248FFF7E5FE204638BD00BF1803002088
:1010F0002DE9F0410A4C0F46164605469846204613
:10110000FFF7D6FE43463A463146284600F060FFD8
:1011100005462046FFF7CCFE2846BDE8F08100BF1B
:10112000180300202DE9F74F1646994680460F46D2
:1011300001F04CFD0546404601F030FD8246404638
:1011400001F046FDB6FBF5F305FB136404B917B9CE
:101150004FF0FF3353E009EB060382445345F7D8C1
:101160002948FFF7A5FE2346B9F1000F42D0002B16
:1011700040D13146404601F019FDB6FBF0F400FBCA
:101180001464041B4C4528BF4C46BB0701D1A54243
:1011900029D9AC4228BF2C4622463946D8F804004B
:1011A00003F0F7FEAC4206D2D8F804002A1BFF2158
:1011B000204403F0F9FED8F804300193AB464FF019
:1011C000100A5B46019A3146404601F0ABFC0346EB
:1011D00020B1BAF1010AF4D14FF0FF33A9EB0409B1
:1011E00026442744C0E7B4FBF5F405FB04FB5C464A
:1011F0000197E4E704480193FFF75AFE019B184664
:1012000003B0BDE8F08F00BF180300202DE9F041C6
:101210000D461646074601F0C1FC0446384601F06B
:10122000D7FC2044AC19A04203D24FF0FF30BDE8F8
:10123000F08119D81548FFF73BFE0024FEB1F4B940
:101240004FF010082946384601F048FC044620B10A
:10125000B8F10108F6D14FF0FF342946384601F0C5
:10126000A5FC361A0544E9E72146384601F09EFC04
:10127000B4FBF0F303FB10400028D6D1DAE70348B3
:10128000FFF716FE2046BDE8F08100BF18030020DE
:1012900070470000034B1A6812B903F108021A6084
:1012A000704700BF2803002010B5044601F06EFA15
:1012B000204610BDF8B51D46036804469B680F46DE
:1012C000164698479DF81830E3729DF81C3023733A
:1012D0009DF820306373099B23632368277220469F
:1012E0006672A572DB6898470020F8BD10B5044609
:1012F000806B012886B004D9002084F83C0006B039
:1013000010BDC0B20490606B039094F9420002904B
:1013100094F94100019094F94000009094F93F3015
:1013200094F93E2094F93D10201D02F09BFD28B950
:10133000012384F83C3094F83C00E0E70023F8E710
:1013400038B580F83F309DF9103080F840309DF975
:10135000143080F841309DF9183080F84230022373
:101360000C4D8372079B0560836300250A4B456023
:10137000044680F83D1080F83E2005724572C57223
:10138000057345730563436380F83C50FFF7AEFF78
:10139000204638BD1855000040420F0038B5054DB5
:1013A0002B688342044602D0FFF7A0FF2C6094F81C
:1013B0003C0038BD3803002038B590F83C30044676
:1013C0000D46D3B103689B6898470D4B65631B6856
:1013D0009C420DD12946201D02F074FD003018BF3B
:1013E0000120454223682046DB689847284638BDDF
:1013F0002046FFF7D3FF0025F4E74FF0FF35F5E770
:1014000038030020F8B504460F4616460021202276
:1014100010301D4603F0C8FD237A2374791C14BFD5
:1014200000230123A374637A18BF67742375721CA9
:10143000A37A637514BF002301232377E37A84F82A
:101440002030237B18BFA66184F821306B1C14BFA9
:101450000023012384F82830236B84F82C30637B2D
:1014600018BF656284F82D30F8BD2DE9F843984621
:1014700090F83C30089E099C05460F46914643B3C0
:1014800024B31EB3236823B303689B689847284698
:10149000FFF784FFB8B14B46424639462846FFF76E
:1014A000B1FF2346324605F11001281D02F0BCFDB4
:1014B000003018BF012044422B682846DB6898475B
:1014C0002046BDE8F8834FF0FF34F5E76FF00104E4
:1014D000F6E74FF0FF34F3E72DE9F843984690F82C
:1014E0003C30089E099C05460F46914643B324B301
:1014F0001EB3236823B303689B6898472846FFF709
:101500004DFFB8B14B46424639462846FFF77AFFB1
:101510002346324605F11001281D02F0C9FB0030B8
:1015200018BF012044422B682846DB6898472046B4
:10153000BDE8F8834FF0FF34F5E76FF00104F6E7FC
:101540004FF0FF34F3E7F7B51D4690F83C30044602
:101550000E46174633B303689B6898472046FFF74B
:101560001DFFE0B14FF0FF333A4631462046FFF70A
:1015700049FF0A9B0193099B00932A46089B04F1AB
:101580001001201D02F0ACFB003018BF01204542C5
:1015900023682046DB689847284603B0F0BD4FF02B
:1015A000FF35F5E74FF0FF35F6E70000052804D0DA
:1015B0000628034818BF002070470248704700BF44
:1015C00058590000285900000C22002103F0ECBCFF
:1015D00010B50446A8B103689BB1406808B15B6AC6
:1015E0009847A06838B12368D968490000F028F905
:1015F000A06803F0B7FC20460C21BDE8104000F0C5
:101600001FB910BD70B5044616460D4699B190B18C
:101610000B6A9847606048B156B1E968022003F050
:101620006DFCA06020B96B6A60689847034870BD84
:101630002560002070BD024870BD00BF80AEFFFF76
:1016400000AFFFFF2DE9F0410E4688B01746044673
:10165000002857D00368002B54D08268002A51D04C
:10166000DA68BA4217D21B694068984705460028D5
:1016700034D1236860685B693A463146984705462D
:1016800060BB236860689B6969469847054628BB2C
:1016900023689F686E462368D4F80880DA6836218C
:1016A000404608EB020503F07FFC23685C21DA6802
:1016B000284603F079FC013E4346681E47449F429A
:1016C00014D1236860681B699847054630B92368C0
:1016D00060685D69DA684146A8470546202168468A
:1016E00000F0AEF8284608B0BDE8F08171781A78AD
:1016F0004A4003F8012B427816F8011F4A4000F8CF
:10170000012FDCE7004DEDE700AFFFFF10B440B163
:10171000036833B1846824B15B6940685DF8044BA9
:10172000184702485DF8044B704700BF00AFFFFF49
:101730002DE9F0410E4688B0044630B3036823B368
:10174000856815B3D3F80C8040689B696946984753
:10175000C0B9236860681B69984798B923686068B6
:101760005F69DA6805EB0801B84758B92368606813
:101770005D699A686946A84720B9236860689B69D3
:101780003146984708B0BDE8F0810148FAE700BF4C
:1017900000AFFFFFF0B50E4685B017461D46044664
:1017A00010B301A8FFF710FF2146012201A8FFF79F
:1017B00029FF044690B93A46314601A8FFF742FF97
:1017C000044658B90A9A294601A8FFF79FFF044624
:1017D00020B90B9901A8FFF7ABFF044601A8FFF75A
:1017E000F7FE204605B0F0BD004CFAE700AFFFFF62
:1017F00000F08EB800F035B810B5044600F02CF8B3
:101800002046BDE8104003F0ADBB10B56C210120AF
:1018100003F074FB044608B100F01AF8204610BD2E
:10182000012300F0EAB9002300F0E7B900F04FB956
:1018300000F00CB9012100F019B8002100F016B831
:10184000024B0A461B680021184700BF0402002013
:101850006C22002103F0A8BB10B16C21FFF7F0BF90
:10186000704708B56C2203F094FB08BD00230360A9
:101870004360B9B9184B8360184BC360184B0361C0
:10188000184B4361184B8361184BC361184B0362BB
:1018900003F17453A3F52303A3F6924343628166D5
:1018A00000207047134B8360134BC36003F17943EF
:1018B00003F5740303F501630361104B4361104B9F
:1018C000836103F1D14303F5C01303F51E63C361C4
:1018D0000C4B03620C4BE1E767E6096A85AE67BB18
:1018E00072F36E3C3AF54FA57F520E518C68059B02
:1018F000ABD9831FD89E05C107D57C3639590EF761
:10190000310BC0FFA78FF964A44FFABEFFF7AEBF3B
:101910002DE9F04FCBB000F1080300931A460023E5
:1019200002A852F8044B40F823400133082BF7D1AA
:1019300002AC94E85004059BDDF824B0069D089F96
:10194000DDF81CC00193ADF118024FF0000EBEF19E
:101950000F0F62D84B7891F800901B0443EA096896
:10196000CB7848EA030391F8028043EA0823136422
:10197000354B53F82E301846136C4FEAF5281844AF
:1019800088EAB5188CEA070388EA75682B4080441A
:101990007B409844019BCDF804A0D84443441846AA
:1019A00046EA04094FEA743306EA040B83EAB403F7
:1019B00009EA0A0949EA0B0983EAB4530EF1010E58
:1019C0004B44BEF1400F434401F1040102F1040213
:1019D000BB461BD1029309970690CDF820C007950E
:1019E00003940496CDF814A00023009A02A912686B
:1019F00051F823100A440099013341F8042B082BB5
:101A00000091F2D100204BB0BDE8F08FB24667469E
:101A10002646AC461C46054699E7936BD2F80490DF
:101A20004FEAF34888EA734888EA9328536A1846CD
:101A3000136818444FEAB94383EAF913804483EAF0
:101A4000D90908EB090392E7985900002DE9F04104
:101A500005460F46144612B90020BDE8F081036820
:101A600003F03F0013449A422B6082BF6B6801333E
:101A70006B6008B3C0F14006B24216D305F12808E6
:101A80003246404403F085FA41462846FFF740FFBE
:101A90000028E2D13744A61B3446311B3F2C394481
:101AA0000CD8002CD8D00F460020283522463946C5
:101AB000284403F06EFACFE71646EDE72846FFF715
:101AC00027FF0028C9D1403CE7E7FFF7BFBF036805
:101AD00070B503F03F030446581C23448022382885
:101AE0000D4683F8282004F1280674D8C0F1380286
:101AF0000021304403F058FA236861685A0F42EA23
:101B0000C102110EDB0084F86010110C84F8611022
:101B100084F86320110A1A0E84F864201A0C84F8E1
:101B200065201A0A84F8621084F8662084F8673009
:101B300031462046FFF7ECFE00284BD1E37A2B70AC
:101B400063896B70A3681B0AAB70A368EB70E37BBF
:101B50002B71E3896B71E3681B0AAB71E368EB716E
:101B6000E37C2B72638A6B7223691B0AAB72236955
:101B7000EB72E37D2B73E38A6B7363691B0AAB73B0
:101B80006369EB73E37E2B74638B6B74A3691B0A2D
:101B9000AB74A369EB74E37F2B75E38B6B75E3691F
:101BA0001B0AAB75E369EB7594F823302B76638CD5
:101BB0006B76236A1B0AAB76236AEB76A36E4BB96E
:101BC00094F827302B77E38C6B77636A1B0AAB772B
:101BD000636AEB7770BDC0F140020021304403F02E
:101BE000E3F931462046FFF793FE0028F2D1014683
:101BF000382230467EE7FFF76ABFF0B59DB01C463D
:101C0000064601A80F461546FFF722FE214601A809
:101C1000FFF72CFE044658B93A46314601A8FFF7B3
:101C200015FF044620B9294601A8FFF750FF0446D6
:101C300001A8FFF711FE20461DB0F0BD10B5072327
:101C400000220121C40744BF01FA03F4224313F127
:101C5000FF334FEA5000F5D2104610BD2DE9F04F8A
:101C60008FB0074606A816460C469A46FFF702FABA
:101C7000102200210AA803F097F9002E6FD006A8C1
:101C8000FFF704FA0546002871D1394606A8FFF788
:101C9000F5F907F18F039C42C0F0B08006A8FFF76A
:101CA000EFF9804606A8FFF7EDF94044844200F2C0
:101CB000A5800134E41B4FEA5408A84507EB050151
:101CC00004D906A8FFF7DAF90544F6E74C4B0A9762
:101CD000641B002B0B950C910D9414BF0127022758
:101CE000002506A80AACFFF7CFF954F835200DF10E
:101CF0002008814608234032414606A8FFF7F8F93C
:101D000030B918F800304B4533D101300828F8D1EC
:101D10000135022DE5D13B4C6CE018F1010849F189
:101D20000009DDE90001894508BF80455FD212F84E
:101D3000010F0392FFF782FF039A8BEA006B0921E0
:101D4000013911F0FF01E8D0BBF1000F4FEA4B035E
:101D5000B6BFDFF8BCB09B4683EA0B0BF0E72A4C1A
:101D600006A8FFF788F920460FB0BDE8F08F274C92
:101D7000F6E7189BBDF8228013B1189BC3F80080CA
:101D8000C245C5D354F835204346314606A8FFF76F
:101D9000AFF904460028BBD11FFA88F20023022FB6
:101DA000CDE900234FF000084FF000094FF0FF3B52
:101DB00006F1FF32B5D012490491DDE900018945F1
:101DC00008BF804513D212F8010F03920592FFF766
:101DD00035FF80EA1B60C0B20499039A51F82000D5
:101DE00018F1010880EA0B2B49F10009E4E7099A90
:101DF0005A458DD106A8FFF763F9B1E7024CF9E720
:101E0000285500000701FF800101FF800F01FF80BE
:101E1000B71DC1042DE9F347054668460E46FFF796
:101E200029F94A49084603F091F968B94FF4C043CB
:101E30002B604FF400532A681A4432602A68CAB9EA
:101E400083B94FF0010819E04149404803F07EF999
:101E500010B900232B60EEE73E493C4803F076F9C9
:101E60000028F6D03C4C6846FFF705F9204602B042
:101E7000BDE8F087002BF5D04FF000086846FFF76B
:101E800005F9044600285ED1344A3548354B1044E4
:101E9000A0EB030A51466846FFF7F0F88146684612
:101EA000FFF7EEF807466846FFF7ECF80744B8F18D
:101EB000000F2ED1D5F8008068464146FFF7DEF8C6
:101EC0002346024681462146404603F061F9D6F892
:101ED00000A000FB09F90AF1FF316846FFF7CEF8D0
:101EE000002180461AF1FF304246234641F1FF317E
:101EF00003F04EF92B684B4500FB088804D133688A
:101F0000434501D19F421AD26846FFF7D9F8164CD3
:101F1000A9E7791E6846FFF7B1F80021A7EB400852
:101F20001AF1FF304A4641F1FF31234603F030F900
:101F300000FB0999C845E7D3C5F8008037606846BB
:101F4000FFF7BEF88FE7094C8DE700BF985A0000F5
:101F5000A35A0000B05A00000901FF80E85B0000AE
:101F6000E0020020000200200601FF800F01FF8038
:101F700030B5124D2B78BFF35B8F13F0010487B09F
:101F800019D1284600F0E0FBA8B10D4B04931721AE
:101F9000132211238DE80E00039415221421162319
:101FA0000848FEF7C1FF284600F0D9FB064A07495A
:101FB000044800F0B8FB034807B030BD3C030020E4
:101FC0000048E80140030020000200202910000022
:101FD00008B510461A4602F0DCFF002008BD0000DC
:101FE00038B504460D4690F90030AAB11F2B86BFC4
:101FF00003F01F030F494FF0A041012202FA03F33F
:10200000C1F808352046012101F0C8FD29462046C7
:10201000BDE8384001F0AEBD1F2B86BF03F01F03A3
:1020200004494FF0A041012202FA03F3C1F80C3534
:10203000E8E700BF0003005070B50E4604461546A1
:1020400001F080FD013606D02A4620460021BDE879
:102050007040FFF7C5BF70BD0022FFF7EDBF000065
:102060002DE9F74FD0F804A09AF83A300446002B37
:1020700046D103685B68984763681B6A98423FD003
:10208000DAF82030DAF80840CAF82000A0EB03089C
:10209000DAF80C30314808EA0308844246464FF02B
:1020A000000727D0DAE90A239AF83BB0A8FB008999
:1020B000CDE900230025BBF1000F2BD05A46404646
:1020C000494603F04DF8DDE9002312EB080243EB2B
:1020D000090390465A46994606460F4603F04CF8C7
:1020E000B8EB000069EB0101A94208BFA0420AD287
:1020F000CAE90A01DAE90C23B6185F41CAE90C679C
:1021000003B0BDE8F08F013647F10007001B61EB1B
:102110000501EDE722462B464046494603F038F8D4
:10212000224606460F46404649462B4603F030F805
:10213000DDE9008918EB020849EB0309A94508BF4E
:10214000A04502D2CAE90A89D4E7013647F100075F
:10215000B8EB040869EB0509F4E700BF40420F0043
:10216000824206D98A420BD9884294BF00200120BE
:102170007047884206D98A428CBF002001207047F0
:1021800001207047002070472DE9F047466896F817
:102190003A300746002B66D196F83930002B62D1D1
:1021A000FFF75EFF7D68D7F800A06B68002B50D06A
:1021B000D5E90C89D3E90001894508BF804504D3DE
:1021C000DAF81430BDE8F0471847D5E90623B0EB3C
:1021D000080861EB09094B4508BF42452C6906D345
:1021E000AB68224A934216D1444528BF44462A6A26
:1021F000DAF810301444EA681440204698473B68E7
:102200005B68984722460146306AFFF7A9FF50B342
:102210003B685B69D6E795F83B20AAB14046494642
:1022200002F0AAFFDFF84880104A18EB00084FF0D0
:10223000000949EB010900234046494602F0A8FF86
:10224000844228BF0446D2E7A3FB080103FB09111F
:10225000E8E73369306AF26818441040DAF8103061
:10226000BDE8F0471847BDE8F08700BF40420F00C7
:102270003F420F002DE9F04F436893F8382085B0B6
:102280000546002A64D193F83A30002B60D10368E8
:102290001B6898472B68DB6998472F4B066801221B
:1022A000002E08BF1E461F2302FA03F1B1425FFA57
:1022B00083FB02D0013BF7D19B464768264C3B1F6E
:1022C0001D2B28BF20273B1F4FF0070A16F1FF30B8
:1022D0000AFA03FA4FF0000343F1FF313246C4FB20
:1022E0000A0102F055FF6C682A68002323606360CE
:1022F00052680393CDE90001904720626C684FF06B
:1023000000084FF000093A46C4E90A89A66084F83B
:102310003BB00120002102F02FFFDDE90023C4E9DA
:102320000623039B84F8393084F83A3001380123BE
:10233000E060C4F810A02846C4E90C8984F838305D
:10234000FFF78EFE284605B0BDE8F04FFFF71CBF33
:1023500005B0BDE8F08F00BF40420F0070B50446E5
:1023600000F002F92368DB689847636893F83A2025
:102370001AB1BDE8704000F001B9012283F839209C
:1023800063685B68A3B12046FFF76AFE65686E6804
:10239000D5E90C01D6E90023994208BF904207D342
:1023A000F3686B602B68002BEAD0B0689847E7E7CA
:1023B0006368002283F839202046FFF7E5FED8E75E
:1023C00038B50446FFF756FF00F0CEF82046FFF779
:1023D00047FE6368D3E90C4500F0D0F82046294653
:1023E00038BD08B5FFF7ECFF08BD00000048704796
:1023F000B85A0000024B1B680BB1024818477047DF
:1024000008020020B85A000002F032BE02F0E2BD1D
:1024100002F0D2BDF0B572B6234A244F00231360F8
:102420004FF0E0224FF0FF36516801F00F0101310B
:102430001D469A0002F1604202F561424FEAC30E66
:10244000C2F88060C2F88061002202EB0E043C44B6
:102450000132082A84F80053F7D101339942E8DCAD
:10246000134B4FF020625A6040F2FA529860DA60E3
:1024700000221D6111469C1801320C2A2176FAD1E6
:102480004FF0FF3259629A620A4ADA621F221A63D7
:102490004168036840F2000282F314889D4682F38B
:1024A00010880847F0BD00BF10E000E000E100E048
:1024B00000ED00E0020000C083B500F055F80D21EA
:1024C00001A8FFF7C9FD254D254F04269DF90430CD
:1024D0001F2B8ABF2A464FF0A04203F01F0301249E
:1024E00004FA03F3C2F80835384600F062F99DF9A2
:1024F00004301F2B86BF03F01F032A464FF0A04273
:102500009C40C2F80C45384600F053F9013EDDD13D
:10251000144F04269DF904301F2B8ABF2A464FF022
:10252000A04203F01F03012404FA03F3C2F80835A4
:10253000384600F03EF99DF904301F2B86BF03F0AA
:102540001F032A464FF0A0429C40C2F80C45384673
:1025500000F02FF9013EDDD1B6E700BF00030050C7
:10256000F0490200801A060008B500F087FA024A16
:1025700013680133136008BDB8040020054B1A68C6
:1025800032B11A68013A1A601B680BB900F07EBAC2
:10259000704700BFB80400200122D0E84F3FC0E8D8
:1025A000412F0029F9D1D8B2003018BF012070475F
:1025B00070B5164C90B034EA200428BF04460D468E
:1025C000164600214022684602F0EEFC8DE85000DD
:1025D0000295FFF7C9FF0E4A13680133012B136000
:1025E00004D1402269460B4802F0D3FC40226946E0
:1025F000094802F0CEFC094B1B680BB1064898470E
:10260000FFF7BCFF002010B070BD00BF0101FF80CC
:10261000BC040020C804002008050020C0040020DD
:1026200010B50A4C00F13C010346002013F8012BC1
:1026300080EA0260082200284FEA4000B8BF6040EC
:10264000013AF8D18B42F1D110BD00BFB71DC104D2
:1026500008B504461A4876461546FFF79DFF20B98F
:10266000324629462046FFF7A3FF1648164CFFF7CF
:10267000D7FF164BD3F8BC20904208BFD3F8B43034
:1026800011480CBF0133012363630023A363FFF7E9
:10269000C7FFE063FFF768FF40220B49094802F0DB
:1026A00078FCFFF76BFFBFF34F8F0949094BCA68EE
:1026B00002F4E0621343CB60BFF34F8F00BFFDE72E
:1026C000C404002080010020080500200001002033
:1026D00000ED00E00400FA050C4A136810B5184438
:1026E000EFF30881884205D3094B0C221A604FF0A2
:1026F000FF3010BD07490C6824B10749096821441F
:102700008842F1D21060184610BD00BF0C020020B4
:1027100004480020480500204C05002008B508B1F9
:10272000FFF7CAFEFEE70120704708B5FFF7F6FF86
:10273000012070477047704708B5FFF7FBFF08BDE1
:1027400008B5FFF7F8FF08BD037803F00302012A7C
:102750001DBF43F00203037001200020704703787F
:1027600023F0030343F001030370704713B50446DD
:1027700002F0F0FB034628B90090014622460248C9
:10278000FFF766FF02B010BD1F01018002F0EABB37
:1027900002F0E8BB7047704708B500F031FAFFF768
:1027A000FAFF08BD08B5FFF7F5FFBDE8084002F0E5
:1027B0006BBA70B50446FFF719FE0646FFF711FE27
:1027C00005463046FFF70DFE401BA042F9D370BD11
:1027D0004FF47A735843FFF7ECBF00000749084AEB
:1027E000084B9B1A03DD043BC858D050FBDC06485D
:1027F000804706488047064800470000E85B000025
:1028000000020020E002002059280000D92B00001F
:102810006D010000FEE7FEE7FEE7FEE7FEE7FEE7EC
:10282000FEE7FEE7FEE7FEE71030024B43F820101C
:10283000704700BF00000020054B1B68082B01BF3C
:10284000044B1868B0FA80F0400918BF00207047A8
:10285000300100103401001008B5FFF7EDFF40B162
:102860004FF080430022C3F80C21C3F81021C3F8B5
:102870003825FFF7E1FF002846D04FF08052714B1A
:10288000D2F80414C3F82015D2F80814C3F824159C
:10289000D2F80C14C3F82815D2F81014C3F82C156C
:1028A000D2F81414C3F83015D2F81814C3F834153C
:1028B000D2F81C14C3F84015D2F82014C3F84415FC
:1028C000D2F82414C3F84815D2F82814C3F84C15CC
:1028D000D2F82C14C3F85015D2F83014C3F854159C
:1028E000D2F83414C3F86015D2F83814C3F864155C
:1028F000D2F83C14C3F86815D2F84014C3F86C152C
:10290000D2F84424C3F87025FFF796FF10B14E4B60
:102910004E4A1A60FFF790FF18B14D4BFB22C3F8E7
:102920001825FFF789FF48B14A494B4B0A681B68D5
:1029300022F00F0203F00F0313430B60FFF77CFF3D
:1029400018B1464B4FF400721A60FFF775FF48B19B
:102950004FF08043D3F80024D20744BF6FF0010248
:10296000C3F800243E4AD2F8883043F47003C2F81A
:102970008830BFF34F8FBFF36F8F4FF01023D3F822
:102980000022002A03DBD3F80432002B2FDA354B68
:102990000122C3F80425D3F80024002AFBD04FF00D
:1029A00010221221C2F80012D3F80024002AFBD012
:1029B0004FF010231222C3F804222A4B1A46D3F8F0
:1029C00000140029FBD00021C3F80415D2F800340C
:1029D000002BFBD0BFF34F8F2149234BCA6802F471
:1029E000E0621343CB60BFF34F8F00BFFDE71F4B87
:1029F0001F4A1A604FF0804301220021C3F81825B6
:102A0000C3F804119A60D3F80421002AFBD01949B5
:102A1000CA6842F08072CA60D3F85C2542F4803202
:102A2000C3F85C25D3F85C2542F00302C3F85C25AB
:102A30004FF0A04340F20132C3F848270E4B00226A
:102A40001A6108BD00C000408C5600404881030058
:102A500000F00040E40E0040580200104096024092
:102A600000ED00E000E001400400FA051002002043
:102A70000090D003F0ED00E0000004E0024803788D
:102A80000BB100F069B9704714020020024B01221B
:102A900000201A7000F06EB9140200200B4B187859
:102AA00010B5002288B10A481A704FF08051C260F8
:102AB0004C690B690749426063438260036100F01F
:102AC00067FE003018BF0120404210BD15020020F3
:102AD000C8020020EC5A0000002070472DE9F041A8
:102AE0000E4601F06FF80D4FDFF8348005460424E0
:102AF000401BB84201D8042C05D0201C18BF01206F
:102B00004042BDE8F081002301223146404600F0FA
:102B10007EFE044601F056F8EAE700BF3F0D0300D1
:102B2000C80200202DE9F04F85B03ABB4FF0FF30CE
:102B300005B0BDE8F08F2B68039301F043F806EB76
:102B4000050B82460023009303AA042359464046FE
:102B500000F027FE044601F035F8A0EB0A004845D6
:102B600009D90435002CE1D1BD42E4D1201C18BFA5
:102B700001204042DCE7042CE4D0F2E723F0030319
:102B8000D71815460E248E1ADFF80880DFF8089053
:102B9000EAE700BFC80200203F0D0300024B18699E
:102BA000DB68C01A704700BFC8020020064BDA6815
:102BB0008A4205D81A69914202D25B681868704748
:102BC0004FF0FF30704700BFC8020020042070475C
:102BD00000207047FF207047064A0748002350F83E
:102BE000231042F823100133402BF8D1034B9A6095
:102BF000704700BF000000200000000000ED00E072
:102C000007B5052101A8FFF727FA9DF904301F2B0E
:102C100086BF03F01F0305494FF0A041012202FACD
:102C200003F3C1F80C3503B05DF804FB000300505A
:102C3000014B436000207047E05A0000084670478F
:102C400000207047024B1868003018BF0120704701
:102C50005005002008B510461A4602F09AF90020E7
:102C600008BD000010B50022054B53E8001F01EA23
:102C7000020043E8000494F0000FF6D110BD00BF3D
:102C80005005002008B5FFF7EDFF002008BD00004B
:102C90002DE9F04115461F4686B080460E460122BA
:102CA000144B53E8004F44EA020143E8001090F04F
:102CB000000FF6D1E4B9A54212D1FFF7D3FFD8F83F
:102CC0000830002493B1022201A88DF80420029458
:102CD0000396049505979847204606B0BDE8F08115
:102CE00006EB043000F04EFB0134E4E71846F4E74D
:102CF0001120F2E7500500202DE9F0410F4686B083
:102D0000114680461E460124124A52E8005F45EAF9
:102D1000040342E8003090F0000FF6D1BDB9B208CC
:102D2000384600F047FBFFF79DFFD8F8082062B156
:102D30000C9B8DF8044001A8029503970496059317
:102D40009047284606B0BDE8F0811046FAE711200A
:102D5000F8E700BF5005002072B6054A1378191C29
:102D600018BF01210133017013700020704700BFAC
:102D700054050020044B20B11A78013A1A70002043
:102D80007047187062B6FAE75405002000284FEA31
:102D9000411114DB00F1604300F01F02400903F50C
:102DA00061438000C9B200F1604083F8001300F570
:102DB000614001239340C0F880310360704700F008
:102DC0000F00024BC9B21954704700BF14ED00E068
:102DD00000F1804000F5C040002382B0036003682A
:102DE0000193019B02B0704703681F2B83BF03F060
:102DF0001F03036001484FF0A040704700030050DC
:102E000007B502AB43F8040D1846FFF7EDFF019B31
:102E100000EB8300D0F8003723F44033C0F80037CC
:102E2000D0F8003743EA0141C0F8001703B05DF85D
:102E300004FB0000054B4FF0FF32072843F8202029
:102E400084BF1B1883F85820704700BF5805002026
:102E500010B5134C94F86430FBB9FF21E21801332C
:102E6000302B82F83010F9D10021C8B2FFF7E2FF11
:102E700001310C29F9D107210620FFF787FF4FF414
:102E8000BE70FFF7A5FF074B4FF00042C3F80423C5
:102E9000012384F86430002010BD082010BD00BF5D
:102EA000580500200060004030B504463248031940
:102EB00085B093F9302001325BD18A78002A49D05D
:102EC000002350F8235001354FEA83023CD1051905
:102ED00002F1804202F5C04285F83030002540F80A
:102EE0002350D2F810550B78487825F499151B0417
:102EF000000525F4F85500F4801003F44033C2F8BF
:102F0000105503432002D2F8105500F47C500343BF
:102F10002B43C2F810354A78012A1FD104A840F883
:102F20000C4DFFF761FF019B9A40C0F8082504A8EB
:102F300040F8044DFFF758FF039B03F5E0730322AD
:102F400040F82320002003E00133082BB9D10420EE
:102F500005B030BDFE2283F83020DCE704A840F83D
:102F6000084DFFF741FF029A01239340C0F80C354A
:102F7000DDE70820ECE700BF5805002037B5114910
:102F80000D18044695F83000072809D8FFF752FFBE
:102F900095F930300C4A03F5A273002042F8230063
:102FA00002A80B19FF2240F8044D83F83020FFF7E8
:102FB0001BFF019B03F5E073022240F8232003B0BE
:102FC00030BD00BF5805002000600040F7B5344E0A
:102FD0003318054693F93030002B5FDAC8780028A3
:102FE0000BBF082300230C240824A34202D1042091
:102FF00003B0F0BD56F82370013718D177195CB2D1
:1030000087F8304046F8232010B9334483F85850ED
:103010008B7873B902A84A7840F8045DFFF7E4FEA4
:10302000019B03F5E073920040F823200FE0013389
:10303000DBE702A840F8085DFFF7D6FE009B00EB37
:103040008300D0F8003723F00203C0F80037C878B7
:103050000A78D0B1A30003F1804303F5C0432D02E9
:10306000D3F8101521F44F3121F44071C3F8101535
:103070001204D3F8101505F47C5502F440321543C0
:103080000D43C3F810550020B2E7083C344494F8CF
:10309000605045EA821284F86020A9E70820A7E77B
:1030A0005805002037B5214C2318054693F93020E8
:1030B000072A1ADD224492F858309B09032B10D1BD
:1030C00002A840F8045DFFF78FFE019AD0F8103592
:1030D000D340DB0707D402212846FFF791FE03B057
:1030E00030BD012BF7D00321F6E7D3B2072BF6D87A
:1030F000930003F1804303F5C043D3F8100540F07B
:103100000100C3F8100502F14000800080B2FFF713
:103110005FFE0029E3D054F82230002BDFD00123DA
:1031200003FA02F2024BC3F80423D8E75805002043
:10313000006000400E4B034493F93020072A02DD63
:103140000021FFF75DBED3B2072B10D8930003F127
:10315000804303F5C043D3F8101521F00101C3F8F3
:103160001015012303FA02F2024BC3F8082370473B
:10317000580500200060004037B50446FFF7DAFF2D
:1031800010490B1993F93030DAB2072A9FBF03F5C3
:10319000A2730D48002540F8235002A8022540F8EC
:1031A000044DFFF721FE019B03F5E07340F8235027
:1031B0001046FFF73FFE0819FF2380F8303003B0B8
:1031C00030BD00BF58050020006000402DE9F04FE1
:1031D00089B00024614A624E624D02940394012139
:1031E000A2F5C04052F8043B012B80B206D1D6F8BC
:1031F00004330B4202D0FFF7EBFD0C43AA424FEA27
:103200004101EDD1584B1B68012B0ED14FF4BE701C
:10321000FFF7DEFD4FF0A04344F00044D3F8103533
:103220000293524BD3F81035039314F0FF0F34D1AF
:10323000002C80F28F8004AE0023049373604C4F07
:103240004FF0FF33069307934FF001080024254603
:103250007B1993F96020531C63D0D2B222F0C009CD
:1032600008AB4FEAD90003EB000B02F007011BF893
:10327000083C08FA01F10B4253D007EB090392090D
:1032800093F9303057F823A0BAF1000F21D1032A67
:1032900047D1335C0B4333541DE0354F01260025E5
:1032A000344210D0AB0003F1804303F5C043D3F8A0
:1032B0001005D3F8101557F8253023B1C1F301419B
:1032C000C0F3052098470135082D4FEA4606E7D19F
:1032D000AEE7032ADDD001A8CDF80490FFF784FD06
:1032E000019B03F5E07350F823301BF8180C0842DB
:1032F000C3F3014305D0022B13D1032A0BD111468E
:1033000004E0032B0DD1032A05D102214846FFF723
:1033100077FD0134E4B2BAF1000F02D011464846FD
:10332000D0470135042D93D1A4B14FF0A0430299A9
:10333000D3F8102503F540739142D3F8103502D12C
:103340000399994206D002920393049A059B069230
:1033500007937BE709B0BDE8F08F00BF0061004034
:1033600000600040206100407C610040000300508C
:1033700058050020024AD2F80034002BFBD07047D9
:1033800000E001400A4908B50223C1F80435BFF343
:103390006F8FBFF34F8FC1F80805FFF7EBFF0023D6
:1033A000C1F80435BFF36F8FBFF34F8F08BD00BF67
:1033B00000E0014070B50E4D16460122C5F8042507
:1033C000BFF36F8FBFF34F8F0024B44207D10023A8
:1033D000C5F80435BFF36F8FBFF34F8F70BD51F841
:1033E000243040F82430FFF7C5FF0134EDE700BF7B
:1033F00000E001400E4A537910B503F0FF01A3B974
:103400000C4B1960116821B1012454710A4AC2F8A9
:10341000044300F1804000F524300122026011B91C
:103420001A68002AFCD0002010BD112010BD00BF7A
:10343000C00500200091024000900240F8B53A4DCE
:103440002E79002E6BD190F800C0BCF1FF0F68D030
:1034500090F801E0BEF1FF0F63D08778FF2F60D0B6
:10346000C478FF2C5DD0314BC3F824C5C3F828E5E0
:10347000C3F83075C3F83445047990F807C090F864
:1034800006E0FF2C08BF4FF0FF34C3F838454479FD
:10349000FF2C08BF4FF0FF34C3F83C45447A002CA2
:1034A000047A4FEA841444EACC0414BF802700272E
:1034B00044EA0E043C43C3F84445D3F80046877AF7
:1034C00090F80CE024F07F4424F0FF043C43C77ADA
:1034D00044EA4E6490F80DE0002F14BF4FF080775F
:1034E000002744EA0E743C43C3F80046AA60012258
:1034F0006E7129601C46C3F8082319B1817B29200D
:10350000FFF744FC0A4B012200212A71C4F8002570
:10351000196022601A68002AFCD00020F8BD08203B
:10352000F8BD0720F8BD00BFC00500200090024094
:1035300000910240414B5B7970B503F0FF04002B12
:1035400079D13F4D2C60447811B3A31E072B1FD8AF
:10355000DFE803F0555351114F4D4B04CB791B0657
:103560008E7943EA06434E7943EA06230E793343C4
:10357000344EC6F83C36CB781B068E7843EA0643B9
:103580004E7843EA062309780B432E49C1F83836B2
:103590002C4986780123C1F80833230243EA063315
:1035A00006783343C67843EA4633067943EA8633DE
:1035B000467943EAC6338679C07943EA064343EA4B
:1035C0004043C1F834362B68002BFCD000232B601D
:1035D0000123C1F8043362B3D1F83C36A11F03299B
:1035E00016D8DFE801F01412100E0023B8E700230C
:1035F000B9E70023BAE70023BFE70023C0E70023B1
:10360000C1E7190ED171190C9171190A5171137119
:103610000C4B023CD3F83836032C0AD8DFE804F010
:1036200008060402190ED170190C9170190A517014
:103630001370002070BD112070BD00BFC0050020B8
:1036400000910240009002400B4A0123C2F8083367
:103650000023C2F80035094A4FF40071C2F8841003
:10366000BFF34F8FBFF36F8F02F1C04202F5D83224
:103670001360034A137170470090024000E100E0BC
:10368000C005002000F06043B3F1005F09D1064B94
:10369000C3F81025C3F81405C3F818150820FFF760
:1036A000A9BE1020704700BF0090024000F06043A8
:1036B000B3F1005F09D1064BC3F80425C3F8080530
:1036C000C3F80C150420FFF795BE1020704700BF0B
:1036D00000900240104B1A6813B5D2B10F4CD4F8C9
:1036E0000823D20715D500221A601B68019302A98E
:1036F000019BD4F8083501F8053D094800F0C5F8EC
:10370000074800F0B6F820B1064A0123C4F8083390
:10371000136002B010BD00BF00D1004000D00040D7
:103720000C5B000004D0004000F58023F7B5143393
:103730000025124E1B0329460127AE460528EAB292
:1037400002D8345C944206D8421E0D4B53F8223006
:10375000984703B0F0BD940004F5807453F804C09A
:10376000BCF1000F08D043F804E007FA02F211435D
:103770001A590192019A89B20135DFE7205B0000F6
:10378000FC0500200420FFF7CFBF0520FFF7CCBFCA
:103790000B4620B11BB1036011461B6818470E2071
:1037A00070472DE9F043DDF81C809646F0B1EAB190
:1037B000D0F800C0BCF1000F1BD0EBB14768D7F8C0
:1037C0000490B3FBF9F709FB1737AFB942EA010ED2
:1037D0001EF0030F07D1C768B94204D34C1E056918
:1037E0001C44AC420BD91020BDE8F0830E20BDE88C
:1037F000F0830820BDE8F0830920BDE8F083CDF810
:103800001C80DCF80C40A446BDE8F0436047F0B5EE
:10381000B8B1D0F800E0BEF1000F14D0AAB14768EB
:10382000D7F800C00CF1FF370F4208D1C768B94282
:1038300005D34C1E05690CFB0244AC4207D910208D
:10384000F0BD0E20F0BD0820F0BD0920F0BDDEF86F
:103850001040A446BDE8F040604702681368526813
:10386000934291BFD01A80680130801888BFC01A77
:103870007047036881681A685B688B4234BF013304
:103880000023D31A584258417047F8B50446002027
:103890000D4600F05DF82046FFF7EBFF10B1237CEA
:1038A000002B3CD12268A66853685168B14234BFEE
:1038B00001310021516030B11168A068814234BFEC
:1038C000013100211160E2686068511E072920D88B
:1038D000DFE801F004101F141F1F1F182A78C254BC
:1038E0002046FFF7BAFF23689A68904200D9986093
:1038F000002415E02A8820F81320F1E72A6840F810
:103900002320EDE7D5E9006700EBC300C0E90067BD
:10391000E6E7294602FB030001F03BFBE0E7042455
:10392000002000F017F82046F8BD000072B6024AE9
:10393000136801331360704710060020034A1368B0
:10394000013B136003B962B6704700BF1006002048
:10395000FFF7ECBFFFF7F2BF104B10B5024604466D
:10396000D3E9000101F0FCFB002100F0010050EA66
:10397000010312D00A4B1A5D910706D5D20604D472
:103980002046BDE81040FFF7F9BA1B5DDB0604D501
:103990002046BDE81040FFF7EFBB10BD0807002030
:1039A000D40600201F288BBF00F01F030346174AD0
:1039B0004FF0A04203F5E07370B552F82330C3F323
:1039C0000143032B124B02460446D3E900010CBF0E
:1039D0000125022501F0C4FB002100F0010050EA9E
:1039E000010311D00B4B012D1B5D02D15A0602D4ED
:1039F00070BD9B0608D5084B084A1B6852F8240086
:103A00002946BDE87040184770BD00BF0003005054
:103A100010070020D40600201807002014060020FC
:103A200073B5434D434E2B5C13F0010F044601D197
:103A3000DB0670D52B5D980704D5C3F30013DAB20B
:103A4000002A4ED003238DF804302B5DC3F381038D
:103A5000D9B2002201298DF807208DF8062001D067
:103A600003292BD18DF805302B5DD90629D5324A93
:103A700001A92046FFF7AAFA304B2246D3E90001FC
:103A800001F06EFB002100F0010050EA010308D0B4
:103A90002B5D5A0601D49B0603D501212046FFF772
:103AA00001FB22460120002101F066FBD6E900233C
:103AB00010431943C6E9000102B070BD8DF805201E
:103AC000D2E71F2C23469DF8052086BF1C4904F031
:103AD0001F034FF0A04103F5E073920041F823204B
:103AE000DFE71F2C8DF8063088BF154BADF804209A
:103AF00094BF4FF0A04304F01F02D3F8043598BFE1
:103B00002246D34003F0010301A920468DF8053079
:103B1000FFF7CAF9C5E702460021012001F02CFB9E
:103B2000D6E9002322EA000023EA0101C2E700BF30
:103B3000D406002008070020A53900001007002047
:103B40000003005010B50170013104460CD0074944
:103B50000620FEF769FEFFF77BF9054994F900207E
:103B60008B5C43F001038B5410BD00BFCD310000CE
:103B7000D406002038B5044600780D46FFF7ECFE69
:103B800094F90000044B1A5C65F383021A54C0B226
:103B9000BDE83840FFF744BFD406002038B50446DE
:103BA00000780D46FFF7D8FE94F90000044B1A5C2C
:103BB00065F341021A54C0B2BDE83840FFF730BF88
:103BC000D4060020014BD3F80405704700100140D3
:103BD00010B5074C22780AB1FFF736FD00221146D6
:103BE0000448FFF72BFC08B90123237010BD00BF68
:103BF0001C0700201E07002008B50B7813B16FF0DA
:103C0000010008BD0B79BBB94B7F5BB9487822B185
:103C10000228F4D1254AD3711AE00B28EFD1234BA7
:103C20009A7115E0022B25D148780AB13228F0E7C5
:103C30006B28E4D10322F2E7022B26D14B7F022B23
:103C4000DDD14B7892B1382BD9D1184B0322DA71E0
:103C50004B79022B25D10022144B1A72FFF7B8FFC3
:103C600018B10728CBD04FF0FF3008BDEB2BC6D1E1
:103C70000422D4E7012BC2D148780AB1A228C8E7B0
:103C80003B28BCD1094A9371E2E7012BB7D14B7FA6
:103C9000012BB4D1002AB2D14B78BB2BAFD1022279
:103CA000BDE7032BABD10122D6E700BF1E070020E2
:103CB00070B51C461B689B070E4615460DD10122A8
:103CC000FFF79AFF58B9B26821682846FFF7DAFC77
:103CD000003018BF0120404270BD6FF0010070BD80
:103CE0007FB500260096019603964E788DF8086001
:103CF0000126099D8DF80A608DF80B600E7B089CEB
:103D0000581916BB08BB4B79022B15D104238DF82B
:103D100009309DF809300831013B0B440DF1FF32A9
:103D20008B420DD16A46694602A8FFF703FC70B9C1
:103D3000A8421BD100200CE0032B1CD10523E6E791
:103D400013F8010D02F8010FEAE7082803D94FF034
:103D5000FF3004B070BD01308DF809000021994298
:103D6000E0D0505C0DF801000131F8E71DF800309B
:103D700023540130DCE76FF00100EAE7334B98424F
:103D800047DD03F51C3303F58073984243DD304B68
:103D9000984242DD03F5433303F5A07398423EDDBC
:103DA0002C4B98423DDD03F5922303F5787398423E
:103DB00039DD03F5AA2303F5E663984235DD264B8A
:103DC000984234DD03F50B2303F52473984230DD6C
:103DD00003F5392303F50C6398422CDD1F4B984201
:103DE0002BDD03F5C31303F52063984227DD03F5AC
:103DF0001E1303F53153984223DD194B984222DDFF
:103E000003F5740303F510539842CCBF0020012042
:103E100070470F2070470E2070470D2070470C2010
:103E200070470B2070470A20704709207047082010
:103E30007047072070470620704705207047042010
:103E40007047032070470220704700BF4F8020005A
:103E50005F8925001F402C00FF083D00FFA761007F
:103E6000FF23F40038B50798144CA04202D96FF034
:103E7000010038BD124C9DF9145023719DF910308A
:103E8000257063719DF9185065700723A373A170A5
:103E9000E270FFF773FF0523A3720023E3729DF81E
:103EA00020306073003318BF01232373FFF790FEA7
:103EB00018B10728DBD04FF0FF3038BD0048E801CB
:103EC0001E07002008B50846FFF758FF054B58733A
:103ED000FFF77EFE28B107280CBF6FF001004FF0FE
:103EE000FF3008BD1E0700202DE9F04F4A4E3578FF
:103EF00087B00F4691469A46002D6DD14B788DF8CC
:103F00000830012303958DF80A308DF80B308DF8B9
:103F10000E30DFF80CB1DFF8048109238DF8093089
:103F200004AC08220021204601F03EF80F2D08BF06
:103F300001232246214602A808BF8DF80F30FFF763
:103F4000F9FA002862D1DBF800200423D118E05CE4
:103F500041440133082B01F8040CF7D10135083234
:103F6000102DCBF80020DBD1002301AA01938DF89E
:103F70000F301146052302A88DF80930FFF7DAFA51
:103F8000002843D10923DFF89CB08DF8093005469D
:103F900008220021204601F007F80F2D08BF012359
:103FA0002246214602A808BF8DF80F30FFF7C2FA5B
:103FB00060BBDBF800200423D118E05C41440133EE
:103FC000082B01F8040CF7D101350832102DCBF87D
:103FD0000020DDD1012333703378BBB10F4BDA7988
:103FE000FF2A13D1DA7A187B00EB8200802810DCDC
:103FF000B968DAF800208C18A0420AD31944484660
:1040000000F0C7FF002007B0BDE8F08F4FF0FF3091
:10401000F9E76FF00100F6E71D07002034070020E4
:1040200030070020180200202DE9F0411C6814F030
:1040300003040E4617461D4617D191F801E0BEF164
:104040005A0F03D1BDE8F041FFF74EBF2246FFF7FC
:10405000D3FD60B9B26829683846FFF727FB003006
:1040600018BF01204042BDE8F0816FF00100BDE8BB
:10407000F081000000487047285B000073B51F4EB8
:104080001F4A31781F4C51B100231360136800930D
:10409000009B4FF48033C4F8083302B070BD1A4B54
:1040A00001251D604FF48033C4F80833D4F804357B
:1040B00023F00303C4F80435D4F8103523F00F03BC
:1040C00043F00403C4F81035D4F8083543F0030373
:1040D000C4F80835C4F840151160136801930B4902
:1040E000019B0920FEF7A0FB02210920FEF74EFEEE
:1040F000074B25601D603570CFE700BFB407002077
:10410000409100400090004004900040F5230000E2
:1041100044900040024B01221A60D3F8000570471A
:104120004490004013B50446FEF71EFA0A4AC2F84E
:104130004045D2F8043313F4803308D107490B60AB
:104140000B680193019B4FF48033C2F80433FEF7F0
:1041500015FA02B010BD00BF009000404091004031
:10416000024B4FF40072C3F80021704700E100E0F9
:10417000024B4FF48032C3F8082370470090004090
:10418000044B00221A6082B01B680193019B02B0AD
:10419000704700BF40910040094B01221A604FF464
:1041A0008032C3F80423074B4FF40072C3F8802019
:1041B000BFF34F8FBFF36F8F034B00221A7070470E
:1041C0000490004000E100E0B407002010B50A4C64
:1041D00001444FF0FF33884201D1D84310BD10F89D
:1041E000012B5340082213F0010F4FEA530318BF6D
:1041F0006340013AF7D1EEE72083B8ED48B1437848
:10420000027843EA02228378C07843EA022340EA34
:104210000320704730B5002837D0047800232202ED
:10422000002544781D4314432B0243EA1463220201
:10423000002584781D4314432B0243EA14632202B1
:104240000025C4781D4314432B0243EA1463220261
:10425000002504791D4314432B0243EA1463220210
:10426000002544791D4314432B0243EA14632202C0
:1042700000258479C0791D4314432B0243EA14635B
:10428000220200211043194330BD0020002130BD1F
:1042900030B10B0AC17083700B0C090E43700170B2
:1042A000704768B1110AC2718171110C120E02714E
:1042B0001A0AC37082701A0C1B0E4171427003708F
:1042C000704770B54B6845689D420FD100231A4670
:1042D000AB4203D150421043C00F70BD84688E685A
:1042E000E45CF65C744022430133F1E7012070BDC9
:1042F00073B5054606200E461446FDF757F910B96A
:10430000084802B070BDA3680193736800936A689F
:10431000B368A968FDF73EFA40B20028F0D1202327
:104320006360EEE70100435530B501681F2985B091
:10433000044606D80E4D2268A068002100F034FE25
:1043400013E0806800F07EFC0028F3D1094A07CA18
:1043500001AB83E80700102262601946224620461E
:10436000FFF7C6FF05460028E5D1284605B030BD59
:1043700001004355305B000070B50C46054608B996
:10438000022070BD0029FBD06C21FFF71FFF0646FD
:1043900005F16C00FFF732FF8642F1D105F108000C
:1043A000FFF738FFC4E9000105F11000FFF732FF05
:1043B0002022C4E9020105F1180104F1100000F007
:1043C000E8FD102205F1580104F1300000F0E1FD94
:1043D000002070BD38B50C46054600283AD00029AB
:1043E00038D00B686F2B35D970220021A06800F0FF
:1043F000DBFDA0681849FFF74BFFA06802210430DD
:10440000FFF746FFA068D5E900230830FFF749FF12
:10441000A068D5E902231030FFF743FFA06805F13B
:1044200010012022183000F0B4FDA068102205F120
:104430003001583000F0ADFD6C21A068FFF7C6FEDA
:10444000A368014603F16C00FFF722FF702363604D
:10445000002038BD022038BDD4B3515AF0B50F4604
:104460009BB0064618B311B30AAC202500212A469A
:10447000204600F099FD002301A8019502930394C2
:10448000FFF752FF01B291B912ACE8232A46204649
:1044900004930593069600F087FD07AA04A901A8D6
:1044A000079508950994FFF723FF00B208B1022091
:1044B00027E006F1E80307A904A8049505950693EB
:1044C000FFF7FFFE04460028F1D106F10800FFF7D0
:1044D000A1FEC7E9000106F11000FFF79BFE2A4686
:1044E000C7E9020106F1180107F1100000F051FDC3
:1044F000102206F1A00107F1300000F04AFD3C64F3
:1045000020461BB0F0BD0000014B18600020704732
:10451000B807002008B5044B1B6813B11B68984707
:1045200008BD022008BD00BFB8070020044B1B686F
:1045300010B51BB112B19B69984710BD022010BD88
:10454000B807002008B5044B1B681BB110B11B6AEB
:10455000984708BD022008BDB807002008B5044BE5
:104560001B681BB111B15B6A984708BD022008BDEA
:10457000B807002038B5054678B100F007F90446C1
:1045800024B2284600F032F82CB900B2002814BF3B
:104590000420002038BD042038BD022038BD0000B2
:1045A000024B1B6803B11847704700BFBC070020CF
:1045B00010B5A0B999B192B10A4B0B4C1B68B4FB72
:1045C000F3F404FB03340C604FF40011B1FBF3F17E
:1045D0005943091BB1FBF3F14B43136010BD02209B
:1045E00010BD00BFC8070020FFFF0F0070B50546D3
:1045F00008B9022070BD00F08DF8044600F092F872
:104600000B4E306000F098F80A4B1860336840F2A7
:104610002712B2FBF3F202FB0333074A1360002CAC
:10462000E7D1064B20461D60FFF7BAFF204670BD5C
:10463000C4070020C8070020C0070020BC070020D6
:104640007FB50E46144652B3936843B304AA4FF0A5
:10465000FF3342F8043D02A90293FFF7A9FF636804
:10466000054633B10F4A1268013BB3FBF2F303FB7B
:10467000022322689A420FD30B4A1168029A0093D0
:104680000A44A0683244002300F060F8044618B9D8
:104690000420FFF785FF2546284604B070BD02259B
:1046A000FAE700BFC4070020C00700202DE9F04151
:1046B00084B0022402AF0E4629B307F108024FF07E
:1046C000FF3342F8043D39463B60FFF771FF104B62
:1046D0003A681968CB1D23F00703E846ADEB030DDC
:1046E00002AD044600910023284600F02FF848B997
:1046F00031462846FFF7B2FE03B2044613B907203D
:10470000FFF74EFFC54620460837BD46BDE8F0819D
:10471000C0070020024B186803689B68184700BF59
:10472000CC07002008B5034B186803689B6A9847BC
:1047300008BD00BFCC07002008B5034B186803680C
:10474000DB6A984708BD00BFCC07002037B5064993
:10475000069D0C6821680095002501954D6901466C
:104760002046A84703B030BDCC07002008B5FDF7B0
:10477000FFFB014B186008BDCC070020024B1B68F3
:1047800003B11847704700BFD007002038B5054671
:1047900000F05AF8044628B9034B1D60FFF7EEFFFE
:1047A000204638BD0224FBE7D0070020F0B50546BF
:1047B0009FB018B9022420461FB0F0BD0023082284
:1047C0004FF4004168460093019300F047F8042439
:1047D0000646D8B96846FFF711FD07460DEB040001
:1047E000FFF70CFD022811D10F4B70229F4208BF2A
:1047F0000024314602A800F0D7FB3CB970224FF4E8
:10480000004102A800F02AF838B1042423B2002B9A
:10481000D1D10620FFF7B2FFCDE7294602A8FFF766
:10482000ABFD0446F2E700BFD4B3515A38B5036874
:10483000044633B910F1080502D02846FCF71AFCEB
:104840002560206838BD000008B50348FFF7EEFF7B
:10485000FCF71CFC002008BDD807002070B50D46F1
:10486000164604460448FFF7E1FF33462A46214630
:10487000BDE87040FCF73CBCD807002008B50348F1
:10488000FCF704FCB0FA80F0400908BDE8070020FE
:104890000148FCF715BC00BFE807002010B580B147
:1048A000094C4FF0FF332360FFF74CFE00B240B9D4
:1048B0002068421C01D130BFFDE7831F5842584198
:1048C00010BD002010BD00BF1C0200202DE9F043E8
:1048D0000446A5B018B9012025B0BDE8F083FFF764
:1048E000DDFF0028F7D0D4E90223134346D009A8FE
:1048F000FCF7AEFF002109A8FDF708F820220021EF
:1049000001A800F051FB1E4FA568DFF878904FF02A
:104910000008EDB1B8F1000F1AD1A268B5F5804FCB
:104920002E4602F5044228BF4FF480463346521B00
:1049300039464846FCF7DCFB39468046324609A832
:10494000FDF7C3F8A168AD1B481B00F06BF9E0E769
:1049500001A909A8FDF74FF9103409A8FCF77CFF5D
:10496000202201A9204600F005FB0028B4D02046F3
:1049700000F056F901A800F053F9ACE70220ABE7CC
:1049800004080020E8070020F8B50446094E4FF05F
:10499000FF306718BC420CD221463046FCF76EFB54
:1049A0002146054602463046FCF730FC08B92C4447
:1049B000F0E7F8BDE8070020F8B5074E05460446C5
:1049C0004718BC4205D221463046FCF757FB044449
:1049D000F7E7601BF8BD00BFE807002038B570217D
:1049E00005464FF40040FFF7E7FF00F50043B3F53D
:1049F000044F014607D24FF40040FFF7C5FF90B9BE
:104A00004FF4044403E005F580654FF40044294663
:104A10002046FFF7D1FF074B2044984207D829468C
:104A20002046FFF7B1FFB0FA80F0400938BD4FF0E3
:104A3000FF30F8E700D40F0030B5044685B00028F9
:104A400036D01C48FCF718FB702100F16F05B5FB50
:104A5000F0F545434FF40040FFF7AEFFB5F5804F4A
:104A600001D930BFFDE7854201D930BFFDE72A46B5
:104A7000FF21114800F098FA104A07CA01AB83E8F9
:104A8000070019462046FFF7A5FC00B270B9029B4B
:104A9000702B09D12B464FF4004207490548FCF71B
:104AA00041FBB0FA80F0400905B030BD0020FBE7C3
:104AB000FAE700BFE807002004080020605B000060
:104AC0002DE9F04F834687B08A4600296BD03748DE
:104AD000FCF7D2FA4FF40444B4FBF0F44443D4F5A9
:104AE0000444054601D030BFFDE7314B0593314EFC
:104AF0004FF48043B3FBF0F3434303932746DAE9D3
:104B000002234FF00009994508BF944245D2002F77
:104B100043D14FF0FF3131600399121B084663EB1C
:104B200009030021994208BF904238BF024604920F
:104B3000214603AA5846FFF7F9FC00B220B93368B2
:104B4000013301D130BFFDE73368042B23D1049B2F
:104B50000BB303F1FF3804F50443A8444FF00009F8
:104B6000B8FBF5F8019305FB08F8C14511D287B9E8
:104B7000019A05990D484A4449442B46FCF7D2FA5C
:104B8000A9440746DAF8081004EB090000F04AF8D7
:104B9000EBE74444B3E74FF0FF37B7FA87F040093B
:104BA00007B0BDE8F08F0846FAE700BFE80700202D
:104BB000040800201C02002038B5054688680C4611
:104BC000FFF70CFF08B9002038BD2046FFF734FF7F
:104BD0000028F8D021462846FFF772FF0028F2D0BF
:104BE0002046FFF773FEB0FA80F0400938BD0000A0
:104BF00010B5054C2046FCF73DFA2046034A04490F
:104C0000BDE81040FDF78FBDE8070020000200203E
:104C100077100000014B1860704700BF1C02002095
:104C20007047000046235843044BB0FBF1F11A785B
:104C3000C9B28A4218BF1970704700BFF007002040
:104C40000020704710B586B000230F290446039357
:104C50000493059300D910B94FF0FF3011E004A977
:104C600003A8FDF7D7F840B258B905AB0093224628
:104C7000102304990398FCF7F1FF059B102B40B219
:104C8000EAD106B010BD000038B5082000F062F986
:104C9000134B144C1860012000F05CF9206012489E
:104CA000FFF732FC1148FFF735FC05462DB2FFF740
:104CB000C7FF4DB14FF40440FDF7ACFB23680BB1C7
:104CC00000221A7030BFFDE7FFF7D8FD0028F1D0B1
:104CD00000F07CF80546FFF7DBFD002DEED0E9E79C
:104CE000F8070020F407002020020020154C0000E7
:104CF0002DE9F04F82469FB00C4600295ED0304B24
:104D0000DFF8C48093E807008DE8070003A8FCF7EC
:104D10009FFD002103A8FCF7F9FDE94600254FF0AF
:104D2000FF3BD4E9022300279F4208BF95422BD2C4
:104D3000521B0098C8F800B04FF0000163EB070366
:104D4000994208BF904238BF0246019229464A461E
:104D50005046FFF7EBFB00B228B9D8F8003001331A
:104D600001D130BFFDE7D8F80030042B0CD1019AF7
:104D700052B1029903A8FCF7A8FE019BA1681D444B
:104D80002846FFF74FFFCCE70E4903A8FCF733FF97
:104D9000103403A8FCF760FD20220A49204600F0E9
:104DA000E9F848B12046FFF73BFF0648FFF738FF18
:104DB00000201FB0BDE8F08F0120FAE70846F8E7B1
:104DC0006C5B0000040800201C0200202DE9F04369
:104DD000A5B048220021684600F0E6F848220021EC
:104DE0000DEB0200424E00F0DFF812A8FFF76EFD57
:104DF0003168002978D03F4B1A68002A74D0DDE969
:104E00001289D1E900454D4508BF444514D0C1E998
:104E100000890021117090B10025374C4FF0FF330D
:104E200012A900202360FFF799FB00B2A0B9236804
:104E3000013311D130BFFDE711780131EAE71B687A
:104E40001B78022BE8DC16A8FFF7EAFEDDE9122347
:104E50000125CDE90023E0E72368072B3ED1336825
:104E6000DDE91267002B3DD0D3E90023BB420ABF26
:104E7000B24201230023DDE90001B94208BFB0427C
:104E80002CD2DDE9140150EA010227D003B92DBB71
:104E900012A90020FFF72CFF00B316A8FFF7C0FEF1
:104EA000DDE9142300214FF47520994208BF904298
:104EB00014D3DDE91201CDE90223CDE9000120225E
:104EC00016A904A800F065F810221EA90CA800F08D
:104ED00060F869460020FFF76FFE0546284625B0BA
:104EE000BDE8F0830123C6E70028ACD094E700BFFB
:104EF000F8070020F40700201C020020024B0A469D
:104F000001461868FDF784BA4C02002070B50D4EBA
:104F10000D4CA41BA4100025A54209D10B4E0C4C2E
:104F200000F0BEFAA41BA4100025A54205D170BD57
:104F300056F8253098470135EEE756F82530984762
:104F40000135F2E7B0020020B0020020B0020020DC
:104F5000C0020020024B01461868FDF755BA00BF99
:104F60004C020020024B01461868FDF74FBA00BF03
:104F70004C02002010B501390244904201D10020BA
:104F800010BD10F8013B11F8014FA342F5D0181BDA
:104F900010BD10B5431E0A44914200D110BD11F856
:104FA000014B03F8014FF7E702440346934200D157
:104FB000704703F8011BF9E738B502FB01F42146FD
:104FC000FDF722FA054618B122460021FFF7ECFF53
:104FD000284638BD38B50546002945D051F8043C6F
:104FE0000C1F002BB8BFE418FDF7A6FB1F4A13687F
:104FF000104633B9636014602846BDE83840FDF7B9
:105000009FBBA3420CD921686218934204BF1A685F
:105010005B68636004BF521822600460ECE71346CB
:105020005A680AB1A242FAD919685818A0420BD19D
:1050300020680144581882421960DDD11068526816
:105040005A6001441960D7E702D90C232B60D3E7DB
:10505000206821188A4204BF11685268626004BF48
:10506000091821605C60C7E738BD00BFFC0700205D
:1050700070B5CD1C25F0030508350C2D38BF0C2567
:10508000002D064601DBA94203D90C233360002022
:1050900070BDFDF751FB234A1468214691B9224C9B
:1050A00023681BB9304600F041F82060294630469D
:1050B00000F03CF8431C26D10C2333603046FDF74A
:1050C0003FFBE4E70B685B1B1AD40B2B0FD90B607B
:1050D000CD50CC183046FDF733FB04F10B00231DF7
:1050E00020F00700C31A1BD05A42E25070BD8C4218
:1050F0000DBF63684B686360136018BF0C46E9E737
:105100000C464968CAE7C41C24F00304A04205D039
:10511000211A304600F00AF80130CDD02560D9E7D9
:1051200070BD00BFFC0700200008002038B5064C09
:105130000023054608462360FDF7CEFA431C02D142
:10514000236803B12B6038BD0448002010F8012B00
:1051500011F8013B012A28BF9A42F7D0D01A7047B4
:10516000D0400B1CD1409C46203AD34018435242B9
:1051700063469340184370479140031C90409C46FF
:10518000203A9340194352426346D3401943704733
:1051900053B94AB9002908BF00281CBF4FF0FF319E
:1051A0004FF0FF3000F07AB9ADF1080C6DE904CE94
:1051B00000F006F8DDF804E0DDE9022304B07047F2
:1051C0002DE9F0478C460D460446089E002B51D130
:1051D0008A4217466DD9B2FA82FEBEF1000F0BD09B
:1051E000CEF1200C01FA0EF520FA0CFC02FA0EF7B3
:1051F0004CEA050C00FA0EF44FEA174A250CBCFBEA
:10520000FAF81FFA87F90AFB18CC45EA0C4508FBA7
:1052100009F3AB420AD9ED1908F1FF3280F023817E
:10522000AB4240F22081A8F102083D44ED1AA4B23D
:10523000B5FBFAF00AFB105544EA054400FB09F9F6
:10524000A14509D9E41900F1FF3380F00A81A14595
:1052500040F2078102383C44A4EB090440EA0840CC
:105260000021002E61D024FA0EF400233460736014
:10527000BDE8F0878B4207D9002E54D0002186E884
:1052800021000846BDE8F087B3FA83F1002940F019
:105290008E80AB4202D3824200F2FA80841A65EB20
:1052A00003050120AC46002E3FD086E81010BDE873
:1052B000F08712B90127B7FBF2F7B7FA87FEBEF104
:1052C000000F34D1EB1B3A0C1FFA87FC0121B3FB12
:1052D000F2F8250C02FB183345EA03450CFB08F3F2
:1052E000AB4207D9ED1908F1FF3002D2AB4200F210
:1052F000D1808046ED1AA3B2B5FBF2F002FB105547
:1053000043EA05440CFB00FCA44507D9E41900F16D
:10531000FF3302D2A44500F2B8801846A4EB0C0477
:1053200040EA08409DE731463046BDE8F087CEF1BF
:10533000200405FA0EF307FA0EF720FA04F83A0CE7
:1053400025FA04F448EA0308B4FBF2F14FEA1845E1
:1053500002FB11441FFA87FC45EA044501FB0CF3EC
:10536000AB4200FA0EF409D9ED1901F1FF3080F0DB
:105370008A80AB4240F2878002393D44EB1A1FFA23
:1053800088F5B3FBF2F002FB103345EA034500FB5E
:105390000CF3AB4207D9ED1900F1FF386FD2AB42E5
:1053A0006DD902383D44EB1A40EA01418FE7C1F163
:1053B000200722FA07F88B4005FA01F448EA0303B4
:1053C00020FA07FE4FEA134CFD404EEA040EB5FBEF
:1053D000FCF94FEA1E440CFB19551FFA83F844EA06
:1053E000054509FB08F4AC4202FA01F200FA01FAA1
:1053F00008D9ED1809F1FF3043D2AC4241D9A9F1E7
:1054000002091D442D1B1FFA8EFEB5FBFCF00CFBA0
:1054100010554EEA054400FB08F8A04507D9E418EA
:1054200000F1FF3529D2A04527D902381C4440EAB3
:105430000940A4EB0804A0FB02894C45C6464D4632
:1054400015D312D056B1BAEB0E0364EB050404FA7F
:1054500007F7CB401F43CC40376074600021BDE8A4
:10546000F0871846F8E69046E0E6C245EAD2B8EB87
:10547000020E69EB03050138E4E72846D7E740460A
:1054800091E78146BEE7014678E702383C4445E7AC
:10549000084608E7A8F102083D442BE7704700BF23
:1054A000F8B500BFF8BC08BC9E467047F8B500BF11
:1054B000F8BC08BC9E4670475346445000515350B8
:1054C0004946000000000000000000002910000014
:1054D0003D100000590D0000D10F0000E101000057
:1054E0002509000061050000DD070000E50100005E
:1054F000EF010000EF010000F5010000E9010000EC
:105500000F02000005020000FD010000630600001C
:10551000000000000000000091120000A91200002D
:10552000951200009512000000000000B71DC10494
:105530006E3B8209D926430DDC7604136B6BC517CD
:10554000B24D861A0550471EB8ED08260FF0C92245
:10555000D6D68A2F61CB4B2B649B0C35D386CD31AD
:105560000AA08E3CBDBD4F3870DB114CC7C6D04879
:105570001EE09345A9FD5241ACAD155F1BB0D45B55
:10558000C2969756758B5652C836196A7F2BD86EBD
:10559000A60D9B6311105A6714401D79A35DDC7D35
:1055A0007A7B9F70CD665E74E0B6239857ABE29C21
:1055B0008E8DA191399060953CC0278B8BDDE68F55
:1055C00052FBA582E5E66486585B2BBEEF46EABA3D
:1055D0003660A9B7817D68B3842D2FAD3330EEA935
:1055E000EA16ADA45D0B6CA0906D32D42770F3D099
:1055F000FE56B0DD494B71D94C1B36C7FB06F7C3CD
:105600002220B4CE953D75CA28803AF29F9DFBF6C4
:1056100046BBB8FBF1A679FFF4F63EE143EBFFE5AC
:105620009ACDBCE82DD07DEC77708634C06D4730C4
:10563000194B043DAE56C539AB0682271C1B4323CC
:10564000C53D002E7220C12ACF9D8E1278804F1644
:10565000A1A60C1B16BBCD1F13EB8A01A4F64B05AC
:105660007DD00808CACDC90C07AB9778B0B6567C78
:1056700069901571DE8DD475DBDD936B6CC0526F54
:10568000B5E6116202FBD066BF469F5E085B5E5ABC
:10569000D17D1D576660DC5363309B4DD42D5A4934
:1056A0000D0B1944BA16D84097C6A5AC20DB64A8E8
:1056B000F9FD27A54EE0E6A14BB0A1BFFCAD60BB54
:1056C000258B23B69296E2B22F2BAD8A98366C8E3C
:1056D00041102F83F60DEE87F35DA9994440689D34
:1056E0009D662B902A7BEA94E71DB4E0500075E498
:1056F000892636E93E3BF7ED3B6BB0F38C7671F7CC
:10570000555032FAE24DF3FE5FF0BCC6E8ED7DC2C3
:1057100031CB3ECF86D6FFCB8386B8D5349B79D1AB
:10572000EDBD3ADC5AA0FBD8EEE00C6959FDCD6D19
:1057300080DB8E6037C64F643296087A858BC97ECF
:105740005CAD8A73EBB04B77560D044FE110C54B3F
:10575000383686468F2B47428A7B005C3D66C158AF
:10576000E4408255535D43519E3B1D252926DC2193
:10577000F0009F2C471D5E28424D1936F550D83257
:105780002C769B3F9B6B5A3B26D6150391CBD407B7
:1057900048ED970AFFF0560EFAA011104DBDD01437
:1057A000949B93192386521D0E562FF1B94BEEF59B
:1057B000606DADF8D7706CFCD2202BE2653DEAE657
:1057C000BC1BA9EB0B0668EFB6BB27D701A6E6D337
:1057D000D880A5DE6F9D64DA6ACD23C4DDD0E2C037
:1057E00004F6A1CDB3EB60C97E8D3EBDC990FFB973
:1057F00010B6BCB4A7AB7DB0A2FB3AAE15E6FBAACF
:10580000CCC0B8A77BDD79A3C660369B717DF79FBE
:10581000A85BB4921F4675961A163288AD0BF38CAE
:10582000742DB081C330718599908A5D2E8D4B594E
:10583000F7AB085440B6C95045E68E4EF2FB4F4ACE
:105840002BDD0C479CC0CD43217D827B9660437F3E
:105850004F460072F85BC176FD0B86684A16476CAE
:1058600093300461242DC565E94B9B115E565A1592
:1058700087701918306DD81C353D9F0282205E0656
:105880005B061D0BEC1BDC0F51A69337E6BB5233B6
:105890003F9D113E8880D03A8DD097243ACD562036
:1058A000E3EB152D54F6D4297926A9C5CE3B68C162
:1058B000171D2BCCA000EAC8A550ADD6124D6CD256
:1058C000CB6B2FDF7C76EEDBC1CBA1E376D660E736
:1058D000AFF023EA18EDE2EE1DBDA5F0AAA064F436
:1058E000738627F9C49BE6FD09FDB889BEE0798D72
:1058F00067C63A80D0DBFB84D58BBC9A62967D9ECE
:10590000BBB03E930CADFF97B110B0AF060D71ABBD
:10591000DF2B32A66836F3A26D66B4BCDA7B75B8AD
:10592000035D36B5B440F7B1050000008F590000A3
:105930001C00000040000000351800003118000075
:105940002D180000211800000B180000F9170000A6
:10595000F5170000F117000006000000885900004C
:1059600020000000400000003B180000311800003B
:105970002D180000271800000B180000F917000070
:10598000F5170000F1170000534841323536005337
:105990004841323234000000982F8A4291443771D6
:1059A000CFFBC0B5A5DBB5E95BC25639F111F159A2
:1059B000A4823F92D55E1CAB98AA07D8015B8312E4
:1059C000BE853124C37D0C55745DBE72FEB1DE8090
:1059D000A706DC9B74F19BC1C1699BE48647BEEFBF
:1059E000C69DC10FCCA10C246F2CE92DAA84744A4A
:1059F000DCA9B05CDA88F97652513E986DC631A8C0
:105A0000C82703B0C77F59BFF30BE0C64791A7D59E
:105A10005163CA0667292914850AB72738211B2E26
:105A2000FC6D2C4D130D385354730A65BB0A6A760E
:105A30002EC9C281852C7292A1E8BFA24B661AA81A
:105A4000708B4BC2A3516CC719E892D1240699D62A
:105A500085350EF470A06A1016C1A419086C371EA3
:105A60004C774827B5BCB034B30C1C394AAAD84E81
:105A70004FCA9C5BF36F2E68EE828F746F63A578BC
:105A80001478C8840802C78CFAFFBE90EB6C50A44F
:105A9000F7A3F9BEF27871C646494C4553595354A1
:105AA000454D005444425F45585445524E414C00C8
:105AB00064656661756C7400C05A0000780400204B
:105AC0007D4000001541000071410000814100004F
:105AD000254100006141000099410000754000002F
