:020000041000EA
:1020000000EC0F08F32300100D0000003F24001027
:10201000412400104324001045240010000000005B
:102020000000000000000000000000004724001035
:1020300049240010000000004B2400104D24001023
:102040004F2400104F2400104F2400104F24001084
:102050004F2400104F2400104F2400104F24001074
:102060004F2400104F2400104F2400104F24001064
:102070004F2400104F2400104F2400104F24001054
:1022E00000F002F800F076F80AA090E8000C8244B2
:1022F0008344AAF10107DA4501D100F06BF8AFF28F
:10230000090EBAE80F0013F0010F18BFFB1A43F0D3
:102310000103184714A1000074A100000A4410F83A
:10232000014B14F00F0508BF10F8015B240908BF2A
:1023300010F8014B6D1E05D010F8013B6D1E01F821
:10234000013BF9D1641E03D0641E01F8015BFBD18F
:102350009142E4D370470000103A24BF78C878C196
:10236000FAD8520724BF30C830C144BF04680C609B
:10237000704700000023002400250026103A28BFE3
:1023800078C1FBD8520728BF30C148BF0B607047E7
:1023900003681B0A28BF41F08001642900F0D48142
:1023A000752900F0D181782900F07382F52900F0B9
:1023B0000782732900F02887002070471FB508F0B6
:1023C0006AFA9DE8030000F021FE01F0DFF800F05A
:1023D000EDFD1FBDDFF814D003B405F066FE03BCAD
:1023E00001F0FAF901F00EFA06F00EFA00EC0F080F
:1023F0007047FFF7FDFF72B6184919484FF438725D
:102400000B680360001D091D521E002AF8D11448F4
:1024100014490860BFF34F8F134880471348804723
:10242000FEE7FEE7FEE704207146084203D0EFF323
:10243000098000F002F8EFF3088002F029FCF2E7CF
:10244000F1E7F0E7EFE7FEE7FEE7FEE7FEE7FEE78E
:1024500007480849084A094B70470000002000104F
:102460000020000808ED00E021500010E1220010DB
:10247000406F000800EC0F084073000800E80F08E8
:10248000801C800803D0401C801EFCD100BF704718
:10249000EFF3108072B6704780F310887047704772
:1024A000004870477C26000870B5064600F092FD93
:1024B000056806F10B0020F00704B4429CBF002021
:1024C00070BD2B466A68BAB11068A04210D304F1FF
:1024D000080188423CBF5068586007D35168101902
:1024E00041601168091B016058601460101D70BDC7
:1024F00013465268002AE7D12146284600F072FDB3
:102500000028DED170BD70B50446051F00F062FDE5
:102510000068002C14BF446870BD002C18BFAC428A
:102520003CBF20466468F8D301680A18AA4218BF65
:10253000456003D12A6805461144016028684119A5
:10254000A1421CBF6C6070BD61686960216808446D
:10255000286070BD53EA020C00F069802DE9F04B51
:102560004FF00006002B1FBFB3FA83F503FA05F402
:1025700024FA05F65E4012BF1643B2FA82F502FA5B
:1025800005F4C5F120051EBF22FA05FC44EA0C043F
:10259000203556EA044C4FEA144418BF641C4FF02F
:1025A00000084FF00009904271EB030C39D3002969
:1025B00019BFB1FA81F701FA07F6B0FA80F700FA0D
:1025C00007F6C7F120071EBF20FA07FC46EA0C06F3
:1025D0002037B6FBF4FCA7EB0507103F07F01F0BF5
:1025E000CBF120062CFA06F60CFA0BFB44BFB346DF
:1025F0000026202FA4BF5E464FF0000B5BEA060CBE
:1026000008BF4FF0010B19EB0B0948EB0608ABFBB9
:10261000027C06FB02CC0BFB03CCC01B71EB0C0154
:10262000C1E70B46024641464846BDE8F08B13B56C
:102630004FF000004FF00001AFF30080BDE81C40F8
:102640007047B2F120030AD5C2F1200301FA02F16A
:1026500020FA03F341EA030100FA02F0704700FA9E
:1026600003F14FF000007047B2F120030AD5C2F128
:10267000200320FA02F001FA03F340EA030021FAF2
:1026800002F1704721FA03F04FF00001704700009B
:102690000FB4044910B503AA029800F0B9FD10BCAC
:1026A0005DF814FBD426000870B5044685690068FF
:1026B000C10601D5302600E02026C00707D070BD36
:1026C000D4E9012130469047206A401C20626D1EEB
:1026D000F6D570BD70B5044685690078C00707D18E
:1026E00070BDD4E9012120209047206A401C20625F
:1026F0006D1EF6D570BD70B50C460546012A05D095
:102700002878800600D5EA69002302E0012305E06D
:102710005B1C934202D2E05C0028F9D1A869E6185C
:10272000C01AA861286A184428622846FFF7BCFF2F
:1027300004E0D5E9012114F8010B9047B442F8D325
:102740002846FFF7C7FF70BD2DE9F041064600247B
:1027500010687529314616A510D0AFF30080002807
:1027600002DA404213A507E031688A0701D512A5B5
:1027700002E0490704D511A5012401E0AFF3008070
:1027800000210A2206F1240709E0B0FBF2FCB0FBAD
:10279000F2F302FB1C00303078541846491C002824
:1027A000F3D123462A463046BDE8F04100F0A9BCEB
:1027B000000000002D0000002B00000020000000A1
:1027C0002DE9F0418046D21D22F007020025D2E912
:1027D0000002F52915A614D0011E72F1000106DAD7
:1027E0000023D0EB030063EB020211A608E0D8F847
:1027F00000108B0701D50FA602E0490701D50EA6F0
:1028000001251146002408F1240704E000F034FCFF
:1028100030323A55641C50EA0102F7D12B46324659
:1028200021464046BDE8F04100F06BBC00000000CE
:102830002D0000002B00000020000000F0B40D4629
:102840000188090502D5214C7C4402E01F4C7C44E0
:102850000E34002100F1240608E002F00F071209EF
:10286000E75D42EA03721B097754491C52EA0307E9
:10287000F3D102780023120704D5702D06D009B1D8
:10288000022311342246F0BC00F03BBC012310347B
:10289000F8E770B504460D4621461068AFF3008096
:1028A000024629462046BDE870400023C6E7D21DF7
:1028B00022F00703D3E90023C0E70368126843F05E
:1028C000200303600823C3610023B7E7648000008E
:1028D0002DE9F05F894604464FF0000ADFF874B135
:1028E000FB44C0F820A02046E1688847002874D047
:1028F000252806D0D4E901219047206A401C206297
:10290000F1E700265F462046E16888472028054613
:1029100007DB312D05D2781910F8200C08B10643D9
:10292000F1E7B00701D526F00406C4F81CA0002783
:10293000C4F818A02A2D09D0284607F098FF38B30C
:1029400004EB8708303DC8F8185019E059F8041B0B
:10295000204604EB87029161E1688847012F054614
:1029600018D1E069002820DA26F020061DE0D8F80A
:10297000180000EB800005EB40003038C8F8180064
:102980002046E1688847054607F071FF0028EED130
:10299000012F0AD02E2D08D12046E16888477F1CE0
:1029A0000546022F46F02006C4DBA069002803DAA2
:1029B000404246F00106A061F00701D026F0100663
:1029C0006C2D0BD0682D09D04C2D39D06A2D35D007
:1029D000742D35D07A2D33D016E038E0E1682F46DB
:1029E00020468847B842054609D16C2F26D04FF4BF
:1029F0008060E168064320468847054604E06C2F66
:102A00001AD04FF4807006430DB3A5F14100192888
:102A100002D8203546F400664A46294620462660FC
:102A20004E46FFF7B5FC80B101280BD0F61D26F00D
:102A3000070000F1080956E74020E4E78020D8E7C6
:102A40000020D6E706F104094DE7284652E7206A40
:102A5000BDE8F09FF47F00002DE9F04104461646E2
:102A60000D464769007B80072ED0384605F036FBBF
:102A700050BB3EB3012E02D0022E25D104E02046E9
:102A800000F0C7FC05441DE0384605F013FBE16883
:102A9000002841F01001E16005DA204600F0FEFC5C
:102AA0000120BDE8F081C9030BD56268E16A91425B
:102AB00000D81146A26911442269891A814200DDB9
:102AC00008460544002D01DA0220EAE7E16A606861
:102AD000E268814206D29103E06203D522F400311C
:102AE00041F01002A6690027AE4213DCE16A814280
:102AF00001D90B4600E0034603EB060C2369ACEB5F
:102B0000030CAC4506DD814201D98C4600E08446C9
:102B10009C4505D1A760276042F02000A5620DE02A
:102B2000AD1BE669AE1B8142A66000D90846C01AFB
:102B3000281A20605819606022F0200003490840DC
:102B4000E060002084F84870ABE70000BFCFD7FFFB
:102B5000014907F093BE0000D426000810B50446D2
:102B600003E007F08BFE401C09D014F8010B054967
:102B70000028F6D1BDE810400A2007F07FBE4FF0D4
:102B8000FF3010BDD42600082DE9F0410C46074661
:102B90001646104600F06EF82078611C61280AD0B5
:102BA000722802D077283CD102E00125002405E0FC
:102BB0000225042402E0082448F2020511F8010B62
:102BC0002B2806D0622809D011F8010C74280AD0ED
:102BD0000BE045F0030544F00204EFE745F004057F
:102BE00044F00104EAE744F010043846214605F0B9
:102BF00077FA411C15D00021316171604FF40071EA
:102C0000F560F1617061200704D530460222002191
:102C1000FFF722FF306D40F0010030653046BDE81F
:102C2000F0810020FBE72DE9F0410D460646104CEF
:102C3000206DC10704D0410804D020F00104F7E75B
:102C400022460EE05420FFF72FFC07000ED0206D27
:102C500047F00101084354212065384600F03DF952
:102C60003A4629463046BDE8F0418DE70020D6E7D8
:102C7000802600082DE9F04704464FF000094FF088
:102C8000FF37C568D4E90486A80707D0204600F0BE
:102C900039FC304605F00BFA002802DA3846BDE868
:102CA000F087280502D54046FFF72DFC4C21204631
:102CB00000F013F9206D20F0010020654846EEE792
:102CC00030B503461D783DB10A4612F8014B1CB1E0
:102CD000AC42FAD15B1CF5E7181A30BD40EA01039B
:102CE00010B59B070FD1042A0DD310C808C9121FB5
:102CF0009C42F8D020BA19BA884201D9012010BDEF
:102D00004FF0FF3010BD1AB1D30703D0521C07E0BB
:102D1000002010BD10F8013B11F8014B1B1B07D11F
:102D200010F8013B11F8014B1B1B01D1921EF1D190
:102D3000184610BD10B5431C02E010F8011B71B11C
:102D40008107FAD14FF0013202C88C1A8C4314EA81
:102D5000C211F9D0C01A0A0603D0C01E10BDC01A95
:102D600010BD0A0401D0801E10BD0902FCD0401E17
:102D700010BD032A40F2308010F0030C00F01580E3
:102D800011F8013BBCF1020F624498BF11F801CB6E
:102D900000F8013B38BF11F8013BA2F1040298BFD3
:102DA00000F801CB38BF00F8013B11F0030300F03D
:102DB0002580083AC0F0088051F8043B083A51F8E1
:102DC00004CBA0E80810F5E7121D5CBF51F8043BE6
:102DD00040F8043BAFF30080D20724BF11F8013B59
:102DE00011F801CB48BF11F8012B24BF00F8013BBB
:102DF00000F801CB48BF00F8012B704710B5203A0E
:102E0000C0F00B80B1E81850A0E81850B1E8185095
:102E1000A0E81850203ABFF4F5AF5FEA027C24BF67
:102E2000B1E81850A0E8185044BF18C918C0BDE850
:102E300010405FEA827C24BF51F8043B40F8043B19
:102E400008BF7047D20728BF31F8023B48BF11F8CE
:102E5000012B28BF20F8023B48BF00F8012B704728
:102E600001B501F0FF03114643EA032242EA0242A0
:102E700000F013F801BD02F0FF0343EA032242EA27
:102E8000024200F00AB802F0FF0343EA032242EADA
:102E9000024200F024B84FF000020429C0F0128072
:102EA00010F0030C00F01B80CCF1040CBCF1020FFD
:102EB00018BF00F8012BA8BF20F8022BA1EB0C01D2
:102EC00000F00DB85FEAC17C24BF00F8012B00F8C8
:102ED000012B48BF00F8012B70474FF0000200B5EE
:102EE000134694469646203922BFA0E80C50A0E82D
:102EF0000C50B1F12001BFF4F7AF090728BFA0E8DB
:102F00000C5048BF0CC05DF804EB890028BF40F8A6
:102F1000042B08BF704748BF20F8022B11F0804FE8
:102F200018BF00F8012B704730B44FF0013C50F847
:102F3000042B51F8043BCCFA52F4D51A20D1FCB939
:102F400050F8042B51F8043BCCFA52F4D51A17D19F
:102F5000B4B950F8042B51F8043BCCFA52F4D51A0A
:102F60000ED16CB950F8042B51F8043BCCFA52F452
:102F7000D51A05D1002CDAD030BC4FF000007047D4
:102F800029BAB1FA81F111F01801D1F12000844081
:102F9000F2D1CA40CB4012F0FF0213F0FF0330BC65
:102FA000D01A7047704770477047000070B5064CE4
:102FB0007C44064D7D4403E0206820448047241D66
:102FC000AC42F9D170BD0000D4940000D894000048
:102FD00070470000004870477C2700087047704722
:102FE0007047704738B504460A4600206946AFF37B
:102FF0000080002808BF38BD02460099204600F036
:1030000061FB012038BD012000F07DBBF8B5AFF3B6
:103010000080054600200C46102000BF0646A81977
:10302000A0420DD9324669460020AFF30080070068
:1030300008BF00F068FB0098A04218BF0546C419FD
:10304000FFF7C8FF05600746F01D20F0070046198E
:10305000284600F00AF8B44208BFF8BDA21B31466A
:103060003868BDE8F84000F02DBB00210160C0E9E0
:10307000011070471020704730B5B0F10A0271F1AD
:1030800000034FEA900E4EEA817EB0EB0E0061EB3A
:1030900091014FEA101E4EEA017E10EB0E0041EB4B
:1030A00011114FEA102E4EEA016E10EB0E0041EBAB
:1030B00011214FEA104E4EEA014E10EB0E0041EB8B
:1030C0001141401841F100014FEAD00040EA41703F
:1030D0004FEAD1014FEA810444EA907410EB800575
:1030E00044EB01046D1944EB0404521BA3414FF05F
:1030F000000348BF0A3200D530BD401C41F1000139
:1031000030BD2DE9F0470D4699469246044600F140
:1031100024080168880604D5E06921F010012160C7
:1031200000E00120A84201DD471B00E00027A16963
:103130007A1902EB0900081AA0612078C00602D4AF
:103140002046FFF7B1FA002608E0D4E901211AF879
:1031500006009047206A401C761C20624E45F4DB36
:103160002078C0060AD52046FFF79EFA06E0D4E98B
:10317000012130209047206A401C2062381EA7F1B0
:103180000107F4DC07E0D4E9012118F805009047B5
:10319000206A401C2062281EA5F10105F3DC2046B0
:1031A000FFF798FA2078000602D50220BDE8F087E4
:1031B0000120FBE701694A1C02610878704700B5ED
:1031C0008FB0CDE901310021059105497944CDE960
:1031D000031011466846FFF77BFB0FB000BD0000EF
:1031E000E5FFFFFF10B5436913B1AFF3008001E0C5
:1031F000FFF781FA012010BD127800F124010A7056
:1032000000224A700122EDE711684FF0FF32E9E732
:10321000074B70B50D467B44FFF7D1FF04462846A7
:1032200000F008F810B14FF0FF3070BD204670BDBF
:1032300063760000007B00F0800070472DE9F047C6
:1032400005460C46C86820F4201040F48000C86091
:10325000800602D5084600F078F9E06841F2820164
:103260004FF0FF390140022903D0204600F016F943
:10327000B5E000F42041B1F5004F0FD1C00306D5F1
:103280006168E06A884200D80846606006E020690C
:10329000E0626060606904F00DFFA061A068002238
:1032A000EEB200280DDAE1688B050AD4C043A060B5
:1032B00041F490302260E0606068411C61600670FB
:1032C000A5E0E0689046226040F40050E06020698C
:1032D00068BB606904F002FF012704F12405A0B176
:1032E000A08910F4407F08D0E069FFF7DDF8206185
:1032F00018B1E06840F4006016E0E7612561E0681D
:1033000020F4407040F480600EE0E069FFF7CCF8F4
:1033100000282061F1D0E06840F4006010F4407FA4
:10332000E06002D140F48070E06020696060E06895
:1033300025696FF0010AC1051FD56168E06A8842FE
:1033400000D80846411B04D02246284600F0B0F8B9
:10335000F0BBE068010203D5E562C4E9015854E01E
:10336000691CE1626160E16940F48030491EC4E992
:10337000021030462E70BDE8F087010202D500F43D
:1033800080320AE06068411C61600670E0680A2EC5
:1033900040F48030E06006D00022E16A606881423B
:1033A00003D90B4602E00122F7E70346A7895B1B1E
:1033B0007F0503D4E7699F4200DDE2B1814200D876
:1033C0000146E5620F1AC4E90158002B09DD00E04F
:1033D00005E022461946284600F06AF808B148463A
:1033E000C9E747B1A069E5626560C01BA061E068FC
:1033F00040F01000E060E068000208D56168A06954
:10340000E562491B08446560A0615046B3E7304659
:10341000B1E710B50146C268900703D0900607D502
:10342000886A0AE0FFF73CF801210160881E10BDA0
:103430008B69486818440B69C01A91F848301BB171
:1034400091F84910401A10BD1103FCD50028FADD8F
:10345000401E10BD70B5C468A50713D0650211D415
:10346000B2F5807F09D0B2F5007F06D0B2F5806F4B
:1034700008D1012300F1240106E05D1E6FF07F46B4
:10348000B54201D3012070BD0161C361416024F4E4
:1034900070611143C160002070BD0000C16821F45B
:1034A000001141F08001C16000218160016070471E
:1034B0002DE9F047814614460E464FF0FF3832485A
:1034C000D5685769054209D03846A16904F04AFE1B
:1034D000002811DB2C48C0430540E5602B463246EE
:1034E0004946384604F041FEA16920F00042B21A74
:1034F00011440028A16103D02046FFF7CFFF4046CA
:10350000BDE8F08770B504460569C06A6168884205
:1035100000D80846E16821F42011E160C90312D502
:10352000A84208D02246411B2846FFF7C1FF10B130
:103530004FF0FF3070BD0020E562C4E90150E06843
:1035400020F48030E060002070BD10B50446C068F3
:1035500020F02000E060A16AA06988420DD02046DA
:10356000FFF7D0FFE06820F4405040F01000E0602A
:10357000A06AA0612069E062606044F24001E068F6
:103580008843E06010BD00001000020010B5424802
:103590005421FFF7A2FC41485421FFF79EFC40480C
:1035A0005421FFF79AFC3F493B483C4A3F4B086097
:1035B0003D490A603A491960531C0365481C10656F
:1035C000012008653B48344A39A17844FFF7DCFA0A
:1035D00020B9384878440A3800F08EF837482F4A26
:1035E00035A17844FFF7D0FA20B9344878440A3836
:1035F00000F082F832482A4A2FA17844FFF7C4FA33
:1036000020B92F4878440A3800F076F84023224841
:10361000DC0000212246FFF71DFF20B12548784439
:10362000543800F069F81D48224640230021FFF776
:1036300011FF20B121487844543800F05DF8184853
:10364000224610230021FFF705FF002806D01C4862
:103650007844BDE81040563800F04EB810BD104810
:1036600070B5006D20F001040B48FFF703FB0B4819
:10367000FFF700FB0A48FFF7FDFA09E0206D20F094
:1036800001052046FFF7F6FA2046FEF73CFF2C46E0
:10369000002CF3D170BD000080260008D42600085D
:1036A0002827000890250008942500089825000880
:1036B00072000000F682000077000000E582000042
:1036C000BE820000034640688C46002818BF88422E
:1036D0003CBF03464068F8D318681844884207D0B6
:1036E0000CF1030020F00700001D411A521A014698
:1036F000081D0A60FEF707BF10B500F011F8BDE81D
:10370000104000F007B810B500F024F8BDE81040F4
:10371000AFF30080002801D004F0CBBC704700005C
:1037200010B5014602A000F03DF8012010BD0000D8
:1037300053494752545245443A2052656469726570
:1037400063743A2063616E2774206F70656E3A204F
:103750000000000010B5012805D0002103A000F0F2
:1037600021F8012010BD09A1F8E700005349475294
:10377000544D454D3A204F7574206F662068656141
:1037800070206D656D6F7279000000003A20486509
:103790006170206D656D6F727920636F72727570E4
:1037A0007465640070B505460C460A2000E06D1C87
:1037B00004F0F1FC35B128780028F8D102E0641C4F
:1037C00004F0E9FC14B120780028F8D1BDE870407D
:1037D0000A2004F0E0BC00000549064A064800291A
:1037E000074918BF1046054A18BF1146FEF7E6BD47
:1037F000040400003C6F00083C6F000840730008A0
:1038000000E80F0880B505F0FBFDBDE8804005F03D
:1038100099BC70B1B0B5044600F026F905462046C3
:1038200000F08CF8284380B2002818BF01208000E7
:10383000B0BD02207047000020B11149096809B1EC
:10384000096A08470220704721B10D4A12680AB17F
:10385000526A1047022070470949096809B109688E
:1038600008470220704700BF22B1054B1B680BB10F
:103870009B69184702207047014908600020704783
:10388000B86E0008D0F804C04A6894451CBF0120F7
:10389000704710B54FF0000E002207E083688C6877
:1038A0009B5CA45C013263404EEA030E9445F5D163
:1038B000CEF1000040EA0E00C00F10BD2DE9FE4F12
:1038C00006AF11B30D464FF0FF31A7F1140247E9DF
:1038D0000511A7F1100106F001F8DFF80891044680
:1038E000E846D9F80800C11D21F00701ADEB01063B
:1038F000B54657F8102C82B000903046002304F0F3
:103900006BFC02B020B1250C0FE0002502240DE075
:103910003046294604F070FD0446050C000404D12D
:10392000D9F80C1009B107208847C546C4EA0540FC
:10393000A7F10C04A546BDE8F08F00BF70B5B0B18B
:10394000044604F043FC054604F038FC254E306084
:1039500004F02CFC316840F22712002DB2FBF1F28A
:1039600002F1010202FB01F1C6E9010101D00225C9
:1039700003E00020F4600025A047284670BD00BF8A
:10398000FEB5DAB10D4691681646B9B14FF0FF3178
:1039900001AACDE9011102A905F0A0FF114F0446CB
:1039A0007068029AB96858B13B680138B0FBF3F00F
:1039B000013043433068834203D90FE002240DE015
:1039C00000232A44B068009300230A4404F004FC56
:1039D00020B9F96809B1042088470024204603B0C3
:1039E000F0BD00BFE8280008F0B59FB0002518B36F
:1039F000CDE91C551A4D1CAF04460822384629460D
:103A000004F0F2FCA8B9384604F079FD0646381DEA
:103A100004F075FD02280CD168467021FFF75DFAAD
:103A20001048864205D168462946702204F0DCFC25
:103A300038B10025042000E00220C0EA05401FB094
:103A4000F0BD6846214604F02BFD050C0104F4D1BD
:103A50000D48016809B1062088470020EDE700BF46
:103A600000F00010D4B3515AB0B5044604F07AFC0B
:103A700008B1022506E004480025002C046001D0AE
:103A80000020A0472846B0BD002900082DE9F047D6
:103A9000BCB0524D002879D08468002C76D089467D
:103AA000002973D04668402E70D89046002A6DD009
:103AB000D9F80800002869D0D8F80800002865D097
:103AC000D8F80000202861D32CAF40213622AA4626
:103AD0003846FFF7D8F91CAD40215C222846FFF795
:103AE000D2F90BE038782178013E484007F8010B05
:103AF000287814F8011B484005F8010B002EF1D17D
:103B000001AD284605F00AFE2846002105F00EFE0C
:103B100008B155462FE001A82CA9402205F05CFE13
:103B20000028554627D1D9E9012101A805F054FE06
:103B300008BBD8F8081001A805F05CFDD8B901A8A9
:103B4000002105F0F3FDB0B901A81CA9402205F041
:103B500043FE80B9D8F8081001A8202205F03CFEE9
:103B600048B9D8F8081001A805F044FD18B920207C
:103B70000025C8F8040001A805F0CAFD2CA84021C2
:103B800005F02EFD1CA8402105F02AFD28463CB07A
:103B9000BDE8F087BFB50168104D0446202913D356
:103BA000A06805F09BFB78B90D48D0E90012806849
:103BB00003901020CDE9011201A922466060204641
:103BC000FFF764FF054630B12168A068FFF763F98D
:103BD000284604B0B0BD0025FAE700BF01004355F8
:103BE000ECA8001010B50446C0051CBF5D4810BD10
:103BF00001F062FBDD4812490160002144608160F0
:103C0000C160D748006890F8540090B100F0DAFE27
:103C10000C4900FB011400F0E9FE554901304FF456
:103C20007A7260430968B1FBF2F1B0FBF1F000F683
:103C300098014FF48070BDE8104006F013BE00BF3D
:103C40000001001C60F59000EC480168B1F8B0007C
:103C50000A6AD1F8B4301044C058002809DBC348C0
:103C60000122006849688A608A68002AFCD100F055
:103C700005B80148704700BF0200500001466FF0D0
:103C80007040084404281BD90020B1F1204F21D0F6
:103C9000184A914204BF4FF4A0007047D1B11029D7
:103CA00004BF16487047402915D0802916D0B1F5B9
:103CB000807F02D02B4881420AD10F4804307047E0
:103CC000DFE800F003060F1315004FF4A40070475F
:103CD0000948FD30704709480130704706480330F5
:103CE0007047064800F500307047034870470248A7
:103CF00001307047090000A002005200010050008E
:103D0000B0B50546C00524D10C4611B301F0D4FA74
:103D10009648154901604FF4807141608560C46028
:103D2000D848006890F85300A8B100F04BFE0F4946
:103D300000FB011400F05AFE0D4901304FF47A7275
:103D400060430968B1FBF2F1B0FBF1F000F561717D
:103D500002E00448B0BD00214FF48070BDE8B040DF
:103D600006F080BD0600520000010006808D5B0059
:103D7000A425000810B503F001030F2402F00F0280
:103D800003FA01FC012303FA01FE036823EA0E0390
:103D900043EA0C030360D94B1B6893F87DE08B006A
:103DA0009C409A405EF800C02CEA040422434EF87E
:103DB0000020029ABDE8104000F096B82DE9F843C3
:103DC00004464848002C00F089801546002A00F07F
:103DD000858001200E46DFF8A48E00FA01F92868DC
:103DE0000821002808BF042144F80190B000D8F849
:103DF00000206B680F21814092F87D2003F00F03B3
:103E000003FA00F0175927EA01010843314610511F
:103E100020462A7A00F068F8D8F80000D5F80CE0BF
:103E200077004FF0030C0CFA07F190F87C2013593F
:103E300023EA01010EF00303BB4019431151296924
:103E4000A26901F0010122EA0902B1401143A16116
:103E500090F87E206969135901F00101B14023EA0D
:103E6000090319431151102190F87F3001EB4601ED
:103E70000CFA01F21F5942EA090227EA020CD5E9BD
:103E8000067207F0010702F00302B74002FA01F1DF
:103E90004FF47E7247EA0C0702EA86023943195151
:103EA00090F8800050F804C0D5E90837D5E90A61D8
:103EB0002D6B03F0010301F0030167F3410306F0EA
:103EC000010743EA870343EAC1016B01DBB21944EE
:103ED00091402CF0FF0211430151002001B0BDE8D8
:103EE000F08300BF01005A00E84B042902F01F02D2
:103EF0001B68D3E905C3A0EB03006FF00F0303EACF
:103F0000D0006FF01F03604403EBC10328BF0430EF
:103F1000D0F800C038BFCB001F219A4099402CEA4E
:103F20000101114301607047F14A1268D2F8B420D0
:103F30001258B2F1FF3FCFBF134889B24160002051
:103F4000704700BFEA4A1268D2F8B4201258B2F1A2
:103F5000FF3FCFBF0C48C06808600020704700BF1B
:103F60004C6C0008014A012100F002B8A06C000866
:103F70000368B3F1FF3FC4BF0348704789B2C26012
:103F800081600020704700BF01008A0076490A68FE
:103F900002B170470860704770B5734C4FF02C0C3D
:103FA000DEB200FB0CFE246800FB0C4044F80E60FF
:103FB0001C0CDFF874CE8460C3F30724C3EA2343E8
:103FC0004460DCF80050D5F820E0B5F8B05006FBAE
:103FD00005E60661DCF80060366A06EB441606F575
:103FE0008055456141F208057351C0E90721002160
:103FF0008161049909B10988818170BD4C6C000808
:104000007CB50446002001906069C668B6F5803F23
:1040100024D34FF6FF7126EA01010160B44900681C
:1040200009682069D1F8B4100958B1F1FF3F15DCD7
:1040300001A9FFF787FF08B100250BE00198E369AC
:104040000268D1B2150C8B4204D9226A52F82110B1
:1040500001B1884720692946FFF766FFB0B268B111
:10406000616908600868606A18B180470020606272
:1040700002E0A06A00B180470020A061606900688A
:104080007CBD00BF4C6C000837492C22096800FB3E
:104090000210FFF7B5BF00BF2DE9FE43944E044662
:1040A000006AD4E90932A78AE16A3668F68ED4E953
:1040B0000398A56937440295ADF8047001AF0097E5
:1040C000FFF76AFF00200021002243460090484687
:1040D000FFF762FF216B384600F08CFDBDF904004C
:1040E000002808DB00F01F010122400902FA01F15B
:1040F000034A42F82010BDE8FE8300BF4C6C000864
:1041000000E100E0F0B5184F2C24D7F800C000FB08
:1041100004C51648D5F810E0BEF1000F0DD001FB24
:1041200004C60330344654F8187F37B96F68756891
:10413000DEF80060B6F1FF3F00DDF0BD4FF48036E1
:10414000012006FA05F51688B84080B2354315609F
:10415000CEF80C20012222602C2201FB02C14B620E
:10416000CEF808000020F0BD506C000804028A0060
:104170002DE9F843534D074689461B4C2868C6680D
:104180003168B94205D9B9F1000F05D04FF00008E8
:1041900006E004F1021422E0FEF77AF9804628686E
:1041A0000168B1F1FF3F01DD013412E007F01F01AA
:1041B0000122736802FA01F17A0953F822700F4262
:1041C0001EBF27EA010143F8221000240021FFF757
:1041D000ABFEB9F1000F02D14046FEF75DF9204673
:1041E00001B0BDE8F08300BF0201880059B952B99F
:1041F0003F49002309680A6AB1F8B01001FB0020AA
:104200003049086008E0054B31B12AB1044BC3E9DD
:104210000012194600F006B81846704703018A00DC
:1042200088250008F8B5184E0C460146002C06F10A
:10423000020026D02E4A126892F831308B4220D9E3
:104240002368DF061DD1106AB2F8B0201D4F02FBB3
:104250000105D9083D606068FEF73FFE2846002151
:10426000FFF762FE386800212246FFF781FE002832
:10427000304606D138680021FFF756FE002818BFE7
:10428000304601B0F0BD00BF01018A004C6C00084F
:104290000C490968C9680A6882429CBF0A4870478D
:1042A0004968420900F01F0051F8221001228240A3
:1042B0000648114200F1010004BF40F20010C0F2B4
:1042C00088007047546C000804018A0000018800CF
:1042D00007490860704700BF05490968096901EB93
:1042E00080204FF48041405800F00F00704700BF1D
:1042F0004C6C0008104940F2071201604FF0407109
:10430000016400218164C0F80023C0F80413C0F8E0
:1043100010134164C0F80022C0F804120165C0F80F
:10432000C81EC0F8881EC0F8C81FC0F8881FC0F893
:10433000081FC0F8481F70470F00000302680029DB
:1043400022F00042026004D0002048600860086249
:10435000C86270475A4B002800F0B080002900F076
:10436000AD802DE9F04191F800C0BCF1020F01D100
:104370008B7F33B14B685C1E4FF4001363F31F1443
:1043800001E04FF000740B7F002B4FF0407318BF1B
:1043900044F48034D1F808E003EA0C63BEF1090F5D
:1043A00038BF44F40064046003644B7B8C7B0D7C59
:1043B0004E7C013B03F0070864F305184C7F43462D
:1043C000002C444618BF40348F7C002F18BF04F5E2
:1043D00080644FF40077002D18BF04F58074002E20
:1043E00018BF44F40074CD6A4FF4702606EB0545FF
:1043F00005F470252C438464ACF10204CE7BB4FA3E
:1044000084F40D7B6409002EAEF1010608BF67023B
:1044100006F00F06002D18BF06F580763744BCF174
:10442000010FC0F800738F690D7D67F31745C0F861
:10443000105308BF03F58073CF7F002F08BF43469A
:104440004364BCF1010F08BF06F58036C0F8006276
:1044500091F83030C0F8043391F8203091F8217091
:1044600091F8285091F824605B06012F40F66D37D3
:1044700008BF03F18073012D08BF03F58033002AC4
:104480003344036591F83830C0F804324B6B03EACB
:104490000703C0F8C83F40F27373C96B01EA030118
:1044A0004FF00003C0F8881FBDE8F04106D053600C
:1044B00013601362C2E902331363D3621846704774
:1044C0000160AA0000220A608A60CA604A614A60EC
:1044D0000A618A61016841F0004101607047000093
:1044E00010B50F4CC8B1C1B1BBB15A62D0F8C827E2
:1044F00022F00302C0F8C82791E81C00C96803F045
:10450000070302F0010201F0010164F30D320024FF
:1045100042EA034242EA01610160204610BD00BF49
:104520000400B200024600780029537840EA0320D4
:1045300005D09178D27840EA026040EA01407047A5
:104540002DE9F04786B00446F948002A00F0AC8017
:10455000676C7F0700F1AB80571E03F0030300294F
:104560006FF39F4747EA034303F5002323654FF0AA
:10457000000300F09B800E9F00F1010A4FF003083A
:104580000DF1140900207F6A05970491042103921C
:104590000193029183E0042940F08980039D049EE9
:1045A0001AE0D4F8D8003146012200F0C3F9072FF1
:1045B00009D1D4F8D4003071000A7071D4F8D00059
:1045C000B071072006E0D4F8D800311D012200F0B8
:1045D000B1F9082006442D1AD4F8C40000F00F07E2
:1045E000AF4288BF2F46082FDBD8DFE807F0433EF5
:1045F000372D251A0D0C0500D4F8D80031460122BC
:1046000000F098F9DFE7CCE7D4F8D8003146012272
:1046100000F090F9D4F8D4003071000A70710620CF
:10462000D8E7D4F8D8003146012200F083F9D4F855
:10463000D00030710520CDE7D4F8D80031460122F2
:1046400000F078F90420C5E7D4F8D4003070000AEF
:104650007070D4F8D000B0700320BBE7D4F8D40059
:104660003070000A70700220B4E7D4F8D0003070C7
:104670000120AFE7002D049603950CD1D4F8C807AC
:1046800020F00200C4F8C807CDF80880019810B1E6
:104690000199032088474846039500F035F80299B0
:1046A00050457FF478AF02E0033000E0002006B010
:1046B000BDE8F08702469E4849B1536C5B0748BF8E
:1046C0007047481EC0F20C00106500207047033090
:1046D000704700BF0139072988BF7047DFE801F044
:1046E0000407130A1313130D00F5006007E000F52B
:1046F000086004E000F5106001E000F51860016852
:1047000062F3114101607047B0B5054600680024AE
:1047100048B1012000F0B4FA28680138286004BFCD
:104720000224C0F2B2042046B0BD00002DE9F84FCB
:1047300005460E9862F311410A9C1D4E98460027CB
:10474000EB46406A002C00900C9800F00F024FEAF4
:10475000002041EA02210D9A4FEAC2321FFA82F983
:1047600008BF494429650B9940EA01400F4900EA16
:10477000010A002013E0B042324613D0686C4007B3
:104780000AD4481C0137A042504628BF40EA09001D
:1047900018F80110084328655846FFF7B5FFF9B22D
:1047A000A142E8D301B0BDE8F08F00BF000F0300C5
:1047B0000200B2002DE9F04786B004465C48002AAA
:1047C00000F0AF80676C7F0700F1AE8003F0030359
:1047D000571E0029C7EA034303F5802323654FF0E2
:1047E000000300F0A0800E9F00F1010A4FF00108C5
:1047F0000DF1140900207F6A0597049102210392AC
:104800000193029188E0022940F08E80039D049E6E
:104810001BE030460121FFF785FE072FC4F8980002
:104820000AD13079717940EA0120C4F89400B07956
:10483000C4F89000072006E0301D0121FFF772FE4A
:10484000C4F89800082006442D1AD4F8840000F01B
:104850000F00C0F10807AF4288BF2F46082FD8D8F5
:10486000DFE807F04641392E261B0D0C05003046C7
:104870000121FFF757FEC4F89800DDE7C9E730468D
:104880000121FFF74FFEC4F898003079717940EAB2
:104890000120C4F894000620D5E730460121FFF737
:1048A00041FEC4F898003079C4F890000520CAE7AA
:1048B00030460121FFF736FEC4F898000420C2E715
:1048C0003078717840EA0120C4F89400B078C4F8D8
:1048D00090000320B7E73078717840EA0120C4F8EF
:1048E00094000220AFE73078C4F890000120AAE7D6
:1048F000002D049603950CD1D4F8C80720F00100D0
:10490000C4F8C807CDF80880019810B101990120BA
:1049100088474846FFF7F8FE029950457FF473AF89
:1049200002E0033000E0002006B0BDE8F08700BFE1
:104930000100B200002A4FEA102308704B7003D028
:10494000020E000CCA70887070470000CB480068E7
:104950000168D0F88800425822F47F4242507047E4
:10496000174A02EB8001096C01F00701042902BF1C
:1049700052F82010082060F35F1188B2704700BF22
:104980000246BE48006890F83C307E48934216D9F3
:10499000052905D20A4801F0070100EB82000CE06E
:1049A000A1F58073132B88BF704701F01F000449E5
:1049B00041F8220001EB82000421016400207047CD
:1049C00000032640AD4800680168D0F884004058D4
:1049D000000E7047A948012300680168D0F88400E0
:1049E000425863F31F624250704700BFA3480068FB
:1049F0000168D0F884004058C0F30720704700BF1A
:104A00009E4800680168D0F88400425822F47F4232
:104A100042507047F8B5414D04462646E86840F0DC
:104A20000040E86006E010F0040006D1012000F02C
:104A300027F9013E2869002EF5D1A8680221002C33
:104A400061F31D70A86000D01EB1286840F00040DE
:104A50002860002706E010F0010006D1012000F0D8
:104A60000FF901372869BE42F5D1F01BB4FA84F181
:104A700018BF012049090143A868012903D140F06A
:104A80004050A8600BE0022262F31D70A860286805
:104A900020F000402860E86820F00040E86003480B
:104AA000002918BF002001B0F0BD00BF02004A007D
:104AB0001A490A68002A2FDB80B50368C2796FF3B0
:104AC0009F43002A18BF03F180730B60838802891B
:104AD0006FF35F3362F318434B60124B828990F897
:104AE0000EE003EA022C837AC27A03F00F0362F32A
:104AF000071303EB0C020EF0030342EA03728A6011
:104B0000CA68837963F30A22CA60CA68008A60F3BC
:104B100018420020CA6080BD0148704780052640C9
:104B200003004A0000FF1F0080B584461548032992
:104B300015D8BD4BD3F800E09EF83F3063450ED941
:104B400009B9082A0CD3012901D1102A08D3022956
:104B500001D1042A04D3032908BF002A00D080BD54
:104B60009EF8710001F0030101FA00F09EF8701048
:104B700011400843DEF8081001EB8C01C1F8000C6D
:104B8000002080BD01004A00A749096891F8702003
:104B900091F8733002EA000C0320984091F87230CB
:104BA000896840EA0C009A40104340F00040C1F888
:104BB0000004D1F800047047B0B59B49441E096851
:104BC00091F83D108C4228BFB0BD094D022155F827
:104BD000240061F31D7045F82400012000F050F816
:104BE00055F8240020F0004045F82400B0BD00BF77
:104BF00000062640B0B5D8B1B0F90020174D0E4CD4
:104C000002F00F03B2F1FF3FA3F104032B4403F1C1
:104C10001003C8BF1319027952011A70104B2A6889
:104C20009A4203D1B0F9000000F008F80020B0BDAE
:104C30000048B0BD0100560000E400E000F11002A1
:104C40000648074B0068984219BF064850F82200F2
:104C500053F8220043F82210704700BF08ED00E02F
:104C600000200008002000100120FFF70DBA00000E
:104C7000E848012100684068816070474C6C00087A
:104C8000024909784843FDF7FBBB00BF9C2500089B
:104C9000026823490A6042684A6082688A60C26882
:104CA000CA6002690A6142694A6182698A61C269AD
:104CB000CA611C4A53680B6293684B6213688B622B
:104CC0001369CB6252690A63F1EE102A12F0900F59
:104CD00008BF00F037B8026A4A63426A8A63826A90
:104CE000CA63C26A0A64026B4A64426B8A64826B5A
:104CF000CA64C26B0A65026C4A65426C8A65826C42
:104D0000CA65C26C0A66026D4A66426D8A66826D29
:104D1000CA66C26D0A67006E486700F013B800BF2C
:104D2000C46E000824ED00E00448054900680968E5
:104D3000090618BF40F48020704700BF00082640D5
:104D400004002640FEE7704705484FF0004101602F
:104D500001680448B1F1FF3FC8BF0020704700BFA1
:104D6000480027400300460010B5642200284FF099
:104D7000000318BF19228A4238BF0123A54A002820
:104D8000D2F800C0BCF8A820DCF800E05EF80240D1
:104D900024F003041C444EF80240DCF800E05EF806
:104DA000024024F440744EF80240BCF8AA20DCF81B
:104DB00000E05EF8024024F0030423444EF8023081
:104DC000DCF800309C5824F440749C5006D0112923
:104DD0001BD30220222938BF012017E09CF8550080
:104DE000884212D29CF85600884217D29CF857008D
:104DF000884215D29CF85800884213D29CF859205A
:104E000004208A4238BF052000E00020DCF80410AE
:104E10000A6822F00F021044086010BD0120F5E777
:104E20000220F3E70320F1E74C6C000870B505465B
:104E300000F076F910B3FDF72BFB04461D481E4920
:104E4000F5B11E4A1E4D12680A600B21467828688B
:104E500061F3040028600320FFF712FF00F0DEF981
:104E6000286866F3040028600720FFF709FF00F0B8
:104E700075F9002000F06EF8054613E00C4D14E0C3
:104E800000220A600678012000F064F8054648B95F
:104E900000F094F90A48016866F30401016000F02B
:104EA000E5F900252046FDF7F7FA284670BD00BF5A
:104EB0000300420040070016307F264010180016FD
:104EC0001CFF264090B1C16881B1016871B10179C0
:104ED0001F4A02EB810101F1080C002163461A68A8
:104EE00032B102F1140382421146F8D1002070471A
:104EF000DCF80020002A4FF0000218BF01F1140C6A
:104F0000CCF80000C0E9041201207047A0B101797B
:104F10000F4A02EB810108310A46136863B103F1BD
:104F200014028342F9D10A68824207D0D0E9041200
:104F30004A61406930B906E000207047406920B1FD
:104F40000860002101610120704700200860FAE735
:104F500074280008F8B5804E05463078002814BF44
:104F600037782127B6F80B0038B1B6F80B00A0F55A
:104F70008070B0FA80F0440900E001240E20FFF7B1
:104F8000ABF9224A18B184B1232F18D22AE064B1B8
:104F9000222F14D8C7484FF21801006840684258C1
:104FA00065F31862425000221CE019481446002D97
:104FB00000F1020204BF0122C0F6004205E01446DF
:104FC000154A002D08BF06F1D052BA480068B0F863
:104FD000B010006A451801212846FEF7C9FF0028D5
:104FE000224602D0104601B0F0BDB2480068D0F8A9
:104FF000B40029580029FCDBE86800F07F40B0F1DC
:10500000204018BF104601B0F0BD00BF04004200B0
:105010000100000C4C6C00080101003070470000DA
:1050200080B5FDF735FA06490A6842F470020A6055
:10503000BFF34F8FBFF36F8FBDE88040FDF72CBAF1
:1050400088ED00E003463548002B66D0002A64D086
:1050500010B503EB8114D2E9011ED2E9033C090229
:1050600003F00300002B89B26EF3924141EA004045
:105070000CF0070140EA0160117F0844C4F8000108
:1050800003D0012B14BF01231368BCF1000FC4F837
:10509000083105D15069C4F80C019069C4F81001B9
:1050A0001068C4F81401916C481C18D00801916A6A
:1050B000136BD2F838C0D2F840E0C0B201F00F0153
:1050C000084403F00F0140EA01200CF00F0140EA10
:1050D00001404FEA0E3189B20844C4F82001506AF9
:1050E000D16A536BD2F83CC000F0030061F30510A5
:1050F00003F0030140EA01204FEA8C11C9B20844D1
:10510000516C01F0030140EA8100C4F82401106AE7
:10511000C4F838010020BDE8104070470100B60017
:1051200010B50D4CB4F80B0030B1B4F80B00B0F56D
:10513000807F1CBF012010BD0E20FFF7CDF8227824
:1051400000211AB12278222A88BF0121B0FA80F00A
:105150004009084310BD00BF0100001653480188F4
:1051600019B10088B0F5807F12D1C7484FF0030C09
:1051700000680168D0F8982053586CF3030353502B
:105180000168D0F89C0042586CF30302425070470B
:10519000B0B5094DBC4A296812681368D2F8980066
:1051A000C458214341F44071C15028681168D2F8B5
:1051B0009C205050B0BD00BF201800163B4801880D
:1051C00019B10088B0F5807F12D1AF484FF0020CC2
:1051D00000680168D0F8982053586CF303035350CB
:1051E0000168D0F89C0042586CF3030242507047AB
:1051F000B0B5094DA44A696812681368D2F89800DE
:10520000C458214341F44071C15028681168D2F854
:105210009C205050B0BD00BF4418001623480188A0
:1052200019B10088B0F5807F0AD19748042300683F
:105230000168D0F89800425863F30E32425070472C
:10524000B0B5094D904A296812681368D2F89800E1
:10525000C458214341F44071C15028681168D2F804
:105260009C205050B0BD00BF4C1800160F4801885C
:1052700019B10088B0F5807F0AD183480623006801
:105280000168D0F898205058114463F30E300BE0B9
:1052900007487D49006809680A68D1F898108B585A
:1052A0001144184340F44070086070470C00001629
:1052B000181800164C6C000870B55B4DD5F88010BE
:1052C00001F00F0245EA8201096C01F00703042B8B
:1052D00005D85649DFE803F00F03030305005449DE
:1052E00009E055F8221001F01F034FF4FA41112B89
:1052F00008BF4FF400411AB3013A012A6BD805EBFD
:105300008203D3F8404305F5407353F8220053F865
:10531000226004F0010C00F0405E16F0405F43D0C4
:1053200053F8220000F04050B0F1805418BF01241F
:10533000BEF1405F3ED08CF0010020434BD139E0FC
:10534000D5F89022D5F88832D5F8884202F00102CB
:1053500003F0405314F0405F0FD0D5F8884204F0BA
:105360004054B4F1805418BF0124B3F1405F08D019
:1053700082F0010222432ED103E0B3F1405F00D05E
:105380004AB3D5F88022D5F884326FF35F336FF3D8
:105390009F42B1FBF3F15143D5F88022C2F3006282
:1053A0000132B1FBF2F116E0BEF1405F02D0BCF178
:1053B000000F10D053F8220000F07F00484353F84C
:1053C0002210C1F30421B0FBF1F053F82210C1F315
:1053D0000441B0FBF1F1D5F88000174A174C0123C6
:1053E000C0F3011021FA00F01249886012682668A3
:1053F00053FA92F203EB1663B0FBF2F2B0FBF3F058
:105400004FF47A730A614A60C86002F2E730B0FB79
:10541000F3F00B4B4861C0031A440A4BB2FBF3F2A2
:105420000A70886170BD00BF0003264000127A0038
:1054300000366E019C25000808002040081020401E
:105440003F420F0040420F0080B50D48FEF740FF7D
:10545000FFF7E4FDFFF730FF042000210022FEF7F4
:10546000C5FE0848FEF792FD0748006890F8510015
:1054700020B10648BDE88040FEF70EBE80BD00BFEB
:1054800020B90010182900084C6C0008C8B20010A0
:1054900080B5142002F0C6FD00214FF6FF7202E035
:1054A00020F8112001310A29FAD10149486080BD54
:1054B0008027000880B502F011F90149086080BD1D
:1054C000402C000880B502F04DFFB0FA80F0400992
:1054D00080BD02F03BBF0000F8B5184D04467021B6
:1054E000284600F0C5F80146284405F58067B84213
:1054F00006D2284602F006FFD0B926463D4601E016
:1055000004F580662846314600F0B2F80C4928447C
:10551000884204D82846314602F0F4FE08E00949E2
:105520000A4B421808482146FDF7B2F84FF0FF3009
:10553000B0FA80F0400901B0F0BD00BF00F00010EB
:1055400000601F10000CFFEFCCC00010006C1E00AC
:105550002DE9F04F85B081B10F46834602F0FAFE87
:1055600035490446B1FBF0F000FB141038B1334864
:105570002246FDF78DF830BFFDE7002058E03048A7
:105580004FF00009DFF8BC8007F108050027CDF8CF
:105590000C9004904FF48040B0FBF4F06043029014
:1055A000601E0190012016E00398D8B3019A2249A9
:1055B00010443944B0FBF4FA04980AFB04F202F0F8
:1055C000D5FE29680646384604F03AFAB6FA86F05F
:1055D0000AFB04774009010628D0D5E90021BB1A4F
:1055E00079EB010322D24FF0FF30C8F80000D01B46
:1055F000029A61F10001131A79EB010138BF1046DC
:10560000039002AA58463946FEF72EF9000403D04B
:10561000D8F8000004E030BFD8F80000411CFAD0F0
:105620000428C1D008A0FDF799FA002000F001007D
:1056300005B0BDE8F08F00BF00F4001038C00010C6
:10564000482C0008542600085B455252205D20413A
:10565000524D5F5543505F526561642072657475A9
:10566000726E656420302062797465730D000000ED
:1056700070B504460E180546B54224BF281B70BD00
:10568000284602F06BFE0544F6E70000B0B505467B
:1056900088680C46FFF720FF90B1204600F016F90D
:1056A00070B128462146FFF753FF48B105A0FDF72A
:1056B00055FA204600F018F8B0FA80F04009B0BD65
:1056C0000020B0BD5B424F4F545D20566572696645
:1056D00079206E65772061637469766520666972EA
:1056E0006D776172653A0D002DE9F04FA3B0002887
:1056F00051D0804600F0D2F800284CD0454655F8ED
:10570000080F696808434AD00DF12009484604F0A3
:1057100005F848460021002704F005F868462021D6
:10572000FDF7DBFB20482E68DFF868A2834619E00E
:10573000D6B13446B6F5804FABEB060028BF4FF428
:105740008044296822460144504602F04DFE074637
:1057500048465146224604F03DF82968361B881B0E
:1057600004F06EF9002FE3D008AC6D4620462946C0
:1057700003F03EFF204603F0CBFF08F1100429465A
:1057800020222046FDF7AAFA58B1204604F08AF9F3
:10579000684604F087F9012023B0BDE8F08F0220AD
:1057A000FAE70020F8E700BF00F400102DE9F04F01
:1057B0009FB00025002966D0834635480C460DF180
:1057C0000409D0E9001280681E904846CDE91C12F9
:1057D00003F0A4FF4846002103F0A5FF2D4E0094DE
:1057E00008344FF0FF380DF1700A002726E01C9AAC
:1057F000C91BC6F8008060F10000531A75EB000069
:1058000038BF11461D91524658463946FEF72CF8CE
:10581000000402D0306803E030BF3068411CFBD088
:10582000042812D11D9A82B11E99484603F0D2FF76
:105830001D9821680744384604F002F9D4E90010A5
:105840007A1A75EB0002D2D302E013A0FDF786F9B5
:10585000504D01AC2046294603F0CAFE204603F015
:1058600057FF00982946202200F110042046FDF73A
:1058700035FA38B1204604F015F9464804F012F91B
:10588000002500E0012528461FB0BDE8F08F00BFCD
:10589000F8A80010542600080D00000010B580B1D3
:1058A000094C4FF0FF312160FDF7C6FF000408D11D
:1058B00000E030BF2068411CFBD0062804BF012057
:1058C00010BD002010BD00BF542600087FB5E0B316
:1058D000064602F03FFD00F16F011F4DB1FBF0F1F4
:1058E00001FB00F428467021FFF7C2FEB4F5804F9B
:1058F00008D8024684420DD928482146FCF7C8FE44
:1059000030BFFDE715A021464FF48042FCF7C0FEF2
:1059100030BFFDE71F482146FF22FDF7ACFA1E48C5
:10592000D0E9001280680390CDE9011201A9304648
:1059300002F080FC000408D10298702805D11548B7
:105940002946224602F012FD01E04FF0FF30B0FA86
:1059500080F0400904B070BD00F000105B45525269
:10596000205D204865616465722070726F677261A6
:105970006D2073697A652025752062696767657295
:10598000207468616E206275666665722025640DFC
:105990000A0D0A00482C000804A900108BC0001052
:1059A0002DE9F04F91B0064606A8994692460F465B
:1059B00002F0CCF90020BAF1000FCDE90400CDE9E6
:1059C00002000BD006A802F077F960B101464EA0A4
:1059D000FCF75EFE564800F10E0422E066A0FDF7DB
:1059E000BDF8534C1DE006A8314602F015FB06F148
:1059F0008F00B8420AD806AC204602F00BFB0546E1
:105A0000204602F003FB2844B84211D25848FDF763
:105A1000A5F85848464C2146FCF73AFE06A802F085
:105A20007DF906A802F093F9204611B0BDE8F08F89
:105A3000B81B002706AC00F101084FEA580504E046
:105A4000B919204602F0E8FA0744AF42F8D3A8EBB0
:105A50000700CDE902670DF108084FF0000B059033
:105A6000B81906AE08AF04904048083001900020F5
:105A70003FE0304602F0CCFA58F83B40054630464D
:105A80003946082304F1400202F030F970BB0020CF
:105A900007282BD8395C0130A942F9D01A98BDF8F3
:105AA000225000B105604D4520D83046514622466F
:105AB0002B4602F01BF9C8B9012051462A460023A3
:105AC0008DF83C00ADF8340000200C904FF0FF3012
:105AD0000B9025480E9001980A9010A800900AA8F3
:105AE00002F037F81098099988420AD00BF1010B9F
:105AF0000120BBF1010FBCD918B10D48841D0DA0C8
:105B000089E700248AE700BF5B455252205D2046AA
:105B10006C61736849415020696E697420666169DF
:105B20006C6564202D206572723A2025640D0A0090
:105B30000101FF805B455252205D20436F756C640C
:105B40006E27742066696E642076616C69642044F7
:105B500065766963654B6579202D206572723A2000
:105B600025640D0A00000000DCB30010A8B8001086
:105B70007BBF00104ABF00105B455252205D204998
:105B80006E76616C696420446174612042756620A0
:105B9000417267756D656E740D0000002DE9F04F60
:105BA000A9B00DF1580848214046FDF796F904AC1C
:105BB00048212046FDF791F97CA0FCF7CFFF204655
:105BC000FFF792FD844D00222B6893B1696881B183
:105BD000D3E90064DDE904277C405640264307BF33
:105BE0000A780132C3E9002700220A7004AC696810
:105BF0000A78022812D098B9022A13D804F11000AA
:105C000003F050FFDDE904237E48FCF741FDDDE9A8
:105C100004014FF0010BCDE916010DE06FA007E084
:105C2000032A04D384480321FCF732FD02E076A066
:105C3000FCF794FF4FF0000B08F110007F4E04F1C9
:105C4000300A08F1300904F110074FF0FF350290D7
:105C500008F1080004F1080801908BF0010003909E
:105C600001205CE04FF0FF30214630600020FDF75E
:105C7000EBFD000402D03068574A05E0564A00E0C8
:105C800030BF3068411CFBD0072855D1106848B19F
:105C9000D0E90003DDE9041253404840184318BF1F
:105CA000012002E0DDE904120120DDE91634591A71
:105CB00074EB020136D203990843012832D1D8E9A6
:105CC000000108432ED060480021FCF7E1FC04AC41
:105CD00000202146FFF76AFD80B3384603F0E2FE5C
:105CE000DDE904234748FCF7D3FCD8E900205849F4
:105CF000891A4FF00001814125D3DDE90413CDE974
:105D000016130199C1E90020029839462022FDF7B7
:105D100030F89AE80F00002589E80F000020C0073E
:105D2000A0D115E047480021FCF7B2FCDDE90423CF
:105D30003448FCF7ADFC0BE0414800E0434800214B
:105D4000FCF7A6FC04E04348414B0021FCF7A0FC13
:105D5000681C18D0404C414F012016AE05E0384673
:105D6000FCF7FCFE4FF0000B0020C00719D02046C6
:105D70002946FCF78DFC28463146FFF787FC0028B2
:105D8000EDD0374803E0BBF1000F05D03648FCF7F3
:105D9000E5FE4FF0010B04E03248FCF7DFFE4FF068
:105DA000000B0BF0010029B0BDE8F08F5B424F4FB4
:105DB000545D20416374697665206669726D776110
:105DC000726520696E7465677269747920636865AD
:105DD000636B3A0D00000000102900085B424F4F32
:105DE000545D20416374697665206669726D7761E0
:105DF000726520736C6F7420697320656D7074799F
:105E00000D00000036C300105B455252205D20415A
:105E10006374697665206669726D77617265206961
:105E20006E7465677269747920636865636B206658
:105E300061696C65640D0000D1C200105426000831
:105E40004DC30010A6C200101BC2001075C2001086
:105E5000006C1E0005C3001046C2001067C300108E
:105E600086C30010ABC30010CBC300102DE9FE4F5A
:105E7000064601A80D4601F069FF2948294C30600B
:105E800000F500502860306828B101A801F014FF27
:105E900018B109343CE003343AE00DF1040A224918
:105EA000DFF888B05046D847504602F0B3F800906B
:105EB000504602F0ABF83768814650463946D8471D
:105EC000B7FBF0F12F6801FB00F85046791ED84768
:105ED00082463068404518D10021781E52464FF066
:105EE000000361F10001FCF735FB009909EB0102A9
:105EF0002968914209D8013000FB0AF0814204D19F
:105F000001A801F00BFF002402E001A801F006FF48
:105F100001A801F01CFF204603B0BDE8F08F00BFD0
:105F200000D000100601FF80A4C8001019800010E6
:105F30000146012001E0013940000029FBD17047F2
:105F4000B0B50C464542FCF7ABFA0560134800219A
:105F500040F82410B0BD00BF10B50F4801F012FF8B
:105F60000E48032403E050F8241061B101340F2CD3
:105F7000F9D9FCF795FA18210160074801F002FFF2
:105F80004FF0FF3406E04FF0FF3140F82410024894
:105F900001F0F8FE204610BDA02A0008E425000804
:105FA0003AB110B51D480C4603F093FF2070012054
:105FB00010BD0020704700BF6FF01C0070476FF0ED
:105FC0001500704700207047F8B5144E14460D4672
:105FD000002704E0E95D304604F0E4F90137BC42F3
:105FE000F8D1204601B0F0BD0120704770B50446DD
:105FF0000848083020600848006840B9074E1D4630
:10600000304603F06FFF3046294603F051FF20462B
:1060100070BD00BFDCB70010B0280008B828000829
:10602000FCF771BA2DE9F04F85B0DFF86C800446BB
:1060300001264FF0FF374FF003090DF1100A00253C
:1060400042F20F7B012004F0E1FB204605214FF0D6
:10605000FF324FF0FF338DF81270ADF81070CDE9BC
:106060000055CDE902A900F04BFD10B14046FCF708
:1060700075FD9DF810105E4501F0010002D8013653
:106080000028DFD120B105A0FCF702FB002000E0D2
:10609000012005B0BDE8F08F78BE00105B4552527C
:1060A000205D205F69735F6D656D5F726561647906
:1060B0002046414C53453A207374617475732076C1
:1060C000616C7565203D2030782578200D0A000030
:1060D000B0B5054600F0F4FBD5F84441411C16D09C
:1060E0002844012290F83811002004E00A420AD125
:1060F00012060130D2150328F8D9042807D105A0CB
:10610000FCF72CFD03E005EB8000D0F8AC40E11774
:106110002046B0BD5B455252205D204E6F20657217
:1061200061736520747970652077617320666F757F
:106130006E6420666F7220726567696F6E2061649D
:1061400064720D00B0B586B000250446032005A991
:106150004FF0FF324FF0FF338DF81650ADF814506A
:10616000CDE90055CDE902102046052100F0C8FC1C
:1061700028B19DF8141018A0FCF78AFA0FE0204609
:1061800066214FF0FF324FF0FF33CDE90055CDE9E6
:10619000025500F0B5FC38B11DA0FCF7DFFC4FF054
:1061A000FF35284606B0B0BD0025204699214FF0A6
:1061B000FF324FF0FF33CDE90055CDE9025500F035
:1061C0009FFC20B11AA0FCF7C9FC4FF0FF35204618
:1061D000FFF728FFE5E700BF5B455252205D2052E4
:1061E000656164696E6720537461747573205265CC
:1061F000676973746572206661696C65643A2076BC
:10620000616C7565203D20307825780D0A0000000E
:106210005B455252205D2053656E64696E67205263
:106220005354454E206661696C65640D00000000A2
:106230005B455252205D2053656E64696E67205243
:106240005354206661696C65640D00002DE9F041CE
:1062500086B00027044602260430002100220223D3
:106260008DF812608DF81670ADF81470ADF81070DE
:10627000CDE90077CDE9027701F032FB05AD20468C
:1062800015214FF0FF324FF0FF33CDE9007705F1D4
:106290000108CDE9028600F033FC08B122A03BE002
:1062A000002004A904E00A5C2B5C1A432A54013044
:1062B0000328F8D1204600F06FF808B124482BE0FD
:1062C000D4F89410032200204FF0FF33CDE90052A0
:1062D000CDE9020020464FF0FF3200F011FC08B17A
:1062E0001CA019E02046FFF79DFEA0B1002502206A
:1062F00015214FF0FF324FF0FF338DF81650ADF8F7
:106300001450CDE90055CDE90280204600F0F8FB9D
:1063100030B1204800E01E48FCF720FC4FF0FF356C
:10632000284606B0BDE8F0815B455252205D205200
:10633000656164696E6720436F6E666967205265A8
:10634000676973746572206661696C65640D00002D
:1063500034BE00105B455252205D2066617374208C
:106360006D6F646520656E61626C65202D205772CB
:106370006974696E6720436F6E666967205265674E
:106380006973746572206661696C65640D00000054
:10639000D4BD00104FBE001010B586B004460020DA
:1063A00006214FF0FF324FF0FF33CDE90000CDE979
:1063B0000200204600F0A4FB08B115A01AE0204618
:1063C000FFF730FEA8B10020032105AA4FF0FF33EC
:1063D0008DF81600ADF81400CDE90000CDE90221DA
:1063E000204605214FF0FF3200F08AFB40B11B48E8
:1063F00000E010A0FCF7B2FB4FF0FF3006B010BD7C
:106400009DF81400800701D415A0F3E70020F5E7FC
:106410005B455252205D2053656E64696E6720575C
:1064200052454E20636F6D6D616E64204641494C4C
:1064300045440D005B455252205D204465766963FA
:1064400065206E6F742072656164792C20777269A3
:106450007465206661696C65640D000078BE00108B
:106460005B455252205D205F7365745F777269747B
:10647000655F656E61626C65206661696C65640D5F
:106480000000000070B5914E0D4606F1080420464C
:1064900001F078FC70680021AAB209290FD830F801
:1064A000023B01319342F8D14FF6FF71002520F8ED
:1064B000021C30680128A4BF0138306001E04FF0B1
:1064C000FF35204601F05EFC284670BD2DE9F04105
:1064D00086B0044691F8380091F83910000961F34C
:1064E0000410411E02292FD304283DD008284BD088
:1064F000102870D1002701250DF1170620466521CF
:106500004FF0FF324FF0FF33CDE90077CDE9026560
:1065100000F0F6FA10B133A0FCF720FB9DF817004D
:1065200061214FF0FF324FF0FF3300F07F008DF814
:1065300017002046CDE90077CDE9026500F0E0FACA
:1065400000284BD035A047E0002038214FF0FF3223
:106550004FF0FF33CDE90000CDE90200204600F006
:10656000CFFAD8B33F4837E0002035214FF0FF3253
:106570004FF0FF33CDE90000CDE90200204600F0E6
:10658000BFFA58B3364827E0324D00264FF00108D5
:106590000DF11707204665210023CDE90066CDE9FE
:1065A00002782A4600F0ACFA10B12B48FCF7D6FA74
:1065B0009DF8170071212A46002340F040008DF815
:1065C00017002046CDE90066CDE9027800F098FA80
:1065D00020B1224800E02448FCF7C0FA002006B0B1
:1065E000BDE8F0815B455252205D205F73666470A8
:1065F0005F7365745F7170695F656E61626C65641D
:10660000202D2073656E6420636F6D6D616E642054
:10661000363568204661696C65640D005B455252F1
:10662000205D205F736664705F7365745F7170696D
:106630005F656E61626C6564202D2073656E6420F9
:10664000636F6D6D616E64203631204661696C65E3
:10665000640D0000030080002FBD0010BFBC0010BF
:10666000F7BC001073BD001006BF0010F8B5174E40
:106670000F4606F10804204601F084FB3068092823
:1066800002DD6FF001051BE071680022BBB20A2A2F
:1066900007D231F8125001329D42F8D14FF0FF3548
:1066A0000EE000224FF6FF73092A06D831F8025B8C
:1066B00001329D42F8D121F8027C01300025306082
:1066C000204601F05FFB284601B0F0BD802700089E
:1066D000292ABCBF4FF48070704791F82800000948
:1066E000FFF726BC2DE9F04186B0044600208DF866
:1066F0001600ADF814008DF81200ADF8100091F8F6
:106700003A00C0F30215052D09D8DFE805F07F0334
:106710000D1103474FF002088DF8158011E04EA0CF
:10672000FCF71CFA002571E040208DF8140006E00B
:1067300080203E218DF814003F20C4E925104FF041
:10674000010803260025201D002100220223CDE997
:106750000055CDE9025501F0C3F8D4F8981004AF04
:1067600020464FF0FF324FF0FF33CDE90055CDE921
:10677000027600F0C5F908B1264843E0002005A9DB
:1067800004E00A5C3B5C1A433A5401300328F8D118
:106790002046FFF701FE50B11F4833E04FF00208DA
:1067A000352001268DF81580C4F89800CAE7D4F882
:1067B00094100020CDE900784FF0FF324FF0FF3306
:1067C000CDE90200204600F09BF908B113A019E0C2
:1067D0002046FFF727FCA0B1002520464FF0FF32EE
:1067E0004FF0FF338DF81250ADF81050D4F89810D8
:1067F000CDE90055CDE9027600F082F90028BBD141
:1068000004E01448FCF7AAF94FF0FF35284606B01B
:10681000BDE8F08178BE001034BE00105B455252D6
:10682000205D205F73657451756164456E61626CB3
:1068300065202D2057726974696E672053746174E6
:106840007573205265676973746572206661696C3F
:1068500065640D00D4BD00105B5741524E5D20555C
:106860006E7375706F727465642051455220636F4A
:106870006E66696775726174696F6E0D0000000065
:10688000F8B5089B0430039303ABCDE90023069BC6
:106890004FF0FF3201F07CF820B104A0FCF75EF964
:1068A000FF2000E0002040B204B080BD5B455252A2
:1068B000205D2052656164206661696C65640D002D
:1068C00010B5D0E9541C891A7CEB03011BD3D0F816
:1068D000BC10C1B1012901D1002010BD00EBC100E5
:1068E00000F1D80C481E09E0DCE90014891A74EBA9
:1068F000030138BF10BDACF1080C7046A0F1010EC9
:10690000BEF1000FF0DA4FF0FF3010BD1FB50023CD
:106910000430CDE900330293064B1A40002300F007
:10692000A9FF044610B104A0FCF718F9204604B0F2
:1069300010BD00BF00F0FF005B455252205D2051AA
:10694000535049204572617365206661696C6564C6
:106950000D0000002DE9F04F89B099461646884693
:106960000746002508240430002100220223CDE937
:106970000055CDE9025400F0B3FF07AA38465A216A
:10698000CDE90055CDE90245FFF77AFF08B138A0FF
:1069900060E03F48079981425BD19DF821000128C2
:1069A00057D19DF822B035464E4601244FF0080AD3
:1069B0004FF0000938E09DF8140051281AD068BB48
:1069C0009DF81B00FF2829D19DF819109DF81A2069
:1069D0009DF81800090241EA02410844C8F8000085
:1069E0009DF81700810040294FF0400138BF810019
:1069F000296013E09DF81B00FF280FD19DF81910A6
:106A00009DF81A209DF81800090241EA0241084445
:106A1000129930609DF81700800008601AF1080A8A
:106A200004F1010449F10009601E584519D80820F5
:106A3000CDE900A95A2105AA02900020039038460A
:106A4000FFF71EFF78B99DF816000128B3D02B4838
:106A50000AE010A0FCF782F84FF0FF3009B0BDE863
:106A6000F08F0020FAE71AA02146FBF711FEF3E7AA
:106A70005B455252205D20496E6974202D2052657D
:106A800061642053464450204661696C65640D0082
:106A9000534644505B455252205D20496E69742034
:106AA0002D205F76657269667920534644502073C5
:106AB00069676E617475726520616E6420766572B7
:106AC00073696F6E204661696C65640D000000009B
:106AD0005B455252205D20496E6974202D2052651D
:106AE000616420506172616D205461626C65202583
:106AF00064204661696C65640D0A000099BA001053
:106B0000BFB50C460B99089B043002910A9901917C
:106B100009990091214600F0ADFE054618B103A089
:106B20002146FBF7B5FD284604B0B0BD5B45525287
:106B3000205D2053656E64696E672047656E6572DF
:106B4000696320636F6D6D616E643A2025780D0A6C
:106B5000000000001CB50092069A049B04300192CC
:106B60004FF0FF3200F050FF044610B102A0FBF7D7
:106B7000F5FF204602B010BD5B455252205D20510A
:106B8000535049205772697465206661696C656469
:106B90000D0000002DE9F04194B08046002004ADC6
:106BA000CDE90010CDE9022040465A212A46FFF7E0
:106BB00067FE38B17348FBF7D1FF4FF0FF3014B0D8
:106BC000BDE8F0819DF8100000F00300032803D019
:106BD0009DF81100002848D09DF81200421C092899
:106BE000C8F8BC2004D926480A21FBF751FDE4E788
:106BF00005F1040C4FF00F0E0023E82500211FE0E3
:106C00005CF8236008EB830006F5807706F00F043C
:106C100027F0FF07C0F8C07008EB0307013387F8BF
:106C2000384108EB0504D0F8C0000144481E48F87C
:106C30000500C017083560600EEA060000F00F0E70
:106C40009A42DDD10122002101E0013152000329E5
:106C50000DD8D2B212EA0E0FF7D008EB8100D0F8AF
:106C6000AC00C8F844010020A9E70448A3E70020CD
:106C7000042908BFC8F84401A1E700BF5EBB0010AB
:106C800015BB00102DE9F04395B0044600201546D1
:106C9000CDE90010CDE9022005AA20465A21FFF7D0
:106CA000EFFD08B1374809E09DF8160040075CBFCA
:106CB0009DF81B005FEA006108D533A0FBF74EFF8B
:106CC0004FF0FF36304615B0BDE8F08300269DF842
:106CD00018E09DF819209DF81A3027464FF0020C55
:106CE0000DF11408A146C4F8546157F8901FC4E987
:106CF00022C1190441EA0060414640EA02202A46C6
:106D000070440130C008C4F85001032049F8840FD2
:106D1000FFF7DEFCC4F8480104F1AC0004F19C016B
:106D20008DF813608DF812602A463B46CDE90010BD
:106D30002046414600F0C6F838680DF1130341467D
:106D40002A46C4F88C000DF11200CDE90009204656
:106D500000F050F89DF813000028B3D02046FFF74C
:106D600075FA05A92046FFF7BDFC08B112A0A5E7FA
:106D70009DF8120018B105A92046FFF7A7FB0026D1
:106D8000A0E700BF93BC00105B455252205D204934
:106D90006E6974202D207665726966792033627978
:106DA00074652061646472657373696E67204661FF
:106DB000696C65640D0000005B455252205D204403
:106DC000657669636520737570706F727473205196
:106DD000756164206275732C206275742051756131
:106DE0006420456E61626C65204661696C65640D66
:106DF00000000000B0B5049CDDF814C04FF0000E98
:106E0000112A83F800E084F800E014DB0A7CD20643
:106E100011D5CA7E0225CCF8002001221A702270FA
:106E20008A7E80F85B5180F8595102F01F0505EB0E
:106E30005212C0F85C2184F800E08A78950614D4D8
:106E400055061AD40B7CDB0725D1D30628D4D207EC
:106E500035D04A7BCCF80020097B01F01F0202EB01
:106E60005111C0F85C11012127E04A7ACCF80020CA
:106E700001221A700A7A022117E0CA7ACCF800209F
:106E800001221A70897A01F01F0202EB5111C0F839
:106E90005C11022111E0CA7DCCF800208A7D03E05C
:106EA000CA7BCCF800208A7B012102F01F0380F806
:106EB000591103EB5212C0F85C2180F85B110020DD
:106EC000B0BD00002DE9FE4F4FF0FF0A06461D2A17
:106ED000C3F800A04878186041DB01930D460124F7
:106EE00000204FF00008DDE90C7B029031E047F80C
:106EF00028A005EB480999F81C00FFF719F80228AB
:106F00004BF8280022D399F81D0047F82800D6F83E
:106F100044115BF828000139814224BFC6F84401BE
:106F20005BF82800B0F5805F0BD1019A57F8280074
:106F30001168814203D010600C48FBF70FFE01205E
:106F4000029096F83801204386F8380108F10108CC
:106F50006400B8F1040FCAD10298C00702D104A09E
:106F6000FBF7FCFD002003B0BDE8F08FADBB0010C7
:106F70005B5741524E5D20436F756C646E277420E1
:106F800066696E642045726173652054797065206E
:106F9000666F7220344B422073697A650D000000E1
:106FA00070B5049E00F1B80E08240025A6EB030C72
:106FB00000230EE00E78344209D05EF8235095424B
:106FC00001DAAC450ADC26EA04050D700546013BF2
:106FD0006408D81C0028EDDA284670BD012B18BFC4
:106FE00070BD02A0FBF7BAFD042070BD5B45525294
:106FF000205D204E6F206572617365207479706525
:107000002077617320666F756E6420666F722063EF
:10701000757272656E7420726567696F6E20616447
:1070200064720D0070B58AB00446C06F48B101307B
:1070300018D1B4F9801057A0FBF72AFB6548461C0D
:1070400034E00020CDE90700CDE9050094F86401A3
:1070500070B1D4F86001411C0028C4F860110AD056
:10706000002623E073480A21FBF712FB594E1DE06E
:107070000120C4F8600100204FF40031251DC4E94F
:107080005610012184F83801C4F8BC10C4F844013A
:107090000520C4E925102846D4F84C1100F0C4FBA3
:1070A00038B14DA0FBF75AFD6FF47A6630460AB04E
:1070B00070BD2046FFF746F8013011D000220320B2
:1070C00009A94FF0FF33CDE90022CDE90210204697
:1070D0009F214FF0FF32FFF713FD18B14748E1E75A
:1070E0005348DFE79DF82400BF280FD12046FFF763
:1070F00053F9002098214FF0FF324FF0FF33CDE9D4
:107100000000CDE902002046FFF7FAFC2046FEF71A
:1071100089FF50B105A808A907AA06AB0090204630
:10712000FFF718FC38B13F480CE035A0FBF716FD1F
:107130002848061DBAE7DDE907212046FFF7A2FD32
:1071400028B13948FBF70AFD2248461DAEE7D4E9CD
:107150005401C4F8C000013861F10001C4E93A01EA
:10716000069939B1059A2AB12046FFF713FD08B1F7
:107170002E48E7E700262846002100220223CDE919
:107180000066CDE9026600F0ABFB012084F86401E3
:107190008CE700BF5B455252205D20515350494659
:1071A000426C6F636B4465766963652077697468C8
:1071B000207468652073616D65206373656C282594
:1071C000642920616C7265616479206578697374E3
:1071D000730D0A0059F0FFFF5B455252205D2051AC
:1071E00053504920536574204672657175656E630E
:1071F00079204661696C65640D00000013BC0010C5
:107200005B455252205D20496E6974202D205F69D4
:10721000735F6D656D5F7265616479204661696C4D
:1072200065640D00ABBD001038BC001066BC0010DA
:107230009FBE0010CEBA00102DE9F04385B007467E
:107240001D469146884690F8581190F8592190F8BB
:107250005A3190F85B010026D7F85C41CDE9006611
:10726000CDE902043C1D204600F03AFB0D98D7F80A
:107270008410424603900C9802903846CDE9009560
:10728000FFF7FEFA28B10AA0FBF768FC6FF47A65F5
:1072900000E000252046002100220223CDE90066FF
:1072A000CDE9026600F01CFB284605B0BDE8F0837E
:1072B0005B455252205D205265616420436F6D6DC5
:1072C000616E64206661696C65640D002DE9F04FA4
:1072D00085B09B4615460646FFF7F2FA81463044D4
:1072E00090F838018DF81300DDE90E8018EB0507E2
:1072F00040EB0B04D6E95401C01B71EB040001D232
:1073000069481FE030682A465B46C16C30468847B2
:1073100002460B4628465946FBF71CF952EA030081
:107320000FD130687A1E64F10003C16C3046884783
:1073300002460B4638462146FBF70CF952EA030099
:1073400006D035A0FBF70AFC404805B0BDE8F08F39
:10735000B8F1010F52DBCDF80C9006EBC9090DF125
:10736000130142462B4659F8E80F00903046FFF7CC
:1073700017FE06EB800059460023D0F8AC70D0F819
:107380009C4028463A46FBF7E5F808EB0200C24667
:10739000B842304628BFA7EB020AFEF7FDFF78BBD4
:1073A000304621462A465B46FFF7B0FA70BB15EB24
:1073B0000A05A8EB0A084BF1000BB8F1010F10DB2E
:1073C000D9E90001401B71EB0B000AD2DDF80C90EB
:1073D00009F1010906EB090090F838018DF8130056
:1073E00001E0DDF80C903046FEF71CFE0028AFD11E
:1073F0002C48FBF7B3FB15480230A6E70020A4E7B2
:1074000013A0FBF7ABFB114801309EE71CA0FBF774
:10741000A5FB6FF47A6098E75B455252205D2049E6
:107420006E76616C6964206572617365202D2075CC
:107430006E616C69676E6564206164647265737304
:1074400020616E642073697A650D00005BF0FFFFB8
:107450005B455252205D2051535049204572617363
:107460006520446576696365206E6F74207265617E
:107470006479202D206661696C65640D0000000050
:107480005B455252205D2051535049204572617333
:107490006520636F6D6D616E64206661696C656403
:1074A000210D000001BE0010DEBE0010BFB5044675
:1074B00090F8640110B3D4F8600100250138C4F8D5
:1074C00060011ED1204604214FF0FF324FF0FF3300
:1074D000CDE90055CDE90255FFF712FB20B10AA016
:1074E000FBF73CFB6FF47A65002084F86401E06FE1
:1074F00038B9B4F98010FEF7C5FF02E00025C4F8E2
:107500006051284604B0B0BD5B455252205D205703
:10751000726974652044697361626C652066616993
:107520006C65640D000000002DE9F04F87B0074640
:1075300000209A4693468846CDE90400DDE9109480
:107540001CE0D7F8881004A8CDE900BA42460290A2
:107550003846FFF7FFFA98BBDDE9040168400843AD
:107560002ED13846FEF75EFD80B31BEB050BA84419
:107570004AF1000AB9EB050964F1000459EA040074
:107580002AD0D7F84861002051460023059058467C
:107590003246FAF7DFFF12EB09004D4643EB0401D8
:1075A000801B71F1000028BFB51A04953846FEF71C
:1075B000F3FE0028C5D00A48FBF7D0FA09480CE0D2
:1075C00009A0FBF7CBFA6FF47A6006E00C48FBF7F2
:1075D000C5FA0448013000E0002007B0BDE8F08F94
:1075E00034BE00105CF0FFFF5B455252205D205717
:1075F00072697465206661696C65640D0000000045
:10760000D4BD0010BFB5044620480A9D0830206054
:107610000B98029503900998019008980090201DFE
:1076200000F044FA00202946C4E9540084F86401BB
:10763000C4F860010C98C4F84C01A4F88050FFF71E
:1076400015F80028E06708D0013002D10448294627
:1076500001E004480A21FBF71BF8204604B0B0BD46
:1076600058BA001010BA001080B500F005F8BDE857
:10767000804000F0D5BC000010B504460348083037
:1076800020602046FFF712FF204610BD38B80010DA
:107690006FF0150070476FF01800002918BF002028
:1076A00070476FF0150070470168896A084700202D
:1076B0007047016801220B69002118470168896938
:1076C000084703681B6918477047016800220B6967
:1076D000002118476FF015007047000010B586B004
:1076E00016480078BFF35F8FC00702D0154806B078
:1076F00010BD124800F0AAFC0028F7D00020114C61
:1077000040F6063140F6053240F60433039040F669
:107710000230029040F60730019040F603300090AE
:10772000074804902046FFF76DFF0748074A2146A7
:1077300000F08AFC014800F09AFCD7E7982A00087C
:1077400080F0FA02D82A0008797600100020001094
:1077500000207047002070477047704770B50F28B1
:1077600001DD002519E0194E0446022856F8205084
:1077700013DC681C11D1204600F02CF8054650B9E6
:10778000204600F029F8054628B9114D2879BFF3A5
:107790005F8FC00703D046F82450284670BD0C4DBB
:1077A000281D00F053FC0028F5D0094D40F201518E
:1077B0004FF4A0624FF4E1332846FEF717FC287916
:1077C00000F0FC0001302871E5E700BFE425000867
:1077D00028280008002070470020704770B586B048
:1077E0000446406E012819D8B4F970C0B4F972E0AB
:1077F000B4F97450266EB4F96E30B4F96C20B4F953
:107800006A10C0B2CDE900CECDE902560490201D29
:1078100002F09EF9B0FA80F0400900E0002084F800
:10782000680006B070BD0000B0B5044690F868006E
:1078300070B120680D468168204688479A482566C1
:107840000068A04206D0204600F020F900250AE09A
:10785000FF250CE0201D294602F077F90546002897
:1078600018BF4FF0FF352068C1682046884768B2CE
:10787000B0BD00BF2DE9FC47044690F8680020B376
:1078800020680F461D4616468168204688472046D8
:1078900000F0FCF8D8B1DDF83090DDE90A8A204626
:1078A000394632464FF0FF3300F03BF8201D04F11B
:1078B0003C012A464346CDE900A902F01FF90546DE
:1078C000002818BF4FF0FF3502E0FF2504E0FF2538
:1078D0002068C1682046884768B202B0BDE8F087DA
:1078E000F8B5074600680E461C46154681683846BE
:1078F00088470998F865089887F83900079887F845
:107900003800069887F8370087F8364087F83550F2
:1079100087F834603868C16838468847002001B06D
:10792000F0BDF8B50F4604463C3020211D461646F2
:10793000FBF7D3FA94F8340084F83C00781C1ABFA3
:1079400084F83D700020012084F83E00B4F8350032
:10795000A4F84000701C1ABF66640020012084F85F
:107960004800B4F83700A4F84C00681C1ABF25651D
:107970000020012084F85400E06D84F8580094F849
:10798000390084F85900F8BD3F4800F0FBB900BF4A
:107990002DE9F047044690F8680058B3DDF82080E0
:1079A000FE26B8F1000F2CD0DDF824A0BAF1000FAC
:1079B00027D0DAF80000E8B120680D46994617464E
:1079C000816820468847204600F060F8A0B1204634
:1079D00029464A463B46FFF7A4FF201D04F13C011F
:1079E0004246534602F088F90646002818BF4FF079
:1079F000FF3602E0FF2604E0FF262068C16820462B
:107A0000884770B2BDE8F0872DE9F047044690F84A
:107A1000680058B3DDF82080FE26B8F1000F2CD0A6
:107A2000DDF824A0BAF1000F27D0DAF80000E8B1A1
:107A300020680D46994617468168204688472046AB
:107A400000F024F8A0B1204629464A463B46FFF7FD
:107A500068FF201D04F13C014246534602F093F9B1
:107A60000646002818BF4FF0FF3602E0FF2604E06C
:107A7000FF262068C1682046884770B2BDE8F087BD
:107A8000014800F07FB900BFB02A0008B0B5064D2C
:107A900004462868A04203D02046FFF79FFE2C60D2
:107AA00094F86800B0BD00BFC02A0008F8B50446CD
:107AB00015480F4630211D46164608302060201D0F
:107AC000FBF70BFA089800214FF40032A4F8740079
:107AD0000798A4F872000698A4F87000A4F86E50F5
:107AE000A4F86C60A4F86A70218762630998074A59
:107AF00084F86810C4E9171260662046FFF76EFE2E
:107B0000204601B0F0BD00BF90B8001040420F0009
:107B100000F086BA90F814C0BCF1020F07D0BCF197
:107B2000010F1CBF4FF0FF30704700F017BA00F094
:107B30003DBAB0B50C460968054600F0FCF9A968E5
:107B40004840206028688168284688470020B0BDEA
:107B500070477CB506464068069C2060304600941D
:107B6000FFF7D8FF28B1054630688168304688475E
:107B700007E030462146FFF7DCFF002508B125600D
:107B80000546284602B070BD00F04ABA7047007B37
:107B900070470000F8B51A4D04460E4605F108007E
:107BA00000F0F0F80DE0AF6857B13846FBF7C2F8C7
:107BB000B04205D1384621463246FBF78FF888B1EE
:107BC00004352D68002DEED1072E05D10DA02146DC
:107BD0000722FBF783F850B10948083000F0D2F8CB
:107BE00000250AE00648083000F0CCF805E0044C17
:107BF00004F1080000F0C6F86568284601B0F0BD41
:107C0000A027000864656661756C740010B50446B1
:107C100000F008F820B16068002818BF043810BDD3
:107C2000002010BD406838B180B5FFF7B0FF0138C3
:107C3000B0FA80F0400980BD0020704710B50446BE
:107C400000F00DF820B16068002818BF043810BD9E
:107C5000002010BD4068002818BF01207047406810
:107C600030B180B5FFF793FFB0FA80F0400980BDD6
:107C7000002070470068704770B50E460025044626
:107C80000CA1C0E900553046FBF71AF8304402E079
:107C90002F2A06D0013541192160425D002AF7D113
:107CA00001E0013121602946FFF774FF6060204642
:107CB00070BD00BF2F00000070B5234D044628465C
:107CC00000F060F8204600F0C2FD0646204600F0B5
:107CD000ACFD00F0A7F96060284600F053F8002ED4
:107CE00018BF4FF0FF36304670BD00BF2DE9F041A0
:107CF000DFF8548007461C4615460E46404600F005
:107D000041F8384629463246234600F0DBFD04465A
:107D1000404600F037F82046BDE8F08170B50A4DC6
:107D20000446284600F02EF8204600F07AFD06466C
:107D3000606800F073F9284600F024F8002E18BFA0
