:1000000000000420352B00006D2B00006F2B00003A
:10001000712B0000732B0000752B00000000000006
:10002000000000000000000000000000772B00002E
:10003000792B0000000000007B2B00007D2B0000CE
:100040007F2B00007F2B00007F2B00007F2B000008
:100050007F2B00007F2B00007F2B00007F2B0000F8
:100060007F2B00007F2B00007F2B00007F2B0000E8
:100070007F2B0000D94300007F2B00007F2B000066
:100080007F2B00007F2B00007F2B00007F2B0000C8
:100090007F2B00007F2B00007F2B00007F2B0000B8
:1000A000894400008F4400007F2B00007F2B00005C
:1000B0007F2B00007F2B00000000000000000000EC
:1000C0007F2B00007F2B00007F2B00007F2B000088
:1000D0007F2B00007F2B00007F2B00007F2B000078
:1000E0007F2B00007F2B00007F2B00000000000012
:1000F000000000007F2B0000000000007F2B0000AC
:1001000010B5054C237833B9044B13B10448AFF351
:1001100000800123237010BDE802002000000000D1
:10012000EC8100000C4B43B10C480D4910B5AFF306
:1001300000800C48036823B910BD0A48036833B92E
:100140007047094B002BF7D0BDE810401847064B0D
:10015000002BF5D0184700BF00000000EC81000024
:10016000EC020020E402002000000000154B002BF0
:1001700008BF134B9D46A3F5803A00218B460F46DE
:100180001348144A121A06F03DF90F4B002B00D009
:1001900098470E4B002B00D0984700200021040008
:1001A0000D000D48002802D00C4802F06DFC06F04E
:1001B000DBF82000290002F0A1FC02F062FC00BF85
:1001C000000008000000042000000000F12A0000E8
:1001D000E8020020A8490020892A00000000000051
:1001E00000207047002070470368DB6A184704202E
:1001F00000217047D0F81401002170470048704773
:10020000DA73000000F59070D0E900017047FF201C
:100210007047282A07DD91F8283001201B1123B1EF
:100220004000013BFBE74FF4807070472DE9F74F2A
:100230009946FF23C9F8003080461C2A4878C9F83F
:10024000000006DC244805F02FFA002003B0BDE8CA
:10025000F08F0C9C0D9E214A0D4604F1100B0127D6
:1002600000219A46C4F800A0287F012310B15B004A
:100270000138FBE7012B33601FD06B7F23603368AD
:10028000D8F81401834200D308B9C8F81431336890
:10029000B3F5805F0CD12168D9F800308B4218D0BB
:1002A000C9F800101046019205F0FEF9019A0121EB
:1002B00098F808313B4388F8083104347F005C45E6
:1002C000FFB205F1020506F10406CBD10029BCD12D
:1002D000B8E70121ECE700BF816F0000B06F0000BC
:1002E00070B5049D059C0026102A1E702E7013DD2B
:1002F0000A7CD20610D5CA7E226001221A702A70AA
:100300008E7E06F01F0202EB5612C0F82C2102224C
:1003100080F8292180F82B2100222A708A7856063D
:100320000ED54A7A226001221A700A7A02F01F035F
:1003300003EB5213C0F82C31022380F829310DE071
:1003400015060FD5CA7A226001221A708A7A02F045
:100350001F0303EB5213C0F82C31022380F82B311A
:10036000002070BD0B7CDE070AD5CB7D23608A7D23
:1003700002F01F0303EB5213C0F82C310123DCE71A
:10038000950603D5CB7B23608A7BF1E7D307E7D5BE
:100390004B7B23600A7B02F01F0303EB5213C0F870
:1003A0002C310123DAE7F0B51D4600F590731446B1
:1003B000D3E90023AB4208BFA24216D3D0F888107D
:1003C00099B101290FD000EBC1008B1EB030002B7A
:1003D0000BDB70E90267AF4208BFA64201D2581C8E
:1003E000F0BD013BF3E70020F0BD4FF0FF30F0BD62
:1003F00038B50546FFF7D7FF431CD5F8144109D09F
:100400002844002390F808110122114205D01E3320
:1004100055F823402046E11738BD01335200042B24
:1004200052B2F2D1014805F03FF9F3E76F690000DD
:10043000F0B5059E00F18407032400200825F31A77
:100440000E782E4208D03868904201DA98420BDBD1
:1004500026EA05060E702046013C661C4FEA55054B
:10046000A7F10407ECD1F0BD2046F0BD1FB504ABE9
:10047000089C43F8044D04308DE80C00069B4FF0B7
:10048000FF3201F07CF920B1034805F00DF94FF07F
:10049000FF3004B010BD00BF226D00002DE9F04315
:1004A00095B0002304AD02928DE80A0003932A461A
:1004B0005A210446FFF7DAFF38B12D4805F0F4F869
:1004C0004FF0FF3015B0BDE8F0839DF8103003F019
:1004D0000303032B04D09DF811300BB92548EDE739
:1004E0009DF8122001320A2AC4F8882004DD0A216E
:1004F000214805F0D9F8E3E7002304F18C0904F55D
:10050000847804F1B80C4FF00F0E18460130824287
:1005100055F8201015F8206021F0FF0101F58071D9
:1005200049F8041B01F1FF3106F00F060B4408F8EF
:10053000016B4FEAE3770EEA060E1E46ECE802670F
:1005400003F10103E2DC0122002312EA0E0006D0CF
:100550001E33002054F82330C4F81431B2E70133BD
:100560005200042BD2B2F0D1C4F81401AAE700BFA4
:10057000526E00007F6E0000CF6E000013B5069B28
:1005800004308DE80C00049B4FF0FF3201F02EF98F
:10059000044610B1024805F087F8204602B010BDAD
:1005A000376E00001FB522F07F42002322F47F62E5
:1005B00002930193009322F00F02043001F04DF9F1
:1005C000044610B1024805F06FF8204604B010BD93
:1005D000376D000030B585B004300B9B02930A9B49
:1005E0000193099B0093089B0D4601F036F90446E0
:1005F00018B12946024805F057F8204605B030BD2D
:10060000126E000030B591F8393091F838201B0196
:1006100003F0100343EA1213013B87B004460F2B8B
:100620007CD8DFE803F008087B1B7B7B7B2B7B7B84
:100630007B7B7B7B7B51002303930293019300938D
:100640004FF0FF324FF0FF333821FFF7C3FF10B1F7
:10065000334805F029F8002007B030BD002303938C
:100660000293019300934FF0FF324FF0FF33352197
:10067000FFF7B0FF0028EED02A48EAE701230393F2
:1006800005AD0023019300930295274A00236521BD
:10069000FFF7A0FF10B1254805F006F89DF81430CB
:1006A000029543F040038DF8143001230393002397
:1006B000019300931C4A002371212046FFF78AFF13
:1006C0000028C8D01A48C4E70123039305AD0023CE
:1006D0000193009302954FF0FF324FF0FF336521F5
:1006E000FFF778FF10B1134804F0DEFF9DF81430D7
:1006F000029503F07F038DF8143001230393002348
:10070000019300934FF0FF324FF0FF3361212046F9
:10071000FFF760FF00289ED007489AE7074898E750
:100720000C6B0000456B0000030080007E6B000036
:10073000C36B0000FC6B0000356C00006D6C0000AA
:100740002DE9F041DFF8608086B0064642F2107471
:100750000327012005AD02F0E7F90322FF21284617
:1007600005F050FE002301930093039702954FF08C
:10077000FF324FF0FF3305213046FFF72BFF10B15A
:10078000404604F091FF9DF81410CB0706D5013CBC
:10079000DFD1044804F088FF204600E0012006B0C5
:1007A000BDE8F0813C6900001469000030B587B0F5
:1007B000002305AA0321ADF814308DF816300391FB
:1007C0000292019300934FF0FF324FF0FF33052167
:1007D0000546FFF7FFFE78B19DF81410194804F0A4
:1007E00063FF4FF0FF34204607B030BD164804F0D9
:1007F0005BFFF6E7044620E0039002900190009032
:100800004FF0FF324FF0FF3366212846FFF7E2FE3C
:100810000028EBD103900290019000904FF0FF323E
:100820004FF0FF3399212846FFF7D4FE0028E1D08E
:10083000064804F039FF4FF0FF342846FFF780FFE9
:10084000D1E700BFA0690000D6690000F46900008C
:1008500070B586B0002303930293019300934FF089
:10086000FF324FF0FF3306210546FFF7B3FE044683
:1008700030B1144804F018FF4FF0FF3006B070BDDF
:100880002846FFF75DFF08B90F48F3E705AE0322DE
:100890002146304605F0B6FD0323039302960194EA
:1008A00000944FF0FF324FF0FF3305212846FFF749
:1008B00091FE08B10548DDE79DF814309B07DDD4B3
:1008C0000348D7E79D6A0000C26A0000146900006F
:1008D000EA6A00002DE9F04F87B004460D469246C3
:1008E0009B460DF11008DDE91023134350D0D4F8D6
:1008F000189100274A463B465046594605F076FE79
:10090000DDE9100180185941B94208BF484534BF9C
:10091000DDF84090A9EB02094E4600272046CDE9BC
:100920000467FFF795FF30B11A4804F0BDFE1A487E
:1009300007B0BDE8F08FCDF80880CDE900AB2A46BE
:10094000616D2046FFF71AFE28B9DDE904239F42B6
:1009500008BF914505D0114804F0A6FE6FF47A60F7
:10096000E6E7DDE910231AEB090A4BEB070BB2EBC4
:10097000090263EB070320464D44CDE91023FFF73E
:10098000DFFE0028AFD1064804F08EFE0548CFE711
:100990000020CDE7F17200005CF0FFFF0D73000056
:1009A000237300005DF0FFFF2DE9F04F85B0824614
:1009B00016461F46FFF7F7FC0AEB0003DDE90E457C
:1009C00093F808318DF80F300AF59073D3E90023BE
:1009D00014EB060845EB07094B4508BF4245834623
:1009E00004D2414804F060FE404845E0DAF80030A7
:1009F0003246196C50463B46884702460B46304605
:100A0000394605F0F3FD13436BD1DAF8003018F1E5
:100A1000FF32196C504649F1FF33884702460B46B6
:100A20004046494605F0E2FD13435AD1002C56DDFD
:100A30000AEBCB082246D8F8B83000930DF10F012D
:100A400033465046FFF7F4FC0AEB80000023856F25
:100A5000D0F868902A463046394605F0C7FD13198C
:100A60009D42504694BFAD1A2546FFF7F1FE30B1C6
:100A70001F4804F019FE1F4805B0BDE8F08F22465C
:100A8000E317CDE90023494632463B465046FFF77F
:100A900089FD28B1184804F007FE6FF47A60EBE78F
:100AA0007619A4EB050447F10007002C0DDDD8E909
:100AB0002E23BB4208BFB2423FBF0BF1010B0AEB32
:100AC0000B0393F808318DF80F305046FFF738FECE
:100AD0000028ABD1094804F0E7FD0948CCE7002025
:100AE000CAE708487EE700BFF07100005BF0FFFF37
:100AF000197200005CF0FFFF477200006B7200008B
:100B00005DF0FFFF9F72000070B49DF80C409DF8EF
:100B100010509DF81460059604950394043070BC41
:100B200000F052BD2DE97F43D0F82C410E4690468F
:100B300090F8281190F82921994690F82A310394C9
:100B400090F82B4102940024019400940546FFF78D
:100B5000DBFFDDE90A23CDE90089CDE90223296D18
:100B600032462846FFF782FC90B10A4804F09CFD0B
:100B70006FF47A6600220394029401940094022395
:100B800011462846FFF7C0FF304604B0BDE8708329
:100B90002646EFE7D37100002DE9F04F8DB0924665
:100BA0009B4600220823069103931146029201926C
:100BB0000092022381460826FFF7A6FF00250022A7
:100BC0000023CDE900230296039508AA5A2148463E
:100BD000FFF74CFC18B1384804F066FD23E004220E
:100BE000364908A805F0F4FB0446002862D19DF8B8
:100BF0002530012B5ED19DF826300593A846374657
:100C00003546034646465A2102950396CDE90078BB
:100C10000AAA48460793FFF729FC079B591C28B1ED
:100C2000274804F041FD4FF0FF3427E09DF82A30BB
:100C3000012B01D02348F4E79DF8283013BB9DF821
:100C40002F30FF2B13D19DF82D309DF82E201B0245
:100C500043EA02439DF82C201343069A13609DF843
:100C60002B309B00402BA8BF4023CAF80030059AC8
:100C7000083748F100088A420B46C4DA20460DB016
:100C8000BDE8F08F512BF2D19DF82F30FF2BEED124
:100C90009DF82D209DF82E30120242EA03429DF865
:100CA0002C301A439DF82B30CBF80020169A9B006D
:100CB0001360DCE704488FE7526D0000736D00009D
:100CC000786D0000A36D0000D86D00002DE9F0479D
:100CD00086B00DF1100A05AF0023ADF810308AF888
:100CE0000230ADF81430BB7091F83A30C3F3021300
:100CF0000546052B46D8DFE803F083030A33033BA0
:100D000002238DF811304FF00308C14606E040235E
:100D10008DF810304FF001084FF003090024022332
:100D20002246214603940294019400942846FFF73A
:100D3000EBFECDF80C900297019400944FF0FF3237
:100D40004FF0FF33696E2846FFF744FCF0B12D48A1
:100D500004F0AAFC4FF0FF34204606B0BDE8F0874F
:100D600080238DF810303E2303663F234366D1E78E
:100D700002238DF81130352343664FF003084FF0FE
:100D80000109CBE7204804F08FFCBCE70646BB5DB9
:100D90001AF806201343BB550136032EF7D1284617
:100DA000FFF756FD044608B11848D1E703900290BA
:100DB0008DE880014FF0FF324FF0FF33296E284657
:100DC000FFF708FC08B11248C2E72846FFF7B8FC55
:100DD00008B91048BCE732462146384605F012FBF8
:100DE000CDF80C900297019400944FF0FF324FF031
:100DF000FF33696E2846FFF7EDFB0028ACD0A6E76D
:100E00000024A9E714690000B26C0000F172000030
:100E1000E96C0000237300002DE9F04387B00DF169
:100E200010080024022588F8024007462B46224677
:100E3000214603940294019400940DF11106ADF83B
:100E40001040ADF814408DF81650FFF75DFE039585
:100E50000296019400944FF0FF324FF0FF331521BA
:100E600038460DF11409FFF7B5FB40B1234804F0F3
:100E70001BFC4FF0FF34204607B0BDE8F083054669
:100E800018F8053019F80520134308F80530013526
:100E9000032DF5D13846FFF7DBFC044608B11848AE
:100EA000E5E7039002900195CDF800804FF0FF3206
:100EB0004FF0FF33396E3846FFF78CFB08B111480D
:100EC000D5E73846FFF73CFC08B90F48CFE72A467C
:100ED0002146404605F096FA0223039302960194B8
:100EE00000944FF0FF324FF0FF3315213846FFF7E3
:100EF00071FB0028BFD00548B9E700BF106A0000A9
:100F0000F1720000386A000023730000736A000069
:100F100070B596B00023164602928DE80A0003933E
:100F200006AA5A210446FFF7A1FA38B12F4804F067
:100F3000BBFB4FF0FF35284616B070BD9DF81A5028
:100F400015F0040503D19DF91F30002B01DA284864
:100F5000EDE7079BC4F824510133DB08C4F82031C6
:100F60000323236502236365E36DA365324606A967
:100F70002046FFF74EF904F17803019304F168036A
:100F8000C4F818010093324604F15C0306A9204618
:100F90008DF816508DF81750FFF748F9E36DA365EB
:100FA00004F1500301930DF11703009332460DF144
:100FB000160306A92046FFF793F99DF816300BB9E2
:100FC0000025B8E72046FFF727FF06A92046FFF7D0
:100FD0007DFE054608B10748A9E79DF81730002BAC
:100FE000EED006A92046FFF70DFBA4E7526E0000E5
:100FF000186F0000476F000030B5856C8BB0044659
:101000008DB16B1C09D190F94C10584804F04CFB81
:10101000A5F6A57528460BB030BD0A215448554D9C
:1010200004F042FBF6E790F83431069507950895F1
:1010300009950BB9C0F83051D4F830310133012B88
:10104000C4F83031E6D10022C4F88830022123668A
:10105000052384F82A11C4F8142184F8082184F89F
:10106000282184F8292184F82B21C4F82C216366D7
:10107000D4F81C11201D00F029FB054628B13E487C
:1010800004F012FB6FF47A65C4E72046FFF78EFB8D
:10109000013001D13948F3E70323039305AB0293F1
:1010A000019500954FF0FF324FF0FF339F2120460E
:1010B000FFF790FA054608B13148E1E79DF8143092
:1010C000BF2B0ED12046FFF7C3FB03950295019578
:1010D00000954FF0FF324FF0FF3398212046FFF785
:1010E00079FA2046FFF72CFB20B92648264D04F05C
:1010F000DBFA8FE709AB009307AA08AB06A92046E5
:10110000FFF74AFD20B12148214D04F0CDFA81E7D7
:10111000079A06992046FFF7FBFE054608B11D48D1
:10112000F2E704F59073D3E900230899C4F88C2002
:1011300012F1FF3243F1FF33C4E92E2339B1099A8A
:101140002AB12046FFF7AAF908B11348DCE70022CC
:101150000223039202920192009211462046FFF769
:10116000D3FC012384F8343154E700BF177000002A
:101170005770000059F0FFFF9E700000C170000022
:1011800001710000277100005DF0FFFF4C7100004D
:101190005EF0FFFF76710000A5710000036813B9CF
:1011A00000F10803036000687047000070B516483E
:1011B0000D46FFF7F3FF154A106809281EDC144B93
:1011C0001B685C1E03F1090114F9016FAE4218D0CF
:1011D0008C42F9D103F10A041946013391F90060F8
:1011E000013608D10D700130106000240648FFF769
:1011F000D5FF204670BDA342EED1F4E76FF00104A5
:10120000F4E74FF0FF34F1E7080300201C0300204F
:10121000180300207FB5194E9DF92850044640F868
:10122000046B0B9E03969DF9246001969DF9206046
:101230000295009600F00EFA0C9BC4F81C310020B9
:1012400004F59073002184F84C50C3E90001002399
:10125000C4F8303184F8343129462046FFF7A6FF20
:10126000A06438B1013007BF2946054805480A2166
:1012700004F01AFA204604B070BD00BFE873000005
:10128000517300009273000010B510480C46FFF730
:1012900085FF0F4B1B6803F10A001A46013392F9D0
:1012A0000010A14209D1FF2313700A4A1368002BD2
:1012B00001DD013B1360002403E08342EDD14FF0D8
:1012C000FF340248FFF76AFF204610BD08030020E4
:1012D000180300201C0300207FB590F83451064607
:1012E00025B9C0F83051284604B070BDD0F830415F
:1012F000013CC0F83041ECB903940294019400948D
:101300004FF0FF324FF0FF330421FFF763F978B15C
:10131000094804F0C9F96FF47A65B36C86F8344172
:10132000002BE0D196F94C103046FFF7ADFFDAE71D
:101330002546F2E70025D6E7D372000010B5034B2F
:1013400003600446FFF7C8FF204610BDE8730000A5
:1013500010B50446FFF7F2FF204601F0C3FB20461C
:1013600010BD000008B50A2001F0ACFBFF21431EB0
:1013700000F1090203F8011F9342FBD1014B1860F1
:1013800008BD00BF180300207047704701F0CABDB8
:1013900001F0B8BD01F0C8BD01F0ACBD01F0C6BDA3
:1013A00070B50B4E05463046FFF7F8FE284601F0B3
:1013B00021FD0446284601F0B5FD01F083FB68607D
:1013C0003046FFF7EBFE201C18BF0120404270BDE5
:1013D0002003002038B505460948FFF7DFFE284600
:1013E00001F026FD003018BF01204442686808B1B2
:1013F00001F07AFB0248FFF7D1FE204638BD00BF5E
:10140000200300202DE9F0410A4C0F461646054600
:1014100098462046FFF7C2FE43463A4631462846E4
:1014200000F078FF05462046FFF7B8FE2846BDE8E5
:10143000F08100BF200300202DE9F74F16469946A2
:1014400080460F4601F06EFD0546404601F052FD14
:101450008246404601F068FDB6FBF5F305FB1364D8
:1014600004B917B94FF0FF3353E009EB0603824488
:101470005345F7D82948FFF791FE2346B9F1000FED
:1014800042D0002B40D13146404601F03BFDB6FB37
:10149000F0F400FB1464041B4C4528BF4C46BB070A
:1014A00001D1A54229D9AC4228BF2C462246394653
:1014B000D8F8040004F09BFFAC4206D2D8F8040030
:1014C0002A1BFF21204404F09DFFD8F8043001932B
:1014D000AB464FF0100A5B46019A3146404601F098
:1014E000CDFC034620B1BAF1010AF4D14FF0FF332D
:1014F000A9EB040926442744C0E7B4FBF5F405FB37
:1015000004FB5C460197E4E704480193FFF746FEBD
:10151000019B184603B0BDE8F08F00BF20030020F8
:101520002DE9F0410D461646074601F0E3FC04465E
:10153000384601F0F9FC2044AC19A04203D24FF028
:10154000FF30BDE8F08119D81548FFF727FE0024C9
:10155000FEB1F4B94FF010082946384601F06AFC94
:10156000044620B1B8F10108F6D14FF0FF34294606
:10157000384601F0C7FC361A0544E9E721463846EB
:1015800001F0C0FCB4FBF0F303FB10400028D6D1FF
:10159000DAE70348FFF702FE2046BDE8F08100BF0E
:1015A0002003002070470000034B1A6812B903F1B2
:1015B00008021A60704700BF3003002010B50446CF
:1015C00001F090FA204610BDF8B51D4603680446A8
:1015D0009B680F46164698479DF81830E3729DF8B1
:1015E0001C3023739DF820306373099B23632368A9
:1015F000277220466672A572DB6898470020F8BD06
:1016000010B50446806B012886B004D9002084F808
:101610003C0006B010BDC0B20490606B039094F91A
:101620004200029094F94100019094F9400000902A
:1016300094F93F3094F93E2094F93D10201D03F0B9
:1016400001FB28B9012384F83C3094F83C00E0E722
:101650000023F8E738B580F83F309DF9103080F866
:1016600040309DF9143080F841309DF9183080F8F1
:10167000423002230C4D8372079B05608363002573
:101680000A4B4560044680F83D1080F83E20057204
:101690004572C572057345730563436380F83C501A
:1016A000FFF7AEFF204638BD3474000040420F0003
:1016B00038B5054D2B688342044602D0FFF7A0FFE2
:1016C0002C6094F83C0038BD4003002038B590F8F9
:1016D0003C3004460D46D3B103689B6898470D4BD8
:1016E00065631B689C420DD12946201D03F0DAFA80
:1016F000003018BF0120454223682046DB68984728
:10170000284638BD2046FFF7D3FF0025F4E74FF009
:10171000FF35F5E740030020F8B504460F461646AE
:101720000021202210301D4604F06CFE237A237421
:10173000791C14BF00230123A374637A18BF677454
:101740002375721CA37A637514BF002301232377CA
:10175000E37A84F82030237B18BFA66184F8213017
:101760006B1C14BF0023012384F82830236B84F8FA
:101770002C30637B18BF656284F82D30F8BD2DE9ED
:10178000F843984690F83C30089E099C05460F4661
:10179000914643B324B31EB3236823B303689B6805
:1017A00098472846FFF784FFB8B14B464246394672
:1017B0002846FFF7B1FF2346324605F11001281DE8
:1017C00003F022FB003018BF012044422B6828465A
:1017D000DB6898472046BDE8F8834FF0FF34F5E713
:1017E0006FF00104F6E74FF0FF34F3E72DE9F8431B
:1017F000984690F83C30089E099C05460F46914655
:1018000043B324B31EB3236823B303689B6898478C
:101810002846FFF74DFFB8B14B46424639462846A9
:10182000FFF77AFF2346324605F11001281D03F029
:101830002FF9003018BF012044422B682846DB688E
:1018400098472046BDE8F8834FF0FF34F5E76FF086
:101850000104F6E74FF0FF34F3E7F7B51D4690F8C3
:101860003C3004460E46174633B303689B689847DE
:101870002046FFF71DFFE0B14FF0FF333A463146F7
:101880002046FFF749FF0A9B0193099B00932A46D4
:10189000089B04F11001201D03F012F9003018BF5D
:1018A0000120454223682046DB689847284603B05C
:1018B000F0BD4FF0FF35F5E74FF0FF35F6E70000DC
:1018C000052804D00628034818BF002070470248A6
:1018D000704700BF74780000447800000C2200219B
:1018E00004F090BD10B50446A8B103689BB14068F0
:1018F00008B15B6A9847A06838B12368D968490085
:1019000000F028F9A06804F05BFD20460C21BDE83A
:10191000104000F01FB910BD70B5044616460D46C4
:1019200099B190B10B6A9847606048B156B1E968C7
:10193000022004F011FDA06020B96B6A606898472E
:10194000034870BD2560002070BD024870BD00BF17
:1019500080AEFFFF00AFFFFF2DE9F0410E4688B0DB
:1019600017460446002857D00368002B54D08268DD
:10197000002A51D0DA68BA4217D21B6940689847EA
:101980000546002834D1236860685B693A463146D1
:101990009847054660BB236860689B69694698471D
:1019A000054628BB23689F686E462368D4F80880E4
:1019B000DA683621404608EB020504F023FD23686F
:1019C0005C21DA68284604F01DFD013E4346681E8E
:1019D00047449F4214D1236860681B6998470546B5
:1019E00030B9236860685D69DA684146A8470546F2
:1019F0002021684600F0AEF8284608B0BDE8F08126
:101A000071781A784A4003F8012B427816F8011FC2
:101A10004A4000F8012FDCE7004DEDE700AFFFFF83
:101A200010B440B1036833B1846824B15B69406885
:101A30005DF8044B184702485DF8044B704700BF3F
:101A400000AFFFFF2DE9F0410E4688B0044630B3E9
:101A5000036823B3856815B3D3F80C8040689B698D
:101A600069469847C0B9236860681B69984798B968
:101A7000236860685F69DA6805EB0801B84758B900
:101A8000236860685D699A686946A84720B9236839
:101A900060689B693146984708B0BDE8F08101480D
:101AA000FAE700BF00AFFFFFF0B50E4685B017465E
:101AB0001D46044610B301A8FFF710FF214601227E
:101AC00001A8FFF729FF044690B93A46314601A81C
:101AD000FFF742FF044658B90A9A294601A8FFF7C2
:101AE0009FFF044620B90B9901A8FFF7ABFF0446FE
:101AF00001A8FFF7F7FE204605B0F0BD004CFAE75D
:101B000000AFFFFF00F08EB800F035B810B5044606
:101B100000F02CF82046BDE8104004F051BC10B590
:101B20006C21012004F018FC044608B100F01AF8FA
:101B3000204610BD012300F0EAB9002300F0E7B908
:101B400000F04FB900F00CB9012100F019B80021E4
:101B500000F016B8024B0A461B680021184700BF68
:101B6000040200206C22002104F04CBC10B16C2156
:101B7000FFF7F0BF704708B56C2204F038FC08BDD1
:101B8000002303604360B9B9184B8360184BC360EE
:101B9000184B0361184B4361184B8361184BC361A9
:101BA000184B036203F17453A3F52303A3F6924386
:101BB0004362816600207047134B8360134BC36000
:101BC00003F1794303F5740303F501630361104BDB
:101BD0004361104B836103F1D14303F5C01303F557
:101BE0001E63C3610C4B03620C4BE1E767E6096AB5
:101BF00085AE67BB72F36E3C3AF54FA57F520E512E
:101C00008C68059BABD9831FD89E05C107D57C3650
:101C100039590EF7310BC0FFA78FF964A44FFABEF4
:101C2000FFF7AEBF2DE9F04FCBB000F108030093F2
:101C30001A46002302A852F8044B40F8234001330F
:101C4000082BF7D102AC94E85004059BDDF824B0D2
:101C5000069D089FDDF81CC00193ADF118024FF0FE
:101C6000000EBEF10F0F62D84B7891F800901B0464
:101C700043EA0968CB7848EA030391F8028043EA13
:101C800008231364354B53F82E301846136C4FEA73
:101C9000F528184488EAB5188CEA070388EA7568BD
:101CA0002B4080447B409844019BCDF804A0D8444D
:101CB0004344184646EA04094FEA743306EA040B23
:101CC00083EAB40309EA0A0949EA0B0983EAB4532F
:101CD0000EF1010E4B44BEF1400F434401F10401EB
:101CE00002F10402BB461BD1029309970690CDF87E
:101CF00020C0079503940496CDF814A00023009A01
:101D000002A9126851F823100A440099013341F8DE
:101D1000042B082B0091F2D100204BB0BDE8F08FCE
:101D2000B24667462646AC461C46054699E7936B85
:101D3000D2F804904FEAF34888EA734888EA932877
:101D4000536A1846136818444FEAB94383EAF913F3
:101D5000804483EAD90908EB090392E7B4780000CC
:101D60002DE9F04105460F46144612B90020BDE8A2
:101D7000F081036803F03F0013449A422B6082BF56
:101D80006B6801336B6008B3C0F14006B24216D3F2
:101D900005F128083246404404F029FB4146284614
:101DA000FFF740FF0028E2D13744A61B3446311B21
:101DB0003F2C39440CD8002CD8D00F4600202835B1
:101DC00022463946284404F012FBCFE71646EDE7D9
:101DD0002846FFF727FF0028C9D1403CE7E7FFF777
:101DE000BFBF036870B503F03F030446581C23448B
:101DF000802238280D4683F8282004F1280674D85C
:101E0000C0F138020021304404F0FCFA2368616814
:101E10005A0F42EAC102110EDB0084F86010110C67
:101E200084F8611084F86320110A1A0E84F8642083
:101E30001A0C84F865201A0A84F8621084F8662067
:101E400084F8673031462046FFF7ECFE00284BD17E
:101E5000E37A2B7063896B70A3681B0AAB70A3686D
:101E6000EB70E37B2B71E3896B71E3681B0AAB7149
:101E7000E368EB71E37C2B72638A6B7223691B0A44
:101E8000AB722369EB72E37D2B73E38A6B73636937
:101E90001B0AAB736369EB73E37E2B74638B6B7408
:101EA000A3691B0AAB74A369EB74E37F2B75E38B07
:101EB0006B75E3691B0AAB75E369EB7594F8233026
:101EC0002B76638C6B76236A1B0AAB76236AEB76E0
:101ED000A36E4BB994F827302B77E38C6B77636A4A
:101EE0001B0AAB77636AEB7770BDC0F1400200213B
:101EF000304404F087FA31462046FFF793FE00286D
:101F0000F2D10146382230467EE7FFF76ABFF0B5CE
:101F10009DB01C46064601A80F461546FFF722FE57
:101F2000214601A8FFF72CFE044658B93A4631462F
:101F300001A8FFF715FF044620B9294601A8FFF7BD
:101F400050FF044601A8FFF711FE20461DB0F0BD6A
:101F500010B5072300220121C40744BF01FA03F48E
:101F6000224313F1FF334FEA5000F5D2104610BD63
:101F70002DE9F04F8FB0074606A816460D469A4643
:101F8000FFF702FA102200210AA804F03BFA56B922
:101F90006748684C03F088FB06A8FFF7F6F920466F
:101FA0000FB0BDE8F08F06A8FFF7FAF9044628B194
:101FB00001466148614C03F077FBEDE7394606A81E
:101FC000FFF7E6F907F18F039D4266D306A8FFF7F6
:101FD000E1F9804606A8FFF7DFF9404485425CD866
:101FE0000135ED1B4FEA5508A04507EB040104D964
:101FF00006A8FFF7CDF90444F6E7514B0A972D1BCD
:10200000002B0D950B940C9114BF0127022700257E
:1020100006A80AACFFF7C2F954F835200DF12008E4
:10202000814608234032414606A8FFF7EBF930B954
:1020300018F800304B4539D101300828F8D1013566
:10204000022DE5D13F4940483E4C03F02DFB06A848
:10205000FFF7C0F9A0E718F1010849F10009DDE92F
:102060000001894508BF80455ED212F8010F039236
:10207000FFF76EFF039A8BEA006B0921013911F01B
:10208000FF01E8D0BBF1000F4FEA4B03B6BFDFF80A
:10209000C4B09B4683EA0B0BF0E72C48254C03F0B9
:1020A00003FB24492A4803F0FFFAD0E7189BBDF848
:1020B000228013B1189BC3F80080C245BFD354F8E7
:1020C00035204346314606A8FFF79CF90446002810
:1020D000B5D11FFA88F20023022FCDE900234FF07B
:1020E00000084FF000094FF0FF3B06F1FF32B6D079
:1020F00013490491DDE90001894508BF804513D2E9
:1021000012F8010F03920592FFF722FF80EA1B608D
:10211000C0B20499039A51F8200018F1010880EA2E
:102120000B2B49F10009E4E7099A5A458FD086E75D
:10213000B47900000101FF80D77900000F01FF8012
:10214000447400000701FF80FF790000307A00002E
:102150006B7A0000B71DC1042DE9F34705466846B8
:102160000E46FFF711F94A49084604F01DFA68B90E
:102170004FF410432B604FF400532A681A44326026
:102180002A68CAB983B94FF0010819E041494048AB
:1021900004F00AFA10B900232B60EEE73E493C48F0
:1021A00004F002FA0028F6D03C4C6846FFF7EDF840
:1021B000204602B0BDE8F087002BF5D04FF00008B4
:1021C0006846FFF7EDF8044600285ED1344A3548EA
:1021D000354B1044A0EB030A51466846FFF7D8F888
:1021E00081466846FFF7D6F807466846FFF7D4F8F9
:1021F0000744B8F1000F2ED1D5F80080684641465B
:10220000FFF7C6F82346024681462146404604F0C1
:10221000EDF9D6F800A000FB09F90AF1FF31684694
:10222000FFF7B6F8002180461AF1FF3042462346F8
:1022300041F1FF3104F0DAF92B684B4500FB0888C7
:1022400004D13368434501D19F421AD26846FFF753
:10225000C1F8164CA9E7791E6846FFF799F80021E6
:10226000A7EB40081AF1FF304A4641F1FF312346FF
:1022700004F0BCF900FB0999C845E7D3C5F8008014
:1022800037606846FFF7A6F88FE7094C8DE700BF77
:102290009C7A0000A77A0000B47A00000901FF8050
:1022A000F8810000E8020020000200200601FF8003
:1022B0000F01FF8030B5124D2B78BFF35B8F13F009
:1022C000010487B019D1284600F0EAFBA8B10D4BF4
:1022D00004931721132211238DE80E000394152275
:1022E000142116230848FEF795FF284600F0E3FB6B
:1022F000064A0749044800F0C2FB034807B030BD56
:10230000440300200048E8014803002000020020A8
:102310003D13000008B510461A4604F068F8002086
:1023200008BD000038B504460D4690F90030AAB14A
:102330001F2B86BF03F01F030F494FF0A04101225E
:1023400002FA03F3C1F808352046012102F016FB1A
:1023500029462046BDE8384002F0FCBA1F2B86BF54
:1023600003F01F0304494FF0A041012202FA03F3D6
:10237000C1F80C35E8E700BF0003005070B50E4609
:102380000446154602F0CEFA013606D02A4620460B
:102390000021BDE87040FFF7C5BF70BD0022FFF708
:1023A000EDBF00002DE9F74FD0F804A09AF83A30BD
:1023B0000446002B46D103685B68984763681B6A34
:1023C00098423FD0DAF82030DAF80840CAF8200006
:1023D000A0EB0308DAF80C30314808EA030884421D
:1023E00046464FF0000727D0DAE90A239AF83BB0B7
:1023F000A8FB0089CDE900230025BBF1000F2BD0FD
:102400005A464046494604F0D9F8DDE9002312EB6C
:10241000080243EB090390465A46994606460F4682
:1024200004F0D8F8B8EB000069EB0101A94208BF3D
:10243000A0420AD2CAE90A01DAE90C23B6185F41C0
:10244000CAE90C6703B0BDE8F08F013647F1000719
:10245000001B61EB0501EDE722462B46404649464D
:1024600004F0C4F8224606460F46404649462B462D
:1024700004F0BCF8DDE9008918EB020849EB030918
:10248000A94508BFA04502D2CAE90A89D4E70136A6
:1024900047F10007B8EB040869EB0509F4E700BF52
:1024A00040420F00824206D98A420BD9884294BF2B
:1024B000002001207047884206D98A428CBF002044
:1024C0000120704701207047002070472DE9F04738
:1024D000466896F83A300746002B66D196F83930B0
:1024E000002B62D1FFF75EFF7D68D7F800A06B6814
:1024F000002B50D0D5E90C89D3E90001894508BFEC
:10250000804504D3DAF81430BDE8F0471847D5E920
:102510000623B0EB080861EB09094B4508BF4245AB
:102520002C6906D3AB68224A934216D1444528BF92
:1025300044462A6ADAF810301444EA681440204607
:1025400098473B685B68984722460146306AFFF728
:10255000A9FF50B33B685B69D6E795F83B20AAB169
:102560004046494604F036F8DFF84880104A18EB38
:1025700000084FF0000949EB010900234046494695
:1025800004F034F8844228BF0446D2E7A3FB0801D4
:1025900003FB0911E8E73369306AF2681844104018
:1025A000DAF81030BDE8F0471847BDE8F08700BF03
:1025B00040420F003F420F002DE9F04F436893F86F
:1025C000382085B00546002A64D193F83A30002BB4
:1025D00060D103681B6898472B68DB6998472F4BCD
:1025E00006680122002E08BF1E461F2302FA03F1CF
:1025F000B1425FFA83FB02D0013BF7D19B464768AB
:10260000264C3B1F1D2B28BF20273B1F4FF0070ADE
:1026100016F1FF300AFA03FA4FF0000343F1FF31DD
:102620003246C4FB0A0103F0E1FF6C682A6800230C
:102630002360636052680393CDE9000190472062F4
:102640006C684FF000084FF000093A46C4E90A8967
:10265000A66084F83BB00120002103F0BBFFDDE958
:102660000023C4E90623039B84F8393084F83A3008
:1026700001380123E060C4F810A02846C4E90C89A1
:1026800084F83830FFF78EFE284605B0BDE8F04FDD
:10269000FFF71CBF05B0BDE8F08F00BF40420F0040
:1026A00070B5044600F002F92368DB689847636858
:1026B00093F83A201AB1BDE8704000F001B9012248
:1026C00083F8392063685B68A3B12046FFF76AFE90
:1026D00065686E68D5E90C01D6E90023994208BF08
:1026E000904207D3F3686B602B68002BEAD0B06888
:1026F0009847E7E76368002283F839202046FFF710
:10270000E5FED8E738B50446FFF756FF00F0CEF8EF
:102710002046FFF747FE6368D3E90C4500F0D0F888
:102720002046294638BD08B5FFF7ECFF08BD00007C
:1027300000487047BC7A0000024B1B680BB102488E
:102740001847704708020020BC7A000003F0BEBEA4
:1027500003F06EBE03F05EBEF0B572B6234A244F9E
:10276000002313604FF0E0224FF0FF36516801F074
:102770000F0101311D469A0002F1604202F56142EB
:102780004FEAC30EC2F88060C2F88061002202EBFB
:102790000E043C440132082A84F80053F7D1013377
:1027A0009942E8DC134B4FF020625A6040F2FA5233
:1027B0009860DA6000221D6111469C1801320C2AD3
:1027C0002176FAD14FF0FF3259629A620A4ADA62F0
:1027D0001F221A634168036840F2000282F31488E2
:1027E0009D4682F310880847F0BD00BF10E000E06E
:1027F00000E100E000ED00E0020000C083B500F061
:1028000055F80D2101A8FFF7C9FD254D254F0426D8
:102810009DF904301F2B8ABF2A464FF0A04203F0D7
:102820001F03012404FA03F3C2F80835384600F008
:102830006CF99DF904301F2B86BF03F01F032A4655
:102840004FF0A0429C40C2F80C45384600F05DF9BC
:10285000013EDDD1144F04269DF904301F2B8ABFA1
:102860002A464FF0A04203F01F03012404FA03F3A9
:10287000C2F80835384600F048F99DF904301F2B9E
:1028800086BF03F01F032A464FF0A0429C40C2F8C7
:102890000C45384600F039F9013EDDD1B6E700BFFE
:1028A00000030050F0490200801A060008B500F04D
:1028B00091FA024A13680133136008BDC004002076
:1028C000054B1A6832B11A68013A1A601B680BB9D5
:1028D00000F088BA704700BFC00400200122D0E891
:1028E0004F3FC0E8412F0029F9D1D8B2003018BFBE
:1028F0000120704750E8003F5B1A40E80032002A90
:10290000F8D118467047000070B5164C90B034EA04
:10291000200428BF04460D46164600214022684682
:1029200003F070FD8DE850000295FFF7BFFF0E4ADF
:1029300013680133012B136004D1402269460B4810
:1029400003F055FD40226946094803F050FD094B4C
:102950001B680BB106489847FFF7B2FF002010B084
:1029600070BD00BF0101FF80C4040020D00400201E
:1029700010050020C804002010B50A4C00F13C01ED
:102980000346002013F8012B80EA02600822002889
:102990004FEA4000B8BF6040013AF8D18B42F1D114
:1029A00010BD00BFB71DC10408B504461A487646DD
:1029B0001546FFF793FF20B9324629462046FFF718
:1029C000A3FF1648164CFFF7D7FF164BD3F8BC20D1
:1029D000904208BFD3F8B43011480CBF0133012333
:1029E00063630023A363FFF7C7FFE063FFF75EFFA6
:1029F00040220B49094803F0FAFCFFF761FFBFF3DF
:102A00004F8F0949094BCA6802F4E0621343CB6057
:102A1000BFF34F8F00BFFDE7CC04002080010020F2
:102A2000100500200001002000ED00E00400FA0580
:102A30000C4A136810B51844EFF30881884205D397
:102A4000094B0C221A604FF0FF3010BD07490C688B
:102A500024B10749096821448842F1D21060184620
:102A600010BD00BF0C020020A4490020500500202A
:102A70005405002008B508B1FFF7C0FEFEE70120AD
:102A8000704708B5FFF7F6FF0120704770477047A1
:102A900008B5FFF7FBFF08BD08B5FFF7F8FF08BD55
:102AA000037803F00302012A1DBF43F00203037001
:102AB000012000207047037823F0030343F0010353
:102AC0000370704713B5044603F072FC034628B93F
:102AD0000090014622460248FFF766FF02B010BD93
:102AE0001F01018003F06CBC03F06ABC70477047A3
:102AF00008B500F081FAFFF7FAFF08BD08B5FFF747
:102B0000F5FFBDE8084003F015BA70B50446FFF7BD
:102B10000FFE0646FFF707FE05463046FFF703FEA9
:102B2000401BA042F9D370BD4FF47A735843FFF7AE
:102B3000ECBF00000749084A084B9B1A03DD043B21
:102B4000C858D050FBDC06488047064880470648F6
:102B500000470000F881000000020020E802002089
:102B6000B12B0000D12F00006D010000FEE7FEE751
:102B7000FEE7FEE7FEE7FEE7FEE7FEE7FEE7FEE72D
:102B80001030024B43F82010704700BF00000020B7
:102B9000054B1B68082B01BF044B1868B0FA80F086
:102BA000400918BF002070473001001034010010A8
:102BB00008B5FFF7EDFF40B14FF080430022C3F8A6
:102BC0000C21C3F81021C3F83825FFF7E1FF0028D6
:102BD00046D04FF08052714BD2F80414C3F8201540
:102BE000D2F80814C3F82415D2F80C14C3F8281529
:102BF000D2F81014C3F82C15D2F81414C3F83015F9
:102C0000D2F81814C3F83415D2F81C14C3F84015C0
:102C1000D2F82014C3F84415D2F82414C3F8481588
:102C2000D2F82814C3F84C15D2F82C14C3F8501558
:102C3000D2F83014C3F85415D2F83414C3F8601520
:102C4000D2F83814C3F86415D2F83C14C3F86815E8
:102C5000D2F84014C3F86C15D2F84424C3F8702598
:102C6000FFF796FF10B14E4B4E4A1A60FFF790FFE8
:102C700018B14D4BFB22C3F81825FFF789FF48B167
:102C80004A494B4B0A681B6822F00F0203F00F03FE
:102C900013430B60FFF77CFF18B1464B4FF40072F3
:102CA0001A60FFF775FF48B14FF08043D3F8002456
:102CB000D20744BF6FF00102C3F800243E4AD2F8A5
:102CC000883043F47003C2F88830BFF34F8FBFF3EE
:102CD0006F8F4FF01023D3F80022002A03DBD3F8C4
:102CE0000432002B2FDA354B0122C3F80425D3F828
:102CF0000024002AFBD04FF010221221C2F800124B
:102D0000D3F80024002AFBD04FF010231222C3F87E
:102D100004222A4B1A46D3F800140029FBD00021C4
:102D2000C3F80415D2F80034002BFBD0BFF34F8F4B
:102D30002149234BCA6802F4E0621343CB60BFF31E
:102D40004F8F00BFFDE71F4B1F4A1A604FF08043B3
:102D500001220021C3F81825C3F804119A60D3F8A2
:102D60000421002AFBD01949CA6842F08072CA6067
:102D7000D3F85C2542F48032C3F85C25D3F85C2597
:102D800042F00302C3F85C254FF0A04340F2013249
:102D9000C3F848270E4B00221A6108BD00C000404E
:102DA0008C5600404881030000F00040E40E0040D3
:102DB000580200104096024000ED00E000E00140A3
:102DC0000400FA05100200200090D003F0ED00E0AE
:102DD000000004E0024803780BB100F083BD7047A7
:102DE00014020020024B012200201A7000F088BD5E
:102DF000140200200B4B187810B5002288B10A4845
:102E00001A704FF08051C2604C690B6907494260EB
:102E100063438260036101F0ACFB003018BF012006
:102E2000404210BD15020020D0020020047B0000AB
:102E3000002070472DE9F0410E4601F0B3FD0D4F23
:102E4000DFF8348005460424401BB84201D8042C26
:102E500005D0201C18BF01204042BDE8F0810023AE
:102E600001223146404601F0C3FB044601F09AFDC1
:102E7000EAE700BF3F0D0300D00200202DE9F04F2C
:102E800085B03ABB4FF0FF3005B0BDE8F08F2B683E
:102E9000039301F087FD06EB050B824600230093A8
:102EA00003AA04235946404601F06CFB044601F096
:102EB00079FDA0EB0A00484509D90435002CE1D181
:102EC000BD42E4D1201C18BF01204042DCE7042CA5
:102ED000E4D0F2E723F00303D71815460E248E1A28
:102EE000DFF80880DFF80890EAE700BFD002002092
:102EF0003F0D0300024B1869DB68C01A704700BF22
:102F0000D0020020064BDA688A4205D81A6991423D
:102F100002D25B68186870474FF0FF30704700BFFF
:102F2000D00200200420704700207047FF20704727
:102F300070B5254E0446002316F933506A1C06EB83
:102F4000C30011D090F90120B2F1FF3F0CD0A5428F
:102F50001ED18A421CD140681C4B03F8104003EB81
:102F60004003451C59702DD1184B93F90000844241
:102F70001A4603D193F901308B420BD092F90230FB
:102F80009C420BD192F903508D4207D1012070BDB4
:102F90000133D1E7002070BD00230CE0013003D1E4
:102FA00092F901000130F7D00133EFD192F90330EB
:102FB0000133EBD1012302F8134002EB4302184620
:102FC000517070BD70BD00BFE47A00001602002091
:102FD000064A0748002350F8231042F82310013313
:102FE000402BF8D1034B9A60704700BF00000020CF
:102FF0000000000000ED00E007B5052101A8FFF783
:10300000CDF99DF904301F2B86BF03F01F0305493E
:103010004FF0A041012202FA03F3C1F80C3503B0CE
:103020005DF804FB000300500023435082B0435876
:103030000193019B02B07047074A28235843131895
:103040000021597413581A6A586A1AB1800701D5B9
:10305000D8691047704700BFC0050020074A2823E1
:10306000584313180021597313581A6A596A22B128
:10307000C90702D50121D86910477047C005002053
:10308000084A28235843131800215973D973135839
:103090001A6B596B22B1490702D504219963104775
:1030A000704700BFC0050020124B53F82020124B80
:1030B00010B54FF4A671C2F8083304461046FFF766
:1030C000B3FF4FF488711046FFF7AEFFD2F800321D
:1030D00023F02003C2F80032084B282101FB0434FE
:1030E00001232374002384F824301023C2F804330E
:1030F00010BD00BFF07A000010000800C0050020DD
:10310000524B2DE9F34753F82050D5F810310446BF
:10311000D3B14FF488712846FFF786FF28264C4824
:1031200006FB04F142188146137C002B44D0002397
:10313000937313744358DA6B196C2AB1C80503D51D
:103140004FF4807159649047D5F84C31FBB1D5F8F4
:103150001031E3B94FF4A6712846FFF765FF3C4AEA
:1031600028236343191D1344987C80F00100014417
:10317000186A0A44C5F83425411C4FF00102C5F80D
:10318000382504D09969032958D900F00FFDD5F8E6
:10319000203173B14FF490712846FFF745FF002CA2
:1031A0004FD12C4B01221A702B4B4FF48012C3F8D5
:1031B000002102B0BDE8F087967C86F0010393748D
:1031C000D5F83C35002BBFD001EB06081E44033672
:1031D00001F1180708F103080E440744804406442F
:1031E000924611E001A9DAF8140001F088F968B1FB
:1031F00018F8013F037001A9DAF8140001F0A9F9E9
:1032000001213846FFF776FBB045EBD1282303FBBD
:10321000049999F81130002B96D1012389F81130C7
:103220003CB90E4A13700C4B4FF48012C3F80021C6
:103230008AE7012C88D10A4B1C70F4E783F824201C
:10324000A5E7012CB5D1074B1C70ADE7F07A000063
:10325000C00500201206002000E100E0100600205A
:1032600011060020130600200120FFF749BF0020AF
:10327000FFF746BF2DE9F041174B184F53F8204098
:10328000DFF85C80C4F80883282545437E1904359F
:10329000706901F012F92023B3614FF4A671204642
:1032A000FFF7C2FE4FF488712046FFF7BDFED4F849
:1032B000003243F02003C4F8003200233D440122D1
:1032C000B374C4F834553374C4F8382586F8243000
:1032D000C4F80483BDE8F081F07A0000C005002046
:1032E0001000080008B5174B1A7832B1002018708A
:1032F000154BDB7BF3B1FFF7C3FE144B1A781AB101
:1033000000201870FFF798FE114B1A7842B1002286
:103310001A700D4B93F8373001207BB1FFF7B0FEE8
:103320000C4B1A786AB100221A700120BDE80840DF
:10333000FFF782BE1846FFF791FEDEE7FFF78EFE2D
:10334000EEE708BD12060020C00500201006002090
:10335000130600201106002041682DE9F8434D1C9A
:10336000044610D01F2987BF01F01F03474A0B46B0
:103370004FF0A0420120984003F5E073C2F8080521
:10338000032042F82300A268501C0CD01F2A8BBFD8
:1033900002F01F0313463D484FF0A04003F5E073D1
:1033A000002540F823502368394E56F82300C0F812
:1033B0000C15C0F81425227D012A15D1E268511C94
:1033C0000CD01F2A8BBF02F01F0111462F4D4FF06A
:1033D000A04501F5E071002745F821704FF0FF315D
:1033E000C0F80815C0F810252A4D2169282707FBC9
:1033F00003531A6A91423CD0187F00F067FE23689D
:1034000007FB03531B6A013302D0206900F086FBDF
:103410002069431C27D0204900F016FB082806D15C
:10342000206900F07BFB1C49206900F00DFB23683C
:10343000206956F823704FF0280808FB035207F55F
:10344000887792F81C9000F0A3FB39460246484664
:1034500000F006FE236808FB0353187F00F020FEEF
:10346000206900F083FB2368282202FB03552369AF
:103470002B622368217D56F82320637D0B43C2F81D
:103480006C35A369C2F82435BDE8F8830003005009
:10349000F07A0000C0050020EC7A000070B50468E6
:1034A000164E28226243B118B2589042054602D106
:1034B00090F82C3083B12846FFF74EFF2823634352
:1034C0002046F550002385F82C3095F82D304BB16F
:1034D000BDE87040FFF7E8BD90F82D200B7C4AB99D
:1034E0005BB12046FFF7C6FE054B53F8243001229E
:1034F0001A6070BD0BB92046EAE770BDC005002018
:10350000F07A00004D4B2DE9F04790461A784C4D6B
:1035100004460F46002A47D000221A7000F06AFDC8
:1035200000F088FA08B900F059FA464E4649DFF82B
:103530004CA11420FFF724FB0721142000F0ECF924
:10354000212201234149304600F0A4FF6E6100268C
:103550002E603F4800F058FD3E4B3F494FF0FF3989
:10356000C5F820900220C3F80893FFF709FB314605
:10357000022000F0D1F9012321223849504600F001
:1035800089FFC5F83CA0AE62354800F03DFD354BE3
:10359000C5F848903449C3F808932820FFF7F0FA9B
:1035A0003146282000F0B8F941463846FFF7C0FC04
:1035B00028234343EA18206096680136012E96605E
:1035C0001AD00023637523752362284B284AA26111
:1035D0009C424FF0FF326760C4F80880E2602261CD
:1035E0004FF0010301D1234A136084F82C302046A8
:1035F000BDE8F047FFF752BF1F4A52F820200821CC
:10360000C2F800150C334FF0FF31C2F80C151D4401
:10361000C2F814154FF08051C2F824151046C2F8B4
:1036200044554FF49071C2F84865FFF7FDFC966071
:10363000D2F81C31002BFBD0C3E700BF1A020020D8
:10364000C00500207C050020E53200005805002060
:10365000DC050020002000406F3200008C050020B7
:103660000406002000800240693200001406002099
:103670000050270080060020F07A0000B0050020EE
:10368000B1F5166F35DBB1F5965F35DBB1F5165F39
:1036900035DBB1F5615F34DBB1F5964F33DBB1F566
:1036A000E14F32DBB1F5164F31DBB1F5614F30DB65
:1036B000B1F5963F30DBB1F5E13F30DBB1F5613F6D
:1036C0002FDB1E4B99422FDDB1F5E12F2FDBB1F53A
:1036D000612F2FDB1A4B9942D4BF4FF070614FF02E
:1036E0008051836999421EBF0123816180F82C308B
:1036F00070474FF49E21F4E74FF41D21F1E7114983
:10370000EFE71149EDE71149EBE71149E9E7114905
:10371000E7E74FF41D01E4E74FF46B01E1E70E49E1
:10372000DFE74FF0EB71DCE74FF06C71D9E74FF05A
:103730008061D6E74FF0E861D3E700BF8FD0030088
:103740003F420F0000B013000050270000F03A0085
:1037500000A04E0000C0750000903A0137B5046823
:103760000D46FFF79BFE134B53F82420D2F81C3173
:10377000002BFBD00023C2F81C31D2F81C3101937E
:10378000019B0D4828236343C4180C33034425735D
:103790000124C2F844354FF49071C2F848451046F0
:1037A000FFF742FC4FF48073C2F80433946003B017
:1037B00030BD00BFF07A0000C0050020014B43601F
:1037C00000207047F87A00000846704700207047D4
:1037D000024B1868003018BF012070478406002093
:1037E00008B510461A4602F002FE002008BD00008F
:1037F00010B50022054B53E8001F01EA020043E820
:10380000000494F0000FF6D110BD00BF8406002024
:1038100008B5FFF7EDFF002008BD00002DE9F041DD
:1038200015461F4686B080460E460122144B53E8CB
:10383000004F44EA020143E8001090F0000FF6D177
:10384000E4B9A54212D1FFF7D3FFD8F8083000241D
:1038500093B1022201A88DF80420029403960495E6
:1038600005979847204606B0BDE8F08106EB043086
:1038700000F088FB0134E4E71846F4E71120F2E792
:10388000840600202DE9F0410F4686B0114680469F
:103890001E460124124A52E8005F45EA040342E84A
:1038A000003090F0000FF6D1BDB9B208384600F0F4
:1038B00081FBFFF79DFFD8F8082062B10C9B8DF8C3
:1038C000044001A802950397049605939047284663
:1038D00006B0BDE8F0811046FAE71120F8E700BF16
:1038E0008406002072B6054A1378191C18BF0121FE
:1038F0000133017013700020704700BF880600205C
:10390000044B20B11A78013A1A70002070471870E1
:1039100062B6FAE78806002000284FEA411114DB5E
:1039200000F1604300F01F02400903F5614380008D
:10393000C9B200F1604083F8001300F56140012333
:103940009340C0F880310360704700F00F00024BD5
:10395000C9B21954704700BF14ED00E000F1804077
:1039600000F5C040002382B0036003680193019B0F
:1039700002B0704703681F2B83BF03F01F0303606F
:1039800001484FF0A04070470003005007B502AB5C
:1039900043F8040D1846FFF7EDFF019B00EB830091
:1039A000D0F8003723F44033C0F80037D0F80037A0
:1039B00043EA0141C0F8001703B05DF804FB0000C2
:1039C000054B4FF0FF32072843F8202084BF1B1817
:1039D00083F85820704700BF8C06002010B5134CA8
:1039E00094F86430FBB9FF21E2180133302B82F8E0
:1039F0003010F9D10021C8B2FFF7E2FF01310C29E4
:103A0000F9D107210620FFF787FF4FF4BE70FFF7BB
:103A1000A5FF074B4FF00042C3F80423012384F8AD
:103A20006430002010BD082010BD00BF8C060020AF
:103A300000600040034B93F86400003018BF012081
:103A4000704700BF8C06002030B504463248031989
:103A500085B093F9302001325BD18A78002A49D0B1
:103A6000002350F8235001354FEA83023CD1051959
:103A700002F1804202F5C04285F83030002540F85E
:103A80002350D2F810550B78487825F499151B046B
:103A9000000525F4F85500F4801003F44033C2F813
:103AA000105503432002D2F8105500F47C50034314
:103AB0002B43C2F810354A78012A1FD104A840F8D8
:103AC0000C4DFFF757FF019B9A40C0F8082504A84A
:103AD00040F8044DFFF74EFF039B03F5E07303220C
:103AE00040F82320002003E00133082BB9D1042043
:103AF00005B030BDFE2283F83020DCE704A840F892
:103B0000084DFFF737FF029A01239340C0F80C35A8
:103B1000DDE70820ECE700BF8C06002037B511492F
:103B20000D18044695F83000072809D8FFF748FF1C
:103B300095F930300C4A03F5A273002042F82300B7
:103B400002A80B19FF2240F8044D83F83020FFF73C
:103B500011FF019B03F5E073022240F8232003B01C
:103B600030BD00BF8C06002000600040074B1844A9
:103B700090F930309B0003F1804303F5C043D3F844
:103B8000102542F00302C3F8102570478C06002070
:103B9000054B184490F930008000C0B200F180401D
:103BA00000F5C040704700BF8C060020064B18444B
:103BB000012290F9303018339B00DBB203F18043CF
:103BC00003F5C0431A6070478C060020F7B5344EE9
:103BD0003318054693F93030002B5FDAC878002897
:103BE0000BBF082300230C240824A34202D1042085
:103BF00003B0F0BD56F82370013718D177195CB2C5
:103C000087F8304046F8232010B9334483F85850E1
:103C10008B7873B902A84A7840F8045DFFF7AAFED2
:103C2000019B03F5E073920040F823200FE001337D
:103C3000DBE702A840F8085DFFF79CFE009B00EB65
:103C40008300D0F8003723F00203C0F80037C878AB
:103C50000A78D0B1A30003F1804303F5C0432D02DD
:103C6000D3F8101521F44F3121F44071C3F8101529
:103C70001204D3F8101505F47C5502F440321543B4
:103C80000D43C3F810550020B2E7083C344494F8C3
:103C9000605045EA821284F86020A9E70820A7E76F
:103CA0008C06002037B5214C2318054693F93020A7
:103CB000072A1ADD224492F858309B09032B10D1B1
:103CC00002A840F8045DFFF755FE019AD0F81035C0
:103CD000D340DB0707D402212846FFF757FE03B085
:103CE00030BD012BF7D00321F6E7D3B2072BF6D86E
:103CF000930003F1804303F5C043D3F8100540F06F
:103D00000100C3F8100502F14000800080B2FFF707
:103D100025FE0029E3D054F82230002BDFD0012308
:103D200003FA02F2024BC3F80423D8E78C06002002
:103D3000006000400E4B034493F93020072A02DD57
:103D40000021FFF723BED3B2072B10D8930003F155
:103D5000804303F5C043D3F8101521F00101C3F8E7
:103D60001015012303FA02F2024BC3F8082370472F
:103D70008C0600200060004037B50446FFF7DAFFEC
:103D800010490B1993F93030DAB2072A9FBF03F5B7
:103D9000A2730D48002540F8235002A8022540F8E0
:103DA000044DFFF7E7FD019B03F5E07340F8235056
:103DB0001046FFF705FE0819FF2380F8303003B0E6
:103DC00030BD00BF8C060020006000402DE9F04FA0
:103DD00089B00024614A624E624D0294039401212D
:103DE000A2F5C04052F8043B012B80B206D1D6F8B0
:103DF00004330B4202D0FFF7B1FD0C43AA424FEA55
:103E00004101EDD1584B1B68012B0ED14FF4BE7010
:103E1000FFF7A4FD4FF0A04344F00044D3F8103561
:103E20000293524BD3F81035039314F0FF0F34D1A3
:103E3000002C80F28F8004AE0023049373604C4FFB
:103E40004FF0FF33069307934FF0010800242546F7
:103E50007B1993F96020531C63D0D2B222F0C009C1
:103E600008AB4FEAD90003EB000B02F007011BF887
:103E7000083C08FA01F10B4253D007EB0903920901
:103E800093F9303057F823A0BAF1000F21D1032A5B
:103E900047D1335C0B4333541DE0354F01260025D9
:103EA000344210D0AB0003F1804303F5C043D3F894
:103EB0001005D3F8101557F8253023B1C1F301418F
:103EC000C0F3052098470135082D4FEA4606E7D193
:103ED000AEE7032ADDD001A8CDF80490FFF74AFD34
:103EE000019B03F5E07350F823301BF8180C0842CF
:103EF000C3F3014305D0022B13D1032A0BD1114682
:103F000004E0032B0DD1032A05D102214846FFF717
:103F10003DFD0134E4B2BAF1000F02D0114648462B
:103F2000D0470135042D93D1A4B14FF0A04302999D
:103F3000D3F8102503F540739142D3F8103502D120
:103F40000399994206D002920393049A059B069224
:103F500007937BE709B0BDE8F08F00BF0061004028
:103F600000600040206100407C6100400003005080
:103F70008C060020024AD2F80034002BFBD0704798
:103F800000E001400A4908B50223C1F80435BFF337
:103F90006F8FBFF34F8FC1F80805FFF7EBFF0023CA
:103FA000C1F80435BFF36F8FBFF34F8F08BD00BF5B
:103FB00000E0014070B50E4D16460122C5F80425FB
:103FC000BFF36F8FBFF34F8F0024B44207D100239C
:103FD000C5F80435BFF36F8FBFF34F8F70BD51F835
:103FE000243040F82430FFF7C5FF0134EDE700BF6F
:103FF00000E00140034B187810B901221A70704795
:1040000085207047F80600202DE9F84F124D134F18
:1040100080464FF0000A04264FF001095FFA8AFB40
:10402000002009FA0BF400F083FB2C4208D03B6817
:1040300014EA030201BF23433B6088F800B0164630
:10404000002000F077FB1EB1A5430AF1010AE5D17B
:104050003046BDE8F88F00BFFFFF0F00F4060020D8
:1040600010B5A1B19AB101238340C3F3130484B105
:104070000A4C246823420ED0C00000F1804000F5B5
:10408000F830C0F81015C0F81425002010BD0E201F
:1040900010BD072010BD082010BD00BFF406002091
:1040A000012303FA00F0C0F313031BB1054B1B6897
:1040B000184204D0044BC3F80405002070470820C0
:1040C000704700BFF406002000F00140012303FA0E
:1040D00000F0C0F313031BB1054B1B68184204D05A
:1040E000044BC3F80805002070470820704700BF44
:1040F000F406002000F001400E4A537910B503F099
:10410000FF01A3B90C4B1960116821B1012454714E
:104110000A4AC2F8044300F1804000F5243001222D
:10412000026011B91A68002AFCD0002010BD1120CD
:1041300010BD00BFFC06002000910240009002402C
:10414000F8B53A4D2E79002E6BD190F800C0BCF135
:10415000FF0F68D090F801E0BEF1FF0F63D08778C1
:10416000FF2F60D0C478FF2C5DD0314BC3F824C53D
:10417000C3F828E5C3F83075C3F83445047990F8DE
:1041800007C090F806E0FF2C08BF4FF0FF34C3F8DB
:1041900038454479FF2C08BF4FF0FF34C3F83C4545
:1041A000447A002C047A4FEA841444EACC0414BF05
:1041B0008027002744EA0E043C43C3F84445D3F863
:1041C0000046877A90F80CE024F07F4424F0FF0446
:1041D0003C43C77A44EA4E6490F80DE0002F14BFC8
:1041E0004FF08077002744EA0E743C43C3F8004642
:1041F000AA6001226E7129601C46C3F8082319B118
:10420000817B2920FFF788FB0A4B012200212A71BC
:10421000C4F80025196022601A68002AFCD000202A
:10422000F8BD0820F8BD0720F8BD00BFFC0600203F
:104230000090024000910240414B5B7970B503F061
:10424000FF04002B79D13F4D2C60447811B3A31E9D
:10425000072B1FD8DFE803F0555351114F4D4B0486
:10426000CB791B068E7943EA06434E7943EA06234F
:104270000E793343344EC6F83C36CB781B068E7825
:1042800043EA06434E7843EA062309780B432E4956
:10429000C1F838362C4986780123C1F80833230247
:1042A00043EA063306783343C67843EA4633067951
:1042B00043EA8633467943EAC6338679C07943EACE
:1042C000064343EA4043C1F834362B68002BFCD048
:1042D00000232B600123C1F8043362B3D1F83C36CC
:1042E000A11F032916D8DFE801F01412100E0023D5
:1042F000B8E70023B9E70023BAE70023BFE70023AC
:10430000C0E70023C1E7190ED171190C9171190A88
:10431000517113710C4B023CD3F83836032C0AD878
:10432000DFE804F008060402190ED170190C917030
:10433000190A51701370002070BD112070BD00BFAC
:10434000FC06002000910240009002400B4A01232D
:10435000C2F808330023C2F80035094A4FF400714F
:10436000C2F88410BFF34F8FBFF36F8F02F1C042CA
:1043700002F5D8321360034A13717047009002406F
:1043800000E100E0FC06002000F06043B3F1005FB4
:1043900009D1064BC3F81025C3F81405C3F8181546
:1043A0000820FFF7A9BE1020704700BF0090024010
:1043B00000F06043B3F1005F09D1064BC3F8042558
:1043C000C3F80805C3F80C150420FFF795BE1020AC
:1043D000704700BF00900240104B1A6813B5D2B16D
:1043E0000F4CD4F80823D20715D500221A601B6899
:1043F000019302A9019BD4F8083501F8053D09484D
:1044000000F034F9074800F025F920B1064A0123ED
:10441000C4F80833136002B010BD00BF00D10040E3
:1044200000D00040247B000004D0004000F5802331
:10443000F7B514330025124E1B0329460127AE465B
:104440000528EAB202D8345C944206D8421E0D4BCD
:1044500053F82230984703B0F0BD940004F58074FF
:1044600053F804C0BCF1000F08D043F804E007FA89
:1044700002F211431A590192019A89B20135DFE71C
:10448000387B0000380700200420FFF7CFBF05204D
:10449000FFF7CCBF10B561B1B2FBF3F403FB1424FA
:1044A000A4B244B980E8120084608281C3812046AE
:1044B00010BD0E2010BD092010BD82B050E8022FA3
:1044C000C188B2EB324F4FF0000317BF92B241EAFE
:1044D000014142EA014104E04268B2EB324F08BFB9
:1044E000012340E80212002AE8D18DF807309DF838
:1044F0000730002B0CBF1120002002B0704737B5E9
:1045000050E8013F9DB2C48925448489A54228BF53
:104510002D1B0489A54202BFBFF32F8F002207E0A5
:10452000C5EA030540E80154002CE9D14FF001022F
:104530008DF803200193019B9DF803200B6002F08E
:10454000FF0322B10B880068184403B030BD184641
:10455000FBE70A884B889A4209D150E8012FC2EA4A
:10456000024240E80123002BF7D1012070470020D0
:1045700070470B4620B11BB1036011461B681847FA
:104580000E2070472DE9F043DDF81C809646F0B10F
:10459000EAB1D0F800C0BCF1000F1BD0EBB1476806
:1045A000D7F80490B3FBF9F709FB1737AFB942EA24
:1045B000010E1EF0030F07D1C768B94204D34C1E89
:1045C00005691C44AC420BD91020BDE8F0830E20D5
:1045D000BDE8F0830820BDE8F0830920BDE8F08342
:1045E000CDF81C80DCF80C40A446BDE8F0436047E1
:1045F000F0B5B8B1D0F800E0BEF1000F14D0AAB108
:104600004768D7F800C00CF1FF370F4208D1C768E0
:10461000B94205D34C1E05690CFB0244AC4207D9D4
:104620001020F0BD0E20F0BD0820F0BD0920F0BD27
:10463000DEF81040A446BDE8F04060470268136809
:104640005268934291BFD01A80680130801888BFA9
:10465000C01A7047036881681A685B688B4234BF70
:1046600001330023D31A584258417047F8B5044625
:1046700000200D4600F05CF82046FFF7EBFF10B17C
:10468000237C002B3CD12268A66853685168B14254
:1046900034BF01310021516030B11168A0688142FE
:1046A00034BF013100211160E2686068511E0729A2
:1046B00020D8DFE801F004101F141F1F1F182A78EC
:1046C000C2542046FFF7BAFF23689A68904200D987
:1046D0009860002415E02A8820F81320F1E72A6862
:1046E00040F82320EDE7D5E9006700EBC300C0E9FF
:1046F0000067E6E7294602FB030001F078FEE0E7E9
:104700000424002000F016F82046F8BD72B6024AD4
:1047100013680133136070474C070020034A136885
:10472000013B136003B962B6704700BF4C0700201D
:10473000FFF7ECBFFFF7F2BF104B10B5024604467F
:10474000D3E9000101F03AFF002100F0010050EA36
:10475000010312D00A4B1A5D910706D5D20604D484
:104760002046BDE81040FFF7D9B91B5DDB0604D534
:104770002046BDE81040FFF7FFBA10BD40080020FA
:10478000100800201F288BBF00F01F030346174AA4
:104790004FF0A04203F5E07370B552F82330C3F335
:1047A0000143032B124B02460446D3E900010CBF20
:1047B0000125022501F002FF002100F0010050EA6E
:1047C000010311D00B4B012D1B5D02D15A0602D4FF
:1047D00070BD9B0608D5084B084A1B6852F8240098
:1047E0002946BDE87040184770BD00BF0003005067
:1047F0004808002010080020500800205007002022
:1048000073B5434D434E2B5C13F0010F044601D1A9
:10481000DB0670D52B5D980704D5C3F30013DAB21D
:10482000002A4ED003238DF804302B5DC3F381039F
:10483000D9B2002201298DF807208DF8062001D079
:1048400003292BD18DF805302B5DD90629D5324AA5
:1048500001A92046FFF7BAF9304B2246D3E90001FF
:1048600001F0ACFE002100F0010050EA010308D085
:104870002B5D5A0601D49B0603D501212046FFF784
:1048800011FA22460120002101F0A4FED6E90023FE
:1048900010431943C6E9000102B070BD8DF8052030
:1048A000D2E71F2C23469DF8052086BF1C4904F043
:1048B0001F034FF0A04103F5E073920041F823205D
:1048C000DFE71F2C8DF8063088BF154BADF80420AC
:1048D00094BF4FF0A04304F01F02D3F8043598BFF3
:1048E0002246D34003F0010301A920468DF805308C
:1048F000FFF7AAF8C5E702460021012001F06AFE91
:10490000D6E9002322EA000023EA0101C2E700BF42
:1049100010080020400800208547000048080020BB
:104920000003005010B50170013104460CD0074956
:104930000620FEF725F9FFF751F8054994F9002004
:104940008B5C43F001038B5410BD00BFCD3D0000D4
:104950001008002038B5044600780D46FFF7ECFE3D
:1049600094F90000044B1A5C65F383021A54C0B238
:10497000BDE83840FFF744BF1008002038B50446B2
:1049800000780D46FFF7D8FE94F90000044B1A5C3E
:1049900065F341021A54C0B2BDE83840FFF730BF9A
:1049A00010080020014BD3F80405704700100140A7
:1049B00010B5074C22780AB1FFF7C8FC0022114657
:1049C0000448FFF7BDFB08B90123237010BD00BFE9
:1049D000540800205608002008B50B7813B16FF07A
:1049E000010008BD0B79BBB94B7F5BB9487822B198
:1049F0000228F4D1254AD3711AE00B28EFD1234BBA
:104A00009A7115E0022B25D148780AB13228F0E7D7
:104A10006B28E4D10322F2E7022B26D14B7F022B35
:104A2000DDD14B7892B1382BD9D1184B0322DA71F2
:104A30004B79022B25D10022144B1A72FFF7B8FFD5
:104A400018B10728CBD04FF0FF3008BDEB2BC6D1F3
:104A50000422D4E7012BC2D148780AB1A228C8E7C2
:104A60003B28BCD1094A9371E2E7012BB7D14B7FB8
:104A7000012BB4D1002AB2D14B78BB2BAFD102228B
:104A8000BDE7032BABD10122D6E700BF56080020BB
:104A900070B51C461B689B070E4615460DD10122BA
:104AA000FFF79AFF58B9B26821682846FFF76CFCF7
:104AB000003018BF0120404270BD6FF0010070BD92
:104AC0007FB500260096019603964E788DF8086013
:104AD0000126099D8DF80A608DF80B600E7B089CFD
:104AE000581916BB08BB4B79022B15D104238DF83E
:104AF00009309DF809300831013B0B440DF1FF32BC
:104B00008B420DD16A46694602A8FFF795FB70B942
:104B1000A8421BD100200CE0032B1CD10523E6E7A3
:104B200013F8010D02F8010FEAE7082803D94FF046
:104B3000FF3004B070BD01308DF8090000219942AA
:104B4000E0D0505C0DF801000131F8E71DF80030AD
:104B500023540130DCE76FF00100EAE7334B984261
:104B600047DD03F51C3303F58073984243DD304B7A
:104B7000984242DD03F5433303F5A07398423EDDCE
:104B80002C4B98423DDD03F5922303F57873984250
:104B900039DD03F5AA2303F5E663984235DD264B9C
:104BA000984234DD03F50B2303F52473984230DD7E
:104BB00003F5392303F50C6398422CDD1F4B984213
:104BC0002BDD03F5C31303F52063984227DD03F5BE
:104BD0001E1303F53153984223DD194B984222DD11
:104BE00003F5740303F510539842CCBF0020012055
:104BF00070470F2070470E2070470D2070470C2023
:104C000070470B2070470A20704709207047082022
:104C10007047072070470620704705207047042022
:104C20007047032070470220704700BF4F8020006C
:104C30005F8925001F402C00FF083D00FFA7610091
:104C4000FF23F40038B50798144CA04202D96FF046
:104C5000010038BD124C9DF9145023719DF910309C
:104C6000257063719DF9185065700723A373A170B7
:104C7000E270FFF773FF0523A3720023E3729DF830
:104C800020306073003318BF01232373FFF790FEB9
:104C900018B10728DBD04FF0FF3038BD0048E801DD
:104CA0005608002008B50846FFF758FF054B587313
:104CB000FFF77EFE28B107280CBF6FF001004FF010
:104CC000FF3008BD560800202DE9F04F4A4E3578D8
:104CD00087B00F4691469A46002D6DD14B788DF8DE
:104CE0000830012303958DF80A308DF80B308DF8CC
:104CF0000E30DFF80CB1DFF8048109238DF809309C
:104D000004AC08220021204601F07CFB0F2D08BFD7
:104D100001232246214602A808BF8DF80F30FFF775
:104D20008BFA002862D1DBF800200423D118E05C64
:104D300041440133082B01F8040CF7D10135083246
:104D4000102DCBF80020DBD1002301AA01938DF8B0
:104D50000F301146052302A88DF80930FFF76CFAD1
:104D6000002843D10923DFF89CB08DF809300546AF
:104D700008220021204601F045FB0F2D08BF01232A
:104D80002246214602A808BF8DF80F30FFF754FADB
:104D900060BBDBF800200423D118E05C4144013300
:104DA000082B01F8040CF7D101350832102DCBF88F
:104DB0000020DDD1012333703378BBB10F4BDA799A
:104DC000FF2A13D1DA7A187B00EB8200802810DCEE
:104DD000B968DAF800208C18A0420AD31944484672
:104DE00001F005FB002007B0BDE8F08F4FF0FF3069
:104DF000F9E76FF00100F6E7550800206C08002085
:104E0000680800201C0200202DE9F0411C6814F005
:104E100003040E4617461D4617D191F801E0BEF176
:104E20005A0F03D1BDE8F041FFF74EBF2246FFF70E
:104E3000D3FD60B9B26829683846FFF7B9FA003087
:104E400018BF01204042BDE8F0816FF00100BDE8CD
:104E5000F081000000487047407B000073B51F4E92
:104E60001F4A31781F4C51B100231360136800931F
:104E7000009B4FF48033C4F8083302B070BD1A4B66
:104E800001251D604FF48033C4F80833D4F804358D
:104E900023F00303C4F80435D4F8103523F00F03CE
:104EA00043F00403C4F81035D4F8083543F0030385
:104EB000C4F80835C4F840151160136801930B4914
:104EC000019B0920FDF75CFE02210920FEF724FD6D
:104ED000074B25601D603570CFE700BFEC08002050
:104EE00040910040009000400490004039270000AD
:104EF00044900040024B01221A60D3F8000570472D
:104F00004490004013B50446FDF7D0FC0A4AC2F8AD
:104F10004045D2F8043313F4803308D107490B60BD
:104F20000B680193019B4FF48033C2F80433FDF703
:104F3000C7FC02B010BD00BF00900040409100408F
:104F4000024B4FF40072C3F80021704700E100E00B
:104F5000024B4FF48032C3F80823704700900040A2
:104F6000044B00221A6082B01B680193019B02B0BF
:104F7000704700BF40910040094B01221A604FF476
:104F80008032C3F80423074B4FF40072C3F880202B
:104F9000BFF34F8FBFF36F8F034B00221A70704720
:104FA0000490004000E100E0EC08002010B50A4C3D
:104FB00001444FF0FF33884201D1D84310BD10F8AF
:104FC000012B5340082213F0010F4FEA530318BF7F
:104FD0006340013AF7D1EEE72083B8ED48B143785A
:104FE000027843EA02228378C07843EA022340EA47
:104FF0000320704730B5002837D004780023220200
:10500000002544781D4314432B0243EA1463220213
:10501000002584781D4314432B0243EA14632202C3
:105020000025C4781D4314432B0243EA1463220273
:10503000002504791D4314432B0243EA1463220222
:10504000002544791D4314432B0243EA14632202D2
:1050500000258479C0791D4314432B0243EA14636D
:10506000220200211043194330BD0020002130BD31
:1050700030B10B0AC17083700B0C090E43700170C4
:10508000704768B1110AC2718171110C120E027160
:105090001A0AC37082701A0C1B0E417142700370A1
:1050A000704770B54B6845689D420FD100231A4682
:1050B000AB4203D150421043C00F70BD84688E686C
:1050C000E45CF65C744022430133F1E7012070BDDB
:1050D00073B5054606200E461446FCF7F1FB10B9E1
:1050E000084802B070BDA3680193736800936A68B2
:1050F000B368A968FCF7D8FC40B20028F0D120239F
:105100006360EEE70100435530B501681F2985B0A3
:10511000044606D80E4D2268A068002101F072F9FD
:1051200013E0806800F0E4FE0028F3D1094A07CAC2
:1051300001AB83E807001022626019462246204630
:10514000FFF7C6FF05460028E5D1284605B030BD6B
:1051500001004355487B000070B50C46054608B970
:10516000022070BD0029FBD06C21FFF71FFF06460F
:1051700005F16C00FFF732FF8642F1D105F108001E
:10518000FFF738FFC4E9000105F11000FFF732FF17
:105190002022C4E9020105F1180104F1100001F018
:1051A00026F9102205F1580104F1300001F01FF931
:1051B000002070BD38B50C46054600283AD00029BD
:1051C00038D00B686F2B35D970220021A06801F010
:1051D00019F9A0681849FFF74BFFA06802210430B5
:1051E000FFF746FFA068D5E900230830FFF749FF25
:1051F000A068D5E902231030FFF743FFA06805F14E
:1052000010012022183001F0F2F8A068102205F1F8
:105210003001583001F0EBF86C21A068FFF7C6FEB2
:10522000A368014603F16C00FFF722FF702363605F
:10523000002038BD022038BDD4B3515AF0B50F4616
:105240009BB0064618B311B30AAC202500212A46AC
:10525000204601F0D7F8002301A80195029303949A
:10526000FFF752FF01B291B912ACE8232A4620465B
:1052700004930593069601F0C5F807AA04A901A8AE
:10528000079508950994FFF723FF00B208B10220A3
:1052900027E006F1E80307A904A8049505950693FD
:1052A000FFF7FFFE04460028F1D106F10800FFF7E2
:1052B000A1FEC7E9000106F11000FFF79BFE2A4698
:1052C000C7E9020106F1180107F1100001F08FF89B
:1052D000102206F1A00107F1300001F088F83C64CB
:1052E00020461BB0F0BD000038B51468002C1546F0
:1052F0000ADB6FF00042944206D08C4201D220B10A
:1053000003552B6801332B6038BD19460148FEF761
:1053100025FAF6E7F00800202DE9F04387B0DDE933
:105320000E6756EA070305468846914605D13023A5
:1053300007B0BDE8F043FFF7D7BF18220021684649
:1053400001F060F80024304639460A22002301F0BB
:105350004DF930320DF804200023304639460A2238
:1053600001F044F906460F4656EA070304F101042A
:10537000E9D1013C4A461DF8043041462846FFF772
:10538000B3FF002CF5D107B0BDE8F0832DE9FF474E
:1053900006460F46904607254FF00009EA00DDE972
:1053A0000C0101F00BF9C0B2B9F1000F01D100B945
:1053B0003DBB174B020900F00F04EC4603F1100A45
:1053C00018685968E646AEE8030008335345F446CA
:1053D000F6D1B9F1000F00D142B104AB1A443946FD
:1053E00012F8103C30464246FFF77EFF04AB1C44E7
:1053F000424614F8103C39463046FFF775FF4FF02F
:10540000010915F1FF35C9D204B0BDE8F08700BF2E
:10541000757B0000FFF768BF2DE9F04F1C469F4BDE
:1054200093461A7887B006460D465AB100221A7084
:1054300006219B480822FEF765F84FF4E1319848B1
:10544000FEF71EF900230593BBF1000F00F0BD80AD
:105450009D42C0F2BA800CBF012305F1FF350393D2
:105460004FF000081BF80830002B00F0AD80252B12
:1054700040F0B18008F101071BF80730791C4BB1EF
:10548000A3F12302D2B2162A04D8864820FA02F2E7
:10549000D2070CD41BF80120002A00F0B680682B3C
:1054A00007D1682A00F0AC8002230F46BDE00F460A
:1054B000E2E76C2B40F0EE806C2A00F0A48003231E
:1054C000F3E7012B04F1040A226805D0022B06D071
:1054D00090464FEAE879BBE04FFA82F8F9E70FFA15
:1054E00082F8F6E7B9F1750F03D009F0DF02582A08
:1054F00024D1042B12D1073424F00704D4E900236B
:1055000004F1080AB9F1750FCDE90023294605AA6F
:10551000304600F0B180FFF739FFAFE0022B04F115
:10552000040A226806D0072B06D0012B08BFD2B28E
:105530000023E7E792B2FBE7D317E3E7B9F1630F84
:1055400008D1237805AA2946304604F1040AFFF75A
:1055500061FF93E0B9F1730F0ED104F1040A2468DE
:10556000013C14F8013F002B00F0888005AA294671
:105570003046FFF7B9FEF4E7B9F1700F1FD13023C1
:1055800005AA2946304604F1040A2468FFF7ACFE58
:10559000782305AA29463046FFF7A6FE2246E317E0
:1055A000CDE90023294605AA3046B4E71BF80830A8
:1055B00005AA29463046FFF72DFF08F10108B84536
:1055C000F4D3B9F1000F04D16EB9059807B0BDE866
:1055D000F08F1BF8083005AA29463046FFF71AFF5E
:1055E000A24647464AE0039B002BEED1059B9D4215
:1055F0002BBF9DF80C209DF80C30F2547355E4E756
:105600000123023711E00423FBE773B1682B3FF459
:105610004BAF6C2B3FF453AF6A2B33D07A2B33D084
:10562000742B33D04C2B33D000231BF80790B9F1E7
:10563000640F03D0B9F1690F7FF454AF042B7FF4EA
:1056400040AF073424F00704D4E9008904F1080AC4
:10565000B8F1000F79F1000309DA2D2305AA2946D4
:105660003046FFF741FED8F1000869EB4909CDE962
:10567000008905AA29463046FFF74EFE07F10108CA
:105680005446EFE6052310E706230EE707230CE751
:1056900008230AE7002BC8D0BEE700BF2002002085
:1056A000F008002001ED7F000FB407B504AB6FF0E8
:1056B000004153F8042B01930020FFF7ADFE03B027
:1056C0005DF804EB04B07047014B18600020704790
:1056D0005C09002008B5044B1B6813B11B68984790
:1056E00008BD022008BD00BF5C090020044B1B68F8
:1056F00010B51BB112B19B69984710BD022010BDB7
:105700005C09002008B5044B1B681BB110B11B6A73
:10571000984708BD022008BD5C09002008B5044B6D
:105720001B681BB111B15B6A984708BD022008BD18
:105730005C09002038B5054678B100F007F9044649
:1057400024B2284600F032F82CB900B2002814BF69
:105750000420002038BD042038BD022038BD0000E0
:10576000024B1B6803B11847704700BF6009002057
:1057700010B5A0B999B192B10A4B0B4C1B68B4FBA0
:10578000F3F404FB03340C604FF40011B1FBF3F1AC
:105790005943091BB1FBF3F14B43136010BD0220C9
:1057A00010BD00BF6C090020FFFF0F0070B505465B
:1057B00008B9022070BD00F08DF8044600F092F8A0
:1057C0000B4E306000F098F80A4B1860336840F2D6
:1057D0002712B2FBF3F202FB0333074A1360002CDB
:1057E000E7D1064B20461D60FFF7BAFF204670BD8B
:1057F000680900206C09002064090020600900206D
:105800007FB50E46144652B3936843B304AA4FF0D3
:10581000FF3342F8043D02A90293FFF7A9FF636832
:10582000054633B10F4A1268013BB3FBF2F303FBA9
:10583000022322689A420FD30B4A1168029A0093FE
:105840000A44A0683244002300F060F8044618B906
:105850000420FFF785FF2546284604B070BD0225C9
:10586000FAE700BF68090020640900202DE9F04133
:1058700084B0022402AF0E4629B307F108024FF0AC
:10588000FF3342F8043D39463B60FFF771FF104B90
:105890003A681968CB1D23F00703E846ADEB030D0A
:1058A00002AD044600910023284600F02FF848B9C5
:1058B00031462846FFF7C2FC03B2044613B907205D
:1058C000FFF74EFFC54620460837BD46BDE8F081CC
:1058D00064090020024B186803689B68184700BFE2
:1058E0007009002008B5034B186803689B6A984745
:1058F00008BD00BF7009002008B5034B1868036895
:10590000DB6A984708BD00BF7009002037B506491B
:10591000069D0C6821680095002501954D6901469A
:105920002046A84703B030BD7009002008B5FCF739
:10593000C1FC014B186008BD70090020024B1B68B8
:1059400003B11847704700BF7409002038B50546F9
:1059500000F05AF8044628B9034B1D60FFF7EEFF2C
:10596000204638BD0224FBE774090020F0B5054647
:105970009FB018B9022420461FB0F0BD00230822B2
:105980004FF4304168460093019300F047F8042437
:105990000646D8B96846FFF721FB07460DEB040021
:1059A000FFF71CFB022811D10F4B70229F4208BF4A
:1059B0000024314602A800F025FD3CB970224FF4C6
:1059C000304102A800F02AF838B1042423B2002B99
:1059D000D1D10620FFF7B2FFCDE7294602A8FFF795
:1059E000BBFB0446F2E700BFD4B3515A38B5036895
:1059F000044633B910F1080502D02846FBF7C4FC71
:105A00002560206838BD000008B50348FFF7EEFFA9
:105A1000FBF7C6FC002008BD7809002070B50D46D4
:105A2000164604460448FFF7E1FF33462A4621465E
:105A3000BDE87040FBF7E6BC7809002008B50348D4
:105A4000FBF7AEFCB0FA80F0400908BD88090020E1
:105A50000148FBF7BFBC00BF8809002010B580B12A
:105A6000094C4FF0FF332360FFF74CFE00B240B902
:105A70002068421C01D130BFFDE7831F58425841C6
:105A800010BD002010BD00BF240200202DE9F0430E
:105A90000446A5B018B9012025B0BDE8F083FFF792
:105AA000DDFF0028F7D0D4E90223134346D009A82C
:105AB000FCF758F8002109A8FCF7B2F820220021D1
:105AC00001A800F09FFC1E4FA568DFF878904FF00A
:105AD0000008EDB1B8F1000F1AD1A268B5F5804FFA
